:020000040800F2
:10000000005000200D0100089F0D0008A10D000800
:10001000A30D0008A50D0008A70D000800000000B2
:10002000000000000000000000000000A90D000812
:10003000AB0D000800000000AD0D0008AF0D00087A
:100040005901000859010008590100085901000828
:100050005901000859010008BD0D000859010008A8
:100060005901000859010008590100085901000808
:1000700059010008B30D000859010008B70D000828
:1000800059010008590100085901000859010008E8
:1000900059010008590100085901000859010008D8
:1000A00059010008450E00085901000859010008CF
:1000B00059010008590100085901000859010008B8
:1000C00059010008590100085901000859010008A8
:1000D0005901000859010008590100085901000898
:1000E000010E000859010008590100080000000035
:1000F0000000000000000000000000000000000000
:0C01000000000000000000005FF808F1A3
:10010C00002100F004B80C4B5B58435004310B48F1
:10011C000B4B42189A42FFF4F6AF0A4A00F003B8B0
:10012C00002342F8043B084B9A42FFF4F9AF00F06D
:10013C00A1FE00F023FE7047485300080000002089
:10014C0070000020700000200C0A0020FFF7FEBF9A
:10015C0008B5064B00221860054906489A601961DB
:10016C00DA80DA609A80036A984708BD8400002020
:10017C0098040020B809002008B5044B1A690AB18C
:10018C000020186102494B6A984708BD8400002082
:10019C00B809002062B6704708B572B606484FF42D
:1001AC00805101F091F8054B022218699A60196888
:1001BC000530884708BD00BF000C014084000020BA
:1001CC0070B50646002014460D4600F0FDFB012ECE
:1001DC00A4B207D130462946224600F07DFB002010
:1001EC00124907E0124B01201969224600F074FBFA
:1001FC0000202946224600F06FFB0E480221012206
:10020C0000F097FF012000F0DFFB0A4800F099FF97
:10021C000028FAD1084800F094FF0028FAD10748CA
:10022C00802101F0CDF80028F9D170BD000000202C
:10023C008400002058000240440002400038004076
:10024C0003460A4601201946FFF7BABF70B50646A9
:10025C00002014460D4600F0B7FB012EA4B207D1C6
:10026C0030462946224600F037FB0020104907E0B3
:10027C00104B01201969224600F02EFB0020294664
:10028C00224600F029FB012000F09EFB0A4800F0FA
:10029C0058FF0028FAD1094800F053FF0028FAD182
:1002AC000748802101F08CF80028F9D170BD00BFFF
:1002BC00000000208400002058000240440002404E
:1002CC000038004003460A4600201946FFF7BEBF1F
:1002DC0070B50E4D04460E4628464FF4805100F082
:1002EC00F5FF002021460422FFF7B0FF0020211D5E
:1002FC00321FFFF7ABFF064B022228464FF480510A
:10030C009A6000F0E1FF002070BD00BF000C0140BE
:10031C008400002070B501F00106044686F001004F
:10032C000D18012300262370C5F307221D4BE67020
:10033C0026716270A57005319D68081886B215B9D2
:10034C009A68012AFCD19968164D012907D12046DB
:10035C003146FFF7BDFFAA68022AFCD11FE0A8684E
:10036C000228FCD11048802101F02AF80028F9D18C
:10037C000E4BDD69A8470028FAD00A4D03220C4821
:10038C004FF48051AA60EC60AE8000F09FFF0749EB
:10039C00C86980470028FAD0AB68022BFCD100203A
:1003AC0070BD00BF8400002000380040B809002058
:1003BC00000C014070B5184E35696B79022B08D0D2
:1003CC00042B25D1287A441E14F0010F18BF0446C3
:1003DC0014E0681D032101F089F8B0F5806F044624
:1003EC0008DB05F10A004FF480610724FFF728FFB2
:1003FC00B4600EE0C30701D4441C00E024B105F145
:10040C000A00A1B2FFF71CFF034908228A6000E032
:10041C000024204670BD00BF84000020024B012048
:10042C0019690A22FFF7CCBE8400002008B5FFF73B
:10043C00C1FF18B9BDE80840FFF7AEBE08BD00000B
:10044C0070B5384C4FF40030266900F07DFE05463F
:10045C004FF4005000F078FEA368062B0BD1002D52
:10046C005ED000285CD04FF4083000F07BFEBDE875
:10047C007040FFF7DBBFA16807291BD100284FD0C4
:10048C004FF4083000F06EFE0321701D01F02EF8C1
:10049C00A0F58064A1B2234CCA0758BFA0F2FF316B
:1004AC00206958BF89B200F20A40FFF7C9FE082341
:1004BC00A36070BDA268082A09D1002830D04FF47F
:1004CC00083000F04FFEBDE87040FFF765BEA06835
:1004DC00052814D1002D23D01348802100F070FF83
:1004EC000028F9D14FF4083000F03CFE4FF4805155
:1004FC000E4800F0E9FE0B4A0221916070BDA36822
:10050C00042B0DD165B1A088E2680521A0F58063AC
:10051C00A16002F5806099B2BDE87040FFF7D2BED1
:10052C0070BD00BF8400002000380040000C01406A
:10053C0008B5184BD869804700282AD1164B9A6801
:10054C0012B90120986008BD996802290AD10622C7
:10055C0012484FF480519A6000F0B8FEBDE8084094
:10056C00FFF75CBF9A68032A13D19A88B2F5806FA3
:10057C0006D805219960D968BDE80840FFF720BE70
:10058C0004209860D8684FF48061BDE80840FFF7FC
:10059C0099BE08BDB809002084000020000C014061
:1005AC004FF4A06000F0E4BC37B50C4D04460121BB
:1005BC0055F8200000F0B8FE05EB4405084A102061
:1005CC0003212B898DF807008DF8061052F82400B2
:1005DC0001A9ADF8043000F021FE3EBDDC2100087D
:1005EC0008000020044B054A53F8201002EB400091
:1005FC0003890B61704700BF08000020DC21000854
:10060C00044B054A53F8201002EB400003894B6160
:10061C00704700BF08000020DC210008054B06498C
:10062C0053F8203001EB4000DA6801894A40DA6067
:10063C00704700BF08000020DC21000873B50E4C89
:10064C000E4604EB4004217C0546207B00F040FE66
:10065C00A48A204600F0CCFD084800234519297ACD
:10066C00684600948DF804308DF805108DF80660FE
:10067C0000F082FD7CBD00BFDC21000808000020DA
:10068C002DE9F041354F8600BB190546986986B0B7
:10069C000C4640F00100012100F046FE304B07EB08
:1006AC0045075A19917A388C8DF807109E1906A9AE
:1006BC0021F8140DF06800F0B1FD012C4BD1294E3E
:1006CC004FF40060214600F02FFE326842F21073A6
:1006DC00B2FBF3F1481E86B203A800F0C1FE002362
:1006EC006322214803A9ADF81230ADF80E30ADF8F5
:1006FC001020ADF80C601E4600F068FE1A48082168
:10070C0000F0CCFE1848214600F0DEFE22461648CA
:10071C00214600F0BAFE4FF00208192102A88DF80C
:10072C0008108DF809808DF80A608DF80B4000F0E8
:10073C0029FCB88C8DF809808DF8080002A88DF87A
:10074C000A408DF80B4000F01DFC084A2846214653
:10075C005655FFF773FF06B0BDE8F081DC210008A9
:10076C000800002058000020002C014070000020E0
:10077C0008B501214FF0C05000F0E2FD012000F05F
:10078C00C1FDFFF70DFF0020FFF70EFF0020FFF764
:10079C0037FF0120FFF708FF0120FFF731FF002092
:1007AC000121FFF76DFF154B4FF47A701A68144B4B
:1007BC00B2FBF0F14A1E1349F0205A6081F8230075
:1007CC00002207209A601860CB68C3F30220011D39
:1007DC000629C0F1070388BFC21E042B28BF0423BF
:1007EC00012000FA03F14B1E03F0030000FA02F2A1
:1007FC00044B1101C8B283F8230008BD5800002037
:10080C0010E000E000ED00E0044A054B02EB800133
:10081C0003EB4002C868118C00F050BD08000020AA
:10082C00DC210008034B187810B100221A7001204B
:10083C00704700BF7000002030B5082087B0012140
:10084C0000F072FD224C01214FF4804000F078FD45
:10085C0018204FF4005301258DF8030069462046FB
:10086C00ADF800308DF8025000F0D8FC4FF4004188
:10087C00ADF800102046694600F0D0FC04234FF47C
:10088C00804220466946ADF800208DF8033000F018
:10089C00C5FC0020ADF804004FF48271ADF80800DF
:1008AC00ADF80A00ADF812000720ADF806104FF4B1
:1008BC0000722023ADF8140001A90648ADF80C50C5
:1008CC00ADF80E20ADF8103000F046FD07B030BD8D
:1008DC00000C01400038004070B5044601208CB07B
:1008EC000E460146154600F013FD124B00208022E7
:1008FC004FF44051012C01930296059006920790FB
:10090C00089009900A910B9006D103900A4804951F
:10091C0000F06CFB084807E04CB910230748039320
:10092C00049500F063FB054801A900F0D7FB0CB05F
:10093C0070BD00BF0C38004044000240580002401B
:10094C0073B50F230124002501A88DF804308DF810
:10095C0005508DF80650174E8DF8074000F012FB2D
:10096C00FFF76AFF20462A461349FFF7B5FF2846D2
:10097C002A461249124DFFF7AFFF3046022122469C
:10098C0000F0D7FB28462146224600F010FD2246F7
:10099C002846022100F00BFD2846214600F0FBFC06
:1009AC002146084800F0BAFB3046214600F0B6FB61
:1009BC007CBD00BF58000240980400209800002025
:1009CC00003800404400024010B50446214604485B
:1009DC0000F0A4FB03482146BDE8104000F09EBB8C
:1009EC00440002405800024008B54FF40061024830
:1009FC0000F064FC08BD00BF000C014030B50920BC
:100A0C0085B0012100F090FC4FF400644823694646
:100A1C0014488DF80330ADF8004000F0FFFB0B21BB
:100A2C00012000F055FC204600F0E2FB0C20029463
:100A3C00002501248DF80D0002A88DF80C508DF8BE
:100A4C000E4000F099FB282101A88DF804108DF8B8
:100A5C0005508DF806408DF8074000F093FA05B06C
:100A6C0030BD00BF000C01401FB52823002401A895
:100A7C008DF804308DF8074000F084FA4FF40060D4
:100A8C00029002A88DF80E4000F076FB1FBD00000E
:100A9C0020B105484FF4807100F016BC02484FF4A9
:100AAC00807100F013BC00BF000C014037B5114C35
:100ABC000820012100F038FC102003234FF480554E
:100ACC008DF8070001A920468DF80630ADF80450CA
:100ADC0000F0A4FB2046294600F0F6FB4FF4807191
:100AEC00ADF80410204601A900F098FB0020FFF798
:100AFC00CFFF3EBD000C0140704700230360184639
:100B0C0070470023036018467047002303601846A3
:100B1C0070470000024B18601A68002AFCD170471D
:100B2C00740000200E4B10B51A6812B11868411EE3
:100B3C0019605A680A4C12B16068411E61609B686A
:100B4C00074C13B1A168481E08E0064A107830B96A
:100B5C00FFF764FD0120FFF761FDC820A06010BD08
:100B6C00740000201C0000201FB504460020FFF775
:100B7C0047FD0120FFF744FDFFF798FFFFF7E0FE6C
:100B8C000F4B10481049114A00930190104B0291E1
:100B9C0003921049104A114801F012F94FF47A707F
:100BAC00FFF7B8FF204601F01FF90D4801F0AEF930
:100BBC0048F2442001F078F9002004B010BD00BFC9
:100BCC00F5090008090A0008750A00089D0A0008C2
:100BDC00170B0008070B00080F0B0008050B00088B
:100BEC001D00002070B500228CB0174B06460D4638
:100BFC001020022101F076F801AB0022B45A200A31
:100C0C0044F00101AC5A023203F8024C240A03F8F6
:100C1C00041C03F8030C03F8014C0433182AEDD11F
:100C2C006B4630210422102001F05CF800213022A8
:100C3C00684601F037FA1020014634226B4601F069
:100C4C0051F8C0B20CB070BD4453000870B5424CA2
:100C5C00002301202370FFF787FF404801F07DF847
:100C6C002071012060713C4D3D4E697969B1327B38
:100C7C00022A0AD80B20802100223A4B01F004F8FA
:100C8C006871307B441C3473EDE7347B364B35484C
:100C9C00314E0121032C14BF05461D4671712E4C9B
:100CAC00627932B1A01D04F11E01FFF79BFF607148
:100CBC00F5E701F0E3F80120FFF756FF012363711C
:100CCC00254E707938B10B20802100222B4601F083
:100CDC0009F87071F4E796F904100125757119B1D2
:100CEC00224901250D700DE01C4C227822F00103E5
:100CFC002370194E70790028F2D0184801F024F8AE
:100D0C007071F6E7194C22783AB113490420C98E58
:100D1C00174A01F02BF82070F4E7164B01261E70D1
:100D2C00144D0D4E2C7834B10520318F124A01F040
:100D3C001DF82870F4E72046FFF716FF0125642004
:100D4C003570FFF7E7FE2046FFF74CFC2846BDE860
:100D5C007040FFF747BC00BF1C0000203209002088
:100D6C00740000209908002004220008310900209A
:100D7C0084220008980800203C41000808B5FFF7C1
:100D8C00F7FC0020FFF74EFD0028FAD0FFF75EFFBE
:100D9C00F7E77047FEE7FEE7FEE7FEE770477047B0
:100DAC007047FFF7BFBEFFF74BBBFFF749BB000017
:100DBC0008B54FF4006000F021FA28B14FF4006040
:100DCC0000F016FAFFF7B4FB4FF4806000F016FA4F
:100DDC0068B14FF4806000F00BFA00200146FFF779
:100DEC002DFC03480121BDE8084000F042BB08BDC2
:100DFC00002C014008B54FF4006000F0FFF928B159
:100E0C004FF4006000F0F4F9FFF792FB4FF48060B0
:100E1C0000F0F4F968B14FF4806000F0E9F90020BB
:100E2C000146FFF70BFC03480121BDE8084000F028
:100E3C0020BB08BD002C014008B50C48012100F076
:100E4C0038FB90B10948012100F03EFB0020FFF770
:100E5C00DBFC074B08B9012200E000220020012135
:100E6C001A70BDE80840FFF7E9BB08BD002C014033
:100E7C00700000203A4B82B01A6842F001001860F2
:100E8C005968384A0A405A60186820F0847121F475
:100E9C0080321A60186820F4802119605A684FF467
:100EAC001F0122F4FE00002258609960009201920A
:100EBC00186840F480311960294B1A6802F400302C
:100ECC00019000994A1C0092019818B90099B1F54B
:100EDC00A06FF1D11B6813F4003218BF01220192EC
:100EEC000198012805D0204B4FF000629A6002B0A7
:100EFC0070471E490B6843F010020A60086820F026
:100F0C0003030B600A68A1F5805342F002000860ED
:100F1C00596859605A685A60586840F48061596041
:100F2C005A6822F47C105860596841F4E8125A60EF
:100F3C00186840F0807119601868094A8101FBD566
:100F4C00536823F003015160506840F00203536072
:100F5C00034A516801F00C000828F9D1C3E700BF1F
:100F6C00001002400000FFF800ED00E000200240FD
:100F7C0040F0BF60024B40F40031D960704700BFB5
:100F8C0000ED00E0C37810B503B3164CE168CB4319
:100F9C00C3F302244178C4F1040201FA02F10F22D6
:100FAC0022FA04F28478037822400A43110103F1F7
:100FBC006043CAB203F5614181F800230078012235
:100FCC0000F01F03410902FA03F007E00078012248
:100FDC0000F01F03410902FA03F02031024B43F8E1
:100FEC00210010BD00ED00E000E100E002684FF6CA
:100FFC00FE73134003602D4B002198420160416049
:10100C008160C16022D02A49884229D0294B98425C
:10101C0030D02949884237D0284B98423ED0284BB3
:10102C00984206D153F8681C41F4700043F8680CE0
:10103C0070472449884206D151F87C0C40F070620C
:10104C0041F87C2C7047204B984206D153F8042C65
:10105C0042F00F0143F8041C70471C49884206D12A
:10106C0051F8183C43F0F00041F8180C7047184B3D
:10107C00984206D153F82C2C42F4706143F82C1C86
:10108C0070471449884206D151F8403C43F47040F3
:10109C0041F8400C7047104B984205D153F8542C32
:1010AC0042F4702143F8541C704700BF0800024002
:1010BC001C00024030000240440002405800024034
:1010CC006C00024080000240080402401C040240F4
:1010DC0030040240440402405804024070B50668D3
:1010EC008C680D6A26F4FF4222F070060A6945EA04
:1010FC0004034C6913438A692343CC6913431C438F
:10110C004B6A44EA03028B6A1A4332430260CB688F
:10111C000A68496843608260C16070BD19B101689A
:10112C0041F0010303E002684FF6FE7313400360C5
:10113C00704703680AB1194301E023EA0101016019
:10114C007047406880B27047C3004CBF034B044BE0
:10115C00196801420CBF00200120704700040240B6
:10116C0000000240C2004CBF014B024B586070475C
:10117C000004024000000240837910B5002B29D0F6
:10118C001A4B01681C68CA4314401C605C682240FE
:10119C005A60027902F1804404F5823214682143CA
:1011AC00116002689C68D1430C409C60DC684079FB
:1011BC0021401028D96006D1986810439860D968EE
:1011CC000A43DA6010BD00F1804303F582331968DD
:1011DC000A4308E00179006801F1804202F582338C
:1011EC001A6822EA00021A6010BD00BF0004014018
:1011FC00014B5861704700BF00040140064B1A6850
:10120C00596910EA010304D010420CBF00200120E0
:10121C0070471846704700BF00040140CB78F0B50A
:10122C00DA0648BF8A78098803F00F0548BF1543D2
:10123C0011F0FF0F1ED004680022012707FA02F7F5
:10124C0007EA0106BE4211D197004FF00F0C0CFAC1
:10125C0007FC05FA07F724EA0C04282B44EA0704D8
:10126C0001D1466102E0482B08BF06610132082A11
:10127C00E3D10460FF2920D94468002202F108065A
:10128C00012707FA06F707EA0106BE4211D19700BB
:10129C004FF00F0C0CFA07FC05FA07F724EA0C04C4
:1012AC00282B44EA070401D1466102E0482B08BF11
:1012BC0006610132082AE1D14460F0BD836819420D
:1012CC000CBF0020012070470161704741617047DD
:1012DC0001F0030230B592000F2404FA02F400FA74
:1012EC0002F0074B8908023153F8215025EA040417
:1012FC0043F8214053F82140044343F8214030BDCA
:10130C0000000140014B1860704700BF20000E42E6
:10131C00044B5A6909B1104301E022EA00005861FC
:10132C00704700BF00100240044B9A6909B110438A
:10133C0001E022EA00009861704700BF00100240F3
:10134C00044BDA6909B1104301E022EA0000D861CC
:10135C00704700BF001002400B8810B54C88028803
:10136C0023438C8802F441522343CC8823430C89B9
:10137C0023434C8923438C892343CC89098A2343F7
:10138C001A4393B20380828B22F400631A04130C69
:10139C008383018210BD038819B199B241F04003D7
:1013AC0003E023F040010A04130C03807047838888
:1013BC009BB20AB1194301E023EA01018180704715
:1013CC00038919420CBF002001207047224A038870
:1013DC0090429BB212D002F5006290420ED0B0F156
:1013EC00804F0BD0A2F59832904207D002F5806264
:1013FC00904203D002F58062904203D14A8823F0D8
:10140C0070031343154A904208D002F58062904253
:10141C0004D023F44073CA889BB2134303808B8897
:10142C000A8883850C4B028598420FD003F5006225
:10143C0090420BD002F54063984207D003F58062CE
:10144C00904203D002F58063984201D1097A01865B
:10145C0001228282704700BF002C01400010004026
:10146C0000214FF6FF7383800180C180418001729F
:10147C007047038819B199B241F0010303E023F0DE
:10148C0001010A04130C0380704783899BB20AB1D3
:10149C00194301E023EA010181817047038823F09D
:1014AC00080213041A0C028003889AB211430180BB
:1014BC007047038A828911EA030092B203D0114269
:1014CC000CBF002001207047C9438AB202827047CA
:1014DC0001700B0A0A0C090E43708270C170043043
:1014EC0070470170090A41700230704743185A78EE
:1014FC00405C00EB022188B2704710B543189A7813
:10150C00DC78415C120402EB04625878521802EB4E
:10151C00002010BD73B544790023022C01930FD029
:10152C00032C19D0012C2BD1164D28692E4620B135
:10153C00296901A888470246B8B9B16801201BE0A7
:10154C00104DE8682E4620B1E96801A8884702468C
:10155C0058B9B16802200FE00A4D6A692E464AB1AB
:10156C006B6901A89847024620B1A9682046BDF8CE
:10157C00043003E0B16803200022134600F021FB85
:10158C007CBD00BFB8090020072810B50CD8012974
:10159C000AD8012404FA00F401FA00F0034B1A688B
:1015AC0022EA040202431A6010BD00BF6C00002046
:1015BC00F0B5012187B00546FFF798FF00F4804392
:1015CC00044698B250B3B4F5824F27D12846052172
:1015DC00FFF78CFF0026074607353446BE4208D07D
:1015EC0028460221FFF782FF013624180435B6B2D3
:1015FC00F4E76A4B188E21188AB21A86D86B241815
:10160C00DC63D96B9A6B914240F0C28093F8400036
:10161C00002800F0BD809B69992092E024F4FF41E2
:10162C0021F07F0293B2002B00F08F8048F2100360
:10163C009C421ED00AD8B4F5004F40F2AB8048F261
:10164C000200844278D9811C8C420FE048F280025F
:10165C00944271D005D848F240039C4240F09A80E5
:10166C0047E0B4F5024F67D0B4F5084F40F09280D4
:10167C0062E00022A81841790DF802100132042A08
:10168C00F8D16B7AA87AE97A2A7B8DF804308DF838
:10169C0005008DF806108DF8072005F10D000023CC
:1016AC0006A9CA18C15C0133042B02F8101CF7D12F
:1016BC0005F11100002306AAD218C15C0133042BDA
:1016CC0002F80C1CF7D105F11500002300AAD21862
:1016DC00C15C0133042B1174F8D1304928798A6923
:1016EC008DF81400002A53D08B69204669461522C8
:1016FC0029E0053500212846FFF7FFFE0421009064
:10170C002846FFF7FAFE082101902846FFF7F5FE60
:10171C000C2102902846FFF7F0FE1021039028467A
:10172C00FFF7EBFE04901D488169002930D08369D6
:10173C0069462046142206E0184B9A6942B39B690D
:10174C00204600210A46984722E041F203008442D9
:10175C0005D00C30844202D0411E8C421AD16C1D33
:10176C0004212046FFF7C9FE393013D12D790B4ADD
:10177C0000212046D562FFF7C0FE04210546204615
:10178C00FFF7BBFE393003D128460121FFF7FCFEE1
:10179C00012000E0002007B0F0BD00BFB809002018
:1017AC0038B50A4C638898B208B9002038BD606817
:1017BC0001780429F9D1FFF7FBFE01280546F4D185
:1017CC0000226280FEF7E6FC284638BDB8090020EE
:1017DC002DE9F0470446884691460025BC4B5A88B3
:1017EC0090B20028FAD05E683178042940F07281FA
:1017FC0030460121FFF77AFE05463046FFF7D8FE4A
:10180C00002840F05C8141F20703771D9D4253D8BC
:10181C005A1E954280F0AC8040F20220854200F0C6
:10182C00A78014D80C2D09D8082D80F0A180002D8C
:10183C0000F04581062D40F29B80DDE00D2D00F07F
:10184C00948040F20127BD4240F039818DE041F295
:10185C000202954218D8B5F5805F00F28980B5F583
:10186C00017F40F2828040F207218D4240F02781B7
:10187C003379002104F8013B3846FFF73EFE014660
:10188C002046FFF725FE1AE141F20400854200F0E4
:10189C00898040F2A08038460021FFF72EFE0421FB
:1018AC0020603846FFF729FE6060083406F10D070A
:1018BC00224606F11D016EE041F21100854254D022
:1018CC002CD841F20B02954252D01CD841F209019E
:1018DC008D424DD000F28B8000213846FFF70DFE73
:1018EC00042120603846FFF708FE08216060384666
:1018FC00FFF703FE0C21A0603846FFF7FEFD04F154
:10190C000C0AE060DAE041F20F00854263D035D872
:10191C0041F20D02954240F0D28043E042F20601C2
:10192C008D4222D008D8B5F5005F40F2C88042F253
:10193C0004039D4219D983E042F208039D42C0F092
:10194C00BE80581C854210D944F20B02954240F0DF
:10195C00B6807179DFF878A13846AAF830100121E9
:10196C00FFF7C4FDAAF83200A9E037792770A6E08A
:10197C0038460021FFF7C1FD2060A0E00021384669
:10198C00FFF7BBFDA2464AF8040B04213846FFF7CB
:10199C00B4FD606092E057F8043B8F4242F8043B80
:1019AC00F9D18CE000213846FFF7A7FD0421206017
:1019BC003846FFF7A2FD082160603846FFF79DFD11
:1019CC0004F1080AA060E46814F1390376D101210E
:1019DC00FFF7DAFD72E000213846FFF78EFD042197
:1019EC0020603846FFF789FD6060083467E0337982
:1019FC0023713F68276062E038460021FFF77DFDC8
:101A0C00042120603846FFF778FD082160603846D5
:101A1C00FFF76CFD0A21A0603846FFF767FDC4F89C
:101A2C000A000C3406F11107224606F1350157F86D
:101A3C00043B8F4242F8043BF9D1388810803EE0D9
:101A4C000022B7187879A0540132042AF9D106F192
:101A5C0009070023F95CE0180133042B0171F9D15B
:101A6C0006F10D070020395C221801300428117290
:101A7C00F9D106F111070023F95CE2180133042BAC
:101A8C001173F9D106F115000022875CA1180132FF
:101A9C00042A0F74F9D106F119000023C75CE11870
:101AAC000133062B0F75F9D106F11F000021475C9D
:101ABC006218013120299776F9D100E05446044B85
:101ACC00188882B2954225D10021198022E000BFEE
:101ADC00B809002030460321B778FFF707FD82468E
:101AEC00B8F1000F0CD00421701DFFF706FD034662
:101AFC00C9F8000006F115014046DAB200F024FAEC
:101B0C007A1DB1182046C7EB0A0200F01DFA0F49E6
:101B1C000020C8860D4F00237B80FEF73BFB3078FE
:101B2C00042805D1B5F5805F02D13046FFF7F2FCF1
:101B3C003A8891B200297FF451AE044BD88E80B212
:101B4C0000287FF44BAEBDE8F08700BFB809002039
:101B5C00034B1880084600210A46FFF739BE00BF28
:101B6C00B809002010B5034B0124DC86BDE81040F9
:101B7C00FFF72EBEB809002038B5034615460122E2
:101B8C004A710C46881D1946FFF7ABFC291D0570E0
:101B9C002046FEF7BFFB002038BD38B59B180C461D
:101BAC009DB202216171A071E271294604F1080015
:101BBC00FFF797FC6A1D204691B2BDE83840FEF74E
:101BCC00A9BB2DE9F0471D4605F1020A032301F1DB
:101BDC0007091FFA8AFA88714B710C464846514620
:101BEC001746FFF77EFCB5F57A7F804613D8294659
:101BFC00FFF777FC29464046FFF773FC394604F1A2
:101C0C000B002A4600F0A0F9A91D204689B2BDE8B8
:101C1C00F047FEF77FBB4FF47A76B5FBF6F10AEB93
:101C2C00410291B2FFF75DFC31464046FFF759FC8B
:101C3C00394604F10B00324600F086F9A5F57A75A9
:101C4C00204640F2EE31ADB2BF19FEF763FBB5F59D
:101C5C007A7F05D9A5F57A7085B24FF47A7601E0D2
:101C6C002E460025A046394628F8056F48463246D0
:101C7C0000F06AF9B31C404699B2BF19FEF74AFB53
:101C8C00002DE4D1BDE8F0872DE9F34186461448D8
:101C9C000D46866871461F4602ACFF2306F109000B
:101CAC0004F8013D9046FFF713FC2946FFF710FCA2
:101CBC0040F201254146FFF70BFC0C223146284629
:101CCC00FFF75AFF28462146FFF742FF002138460E
:101CDC000A46FFF747FF9DF80700BDE8FC8100BFEF
:101CEC00B80900202DE9F341864616480C46866853
:101CFC007146984602AD4FF0FF3306F10A0045F8E5
:101D0C00043D1746FFF7E4FB0C21FFF7E1FB2146EE
:101D1C00FFF7DEFB3946FFF7DBFB4146224606F1B7
:101D2C001A0000F011F9902031461022A3B2FFF7EF
:101D3C0034FF40F202202946FFF70AFF0198BDE864
:101D4C00FC8100BFB809002008B5034606200146F7
:101D5C000022FFF7C7FFC0B208BD08B50346062036
:101D6C0001460022FFF790FFC0B208BDF8B5064649
:101D7C000D4617460C467B192A1BB4F5007FC4EBA5
:101D8C00030392B20AD330464FF40071FFF7AAFF57
:101D9C00C0B2A4F500740028EDD007E02CB1304699
:101DAC002146FFF79FFFC0B2F8BD2046F8BD0000EA
:101DBC00024B01225A805860FFF7F2BCB809002090
:101DCC0010B5084CE16022616361029B0399E361E9
:101DDC00049A059B21626262A362A061012084F8CF
:101DEC00400010BDB809002070B5214C05462148B3
:101DFC000023A363E363238023866386A386E386A1
:101E0C00E36263806360A0601B48FEF7A1F9E1699F
:101E1C008847A26A06460120904706B3E1698847C5
:101E2C000028FBD1124C0035A16818BF01254D725A
:101E3C0001224FF48040FFF79FFE00214FF48040B9
:101E4C00FFF786FEA168002244F20B00FFF794FE18
:101E5C0044F20B000021BDE87040FFF779BEE36946
:101E6C0098470028FBD0E06980470028FBD1D9E7D0
:101E7C00B809002098000020BD1D000838B5094C99
:101E8C000020A36A98472546E869064C804700283D
:101E9C00FAD0A16809B10022A260BDE83840FEF773
:101EAC006BB900BFB809002037B548F2080248F2F8
:101EBC00080102408A42034613490BD10020934289
:101ECC0081F840001FD023F4004424F0080545F4A9
:101EDC00004302E0012081F840000B494FF0FF3233
:101EEC008D6802AC194605F1090044F8042DFFF782
:101EFC00EFFA294604220820FFF73EFE082021466F
:101F0C00FFF726FE01983EBDB809002007B50D4A23
:101F1C004FF0FF330193916890B1542343700370D9
:101F2C0083704B7242788A7280780322C8720C20BC
:101F3C00FFF722FE0C2001A9FFF70AFE019800E032
:101F4C0018460EBDB80900200F2A2DE9F00340F207
:101F5C00A18041EA00039B0740F09E800C68A2F12F
:101F6C00100504604B68AC4643608C68BCF10F0FE5
:101F7C008460CC68C5F30015C46000F1100301F156
:101F8C0010042BD975B12568ACF1100C1D60656877
:101F9C005D60A5689D60E5681034DD601033BCF1B0
:101FAC000F0F1BD9276804F110061F60676803F137
:101FBC0010055F60A768ACF1200C9F60E768DF60DC
:101FCC0024691C61776806F110046F60B7682033D0
:101FDC00AF60F668BCF10F0FEE60E3D8A2F1100809
:101FEC0028F00F0302F00F0403F1100C032C00EB8C
:101FFC000C0301EB0C0851D9211F4FEA91094446FF
:10200C0008EB890C54F8046BC8EB0C010CF1040CB4
:10201C001D46644545F8046BC1F3800112D029B10B
:10202C0054F8041B644545F8041B0BD0274657F89D
:10203C00041B2E4646F8041B64686C603C1D351D61
:10204C006445F3D109F1010C4FEA8C0902F003024B
:10205C0008EB09014B44D2B10D789A18DC4303F814
:10206C00015B1419934204F0010410D02CB111F847
:10207C00014F03F8014B934209D04D781C4604F8EC
:10208C00015B8D7802315D70631C9342F5D1BDE824
:10209C00F00370470346DEE70346DDE74146224680
:1020AC00D9E700BFF0B48407034600F08D80541EBE
:1020BC00002A00F08780E507CEB211D41A4602F848
:1020CC00016B13461546920710D0621E002C79D076
:1020DC0003F8016B14469A071D4607D0013CEDE747
:1020EC00034603F8016B9A071D46F7D1032C52D90E
:1020FC00CEB246EA06270F2C47EA07432DD9A4F1A6
:10210C00100217460F2FC2F300162B606B60AB60EA
:10211C00EB6005F1100216D93EB1103F136053600D
:10212C009360D36010320F2F0DD9203F02F11006AF
:10213C00136053609360D360136153619361D361F7
:10214C0020320F2FF1D8A4F1100222F00F0204F06C
:10215C000F041032032C15441DD9271F3E462A4666
:10216C00032E42F8043BC7F380070DD927B1043E78
:10217C00032E42F8043B07D9174647F8043B083EA8
:10218C0053603A1D032EF7D8231F23F00302131DAF
:10219C0004F00304ED18ACB1C9B2EA432C1905F8EC
:1021AC00011BA318A54203F001020BD01AB105F8CC
:1021BC00011BA54206D02B4603F8011B69705D1C60
:1021CC00A542F8D1F0BC7047054614468EE700BF17
:1021DC0004000000040000000001000200000000E8
:1021EC000A000000000400000400000000000000D1
:1021FC000004000028000000030001011414002753
:10220C00272727272727272727272727272325255A
:10221C002525252525252523232323000000000023
:10222C0000000000000000000000000000000000A2
:10223C005050505050505050505050505050505092
:10224C005050505050505050505050505050505082
:10225C005050500177801D1F222628291A1F222436
:10226C002628161D1E2024251E2D01020202020006
:10227C001515151115150E0000010000B01E0000FB
:10228C005C041800E46208009600000000000000E6
:10229C000000000000000000000000000000000032
:1022AC000000000000000000000000000000000022
:1022BC000000000000000000000000000000000012
:1022CC000000000000000000000000000000000002
:1022DC0000000000000000000000000000000000F2
:1022EC0000000000000000000000000000000000E2
:1022FC0000000000000000000000000000000000D2
:10230C0000000000000000000000000000000000C1
:10231C0000000000000000000000000000000000B1
:10232C000000FFFF7A630800960000000000000028
:10233C000000000000000000000000000000000091
:10234C000000000000000000000000000000000081
:10235C000000000000000000000000000000000071
:10236C000000000000000000000000000000000061
:10237C000000000000000000000000000000000051
:10238C000000000000000000000000000000000041
:10239C000000000000000000000000000000000031
:1023AC000000000000000000000000000000000021
:1023BC000000000000000000000000000000000011
:1023CC000000FFFF106408009600000000000000F1
:1023DC0000000000000000000000000000000000F1
:1023EC0007200249086002481930F746403B0800B4
:1023FC0049D00100000000000000000000000000B7
:10240C0000000000000000000000000000000000C0
:10241C0000000000000000000000000000000000B0
:10242C0000000000000000000000000000000000A0
:10243C000000000000000000000000000000000090
:10244C000000000000000000000000000000000080
:10245C000000000000000000000000000000000070
:10246C000000FFFFA66408009600000000000000BA
:10247C000000000000000000000000000000000050
:10248C000000000000000000000000000000000040
:10249C000000000000000000000000000000000030
:1024AC000000000000000000000000000000000020
:1024BC000000000000000000000000000000000010
:1024CC000000000000000000000000000000000000
:1024DC0000000000000000000000000000000000F0
:1024EC0000000000000000000000000000000000E0
:1024FC0000000000000000000000000000000000D0
:10250C000000FFFF3C650800960000000000000082
:10251C00F0B585B0051CA888009028890190E96861
:10252C000291287C03902A6A0020175668600029C3
:10253C004CD0002F4ADCCA490C1C08260490218878
:10254C00009881420CD162880198824208D14620C1
:10255C00025D0398824203D10E200057B8420AD084
:10256C004620005D112822D1009881421FD10E20F7
:10257C000057B8421BD10420021C0298B949012310
:10258C009E46E94BFE441847002817D0201D02999F
:10259C00042201239E46E44BFE44184700280DD02C
:1025AC004620FFFFD265080096000000005D112850
:1025BC0009D0A06D002806D0AC34049801300490EA
:1025CC00013EC1D107E004980006000EAC21414346
:1025DC00A64840186860A648AD3005B0F0BD00B5FF
:1025EC00C2689069022101239E46A24BFE44184703
:1025FC00A248613000BD01790B2903D089009F4AA4
:10260C00515A01E00121490241609D480D30F746C5
:10261C00011C9C4802689C48012A01D12530F746D0
:10262C009B4A12684A601930F7460021416099486C
:10263C0098490818F746002141609748E449081862
:10264C00F746FFFF6866080096000000FFB5466974
:10265C004068019094490A7C9A4F012A63D0097C06
:10266C00032960D0914A924B0021029159562423A0
:10267C00594353180393012817D18A1804236C4625
:10268C008C4915790878C0432843207001320131F8
:10269C000134013BF5D1311D6846042201239E46CD
:1026AC00A64BFE441847002840D0351D82480078C0
:1026BC00FF2811D000280FD00398011D281C0124DD
:1026CC00A6467E4AFE441047002805D17A48A64605
:1026DC007B49FE44084705E0281C01218E467849B9
:1026EC00FE44FFFFFE6608009600000008470199B3
:1026FC00012901D100281ED101995F3101D0002898
:10270C000FD1A820815D002908D0491E8155805D1C
:10271C00002809D1381CFF30083011E00321029148
:10272C0000E0A82002998155381CFF30163007E0D4
:10273C000198012802D1381CA33001E0381C9F30CD
:10274C000090FFBD00B5021C106AD1695269C369C3
:10275C005A60012296465E4AFE4410475E48FF309E
:10276C006E3000BD10B50A1C4169006A9369DB69C3
:10277C00586090690124A646564AFE441047A64666
:10278C005648FFFF9467080096000000FE4400477F
:10279C005548FF30B63010BD70B5051C6E695348F6
:1027AC0002685C21885D042815D107208855100B20
:1027BC0011D20124A6464E48FE44004700280AD0F8
:1027CC0047218957C1601121C90200220423A64662
:1027DC00484CFE442047012068604348464908188D
:1027EC0070BD70B5051CAE699C2080194B21890009
:1027FC000124A646E94AFE4410475C21885D07285F
:10280C0001D1092000E00520AA698854301CA64695
:10281C00EA49FE4408476860E9484D3070BDF0B5A0
:10282C004168FFFF2A680800960000008268882330
:10283C005E1837880B6F002B01D1002F10D1062F9B
:10284C0002DD0021C94307E033889B00C9180A67E1
:10285C0031880131318001218160E9481D30F0BDA2
:10286C000B1C01245D6F1D6704330134062CE1DA67
:10287C00F8E700B50021C160E44801681031E14877
:10288C00202201239E46EF4BFE441847E048FB30C4
:10289C0000BD140D1B0054191B00911A01004BAD07
:1028AC000300614E0100063208001F0B0200543F6A
:1028BC00080045C10000843C08001B020000ED1715
:1028CC000000FFFFC068080096000000F3C1010083
:1028DC0034191B0008191B00A64408001C171B0008
:1028EC0018171B00CB6703000D4702003942030089
:1028FC00BDE70200B1400300B9EA010045DA00006F
:10290C002441080071C002007BC002009F0300003C
:10291C00F0B587B0059106908669F01CDFA1042202
:10292C000124A6460F4BFE441847002840D1F379EA
:10293C00DD481A1C0370307A0090707A01900320E5
:10294C002F49F031A646DD4DFE442847F279357A01
:10295C00777A781B431C93421ED0162A0FDB002D6E
:10296C000DD1FFFF566908009600000001E08FC6EC
:10297C000300D54804700A208119CE481A1CA646BB
:10298C00B64BFE44184782E0D1480470CA4840193F
:10299C000A2189197A1B521CA646AF4BFE441847D4
:1029AC0075E0C9480470C94804700A208119C148EF
:1029BC00A646A94BFE44184769E0F01C03273A1CB5
:1029CC00BBA1A646C64BFE44184700285FD1FFE7C3
:1029DC00F179B9480170B94DB2792A70381C0A499D
:1029EC00F431A646B74BFE441847287800280ED180
:1029FC00B8480470B8480470381C0349F531A64631
:102A0C00B64AFFFFEC69080096000000FE44104730
:102A1C0002E0C046C7040000307A0090707A019042
:102A2C00A8480278F379381CE449F631A646A84D3B
:102A3C00FE442847231CF279377A707AC11B4D1C4F
:102A4C0095421ED09F49097816290CDB002F0AD11C
:102A5C00A24803700A208119EE482A1CA646814B15
:102A6C00FE44184718E09E490B70EA49CB190A211D
:102A7C008919C01B421C181CA6467A4BFE441847E9
:102A8C000AE096480370964803700A208119E148C1
:102A9C00A646744BFE4418478E48007800280AD08E
:102AAC008D48FFFF826A080096000000007800281D
:102ABC0006D08C480078002802D08B48007800287B
:102ACC007FD0032017218901A646884AFE4410476F
:102ADC007F4801787F4807787C4D7A4EDA48006849
:102AEC0000282ED1069841610562CC48059A1064E5
:102AFC00022F01D0032F01D1032200E03A1C059BC9
:102B0C00DA6332789A63012F03D1052904D00D2999
:102B1C0002D0E548DB3057E0002600960191029583
:102B2C0003960490331C201C011C8E46E04DFE4481
:102B3C002847DF480460301CA646DE49FE4408479F
:102B4C003FE0FFFF186B0800960000000D2050219D
:102B5C00A646DC4AFE441047231C0D20311C0022E3
:102B6C009E46D94FFE44384733780D20291C221C31
:102B7C009646D54DFE44284730780130021C0D2076
:102B8C005549231C9E46D04DFE442847534D307862
:102B9C000230021C0D20291C231C9E46CA4FFE44E9
:102BAC003847287800280AD030780330021C4A486D
:102BBC0003780D209C49A646C34DFE442847BF48C8
:102BCC0004600020A646BE49FE440847B948EE49B9
:102BDC00081807B0F0BDC0467DB80300011CEB48D7
:102BEC000268FFFFAE6B080096000000EB48002A5D
:102BFC0004D000220A628A611D30F746D730F746AE
:102C0C00C046C921010091E10000011CE4480268A2
:102C1C00E448002A02D0FF30B430F7460022CA61E3
:102C2C008A614F30F746DF4801688A690120C0038A
:102C3C001043886100200861DC482330F74689176F
:102C4C00020046171B00303F080041EB000070B536
:102C5C00051CD64E296AEA69301C0124A646084B8D
:102C6C00FE4418476869A646D249FE440847A8693D
:102C7C000630A860D04800686860EE60CF486D30C0
:102C8C0070BDFFFF446C08009600000009B40300FF
:102C9C0030B5CD48016D806C084318D0CB49081C69
:102CAC000722FF2309331B58002B04D0FF301D30A3
:102CBC00013AF6D10BE00220C54AC64B0124A646C8
:102CCC00C54DFE442847A646C448FE440047C448A8
:102CDC00FF305C3030BDC0465353494400C046C041
:102CEC004B455900EE620800F0620800EC620800E7
:102CFC00ED620800E77E0300137F0300E862080022
:102D0C00E9620800EA620800EB620800DD7E03005D
:102D1C008FC60300F0B587B0009101906C48016834
:102D2C00AA4AFFFFDA6C080096000000141C0294FB
:102D3C0007260025039504940595AF4800680843C1
:102D4C0027D0E068039988420ADD0390401C009963
:102D5C008860A049FF201D3068430C18E06804917E
:102D6C000299C968884210DB884210D10298012769
:102D7C00BE469E49FE4408470690201CBE469B4911
:102D8C00FE4408470699884201DA05950294524898
:102D9C000168FF2709373859002806D09748006882
:102DAC00072E00D12E1C084304D0FF341D340135EE
:102DBC00072DC2DB072E0AD190480068084306D0C5
:102DCC00059EFFFF706D080096000000301C01216D
:102DDC008E468A49FE44084701984761002181616B
:102DEC00FF221D32724304998918C161066284481E
:102DFC00393007B0F0BDC046C704000010B5041C44
:102E0C00002001218E468049FE440847401E00D513
:102E1C0000206060E0617D48213010BD70B5041C5D
:102E2C00E5696669002001218E467749FE44084712
:102E3C006060AB19764A7549934202D39A1A824262
:102E4C0002D9081C993070BD081CAB3070BDC0464F
:102E5C0010630800086B417D02889200511A3C39BE
:102E6C00FF22FFFF066E0800960000005F329142C1
:102E7C0003D96521018002218173694868490818CA
:102E8C00F74630630800F8B5406824214143664892
:102E9C004518281D0C214919042201239E46634B19
:102EAC00FE441847604C00281BD02B1C04226E4695
:102EBC0060491F7B0878C0433843307001330131BF
:102ECC000136013AF5D10C20411968460422012340
:102EDC009E46564BFE441847002802D0201C4A3010
:102EEC00F8BD201CF8BDB1BD000015950000583F81
:102EFC000800F3F80000E90902002B090200F8B5FC
:102F0C00051CFFFF9C6E080096000000AA694D4945
:102F1C0000200856242141434648431804246E4699
:102F2C0046491F790878C04338433070013301316A
:102F3C000136013CF5D1111D684604220124A64638
:102F4C003D4BFE441847011C3D4804D03E490978CE
:102F5C0069604330F8BDEC61AF30F8BD70B5C56841
:102F6C0081680A893D4E002A22D00124C26DA21824
:102F7C00C26508890D281BD1686B211CA646334AF3
:102F8C00FE441047221C281C0021A646304BFE4450
:102F9C0018472C60E96B281CA6462E4AFE441047A5
:102FAC00281CFFFF326F080096000000A6462C4933
:102FBC00FE440847301C3D3070BD301C233070BDC2
:102FCC00401E80002A4B195028490A50F746B1027E
:102FDC000000743F080019C600005C3F08001DC2C9
:102FEC0000006844080043120300346308002F7A81
:102FFC000200B43608008FF4010000001B003404FA
:10300C001B0032040000C407000015090200C59320
:10301C0000000D910000BDB5000095920000FD93DD
:10302C000000543F0800294F0300DFE802003689F6
:10303C00410081060000B178000094EC01000819F1
:10304C001B00FFFFC86F0800960000008FC603002E
:10305C001C171B0067660300A644080018171B000A
:10306C00A72F020091440300916303005B4403000B
:10307C00E744030004F31A00807B0800FCB5041C31
:10308C00A569606A01902069002835D4082833DAD4
:10309C00E169096810292FD1AC214143AC4A515C3C
:1030AC00490827D300060016A268694601239E46EC
:1030BC00A84BFE441847061C39301FD0002E1DD0DB
:1030CC000098076800990C3901980160281D10219F
:1030DC00791A042201239E469F4BFE441847022274
:1030EC002A80FFFF5E70080096000000A81C0821D3
:1030FC00791A01239E469A4BFE44184703E0382068
:10310C0000E00020C643266097487C302062FCBD5E
:10311C0070B5051C68690678A869902821D1042E21
:10312C001FD0052E1DD00A2E1BD0062E19D00C2E0A
:10313C0017DA28690124A6468C49FE4408478B48B7
:10314C008C490022A6468B4BFE441847321C0320A8
:10315C00DF49A646DF4BFE4418478748FF305F30F7
:10316C00286270BDF0B589B005904169026980484C
:10317C00864E824251D0043082423CD080488242FA
:10318C0000D0FFFFF470080096000000E3E00D682B
:10319C000C20081A069048680818061D88680090CC
:1031AC0073880320B721C9002A1C0124A646774F37
:1031BC00FE443847281C311C1022A646744BFE4492
:1031CC001847061C12D1AC216943F348401846211C
:1031DC00095C112901D144210C5444210A5C0320BF
:1031EC00BD490B31A646BD4BFE4418476648311C01
:1031FC00069AA646624BFE4418476848EC30ABE092
:10320C000868C00030188A68022A02D0E7208000C3
:10321C00A2E0CA688918097B4160802101603B20CB
:10322C000001FFFF8A7108009600000099E0086811
:10323C000690C0003458102004900125AE46584822
:10324C00FE4400470790002800D189E00C21079824
:10325C000F18D349AC20069A504308184822135C27
:10326C005B065B0E1354069AD200B61871680029DF
:10327C0047D1002C01DD082C21DB002269460A70A5
:10328C0001920A818A72CD720D734D730188E448E4
:10329C000623AE46E44CFE442047041C02DC00200E
:1032AC00C04336E03460AC206043BD4909185C2251
:1032BC00281C50544820425C5206520E4254AC20FA
:1032CC006043FFFF2072080096000000B749081801
:1032DC005C21095C491E022916D9033908D000204B
:1032EC003056AE46D349FE44084780203060DBE7B9
:1032FC000894802131604822135C19431154AE4666
:10330C00CD49FE4408470AE00120CEE70698391C57
:10331C0004AAAE46C94BFE441847041C08900698F4
:10332C00386008987860002815D0AC2060439F491D
:10333C0009184888020402201043B8604868020E3D
:10334C000102090E090211430204120E12040A436F
:10335C0000061043F86007980D4900221023AE4672
:10336C00B74CFFFFB672080096000000FE442047E1
:10337C00124800E01620B54909180598016209B0F9
:10338C00F0BD5D0D1B0081E7020009B40300271A94
:10339C0002002F7A02000202000005100000CFF696
:1033AC000000D5F4000002100000017F0300911909
:1033BC0002002065080071C002002A030000F0B56D
:1033CC008BB00790056947690C20381A0890F149B1
:1033DC008D4216D178680F30001100017860386882
:1033EC000B280ED800236846037008980522012488
:1033FC00A646E94CFE442047E948FF309530079932
:10340C000862FFFF4C73080096000000E7488542F5
:10341C0023D1F74802786C46227243786372817824
:10342C00A172C078E07200910190032034490131FF
:10343C000126B646EF4EFE44304704202070089813
:10344C00DA49002202AB0124A646D64CFE442047A2
:10345C00D548FF30953007990862E748854200D07F
:10346C00ECE00324201C2649023101229646E34A53
:10347C00FE441047CC48FF30953009903868E14E37
:10348C00002800D1C8E001208646DD48FE440047F4
:10349C00002800D1BCE03268201C194903310123FB
:1034AC009E46FFFFE273080096000000184BFE4496
:1034BC0018473068002840D1D64C2E200119B86826
:1034CC0003300870387A4870D34D211C0A9430317F
:1034DC000A91B868201830302A68303A01239E4689
:1034EC00CE4BFE44184778683818011DBA680A9804
:1034FC0001239E46CE4BFE441847B868296808182D
:10350C002018C6490A7904E0C046AA050000E77EE7
:10351C00030002704A7942708A798270C979C1704D
:10352C0004300F21411A0A78BB689A180A70001BE4
:10353C000004000C2860012030600220011C1122C4
:10354C000124FFFF7874080096000000A646B74BD4
:10355C00FE441847061C63D40320A646B449FE4417
:10356C000847071C0021B94251D02B22A646B14B6B
:10357C00FE4418470C20C019AC217143154A55184C
:10358C00686300211822A646AA4BFE441847A4489B
:10359C000268686B4260391CAC31016000689F495D
:1035AC00A646A54BFE441847002103A81022A646A8
:1035BC00A04BFE441847E021684601740021417479
:1035CC008174FB21C174F149C18102218181696B34
:1035DC00CA6801E0140D1B000120C0031043C86031
:1035EC004868FFFF0E75080096000000009000224E
:1035FC00301C391C03ABA646E84DFE442847051C7D
:10360C0030060016A646F149FE440847381CA6466B
:10361C00F049FE44084711E030060016A646EB4977
:10362C00FE4408470120C54308E0051C06E00020C5
:10363C000021CD4301E00020051C306000236846CA
:10364C0003702A06120E089873490124A6465C4C96
:10365C00FE4420470798099901620BB0F0BD501940
:10366C001B0029160100C1180100F11B0100F31CFD
:10367C0002007BC0020091F00000FEB5071C7D69C2
:10368C00BE69FFFFA4750800960000000C20301ADC
:10369C0001900A2D19D13268E14802600320E149FA
:1036AC000124A646F04BFE441847A646DE48FE44CD
:1036BC0000470A200021019AA646EC4BFE4418470D
:1036CC00DA48F521890008183862032D7AD1D748D9
:1036DC00F521890008180290706800280CD100218F
:1036EC00D3480160D3480068002861D001218E4680
:1036FC00D149FE4408475BE0D048B1680160F168ED
:10370C004160316981607169C160B169C163F169FE
:10371C000164316AC1640124A646C948FE440047CD
:10372C00A646FFFF3A76080096000000C848FE4403
:10373C00004770687D25ED00A84221D8012818D0DB
:10374C00022805D0281CA646C249FE4408471CE0A6
:10375C00BD480023191C59433E224A438283023040
:10376C000133102BF6DBA646B848FE440047B94897
:10377C000DE0B94D281CA646B649FE44084704E0A6
:10378C00A646B349FE4408477568B2480560051C57
:10379C00AB4E3068002806D1B1480068A646B04947
:1037AC00FE440847306000942B68AE49AF4AA646E9
:1037BC00AF4DFE442847A048046003200021019A25
:1037CC000123FFFFD0760800960000009E46AC4B0C
:1037DC00FE44184702983862FEBDC0460302000042
:1037EC00A3C00200A9E900000702000030B5051CC7
:1037FC0000200124A646A349FE440847A646A24938
:10380C00FE440847A646A148FE4400477D21C90056
:10381C00A646A04AFE44104787492E3108189C49F9
:10382C0008809D480A30286230BDC046E46208001A
:10383C00137F030011100000DD7E0300B99000001F
:10384C003C64080044640800406408006DC6030032
:10385C0008191B0011180200D1780200C9BA030024
:10386C0009B4FFFF66770800960000000300FEB560
:10387C0002904569684601218E468A49FE440847F4
:10388C008A48041C686801694A7800273E1C208815
:10389C00400822D3201D891C01239E46844BFE44E4
:1038AC001847002807D16868006940782188090406
:1038BC00891681423DD00220005F0099081A00044D
:1038CC0000143C2803DD2088401040002080781C28
:1038DC0007063F0E686801694A782A340136142EAF
:1038EC00D5DB002A02D1AB20400050E0009B6E4893
:1038FC00142100220488640803D32A3001320139D0
:10390C00F8D1FFFFFC770800960000001206120E9B
:10391C00142F16D16748008800064416654900220A
:10392C0001204E8D36067616A64202DD341C0206A8
:10393C00120E2A3101301428F3DB02E03206120E8B
:10394C00009B2A2042435B4811180C88012020431D
:10395C000004000C0880FE24A04314246457640661
:10396C00240E0443534814521418638008888005AD
:10397C00820D68680069407880021043088068688E
:10398C000269201D911C527801239E464C4BFE442B
:10399C00184702980461FE204849091802980162F0
:1039AC00FEBDFFFF92780800960000008269416915
:1039BC000369022B0AD1012A01D1002905D0022A60
:1039CC0004D1002902D1112100E006214161F74602
:1039DC00C04614E90000C918020030B5051C3B486C
:1039EC000078002804D0012086463948FE44004760
:1039FC000124A6463848FE440047A6463748FE44F4
:103A0C00004736480E30286230BD491901002F7A24
:103A1C00020018B5436981693248812900D10B38FD
:103A2C00002100911A689B680124A6462E4CFE4486
:103A3C00204718BD18B540690021009102688368C1
:103A4C002848FFFF28790800960000000130012467
:103A5C00A646274CFE44204718BDC04630630800DC
:103A6C00AE050000199E0000B9EC0000743F080080
:103A7C00803F0800B75D030000001B00D38E0000E0
:103A8C00F7C60000E590000038640800C027090064
:103A9C00A03B08003D5D030019C60000E83A080091
:103AAC00815D0300E77E0300CFF600004B4F03005F
:103ABC006BC00300951E0100DA40080055AA0300F4
:103ACC000D910000D7560300085108008FC6030063
:103ADC0065B8000009B4030084171B00B58601000B
:103AEC003D47FFFFBE7908008000000002007349CB
:103AFC0002005F9000000E100000F7F60000FFB50A
:103B0C006846FFF774FFFFBDFFB56846FFF758FF27
:103B1C00FFBDFFB56846FFF797FFFFBDFFB56846D1
:103B2C00FFF781FFFFBDFFB56846FFF7B4FEFFBD91
:103B3C00FFB56846FFF77FFCFFBDFFB56846FFF792
:103B4C0037FBFFBDFFB56846FFF7EDFAFFBDFFB5CC
:103B5C006846FFF764FEFFBDFFB56846FFF752FBF2
:103B6C00FFBDFFB56846FFF7B0FDFFBD787B0800D1
:103B7C008800000000B5F8F043FA00BD05660800A7
:103B8C0037660800416508001D66080025640800BA
:103B9C00516608005D6608006966080057670800F2
:103BAC0077670800A1670800EB6708002768080022
:103BBC0005690800A96B0800CD6B0800E96B0800CB
:103BCC00116C080071680800496C0800A16D0800B0
:103BDC00F96D0800216E0800ED6E0800CD6C080030
:103BEC00996E0800C16D0800000000000000000084
:103BFC0000000000000000000000000004F31A00A8
:103C0C0080000000B24E01005AC10000961A01005B
:103C1C00220B020060D00100061A0000B8C6010099
:103C2C00D842030016420300EEDB000062DC000009
:103C3C00C8E100008A17020038BE000026C600004A
:103C4C0056C2000062120300E4F401003AEC0000DA
:103C5C005E920000FEE80200187F000064EC010098
:103C6C00FE4403001C940000A866030074E90200E3
:103C7C00FFFFFFFFFFFFFFFFFFFFFFFFFFFFFFFF48
:103C8C00FFFFFFFF00001800960000000006011364
:103C9C00F0B58AB0E34C032022786378E34901390C
:103CAC000125AE46E04EFE443047A278E37803206F
:103CBC00DE49AE46DC4EFE4430470320DB49013181
:103CCC00AE46DB4AFE441047DA4821780170617831
:103CDC004170E178C170A1788170D948041C333CE3
:103CEC00201C0021DC22AE46D34BFE441847842016
:103CFC00A0700527E7710C2626730D200019B0A1C2
:103D0C00321CAE46CD4BFE441847042060761A2078
:103D1C000019AFA108910422AE46C84BFE441847C7
:103D2C00A777FFFF96001800960000001F34ACA187
:103D3C000991201C3A1CAE46C34BFE441847E67151
:103D4C00281C60721120207394206073C025657448
:103D5C00A6740922E274BC4C201CA3A101239E462C
:103D6C00B94BFE44184707226272B74C0A34201C28
:103D7C00A1A101239E46B34BFE4418470420E071D9
:103D8C00B24C1234201C0899042201239E46AD4BE0
:103D9C00FE4418472771AC4C1734201C09993A1C67
:103DAC0001239E46A84BFE441847E6710120607221
:103DBC0011202073942060730220E07325746674C4
:103DCC00A574FFFF2C011800960000002F26E67446
:103DDC00102060758027A7750120E0751120A07652
:103DEC009420E076242060770A22A277994C36340E
:103DFC00201C85A101239E46954BFE441847182292
:103E0C00A272944C4134201C82A101239E46904BFB
:103E1C00FE441847257666762120E0762777012028
:103E2C0060778C48613011210170942141700F260C
:103E3C00C67004210172D221417206218172854C17
:103E4C006C34201C7AA1062201239E46804BFE4432
:103E5C001847A5711E20E07125729E20607201200A
:103E6C00E072FFFFC2011800960000002773607318
:103E7C0011202074942060740420E074B3207849DD
:103E8C00086000243106090E002002AA01239E4678
:103E9C00754BFE4418476846008940080ED3A100B4
:103EAC000F20C24368460389134003AD6B5240890F
:103EBC0010406944C881601C0404240C013E0B2E84
:103ECC00E0DA601E0204120C1CD0151C03AB01219D
:103EDC009E88880002AF3F5AB7420BDABC46071CDB
:103EEC006F447F89684406810830DE8846806046CE
:103EFC009880DF800433481C0104090C013DE7D194
:103F0C00013AFFFF5802180096000000E2D1684603
:103F1C008189C28951180904090C564D2980564BC8
:103F2C0082899A1AC089101A6880287900902A8888
:103F3C00581A03041B0C0320464911390126B646B6
:103F4C004E4EFE443047022C30DB671E03AE01247C
:103F5C00201C09900998800002A9095AB088F2889F
:103F6C0012188A421ADA06206043424B1818028053
:103F7C000288891A41800121017141880091012137
:103F8C000191221C03880320324910390125AE46C9
:103F9C003B4DFE442847601C0404240C043609984D
:103FAC00401CFFFFEE021800960000000006000EF9
:103FBC000990013FD3D10024354804703548047072
:103FCC003548047035480470012086463448FE4458
:103FDC0000473349221C0868002802D00120904079
:103FEC00044304310132202AF5D32E4804600AB070
:103FFC00F0BD5F6465766963652D696E666F00C0A0
:10400C0046C05F75647000C046C06C6F63616C0025
:10401C00C0465F736572766963657300C0465F6402
:10402C006E732D7364006465763D434333303030DA
:10403C0000C076656E646F723D54657861732D496E
:10404C006E73FFFF84031800960000007472756D88
:10405C00656E747300C046C074617267657400C08D
:10406C0000001800F37E0300C6050000DD7E03008F
:10407C00E4620800C9BA030009B4030077640800BD
:10408C0040640800DD0A0200483208000080FFFF8F
:10409C00017F0300137F0300E8620800E962080057
:1040AC00EA620800EB620800ED031800807B080050
:1040BC0084F31A000D490E4888670E4888640E4830
:1040CC0048640E48C8640E4808651148021C043246
:1040DC000C4B13600C4B93620C4A8A660D490160C1
:1040EC000D48FFFF1A041800420000000E49016041
:1040FC000E494160F7461C210800177A08000D7A1A
:10410C000800037A0800357A08002B7A0800217A17
:10411C000800F9790800DB79080050230800D179F0
:10412C00080058260800EF790800E5790800FFFF21
:10413C00000100000012000000001800041500002F
:10414C0004000000B8F1900FA4160000C800000095
:10415C0066E004A8351D21F099FC684623F028FB85
:10416C009AF80000012807D1284605F0C3FE014645
:10417C0001AA002021F050F9284605F0BBFE01A948
:10418C0021F02AFAE9794FEAE00040B211B100F1CE
:10419C00060040B2A8711F384000E871304601F0AB
:1041AC000DFF10F100094FF0000109D02868400CF8
:1041BC0009D3E868C00B03D24846FFF7DDFE0121A6
:1041CC002868400C0AD23868401C386020686FF3AD
:1041DC000F0020602268386810432060E868C00B2C
:1041EC000FD3D8F8000000F10100C8F800002068D7
:1041FC006FF31F402060D8F80020206840EA02408E
:10420C00206049B9B9F1000F03D1304607F0BEF96F
:10421C0002E0484607F006FA6C1700001400000094
:10422C0068460EF085FB009E002E96D105B0BDE8C9
:10423C00F087C0469C2000000400000023F07AFDAB
:10424C0074470000080000000B2121F0CBF9206816
:10425C00184B00001400000021F06CF80AE02068F4
:10426C0000680C2140F0200021F064F8046200008A
:10427C000800000020791FF0A5FC69E034AD0000B7
:10428C00040000000968FF2998AD0000040000003C
:10429C000010D421DCD300001000000000B518F091
:1042AC00FBFB00F003F800BD00000000C0DF0000C5
:1042BC000400000017F03CFDC8F7000020000000CF
:1042CC00312E31392E3331345F4E65775F4654438E
:1042DC005F6C656E6774685F6D6F64756C61746933
:1042EC00807E010004000000DFF85882F47E01009B
:1042FC00040000007A486B499C7F01000400000018
:10430C000070514DC47F01003C000000404900F199
:10431C0052003A4AA8812883E883E884A8852A6059
:10432C00394841F211122A851890199139491A917C
:10433C0039491B9139492046DFF8C4901C91384902
:10434C00DFF8C0B0314E1D91488001000400000020
:10435C000DF07CFAB48001003400000034126609C0
:10436C00846B002094700020B4700020C47800206E
:10437C00507A0020FEFF0300A4700020B0700020D3
:10438C00B8700020605530803C5C00200474002024
:10439C00044D0200C80000002DE9F04FADF18C0D6A
:1043AC0004680F300394FEF7DBFA04F11400049058
:1043BC00217D002021F07301882908BF0120059080
:1043CC000398001D06905D480068012840F0FA83B0
:1043DC005B4D5C48DFF870912968DFF87081DFF87D
:1043EC0074A1884221D11022002148464F46FBF788
:1043FC00B7FE102200214046FBF7B2FE5449086874
:10440C0040F48010086001205146086000212960AA
:10441C00397846460091317841F21113042201910A
:10442C00072102900320F3F741FC514607910868DD
:10443C005649DFF85CB1012808915649DFF848A1CC
:10444C00099155490A9144490B9144490C914449AD
:10445C000D9144490E9144490F914449109144499E
:10446C00CC4D0200C80000001191444912914449FE
:10447C0013914449149144491591444916919F490B
:10448C0017919F4918919F4919919F491A919F49DA
:10449C001B919F491C919F491D919F491E919F49BA
:1044AC001F9140F000810498407800F0030101292D
:1044BC0040F0F9800499097801F00C01082940F0CA
:1044CC00F28006990988A1F13C010EB2059911B14F
:1044DC00A6F1020636B2C0094FF0000715D3083E0C
:1044EC0036B2032E10D0172E0ED0083E36B2032E45
:1044FC0008D0172E06D0361F36B2032E14BF172E37
:10450C00022702E0032700E00127032E18BF172E15
:10451C00049A40F0C8800A3212F8011B052412F8E4
:10452C00013B4B40641ED9B2F9D181EA2111032E13
:10453C00944E0200C800000001F00F01484635D02F
:10454C004346CA5C521CCA540C1833E0485702004C
:10455C000474002034126609585702006857020090
:10456C00C848308044570200805702007857020038
:10457C001058020018580200205802002858020057
:10458C003058020038580200DC580200DA58020099
:10459C000C580200E7580200D8580200E6580200F6
:1045AC0054570200DE580200E05802000C18207824
:1045BC00401C20702078434603EB01080A2876DB68
:1045CC0098F800000A2872DB9448002501600498D2
:1045DC0000F10A094078410824BF0499091D04D24E
:1045EC0080082EBF4946049910310B980622FAF721
:1045FC00B9FC0C9806224946FAF7B4FC9B489A4938
:10460C005C4F0200C8000000007808220860584681
:10461C0007600D982946FBF7AFFD08220E98294636
:10462C00FBF7AAFD08220F982946FBF7A5FD0822E7
:10463C0010982946FBF7A0FD082211982946FBF794
:10464C009BFD082212982946FBF796FD079902203C
:10465C000860139928460880089908701499087006
:10466C0015990860169908701799086018990860D0
:10467C0019990860099908800A9908801A99088084
:10468C007D490D601B9908701C9908701D99087064
:10469C001E9908801F990880514608802078009642
:1046AC000422019098F8000041F2141307210290A3
:1046BC000320F3F707FB0798A24900682091A24951
:1046CC00052821919E49229140F037820498407828
:1046DC0024500200C8000000410824BF0499091DA1
:1046EC0005D2800827BF04990A31049910310B9820
:1046FC00F8F72DFC0128049840F02382407800F054
:10470C000300032818D0022807BF0499103104991C
:10471C000A3113E040580200445802004858020085
:10472C00E8580200EA580200EB580200EC5802006C
:10473C00E2580200E4580200049918310C98F8F77A
:10474C0006FC0499012840F0FC81497801F0030132
:10475C00012940F0F68159460968049A8E46514663
:10476C00D28A0B881211934200F037820A80069984
:10477C0009883C390BB27146491E09D0491E04D038
:10478C00491E08D1A3F1100304E0A3F1140301E0C6
:10479C00A3F108031BB2059810B1A3F102031BB2DD
:1047AC00EC500200C8000000002B00F1CE811698DE
:1047BC0040F2775199420B901498059000F0A38128
:1047CC00084600F13C009842059A00F09A81DFF807
:1047DC00488214780B9ABB2C12780C9263D1DDF8BA
:1047EC0068C0BCF90020914218BF90425BD11C2BD1
:1047FC004FF00000C0F282813D2B139D80F27E8130
:10480C00A3F11C0109B229801E9ADDF83090B2F98F
:10481C000060B9F1010F15D1DDF82490032E0DDAEB
:10482C00B9F90070B94207D0012616804A460E46E7
:10483C0003E0C04688570200761C16801B9A167837
:10484C001D9A16700C9A1F9E022A28D1B6F90020C8
:10485C00BEF1000F1AD0032A35460BDA0A9EB6F9C0
:10486C000070B94204D001222A800A46354600E085
:10487C00B4510200C8000000521C2A801C990A780E
:10488C001D990A700FE0C04650570200A664002024
:10489C004C570200288005990870089A117841F04D
:1048AC000401117004464546ACF800002870CC2C6D
:1048BC00099A40F00081DDF87CC00A991E9F45469C
:1048CC00B1F90060B2F900902878CDF850C016917B
:1048DC000A97139209950C99012905D1059AB0EB09
:1048EC00490F01D1002111700C99022905D1059AAB
:1048FC00B0EB460F01D100211170B3F5147F40F3DA
:10490C00BA8040F251319942089940F3B480097849
:10491C00062900F0B080A3F251210BB24FEAE3015B
:10492C0003EB11714FEA2111CAB24FEAE30103EB19
:10493C001171159D21F00F01A3EB01031D992E6838
:10494C007C520200C800000091F800E05FFA83F886
:10495C0060B1311811F8011C5140CBB207E0C046D0
:10496C00505802004C580200D458020013461999B2
:10497C00DDF86CA0DDF870B0D1F800C000F00F01CC
:10498C00994222D00A9B86459AF80010B3F9003060
:10499C009BF8005015DD375C441C82EA070C04F0D0
:1049AC000F0767450BD0A64506440ADD76787240A2
:1049BC00861C06F00F06964203D1C01C4DE0801CED
:1049CC004BE0059E002232704AE000F01F010122EC
:1049DC008A401799C4100B6824F003015CF801702D
:1049EC003A4232D15F583A4206441FD0189B37786E
:1049FC001B68B84504D15858024219D0634615E0DB
:104A0C00A1108C00195991431951009030780190E4
:104A1C0044530200C80000000320062102464DF654
:104A2C008053F3F763F9099928680E78361806E075
:104A3C00DB580200A0108100585802435A5086F8E7
:104A4C0000800B9800780C901398B0F9009009989E
:104A5C0000780A9A401C9BF800509AF80010B2F9A2
:104A6C000030099AC0B210700C9A012A03D1884206
:104A7C00C8BF8AF800000C99022907D1A842C8BF08
:104A8C008BF8000002E00A98B0F90030B9F1000F81
:104A9C0006DD032B04D111980122494600F070FB6E
:104AAC001698B0F9001014980029B0F9000005DD33
:104ABC00032803D11298022200F062FB05980478B7
:104ACC000B9800780C900898BB2C017802D0AA2C7B
:104ADC002FD031E00C9801280BD10D98179A10604B
:104AEC000C540200C80000000F98189A1060199A14
:104AFC0011981060474A159802600C9802280BD147
:104B0C000E98179A10601098189A1060199A1298AB
:104B1C001060414A15980260CC200FE00899097882
:104B2C000CE0022000E001200B9908701A990B8010
:104B3C0013990020088008980178BB20059A107002
:104B4C000629079911D106200860209800250570C8
:104B5C00219829460422FBF727FB012000F036FAA6
:104B6C00022000F033FA2298056007980499006837
:104B7C00072844D10978039C802940D13834217806
:104B8C00641C224600293AD1209890F800A0229863
:104B9C000590D0F8009051464846FDF779F95FFA38
:104BAC0080F8219F15785146484617F80830FDF7D4
:104BBC00D4540200C80000006FF91E461B1DC0B281
:104BCC00385C001DA842284607DD8018821C10782E
:104BDC002D18AD1CADB2AB42F7DC04F8016B1149DA
:104BEC003246204601EB4811FAF7DCF9AD1BFF20E9
:104BFC003419AD1E04F8010B257005980168491C89
:104C0C00016007980068072804D00699086820F40A
:104C1C008030086023B0BDE8F08FC0468C5702008E
:104C2C00CC570200545802006D482DE9F0476D4DE9
:104C3C0082894AF65521ADF5FE7D91424FF0000177
:104C4C00ADF1380D10D1296041F2104181814FF640
:104C5C00FF70654908602868009002220521032036
:104C6C0041F23423F3F74AF82968604C0129206893
:104C7C0040F0AF805E4D0228296823D15D48006862
:104C8C009C550200C80000005E4A125C0092019123
:104C9C005D49096802915A490B5C032007210422E3
:104CAC00F3F730F85A494A79584800920279019240
:104CBC0040790422029003200B790721F3F722F8A4
:104CCC0003202060ECF71CFF20682968042815D10C
:104CDC000D208DF8100000258DF814508DF815104E
:104CEC002846632100F0FCFA6321284600F086FA7E
:104CFC0003A904A8E0F7CCFC05202060454D05284D
:104D0C00296801F1010129601DD1434A8A421AD157
:104D1C004248016800914068019003200246062138
:104D2C00404E3346223BF2F7EDFF3D4801680091BF
:104D3C00406833460621019003200246F2F7E2FF59
:104D4C00002028602068062847D14FF0070AC4F8D5
:104D5C0064560200C800000000A0032048F2705303
:104D6C0001220421F2F7D2FFDFF8C880304F48F25D
:104D7C007059012549EA0503012204210320F2F7A9
:104D8C00C5FF002417F8020F20E0690104EB0802AC
:104D9C008818C61C43780093807801903078029074
:104DAC00535C514604220320F2F7B0FF3878011B04
:104DBC00B1F1FF3F08D1F0780090B37803200222C4
:104DCC000521F2F7A3FF3878241DE4B2A042DCDC05
:104DDC00AD1CEDB2042DCDDB63214FF40570F1F762
:104DEC00A5FCE1F787FD7FB00EB0BDE8F087C046AB
:104DFC00047400204857020040003D8044570200D4
:104E0C00505702008857020058570200685702009A
:104E1C005457020078570200805702004C5702008A
:104E2C002C570200C8000000FFFF0300305802009E
:104E3C00385802006655DDEED35802005458020073
:104E4C000000000000000000000000000000000056
:104E5C000000000000000000000000000000000046
:104E6C000000000000000000000000000000000036
:104E7C000000000000000000000000000000000026
:104E8C000000000000000000000000000000000016
:104E9C000000000000000000000000000000000006
:104EAC0000000000000000000000000000000000F6
:104EBC0000000000000000000000000000000000E6
:104ECC0000000000000000000000000000000000D6
:104EDC0000000000000000000000000000000000C6
:104EEC0000000000000000000000000000000000B6
:104EFC00F4570200C8000000000000000000000091
:104F0C000000000000000000000000000000000095
:104F1C000000000000000000000000000000000085
:104F2C000000000000000000000000000000000075
:104F3C000000000000000000000000000000000065
:104F4C000000000000000000000000000000000055
:104F5C000000000000000000000000000000000045
:104F6C000000000000000000000000000000000035
:104F7C000000000000000000000000000000000025
:104F8C000000000000000000000000000000000015
:104F9C000000000000000000000000000000000005
:104FAC0000000000000000000000000000000000F5
:104FBC0000000000000000000000000000000000E5
:104FCC00BC580200C80000000000000000000000F7
:104FDC0000000000000000000000000000000000C5
:104FEC0000000000000000000000000000000000B5
:104FFC000000000000000000000000002DE9FE4F42
:10500C004A4A494D0090B2F9002043A329780193F4
:10501C0043A301280293474EDFF81C81DFF81C9153
:10502C001ED043480478480187193018019906228C
:10503C00F9F7CCFF40460178006807F1060707F83E
:10504C00011B07F8014B4FF0000107F8011B20B9B9
:10505C00397028784E460A2158E0DFF8E4B00FE0AA
:10506C00D4B248018719301802990722F9F7AEFF1C
:10507C00FF1D0020DFF8CCB007F8014B07F8010B3F
:10508C00162CB246AEBF1420601EC0B238704E460D
:10509C0084590200C80000007F1C401CC2B2287852
:1050AC005B4600213254384600F010F92878162C53
:1050BC00315C01F10A01315400F10100C0B22870D9
:1050CC002BDB00990AEB401007460129A4F10109DA
:1050DC0009D001990622F9F77DFF40460078BF1DE3
:1050EC0007F8010B04E002990722F9F773FFFF1D83
:1050FC0007F8014B153C15212878E2B25B4607F8FE
:10510C00011B325407F8019B384600F0DFF8287871
:10511C00315C0A313154401C2870BDE8FE8FC0460A
:10512C005454544B455900C054545453534944009F
:10513C004C580200DE580200E0580200545802009D
:10514C0054570200D4580200CC5702008C5702006E
:10515C007EB504460D4694F83610154A072918BF3B
:10516C004C5A0200C800000011680AD101211160DC
:10517C00124B0D2604F12402761E42F8143F5360A4
:10518C00FAD194F836000E4E0090306841F21213AA
:10519C0004220190029107210320F2F7CBFD29464E
:1051AC002046E7F781FC31680022052902D1054928
:1051BC0008310A607EBDC04648570200A086010037
:1051CC0044570200007C002070B54D00202D4FF09C
:1051DC0000010C464FEA551309D350F82160B6F183
:1051EC00FF3F04D1491CC9B2203D5B1EF5D14DB126
:1051FC00202D09D20123AB405B1E50F82100184032
:10520C00834201D14FF00104074803782CB90121E6
:10521C009140C943C9B20B4003E001219140C9B28E
:10522C000B43037070BDC046E65802001CB50F4C12
:10523C00145B0200C80000002268012A15D10C483A
:10524C000068072814BF40204FF405706321F1F764
:10525C0085FA2068009043F23333062140200190F8
:10526C0003200246F2F76AFD1CBDF1F777FA1CBD6C
:10527C0044570200485702001EB504460A49002054
:10528C000A4A08600A49009001901160094A45F2E7
:10529C00555302911060072104220320F2F74EFDB2
:1052AC002046E7F7CFFD1EBD4857020004740020CE
:1052BC00341266094457020030B50D468469DCF798
:1052CC0047FC241D012804EB450106D1898E04EB13
:1052DC00850411B9216901B9002030BD30B50546EE
:1052EC005AB103EB41031C78597841EA0411521E60
:1052FC0003F1020305F8011BF5D130BD00B5002008
:10530C00DC5B020030000000E7F786FF0348016811
:10531C00032904BF0421016000BDC04644570200AC
:10532C00034A1268012A04BF02486321F1F726BA26
:0C533C0048570200022001004C53000002
:1053480003000000000000000008014000080140C0
:105358000C004800000801400000000001545454AB
:10536800FFFF5000F0019003901390239043906347
:10537800A063B063F06330643068A001A00100103E
:105388000010002000201000100040004000000421
:105398000002B81E0812000000A24A040000000023
:1053A800000000000102030406070809FFFF0000CF
:040000050800010CE2
:00000001FF
