:020000040800F2
:10500000005000206D640008AF630008B163000821
:10501000B3630008B5630008B76300080000000030
:10502000000000000000000000000000B96300085C
:10503000BB63000800000000BD630008BF630008F8
:10504000B9640008B9640008B9640008B9640008CC
:10505000B9640008B9640008B9640008B9640008BC
:10506000D1630008B9640008B9640008B964000895
:10507000B9640008B9640008B9640008CD63000889
:10508000B9640008B9640008B9640008B96400088C
:10509000B9640008B9640008B9640008B96400087C
:1050A000B9640008B9640008B96400082564000800
:1050B000B9640008B9640008B9640008B96400085C
:1050C000B9640008B9640008B9640008B96400084C
:1050D000B9640008B9640008B9640008B96400083C
:1050E00005640008B9640008B96400080000000005
:1050F00000000000000000000000000000000000B0
:0C51000000000000000000005FF808F153
:1051100081F0004102E000BF83F0004330B54FEA68
:1051200041044FEA430594EA050F08BF90EA020FD5
:105130001FBF54EA000C55EA020C7FEA645C7FEA68
:10514000655C00F0E2804FEA5454D4EB5555B8BF8B
:105150006D420CDD2C4480EA020281EA030382EAFC
:10516000000083EA010180EA020281EA0303362D8E
:1051700088BF30BD11F0004F4FEA01314FF4801C61
:105180004CEA113102D0404261EB410113F0004F73
:105190004FEA03334CEA133302D0524263EB43032A
:1051A00094EA050F00F0A780A4F10104D5F1200EC8
:1051B0000DDB02FA0EFC22FA05F2801841F1000123
:1051C00003FA0EF2801843FA05F359410EE0A5F1F7
:1051D00020050EF1200E012A03FA0EFC28BF4CF028
:1051E000020C43FA05F3C01851EBE37101F00045DE
:1051F00007D54FF0000EDCF1000C7EEB00006EEBEB
:105200000101B1F5801F1BD3B1F5001F0CD3490874
:105210005FEA30004FEA3C0C04F101044FEA4452CB
:1052200012F5800F80F09A80BCF1004F08BF5FEA52
:10523000500C50F1000041EB045141EA050130BD32
:105240005FEA4C0C404141EB010111F4801FA4F1D5
:105250000104E9D191F0000F04BF01460020B1FA2A
:1052600081F308BF2033A3F10B03B3F120020CDA62
:105270000C3208DD02F1140CC2F10C0201FA0CF040
:1052800021FA02F10CE002F11402D8BFC2F1200CA5
:1052900001FA02F120FA0CFCDCBF41EA0C0190405B
:1052A000E41AA2BF01EB0451294330BD6FEA0404A4
:1052B0001F3C1CDA0C340EDC04F11404C4F120028F
:1052C00020FA04F001FA02F340EA030021FA04F3A1
:1052D00045EA030130BDC4F10C04C4F1200220FAF8
:1052E00002F001FA04F340EA0300294630BD21FA36
:1052F00004F0294630BD94F0000F83F4801306BFFC
:1053000081F480110134013D4EE77FEA645C18BFEF
:105310007FEA655C29D094EA050F08BF90EA020F86
:1053200005D054EA000C04BF1946104630BD91EA7E
:10533000030F1EBF0021002030BD5FEA545C05D181
:105340004000494128BF41F0004130BD14F58004C0
:105350003CBF01F5801130BD01F0004545F0FE4134
:1053600041F470014FF0000030BD7FEA645C1ABF69
:10537000194610467FEA655C1CBF0B46024650EAA0
:10538000013406BF52EA033591EA030F41F40021CC
:1053900030BD00BF90F0000F04BF0021704730B552
:1053A0004FF4806404F132044FF000054FF0000127
:1053B00050E700BF90F0000F04BF0021704730B5E8
:1053C0004FF4806404F1320410F0004548BF4042BD
:1053D0004FF000013EE700BF42004FEAE2014FEA12
:1053E00031014FEA02701FBF12F07F4393F07F4FED
:1053F00081F06051704792F0000F14BF93F07F4F1F
:10540000704730B54FF4607401F0004521F0004161
:1054100020E700BF50EA010208BF704730B54FF0E7
:1054200000050AE050EA010208BF704730B511F0EC
:10543000004502D5404261EB41014FF4806404F124
:1054400032045FEA915C3FF4DCAE4FF003025FEAA6
:10545000DC0C18BF03325FEADC0C18BF033202EB2E
:10546000DC02C2F1200300FA03FC20FA02F001FA88
:1054700003FE40EA0E0021FA02F11444C1E600BF27
:1054800070B54FF0FF0C4CF4E06C1CEA11541DBFDA
:105490001CEA135594EA0C0F95EA0C0F00F0DEF8A5
:1054A0002C4481EA030621EA4C5123EA4C5350EA8A
:1054B000013518BF52EA033541F4801143F48013DB
:1054C00038D0A0FB02CE4FF00005E1FB02E506F06C
:1054D0000042E0FB03E54FF00006E1FB03569CF0C1
:1054E000000F18BF4EF0010EA4F1FF04B6F5007FC7
:1054F00064F5407404D25FEA4E0E6D4146EB060639
:1055000042EAC62141EA55514FEAC52040EA5E50C1
:105510004FEACE2EB4F1FD0C88BFBCF5E06F1ED86B
:10552000BEF1004F08BF5FEA500E50F1000041EBA2
:10553000045170BD06F0004646EA010140EA02004F
:1055400081EA0301B4EB5C04C2BFD4EB0C0541EA71
:10555000045170BD41F480114FF0000E013C00F386
:10556000AB8014F1360FDEBF002001F0004170BDAA
:10557000C4F10004203C35DA0C341BDC04F11404C3
:10558000C4F1200500FA05F320FA04F001FA05F24F
:1055900040EA020001F0004221F0004110EBD3701C
:1055A00021FA04F642EB06015EEA430E08BF20EA48
:1055B000D37070BDC4F10C04C4F1200500FA04F3EB
:1055C00020FA05F001FA04F240EA020001F000417D
:1055D00010EBD37041F100015EEA430E08BF20EAF0
:1055E000D37070BDC4F1200500FA05F24EEA020E38
:1055F00020FA04F301FA05F243EA020321FA04F067
:1056000001F0004121FA04F220EA020000EBD3701D
:105610005EEA430E08BF20EAD37070BD94F0000F1D
:105620000FD101F00046400041EB010111F4801F51
:1056300008BF013CF7D041EA060195F0000F18BF02
:10564000704703F00046520043EB030313F4801F3E
:1056500008BF013DF7D043EA0603704794EA0C0FF8
:105660000CEA135518BF95EA0C0F0CD050EA41060E
:1056700018BF52EA4306D1D181EA030101F000418B
:105680004FF0000070BD50EA410606BF10461946B3
:1056900052EA430619D094EA0C0F02D150EA0136BF
:1056A00013D195EA0C0F05D152EA03361CBF104600
:1056B00019460AD181EA030101F0004141F0FE419F
:1056C00041F470014FF0000070BD41F0FE4141F423
:1056D000780170BD70B54FF0FF0C4CF4E06C1CEA23
:1056E00011541DBF1CEA135594EA0C0F95EA0C0FD8
:1056F00000F0A7F8A4EB050481EA030E52EA033593
:105700004FEA013100F088804FEA03334FF08055B3
:1057100045EA131343EA12634FEA022245EA1115E0
:1057200045EA10654FEA00260EF000419D4208BF91
:10573000964244F1FD0404F5407402D25B084FEA3E
:105740003202B61A65EB03055B084FEA32024FF4EA
:1057500080104FF4002CB6EB020E75EB030E22BF47
:10576000B61A754640EA0C005B084FEA3202B6EB07
:10577000020E75EB030E22BFB61A754640EA5C00B6
:105780005B084FEA3202B6EB020E75EB030E22BF46
:10579000B61A754640EA9C005B084FEA3202B6EB47
:1057A000020E75EB030E22BFB61A754640EADC0006
:1057B00055EA060E18D04FEA051545EA16754FEA68
:1057C00006164FEAC30343EA52734FEAC2025FEA86
:1057D0001C1CC0D111F4801F0BD141EA00014FF015
:1057E00000004FF0004CB6E711F4801F04BF0143E6
:1057F0000020B4F1FD0C88BFBCF5E06F3FF6AFAE02
:10580000B5EB030C04BFB6EB020C5FEA500C50F191
:10581000000041EB045170BD0EF0004E4EEA113114
:1058200014EB5C04C2BFD4EB0C0541EA045170BD1B
:1058300041F480114FF0000E013C90E645EA060E5F
:105840008DE60CEA135594EA0C0F08BF95EA0C0F8D
:105850003FF43BAF94EA0C0F0AD150EA01347FF4D5
:1058600034AF95EA0C0F7FF425AF104619462CE7AC
:1058700095EA0C0F06D152EA03353FF4FDAE10460F
:10588000194622E750EA410618BF52EA43067FF460
:10589000C5AE50EA41047FF40DAF52EA43057FF4F0
:1058A000EBAE12E74FF0FF3C06E000BF4FF0010CFB
:1058B00002E000BF4FF0010C4DF804CD4FEA410C5F
:1058C0007FEA6C5C4FEA430C18BF7FEA6C5C1BD02C
:1058D00001B050EA410C0CBF52EA430C91EA030FAD
:1058E00002BF90EA020F0020704710F1000F91EA0A
:1058F000030F58BF994208BF90422CBFD8176FEAD8
:10590000E37040F0010070474FEA410C7FEA6C5CA5
:1059100002D150EA013C07D14FEA430C7FEA6C5CAC
:10592000D6D152EA033CD3D05DF8040B704700BFD8
:105930008446104662468C461946634600E000BF26
:1059400001B5FFF7B7FF002848BF10F1000F01BDF8
:105950004DF808EDFFF7F4FF0CBF012000205DF8C3
:1059600008FB00BF4DF808EDFFF7EAFF34BF012048
:1059700000205DF808FB00BF4DF808EDFFF7E0FFE1
:1059800094BF012000205DF808FB00BF4DF808ED32
:10599000FFF7CEFF94BF012000205DF808FB00BF99
:1059A0004DF808EDFFF7C4FF34BF012000205DF87B
:1059B00008FB00BF4FEA410212F5001215D211D5C3
:1059C0006FF47873B3EB625212D94FEAC12343F0FC
:1059D000004343EA505311F0004F23FA02F018BF7E
:1059E000404270474FF00000704750EA013005D147
:1059F00011F0004008BF6FF0004070474FF000000A
:105A0000704700BF4BB942B9002908BF002802D037
:105A10004FF0FF31084600F03BB882B0EC462DE96C
:105A2000005000F01DF8DDF804E002B00CBC704737
:105A30002DE9F0411646984604460D4600F02AF836
:105A400006FB01FCA6FB002300FB08C7FB18A21AFB
:105A500065EB0303069CC4E90023BDE8F08100BFA9
:105A60002DE9F041904606460F461D4600F070F9BC
:105A700000FB05F3A0FB084508FB0138069B4544E5
:105A8000341B67EB0505C3E90045BDE8F08100BFA5
:105A9000704700BF00292DE9F00F1D46C0F29D8020
:105AA0000024002DC0F2948080460F4694461E4686
:105AB000E3BB8A4255D9B2FA82F747B1C7F1200554
:105AC00020FA05F601FA07F1BA40B8403143170C45
:105AD000B1FBF7F61FFA82FC07FB16110CFB06F56B
:105AE000030C43EA01439D4208D9711E9B1880F0C4
:105AF00013819D4240F21081023E9B18591BB1FB5D
:105B0000F7F507FB15130CFB05FC80B240EA0341D7
:105B10008C4507D96B1E8A1880F00081944540F2AD
:105B2000FD80023D45EA0641002503E08B420CD989
:105B3000002529460A462B4614B1524263EB430323
:105B400010461946BDE8F00F7047B3FA83F5002DF3
:105B500040F087808B4201D38242EAD800250121A0
:105B6000E8E712B90126B6FBF2F2B2FA82F6002E8D
:105B700039D18E1A130C1FFA82FC0125B6FBF3F7FC
:105B800003FB17610CFB07F84FEA104949EA01468D
:105B9000B04506D9791EB61802D2B04500F2D380BE
:105BA0000F46C8EB0606B6FBF3F103FB11630CFBD3
:105BB00001FC80B240EA03439C4506D94E1E9A1868
:105BC00002D2944500F2C280314641EA0741B1E772
:105BD000E443524263EB430366E7404261EB410119
:105BE0004FF0FF345DE7B240C6F1200921FA09F712
:105BF00020FA09F901FA06F1130CB7FBF3F81FFAC2
:105C000082FC03FB18770CFB08F549EA01094FEA0F
:105C1000194141EA0747B040BD420AD9BF1808F10F
:105C2000FF3680F08E80BD4240F28B80A8F10208E2
:105C3000BF18791BB1FBF3F503FB15170CFB05F639
:105C40001FFA89F949EA07418E4206D96F1E891861
:105C500071D28E426FD9023D89188E1B45EA0845E4
:105C60008CE7C5F1200122FA01F306FA05F627FABE
:105C700001F207FA05F720FA01F11E434FEA16492F
:105C8000B2FBF9F81FFA86FA09FB18220AFB08FB97
:105C90000F433B0C43EA024293450CFA05FC08D93A
:105CA000921908F1FF314AD2934548D9A8F1020868
:105CB0009219CBEB0203B3FBF9F109FB11320AFB9A
:105CC00001FABFB247EA02439A4506D94A1E9B1918
:105CD00033D29A4531D902399B1941EA08410F0C58
:105CE0001FFA8CF808FB07F68AB24FEA1C4C08FB37
:105CF00002F80CFB02620CFB07FC02EB1842964216
:105D000088BF0CF5803CCAEB03030CEB124C6345D7
:105D10000ED305D000250DE70E46EFE61D4601E740
:105D200000FA05F01FFA88F808EB0245A842F1D204
:105D300001390025FEE63D468FE71146CDE788464E
:105D4000B7E7B04675E7023FB6182AE702393CE7E5
:105D50002DE9F007144605460E46002B3DD18A4238
:105D600049D9B2FA82F747B1C7F1200120FA01F20E
:105D700006FA07F6BC40BD401643220CB6FBF2F013
:105D8000A1B202FB106601FB00F32F0C47EA0646A6
:105D9000B34208D9471E361980F0FA80B34240F268
:105DA000F78002383619F61AB6FBF2F302FB1362DB
:105DB00001FB03F1ADB245EA0242914207D95E1EF2
:105DC000121980F0E780914240F2E480023B43EAFE
:105DD00000400021BDE8F00770478B4243D8B3FA7A
:105DE00083F4002C42D18B4202D3824200F2E18044
:105DF00000210120EEE712B90127B7FBF2F4B4FA53
:105E000084F2002A40F089800A1B230CA7B20121EA
:105E1000B2FBF3F603FB162207FB06F04FEA154C24
:105E20004CEA0242904207D9121906F1FF3C02D215
:105E3000904200F2D0806646121AB2FBF3F003FBE8
:105E4000102307FB00F7ADB245EA03439F4207D991
:105E5000421E1B1980F0A0809F4240F29D800238B4
:105E600040EA0640B6E700210846B3E7C4F1200641
:105E700022FA06F703FA04F321FA06F501FA04F10F
:105E800020FA06F63B434FEA134CB5FBFCF71FFA2A
:105E900083F80CFB175508FB07F946EA010A4FEA9D
:105EA0001A4141EA0545A94502FA04F204D97E1EC9
:105EB000ED18C0F081803746C9EB0501B1FBFCF657
:105EC0000CFB161508FB06F81FFA8AFA4AEA054188
:105ED000884503D9751EC91874D32E4646EA07466D
:105EE000370C1FFA82FC0CFB07F5120CB3B20CFB4B
:105EF00003FC02FB035302FB07F203EB1C439D422E
:105F000088BF02F58032C8EB010102EB13429142D7
:105F10004CD343D0304600215CE79440C2F12005C9
:105F200021FA05F620FA05F501FA02F1230CB6FB79
:105F3000F3FCA7B203FB1C6607FB0CF829430D0C0E
:105F400045EA0646B04500FA02F508D936190CF1C3
:105F5000FF303ED2B0453CD9ACF1020C3619C8EB4B
:105F60000602B2FBF3F003FB102607FB00F889B230
:105F700041EA0642904506D9461E121927D290459D
:105F800025D902381219C8EB020240EA0C413FE75A
:105F9000384608E733461AE7104661E700FA04F08E
:105FA0001FFA8CFC0CEB03439842B3D2701E002105
:105FB00010E7214620460DE7A9457FF67CAF023F5A
:105FC000ED1879E7884588D9023EC91886E730463A
:105FD000D9E78446C3E7023E12192DE77047002334
:105FE000036018467047002303601846704700237B
:105FF0000360184670470000194B10B51A6812B1BB
:106000001868411E1960174C236813B12268501E8E
:106010002060154C216811B12168481E06E0134B21
:106020001A7822B9E72000F05BFFC8202060104BEF
:106030001A68B2F57A7F0FD300221A6001F058FD7A
:10604000042001F0A3FB4FF6FF71884207D0042023
:10605000BDE8104001F08CBB1868411C196010BDF0
:1060600044130020381300204013002000000020BB
:10607000481300201FB50446E72000F019FF01F087
:1060800091F901F0D1F80F4B0F481049104A0093D5
:106090000190104B029103920F49104A104800F0F2
:1060A000C1FA4FF47A7000F0B1FD204600F0D2FA48
:1060B0000C4800F04DFB48F2442000F017FB002094
:1060C00004B010BDE1720008F572000861730008A9
:1060D00089730008EF5F0008DF5F0008E75F0008D2
:1060E000DD5F00080100002070B500228CB0174B66
:1060F00006460D461020022100F00CFA01AB0022EA
:10610000B45A200A44F00101AC5A023203F8024C9E
:10611000240A03F8041C03F8030C03F8014C0433AD
:10612000182AEDD16B4630210422102000F0F2F93C
:1061300000213022684602F071FF1020014634220F
:106140006B4600F0E7F9C0B20CB070BDCC0C010892
:1061500010B5084C204600F043FA40B92378012BD3
:1061600006D16278182A03D1A370184610BD00200A
:1061700010BD00BF2C09002070B50124494D4A4EC6
:10618000002320462B7086F88340FFF773FFFFF74C
:10619000DFFF10B12C70B47070BD06F1840000F008
:1061A000F4F96C7128713F4D3F4C687918B194F83F
:1061B0008A10022969D994F88A503C4B3C4A394CE0
:1061C0000120032D14BF15461D466071354C6179C1
:1061D00031B1A01D04F11E01FFF786FF6071F5E7E4
:1061E00000F06EFA0120FFF745FF012363712D4C8B
:1061F00062793AB10B20802100222B4600F08AF907
:106200006071F4E794F904000125657120B1264915
:10621000012081F88B000FE0234991F8843023F0AE
:10622000010481F884401F4D6A79002AEFD021488B
:1062300000F0A2F96871F6E71B4C94F88B3043B17B
:1062400018490420C98E1C4A00F0ABF984F88B0071
:10625000F2E7012584F88C50134C124D94F88C0011
:1062600038B10520298F154A00F09BF984F88C007D
:10627000F2E7FFF7FFFE012264202A7000F0C6FC5F
:10628000E720BDE8704000F005BEE31C0B20802134
:10629000002200F013F9687194F88A00431C84F816
:1062A0008A3080E7000000202C0900201CD900085B
:1062B0002F090020B00900209CD9000884F90008AB
:1062C00008B54FF4A0414FF0006001F047FA00F02C
:1062D000C5FE00F07FFC4FF0FF1000F08FFDE720BF
:1062E00000F0D8FD40F6B83000F0BCFC0020FFF70D
:1062F000C1FE002000F0FCFEB0F57A7F04D3002040
:1063000000F0FEFEFFF738FF0B4B93F883200AB135
:106310000A48027893F8831019B1084B1A78002ABA
:10632000E7D0054881780029E3D1FFF711FF4FF44A
:106330007A7000F06BFCDCE72C09002000000020E4
:1063400007B5064B052000936E21054A002301F096
:10635000FFF8072001F04CF9FEE700BFCF0C010861
:106360008C0B010807B50B4A0B49136818188842B3
:1063700010600CD9094A052000928B21084A00239D
:1063800001F0E6F8082001F033F902F0F9FA1846B6
:106390000EBD00BF3C00002000480020DB0C0108BF
:1063A0009C0B01084FF0FF30704701207047704789
:1063B000FEE7FEE7FEE7FEE770477047704708B567
:1063C00001F03AF8BDE80840FFF716BE00F02CBB1C
:1063D00008B5042001F0F0FA78B1042001F0FCFACD
:1063E0000020064B0146188000F0C6FD044810212D
:1063F0000122BDE8084001F064BD08BD2C0A002060
:10640000002C014008B54FF4006001F0D5FA38B116
:106410004FF4006001F0E0FABDE8084000F092BBE4
:1064200008BD000008B50F48102101F083FDC0B180
:106430000C48102101F089FD002000F049FE28B928
:10644000094B1A880A3290B2188008BD10210548FD
:10645000002201F036FD00200121BDE8084000F0D7
:106460008BBD08BD002C01402C0A0020002100F04B
:1064700004B80C4B5B58435004310B480B4B42188B
:106480009A42FFF4F6AF0A4A00F003B8002342F83C
:10649000043B084B9A42FFF4F9AF00F0DBFFFFF733
:1064A0000FFF704730100108000000202C09002069
:1064B0002C09002058130020FFF7FEBF2DE9F341FF
:1064C000864613480D46866871461F4602ACFF2378
:1064D00006F1090004F8053D904601F03AFD294611
:1064E00001F037FD40F20125414601F032FD0C225A
:1064F0003146284602F0BCF92846214602F0A4F9AC
:106500003846002101AA02F0A9F90198BDE8FC81F2
:10651000CC0A00202DE9F341864616480C468668D1
:106520007146984602AD4FF0FF3306F10A0045F878
:10653000043D174601F00DFD0C2101F00AFD214636
:1065400001F007FD394601F004FD4146224606F1FF
:106550001A0002F0B5FC902031461022A3B202F0DE
:1065600098F940F20220294602F06EF90198BDE840
:10657000FC8100BFCC0A002008B503460620014676
:106580000022FFF7C7FFC0B208BD08B503460620CA
:1065900001460022FFF792FF062814BFFF200020CB
:1065A00008BDF8B506460D4617460C467B192A1B52
:1065B0001F2CC4EB030392B208D930462021FFF709
:1065C000A9FFC0B2203C0028F0D007E02CB1304633
:1065D0002146FFF79FFFC0B2F8BD2046F8BD00007E
:1065E00037B50B4B40F20725044699680022284630
:1065F00002F03EF92846694602F026F99DF80300AC
:106600009DF80410207061709DF800003EBD00BF31
:10661000CC0A0020024B01225A80586001F01CBEB7
:10662000CC0A002010B50A4CE16022616361029B34
:106630000399E361049A059B216262620021A362CF
:10664000A061012084F8400084F8411010BD00BF13
:10665000CC0A002070B5174B174D0024064617488A
:10666000AC63EC632C802C866C86AC86EC86EC628A
:106670006C806C60AB6000F0B7F8A968A64214BFEC
:106680000226264601224E724FF4804002F0F0F8B6
:1066900021464FF4804002F0D7F8A968224644F220
:1066A0000B0002F0E5F844F20B002146BDE8704013
:1066B00002F0CAB8380B0020CC0A0020156600088A
:1066C00038B5094C0020A36A98472546E869064C6E
:1066D00080470028FAD0A16809B10022A260BDE875
:1066E000384000F0A9B800BFCC0A002037B548F206
:1066F000080248F2080102408A42034613490BD1BE
:106700000020934281F840001FD023F4004424F07D
:10671000080545F4004302E0012081F840000B49E0
:106720004FF0FF328D6802AC194605F1090044F8BC
:10673000042D01F00EFC29460422082002F098F8EE
:106740000820214602F080F801983EBDCC0A0020C6
:1067500007B50D4A4FF0FF330193916890B1542370
:106760004370037083704B7242788A728078032280
:10677000C8720C2002F07CF80C2001A902F064F829
:10678000019800E018460EBDCC0A002000F001037D
:1067900083F0010003B962B670470000F8B5044603
:1067A000EFF3108772B60E4E337A9C4209D0052C57
:1067B00001D0012506E00B48C16988470028F8D1BF
:1067C000347200253846FFF7E1FF054B15B15A69D1
:1067D000002AE5D05869D0F1010038BF0020F8BD8B
:1067E000200B0020CC0A00200F4B10B500220F49CF
:1067F0000F4C1A721961DA80DA609A801860A36A05
:10680000104698470B4800F009FA206A80474FF479
:106810007A7000F003FA0120A26A90470120BDE8D7
:106820001040FFF7BBBF00BF200B0020380F002037
:10683000CC0A0020E093040010B5054C636A984729
:106840000020A16A884703480022026110BD00BFF2
:10685000CC0A0020200B0020024B4FF480725A60BB
:10686000704700BF00E100E02DE9F84307460E46FF
:1068700014461D46EFF3108072B6DFF88080A4B294
:1068800098F80890FFF782FF002000F011FD01202A
:1068900037B93146224600F093FC3846154906E0E8
:1068A000D8F81010224600F08BFC0020314622461A
:1068B00000F086FC10480221012201F01AF80120A4
:1068C00000F0F6FC9DB1EFF3108072B60B4C257A08
:1068D000FFF75CFFA945234602D16269002AF2D086
:1068E0005869D0F1010038BF0020BDE8F883284680
:1068F000BDE8F8834000002058000240200B002033
:10690000CB074CBF0B464B1C10B5C3F30724447098
:106910000024C4700471054C01220270837084F855
:106920004120034AD0609180581D10BDCC0A002040
:10693000200B00202DE9F04104460D46EFF31080B6
:1069400072B6384E377AFFF721FF17B1012F2AD1DF
:1069500004E00120FFF722FF00285FD0EFF310884A
:1069600072B60321377A317200F048FD4046FFF7D6
:106970000DFF20462946FFF7C3FF0646002F4DD0E6
:10698000322000F04BF90120214604220346FFF794
:106990006BFF002842D03220B5B200F03FF9012051
:1069A000211D2A1F30E00220FFF7F8FE002835D015
:1069B000EFF3108772B61B4B1E7AB21E504250EB9B
:1069C000020656B1EFF3108872B604211A7A1972D2
:1069D00000F014FD4046FFF7D9FE3846FFF7D6FE1B
:1069E000104B16B95A69002AE2D05869B0B920464E
:1069F0002946FFF785FF06460520FFF7CFFE68B161
:106A0000B5B2012021462A460346FFF72DFF002894
:106A100014BF28464FF0FF30BDE8F0814FF0FF3043
:106A2000BDE8F081200B002037B54FF4003000F0B6
:106A300069FF3E4C05464FF4005000F063FF237A97
:106A4000D91E05295FD8DFE801F0475E475E0334B1
:106A5000002D69D0002867D04FF4083000F060FFA7
:106A6000082020722469B4F80320C2F3072343EA04
:106A700002218CB2002C57D0E10701D4601C84B2F3
:106A8000B4F5806F0BD92A4A0520009240F27F119D
:106A9000284A002300F05CFD0A2000F0A9FD234BEA
:106AA000002019692246034603B0BDE83040FFF7D5
:106AB000DBBE002838D04FF4083000F031FF1E4B09
:106AC00002204FF480722072C3F8842000F000FC92
:106AD00021682069884727E0002D25D017488021AC
:106AE00001F074F80028F9D1104C4FF4083000F090
:106AF00017FF217A032901D1052002E000F0E8FB0D
:106B00000220207210E0237A0D4A05208DE80C0047
:106B100040F2B511074A002300F01AFD0B2003B024
:106B2000BDE8304000F064BD03B030BD200B002054
:106B3000E70C0108AD0B010800E100E0003800405F
:106B4000220D01080E4B70B5D86980470546B0B9D3
:106B50000C4C217A022904D004290ED079B90122E3
:106B60000CE00723237200F049FC21692846052226
:106B70002B46BDE87040FFF777BE0522227270BD3C
:106B8000CC0A0020200B00200D4B0E4A197839B991
:106B9000D88881B21187188981B291879B8806E0D5
:106BA000D88981B21187188A81B291879B8906485A
:106BB0009BB29386FF21632202704170704700BF31
:106BC000100A0020002C0140480000204FF44070C3
:106BD00000F086BD0A4B4FF47A701A68094BB2FB7D
:106BE000F0F109484A1EF0215A6080F82310002273
:106BF00007219A601960D02380F82330704700BFC6
:106C00009C00002010E000E000ED00E0024B186066
:106C10001A68002AFCD17047441300200E4B0F4A1B
:106C2000596884B001910E4B1168B1FBF3F20A4927
:106C30004B6802930299019BC91A0391039B002B95
:106C400003DA019B0299CB1803930399B1FBF2F38A
:106C50008342ECD304B07047001000E09C00002099
:106C600040420F0010B5044645F2555000F02EFF8B
:106C7000062000F031FF42F21070844228BF044623
:106C800028216143C1F30F2000F02CFF00F030FFFA
:106C9000BDE8104000F034BF082814D8012908D1FD
:106CA0000B490C4A01EB8003596832F81000086167
:106CB0000BE051B9064B074A03EB80014B6832F8F1
:106CC0001000586101E0FF2300E0002358B2704734
:106CD00048000020C00B010873B50E4E85007319E3
:106CE00004460121186900F025FF0B4B36F814000B
:106CF00010215D19ADF804008DF8071003226868B3
:106D000001A98DF8062000F06DFE20460021FFF756
:106D1000C3FF7CBDC00B01084800002070B50121F5
:106D200088B04FF4006000F005FF314B31481C681B
:106D30006026B4FBF0F1304C01A88DB201F094F85C
:106D400001A801F091F842F20F7201A9ADF80450C8
:106D500020460025ADF80820ADF80A50ADF80650E1
:106D600000F03AFF04A801F088F80223ADF81060A3
:106D70002046012604A9ADF81830ADF81260ADF830
:106D80001650ADF81C5000F071FF2046294601F066
:106D9000ADF8204604A900F0ADFF2046294601F0D9
:106DA000ADF8204604A900F0E9FF2046294601F08D
:106DB000AFF8204604A9ADF81050ADF81260ADF858
:106DC0001650ADF8185001F01BF82046294601F086
:106DD000A7F82046314601F07DF82046314601F003
:106DE00056F82046314601F05EF808B070BD00BF8D
:106DF0009C00002040420F00002C014030B510499B
:106E0000104A8C8D92F82420A5B26C1C5443C0F318
:106E100007456C430C4B240CDC808D8D5861ACB263
:106E200001345443C0F307256C43240C1C81898D25
:106E3000C0B289B2013148434243120C9A8030BD3E
:106E4000002C014048000020100A002037B50F4DEB
:106E5000044605EB8003186B012105EB440500F0A7
:106E600069FEB5F84000ADF804000CB9102100E04F
:106E70001821074B8DF8071003EB84040322A06A46
:106E800001A98DF8062000F0ADFD3EBDC00B010844
:106E90004800002018B1E72807D1FFF775BE034B63
:106EA0004FF40052986A0261704770474800002012
:106EB00058B1E7280FD1084A002308481387938761
:106EC000938601220370427005E0044B4FF400509A
:106ED000996A486170477047002C014048000020C3
:106EE00010B1E72840D106E020498B6ADA6882F4C5
:106EF0000050D86070471E4A1E4B1178C1B9188FD8
:106F000080B208B1198702E0D1888AB21A879B8FB4
:106F1000184899B209B1002102E0154A138999B2C3
:106F200081871449888E82B2C2B9114B988819E0C2
:106F3000188F81B209B1002001E0D28990B2188780
:106F40009B8F0C499AB20AB1002202E00848038ADA
:106F50009AB28A870749888E83B20BB1002002E07B
:106F6000034A908980B28886704700BF480000209D
:106F7000100A0020002C014073B5104C0E4604EBA3
:106F8000400494F84C10054694F8480000F084FD45
:106F9000B4F85040204600F009FD09480023451987
:106FA00095F83810684600948DF804308DF8051077
:106FB0008DF8066000F0BEFC7CBD00BFC00B010870
:106FC00048000020F7B5224E8700F3190546586D9A
:106FD0000C4640F00100012100F0ACFD1D4B06EB1A
:106FE00045065A1992F83A10B6F85C0002AADF1961
:106FF0008DF8031022F8080D6946F86B00F0F2FCDA
:10700000012C24D11021002213481B2700F059FF26
:1070100005238DF8047001A800278DF805308DF840
:1070200006708DF8074000F065FBB6F8601006208A
:107030008DF8050001A88DF804108DF806708DF804
:10704000074000F057FB28462146FFF795FFFEBD9D
:10705000C00B010848000020002C01401A4B1B49BE
:10706000DA6810B542F080700024D8604C600B687C
:107070004FF0C05043F001020A60012100F066FDAC
:10708000012000F045FDFFF7A1FD0120014600F0C1
:1070900051FDE0B20134FFF71FFE082CF9D1FFF7D4
:1070A0003DFE0020FFF7D2FE0120FFF7CFFE0220B9
:1070B000FFF7CCFE0320FFF7C9FE00200121BDE849
:1070C0001040FFF77FBF00BFF0ED00E0001000E0D0
:1070D000054A064B02EB800103EB4002C86BB2F895
:1070E0005C1000F0CFBC00BF48000020C00B0108BE
:1070F000024B03EB4000818B88B27047100A0020DE
:10710000024B002203EB400082837047100A0020EC
:1071100010B5082086B0012100F00CFD264C4FF47C
:107120008040012100F012FD032018214FF400538C
:107130008DF802008DF8031020466946ADF8003046
:1071400000F050FC4FF4004220466946ADF80020A4
:1071500000F048FC04204FF480438DF8030069469A
:107160002046ADF8003000F03DFC0021ADF80410E1
:107170004FF48272ADF80810ADF80A104FF40070A9
:10718000ADF81210A4F5544407210123ADF80620F0
:10719000ADF80E000822ADF81410204601A9ADF894
:1071A0000C30ADF8102000F0DDFC2388034A98B2C3
:1071B000108006B010BD00BF000C0140521300202B
:1071C00070B5044601208CB00E460146154600F00D
:1071D000A5FC124B002080224FF44051012C01935A
:1071E0000296059006920790089009900A910B90DC
:1071F00006D103900A48049500F0D8FA084807E041
:107200004CB9102307480393049500F0CFFA0548C2
:1072100001A900F043FB0CB070BD00BF0C3800406A
:10722000440002405800024073B50F23012400259A
:1072300001A88DF804308DF805508DF80650174ED2
:107240008DF8074000F056FAFFF762FF20462A4605
:107250001349FFF7B5FF28462A461249124DFFF79A
:10726000AFFF30460221224600F043FB284621466C
:10727000224600F0A2FC22462846022100F09DFC96
:107280002846214600F08DFC2146084800F026FBE8
:107290003046214600F022FB7CBD00BF5800024072
:1072A000380F0020380B0020003800404400024016
:1072B00010B504462146044800F010FB034821465F
:1072C000BDE8104000F00ABB4400024058000240F4
:1072D00002484FF4805100F0DBBB00BF000C0140BE
:1072E00008B54FF40061024800F0CCFB08BD00BFB8
:1072F000000C014030B5092085B0012100F01AFCD6
:107300004FF400644823694614488DF80330ADF803
:10731000004000F067FB0B21012000F0BDFB204680
:1073200000F044FB0C200294002501248DF80D0090
:1073300002A88DF80C508DF80E4000F0FBFA2821C1
:1073400001A88DF804108DF805408DF806508DF8D1
:10735000074000F0CFF905B030BD00BF000C014080
:107360001FB52823002401A88DF804308DF80740AC
:1073700000F0C0F94FF40060029002A88DF80E40B2
:1073800000F0D8FA1FBD000020B105484FF480710D
:1073900000F07EBB02484FF4807100F07BBB00BF61
:1073A000000C014013B5082001210F4C00F0C2FB76
:1073B000032010214FF480538DF806008DF807103C
:1073C000204601A9ADF8043000F00CFBFFF780FF68
:1073D0004FF48072204601A9ADF8042000F002FBB2
:1073E0000020FFF7D1FF1CBD000C014002484FF404
:1073F000007100F04DBB00BF000C014010B50B4CFC
:10740000238823F0400001040A0C2280FFF7EEFFDE
:10741000074B188881B2074841F040024FF4805171
:107420002280BDE8104000F035BB00BF00380040AE
:1074300052130020000C0140024BDA6B501CD86341
:10744000704700BF100A0020014BD86B704700BF87
:10745000100A00203A4B82B01A6842F0010018600E
:107460005968384A0A405A60186820F0847121F43B
:1074700080321A60186820F4802119605A684FF42D
:107480001F0122F4FE0000225860996000920192D0
:10749000186840F480311960294B1A6802F40030F2
:1074A000019000994A1C0092019818B90099B1F511
:1074B000A06FF1D11B6813F4003218BF01220192B2
:1074C0000198012805D0204B4FF000629A6002B06D
:1074D00070471E490B6843F010020A60086820F0EC
:1074E00003030B600A68A1F5805342F002000860B4
:1074F000596859605A685A60586840F48061596008
:107500005A6822F47C105860596841F4E8125A60B5
:10751000186840F0807119601868094A8101FBD52C
:10752000536823F003015160506840F00203536038
:10753000034A516801F00C000828F9D1C3E700BFE5
:10754000001002400000FFF800ED00E000200240C3
:107550002DE9F041A4B02AAC54F8045B80460E46F5
:10756000174605942BB118462F2101F081FE441CCB
:1075700000E0194CFFF768FF184A034652F828202C
:1075800002948DE88400039606A87821144A01F03D
:107590003BFE144B04463BB106A8AFF30080782CA9
:1075A00002D91148AFF3008006A878212A46059B2E
:1075B00003F00CFC04460B4850B106A8AFF3008062
:1075C000782C02D90848AFF300800848AFF3008058
:1075D00024B0BDE8F08100BF4F0D0108240C010864
:1075E000320D010800000000490D01084D0D010891
:1075F00070B5064672B6344B032553F830406FF031
:107600007F40FFF7FBFBE720FFF752FC8DB12046E0
:10761000FFF7F4FBE720FFF73DFC2C48FFF7FEFAED
:10762000E720FFF745FC2A48FFF7F8FA6A1E95B2F3
:10763000ECE72748FFF7F2FA03252046FFF7DEFBC9
:10764000E720FFF727FC2348FFF7E8FA013DE72092
:10765000FFF72EFCADB21E48FFF7E0FA002DECD18B
:107660001B48FFF7DBFA03252046FFF7C7FBE7209F
:10767000FFF710FC1548FFF7D1FAE720FFF718FCD9
:107680001348FFF7CBFA681E85B2002DECD11248E3
:10769000FFF7C4FAA9B28E4210D02046FFF7AEFB26
:1076A000E720FFF7F7FB0B48FFF7B8FAE720FFF7F3
:1076B000FFFB0848FFF7B2FA0135EBE70748FFF791
:1076C000ADFA0325A3E700BF3C0C0108F049020016
:1076D000A0860100E0930400A0BB0D0000350C0063
:1076E00040F0BF60024B40F40031D960704700BFEA
:1076F00000ED00E0C37810B503B3164CE168CB434E
:10770000C3F302244178C4F1040201FA02F10F220A
:1077100022FA04F28478037822400A43110103F12B
:107720006043CAB203F5614181F800230078012269
:1077300000F01F03410902FA03F007E0007801227C
:1077400000F01F03410902FA03F02031024B43F815
:10775000210010BD00ED00E000E100E021F06041FB
:1077600021F07F02014B10439860704700ED00E06C
:10777000054A82B0002301930192019BC018019039
:10778000019A116002B07047006C0040064982B057
:10779000002301930191019A80180190019B19889F
:1077A00088B202B0704700BF006C004002684FF61C
:1077B000FE73134003602D4B00219842016041602D
:1077C0008160C16022D02A49884229D0294B984241
:1077D00030D02949884237D0284B98423ED0284B98
:1077E000984206D153F8681C41F4700043F8680CC5
:1077F00070472449884206D151F87C0C40F07062F1
:1078000041F87C2C7047204B984206D153F8042C49
:1078100042F00F0143F8041C70471C49884206D10E
:1078200051F8183C43F0F00041F8180C7047184B21
:10783000984206D153F82C2C42F4706143F82C1C6A
:1078400070471449884206D151F8403C43F47040D7
:1078500041F8400C7047104B984205D153F8542C16
:1078600042F4702143F8541C704700BF08000240E6
:107870001C00024030000240440002405800024018
:107880006C00024080000240080402401C040240D8
:1078900030040240440402405804024070B50668B7
:1078A0008C680D6A26F4FF4222F070060A6945EAE8
:1078B00004034C6913438A692343CC6913431C4373
:1078C0004B6A44EA03028B6A1A4332430260CB6874
:1078D0000A68496843608260C16070BD19B101687F
:1078E00041F0010303E002684FF6FE7313400360AA
:1078F000704703680AB1194301E023EA01010160FE
:1079000070470000C3004CBF034B044B1968014291
:107910000CBF00200120704700040240000002401C
:10792000C2004CBF014B024B58607047000402403C
:1079300000000240837910B5002B29D01A4B016852
:107940001C68CA4314401C605C6822405A6002797B
:1079500002F1804404F58232146821431160026808
:107960009C68D1430C409C60DC6840792140102821
:10797000D96006D1986810439860D9680A43DA60E4
:1079800010BD00F1804303F5823319680A4308E013
:107990000179006801F1804202F582331A6822EA17
:1079A00000021A6010BD00BF00040140014B586185
:1079B000704700BF00040140064B1A68596910EA7D
:1079C000010304D010420CBF00200120704718466C
:1079D000704700BF00040140014B5861704700BF71
:1079E00000040140CB78F0B5DA0648BF8A780988F0
:1079F00003F00F0548BF154311F0FF0F1ED00468B8
:107A00000022012707FA02F707EA0106BE4211D158
:107A100097004FF00F0C0CFA07FC05FA07F724EA61
:107A20000C04282B44EA070401D1466102E0482BEC
:107A300008BF06610132082AE3D10460FF2920D97A
:107A40004468002202F10806012707FA06F707EA50
:107A50000106BE4211D197004FF00F0C0CFA07FC43
:107A600005FA07F724EA0C04282B44EA070401D19D
:107A7000466102E0482B08BF06610132082AE1D1C5
:107A80004460F0BD836819420CBF0020012070479C
:107A9000016170474161704701F0030230B5920007
:107AA0000F2404FA02F400FA02F0074B89080231AD
:107AB00053F8215025EA040443F8214053F82140AB
:107AC000044343F8214030BD00000140014B1860E1
:107AD000704700BF00300040014B5860704700BF46
:107AE00000300040014B9860704700BF00300040FC
:107AF000024B4AF6AA221A60704700BF00300040CD
:107B0000024B4CF6CC421A60704700BF0030004078
:107B1000014B1860704700BF20000E42044B5A69A9
:107B200009B1104301E022EA00005861704700BF2C
:107B300000100240044B9A6909B1104301E022EAA7
:107B400000009861704700BF00100240044BDA69E2
:107B500009B1104301E022EA0000D861704700BF7C
:107B6000001002400B8810B54C88028823438C8893
:107B700002F441522343CC8823430C8923434C898C
:107B800023438C892343CC89098A23431A4393B224
:107B90000380828B22F400631A04130C8383018216
:107BA00010BD038819B199B241F0400303E023F0FE
:107BB00040010A04130C0380704783889BB20AB10A
:107BC000194301E023EA01018180704703891942CA
:107BD0000CBF002001207047224A038890429BB2CC
:107BE00012D002F5006290420ED0B0F1804F0BD05F
:107BF000A2F59832904207D002F58062904203D0FD
:107C000002F58062904203D14A8823F07003134347
:107C1000154A904208D002F58062904204D023F4C5
:107C20004073CA889BB2134303808B880A8883857C
:107C30000C4B028598420FD003F5006290420BD0A6
:107C400002F54063984207D003F58062904203D06A
:107C500002F58063984201D1097A0186012282826D
:107C6000704700BF002C014000100040038C70B52D
:107C700023F001021404250C0584068C8388028BF2
:107C80009CB222F073052B040D881A0C26F0020614
:107C900033042A434E880D891B0C3543ADB22B4368
:107CA000134DA8420FD005F50065A8420BD005F58D
:107CB0004065A84207D005F58065A84203D005F5C8
:107CC0008065A8420ED123F008064B898D881E439B
:107CD00026F004032B43CE898D8924F44074354368
:107CE000ADB22C43C988848002838186038470BD31
:107CF000002C0140038C30B523F010021404250C35
:107D00000584038C8288048B23F0200324F4E64549
:107D10002C040D88240C44EA05241D042B0C0D8929
:107D200092B243EA05134D88A4B243EA0513124DFB
:107D30009BB2A84203D005F50065A84215D14D8934
:107D400023F080039BB243EA05134FF6BF751D4035
:107D50008B8822F4406245EA0315ABB28D8942EA72
:107D60008502CD8942EA850292B2C9888280048365
:107D70000187038430BD00BF002C0140038C30B567
:107D800023F480721404250C0584038C8288848B70
:107D900023F4007324F073052C040D88240C2C4369
:107DA0001D042B0C0D8992B243EA05234D8843EA4A
:107DB0000523124D9BB2A84203D005F50065A842E9
:107DC00015D14D8923F400639BB243EA05234FF696
:107DD000FF351D408B8822F4405245EA0325ABB2A3
:107DE0008D8942EA0512CD8942EA051292B2C9880C
:107DF000828084838187038430BD00BF002C0140D2
:107E0000038C30B523F480521404250C0584038CB4
:107E10008288858B94B225F4E64215042A0C0D88DD
:107E200023F4005342EA05221D042B0C0D8992B263
:107E300043EA05334D8843EA05330A4D9BB2A84215
:107E400003D005F50065A84205D18D8924F480444E
:107E500044EA8514A4B2C98884808283A0F84010C3
:107E6000038430BD002C014000214FF6FF73838056
:107E70000180C180418001727047002303804380EC
:107E80008380C380038143818381C38170470388DA
:107E900019B199B241F0010303E023F001010A0492
:107EA000130C03807047B0F8443029B16FEA4343A4
:107EB0006FEA53418AB201E059044A0CA0F8442009
:107EC000704783899BB20AB1194301E023EA01019B
:107ED00081817047038819B199B241F0800303E0B2
:107EE00023F080010A04130C03807047038B23F0F6
:107EF000080213041A0C114301837047038B23F407
:107F0000006213041A0C42EA01218BB2038370470A
:107F1000838B23F0080213041A0C114381837047EA
:107F2000838B23F4006213041A0C42EA01218BB202
:107F300083837047038A828911EA030092B203D0D7
:107F400011420CBF002001207047C9438AB202824F
:107F5000704701700B0A0A0C090E43708270C170E1
:107F6000043070470170090A4170023070474318AD
:107F70005A78405C00EB022188B2704710B5431874
:107F80009A78DC78415C120402EB0462587852184B
:107F900002EB002010BD000073B544790023022CD1
:107FA00001930FD0032C19D0012C2BD1164D286929
:107FB0002E4620B1296901A888470246B8B9B168A0
:107FC00001201BE0104DE8682E4620B1E96801A8A9
:107FD0008847024658B9B16802200FE00A4D6A6925
:107FE0002E464AB16B6901A89847024620B1A9689C
:107FF0002046BDF8043003E0B16803200022134698
:1080000000F05BFC7CBD00BFCC0A0020072830B527
:1080100012D8012910D8EFF3108472B6012505FAA1
:1080200000F501FA00F0054B1A6822EA0502024346
:108030001A60E30700D462B630BD00BFB000002074
:10804000F0B5012187B00546FFF791FF00F48043AA
:10805000044698B250B3B4F5824F27D12846052183
:10806000FFF785FF0026074607353446BE4208D095
:1080700028460221FFF77BFF013624180435B6B2EB
:10808000F4E7744B188E21188AB21A86D86B24181C
:10809000DC63D96B9A6B914240F0CE8093F840003C
:1080A000002800F0C9809B69992033E024F4FF4147
:1080B00021F07F0290B2002800F09B8048F210026D
:1080C00094422AD00CD8B4F5004F40F2C08048F258
:1080D00002039C4217D9991C8C4240F0B88012E0F0
:1080E00048F2800084420ED005D848F24002944203
:1080F00040F0AD8051E0B4F5024F04D0B4F5084F24
:1081000040F0A5806CE053498869002800F0948015
:108110008B69204600210A4669E00023EA1851795C
:108120000DF803100133042BF8D1687A2B7BAA7A5F
:10813000E97A8DF804008DF807308DF805208DF868
:10814000061005F10D00002306AAD218C15C013308
:10815000042B02F8101CF7D105F11100002306AA28
:10816000D218C15C0133042B02F80C1CF7D105F1C5
:108170001500002300AAD218C15C0133042B11742E
:10818000F8D1344928798A698DF81400002A53D02F
:108190008B6920466946152229E0053500212846CD
:1081A000FFF7ECFE042100902846FFF7E7FE0821C8
:1081B00001902846FFF7E2FE0C2102902846FFF7C7
:1081C000DDFE102103902846FFF7D8FE214B0490D6
:1081D0009969002930D09B6920466946142206E03F
:1081E0001C48826942B38369691D20460122984771
:1081F00022E041F203039C4205D00C339C4202D0A2
:10820000591E8C421AD16C1D04212046FFF7B6FE80
:1082100039301CD12D790F480021C5622046FFF767
:10822000ADFE042105462046FFF7A8FE393003D1F4
:1082300028460121FFF7EAFE012009E0054A1388DC
:1082400099B28C4204D0B4F5805FF5D100E00020F3
:1082500007B0F0BDCC0A002070B5214B8CB05D8812
:10826000ADB2002D38D05C682678321F504250EBFA
:10827000020636B12046FFF7E3FE011C18BF0121BC
:1082800000E031460D4611BB002E25D0144B93F86B
:1082900041200ABB13480090217801916378029332
:1082A000A2780392E078049021790591637906938E
:1082B000A2790792E0790C4A0890217A042009916A
:1082C000637A40F213310A932B46FFF741F90448D1
:1082D00000224280FEF7C0FA28460CB070BD00BFF5
:1082E000CC0A00206E0D01089C0C01082DE9F04716
:1082F0008AB0044689469046FFF7A6F80025079005
:10830000B24F7B8898B2002840F0B780FFF79CF806
:1083100008900899079BC81A0990099A002A03DA5D
:108320000799089B58180990A94A1368002BE7D0B1
:1083300009999942E4D3A74D08980799099A00959D
:10834000A24D019002910420F82103920493A24AC5
:108350000023FFF7FDF82B88A04A9BB28DE80C00A4
:108360000420F9219C4A0023FFF7F2F8288841F203
:10837000070281B2914224D8531E99426CD240F236
:108380000220814268D00DD80C2906D8082963D272
:1083900000294DD006295FD966E00D2959D040F259
:1083A00001230BE041F20202914258D8B1F5805FFF
:1083B00052D8B1F5017F4CD940F20723994237D109
:1083C00047E041F21100814243D014D841F20B0240
:1083D000914241D005D841F2090399423CD03ED8A0
:1083E00037E041F20F00814239D035D841F20D0219
:1083F00091421DD133E042F20603994229D007D8B9
:10840000B1F5005F14D942F20400814221D92EE077
:10841000B1F5804F00F00E8205D8A1F50052083A60
:10842000012A05D815E044F20B03994200F00282BC
:1084300066496B4A088840F2011183B28DE80C004E
:108440000520654A0023FFF783F80B20FFF7D0F8DB
:10845000F0E1FF222270EDE14FF0FF3105E04FF037
:10846000FF3121606160E5E100212160E2E1204609
:1084700000213A2200F0D2FDDCE17E683278042A45
:1084800040F07D8130460121FFF771FD0546304601
:10849000FFF7D6FD002840F0688141F20703771D01
:1084A0009D4253D85A1E954280F0B88040F2022077
:1084B000854200F0B38014D80C2D09D8082D80F027
:1084C000AD80002D00F05181062D40F2A780E9E03B
:1084D0000D2D00F0A08040F20127BD4240F0458103
:1084E00099E041F20202954218D8B5F5805F00F29A
:1084F0009580B5F5017F40F28E8040F207218D42D4
:1085000040F033813379002104F8013B3846FFF70E
:1085100035FD01462046FFF71CFD26E141F204002F
:10852000854200F0958040F2AC8038460021FFF78C
:1085300025FD042120603846FFF720FD60600834E7
:1085400006F10D07224606F11D017AE041F2110005
:10855000854260D02CD841F20B0295425ED01CD8E7
:1085600041F209018D4259D000F29780002138462E
:10857000FFF704FD042120603846FFF7FFFC0821C7
:1085800060603846FFF7FAFC0C21A0603846FFF720
:10859000F5FC04F10C0AE060E6E041F20F008542D0
:1085A0006FD041D841F20D02954240F0DE804FE09D
:1085B00042F206018D422ED014D8B5F5005F40F28C
:1085C000D48042F204039D4225D98FE0CC0A0020DA
:1085D000500A0020CA0D0108BA0C01080D0E01084E
:1085E000220D010842F208039D42C0F0BE80581CD3
:1085F000854210D944F20B02954240F0B680717961
:10860000DFF838A23846AAF830100121FFF7AFFC96
:10861000AAF83200A9E037792770A6E03846002191
:10862000FFF7ACFC2060A0E000213846FFF7A6FC75
:10863000A2464AF8040B04213846FFF79FFC60600D
:1086400092E057F8043B8F4242F8043BF9D18CE0AA
:1086500000213846FFF792FC042120603846FFF7DE
:108660008DFC082160603846FFF788FC04F1080A99
:10867000A060E46814F1390376D10121FFF7C6FC4C
:1086800072E000213846FFF779FC0421206038466B
:10869000FFF774FC6060083467E0337923713F684A
:1086A000276062E038460021FFF768FC0421206063
:1086B0003846FFF763FC082160603846FFF757FC37
:1086C0000A21A0603846FFF752FCC4F80A000C34B7
:1086D00006F11107224606F1350157F8043B8F4297
:1086E00042F8043BF9D1388810803EE00022B718E8
:1086F0007879A0540132042AF9D106F10907002340
:10870000F95CE0180133042B0171F9D106F10D0772
:108710000020395C2218013004281172F9D106F1C9
:1087200011070023F95CE2180133042B1173F9D10E
:1087300006F115000022875CA1180132042A0F748B
:10874000F9D106F119000023C75CE1180133062BAB
:108750000F75F9D106F11F000021475C6218013145
:1087600020299776F9D100E05446344B188882B21C
:10877000954246D100271F8083F8417041E0F98E71
:108780008BB283B9F88E3F8880B2B9B22C4F019278
:108790000290039100970495042040F20F21294A8A
:1087A000FEF7D6FE2DE03046032196F802A0FFF733
:1087B000DEFB0746B9F1000F0BD00421701DFFF757
:1087C000DDFB06F115010246C8F80000484600F03E
:1087D00077FBCAEB07077B1EB3F5806F07D20AF160
:1087E0000502B11820463A4600F06AFB01E04FF05E
:1087F000FF37B8F1000F01D0C8F800700F49002012
:10880000C8860E4F00237B80FEF726F830780428B8
:1088100005D1B5F5805F02D13046FFF7BDFB3A8840
:1088200091B200297FF46CAD044BD88E82B2002A3D
:108830007FF466AD00200AB0BDE8F087CC0A0020C6
:10884000460E0108BA0C0108034B188008460021A7
:108850000A46FFF74BBD00BFCC0A002010B5034B02
:108860000124DC86BDE81040FFF740BDCC0A0020A3
:1088700038B50346154601224A710C46881D194633
:10888000FFF770FB291D05702046FEF753F8002006
:1088900038BD38B59B180C469DB202216171A0719C
:1088A000E271294604F10800FFF75CFB6A1D2046CF
:1088B00091B2BDE83840FEF73DB82DE9F0471D46BE
:1088C00005F1020A032301F107091FFA8AFA8871E8
:1088D0004B710C46484651461746FFF743FBB5F52A
:1088E0007A7F804613D82946FFF73CFB294640464D
:1088F000FFF738FB394604F10B002A4600F0E0FA96
:10890000A91D204689B2BDE8F047FEF713B84FF421
:108910007A76B5FBF6F10AEB410291B2FFF722FB42
:1089200031464046FFF71EFB394604F10B00324644
:1089300000F0C6FAA5F57A75204640F2EE31ADB2E8
:10894000BF19FDF7F7FFB5F57A7F05D9A5F57A7060
:1089500085B24FF47A7601E02E460025A0463946CE
:1089600028F8056F4846324600F0AAFAB31C404684
:1089700099B2BF19FDF7DEFF002DE4D1BDE8F08705
:1089800008B5062000F022FC0120FDF7D9FC00BF4D
:108990002DE9F04F01F10B05162D83B0064627D9BE
:1089A00035F0070527D4A94225D8304600F0CCFB86
:1089B000B5F5FC7F23D2B94F4FEAD50C07EBCC02BB
:1089C000D468944200F0D8816368E26823F0030120
:1089D00063185868A16840F001005860CA6091604F
:1089E000304600F0B3FB0834204603B0BDE8F08FFA
:1089F0001025A942D9D90C2434600024F4E75FEA99
:108A0000552C00F08980BCF1040F00F253814FEA2D
:108A1000951707F1380E4FEA4E01A04F07EB810181
:108A2000CC68A14205D10CE0002A7ADAE468A142C0
:108A300007D0636823F00300421B0F2AF4DD0EF118
:108A4000FF3E0EF1010C954B3C6903F1080E744595
:108A500000F07081616821F003014A1B0F2A00F3C6
:108A60005681002AC3F814E0C3F810E067DAB1F5C4
:108A7000007F80F02D81C90888104FF0010808FAA6
:108A800000F803EBC1015A68886848EA0202E16015
:108A9000A0605A608C60C46001204FEAAC0400FA08
:108AA00004F0904255D8024206D12CF0030C40004D
:108AB00002420CF1040CFAD007EBCC094C46E0461C
:108AC000E3689C4207D137E1002A80F25F81DB68CE
:108AD0009C4200F03181596821F003014A1B0F2AA2
:108AE000F2DD1C46D86854F808CF591945F0010842
:108AF00042F00105CCF80C00C0F808C0C3F80480AF
:108B000079613961C1F80CE0C1F808E04D608A5024
:108B1000304600F01BFB67E74FEAD50E4FEA4E01E7
:108B20007BE722185068E368A16840F001005060BC
:108B3000CB609960304600F009FB083454E76218B6
:108B40005368304643F00101516000F0FFFA0834E9
:108B50004AE7BC68606820F00309A94504D3C5EB67
:108B600009030F2B00F38D804D4A4E4B1168186896
:108B7000013104EB090B05EB000300F0518103F513
:108B800080500F3020F47F6121F00F0C6146304699
:108B90008DE8041000F0DCFA9DE80410B0F1FF3F0E
:108BA000804600F04681834500F20881DFF800A18D
:108BB000C345DAF800306344CAF8003000F03E8163
:108BC0001268013200F04B81CBEB080B5B44CAF812
:108BD000003018F0070100F00481C1F10800C1F570
:108BE0008053804403F1080208EB0C010805030DD3
:108BF000C3EB020B3046594600F0AAFA431C00F0C2
:108C00003A81C8EB00020BEB020141F00100DAF8F7
:108C10000030BC425B44C7F80880CAF80030C8F88E
:108C2000040015D0B9F10F0F40F2E9806168A9F195
:108C30000C0222F0070201F0010C0520A11842EA03
:108C40000C0E0F2AC4F804E04860886000F20B8123
:108C5000154ABC681068834288BF1360134A1168C4
:108C60008B4288BF1360636823F00300A842C5EB02
:108C7000000301D30F2B04DC304600F067FA002418
:108C8000B2E6621943F0010145F001056560304626
:108C90005160BA6000F05AFA0834A5E6E4040020F6
:108CA000F00800205C0A0020580A0020540A002026
:108CB000600A0020BCF1140F77D9BCF1540F00F208
:108CC00086804FEA153404F16E0E4FEA4E01A4E699
:108CD000480A04286ED9142800F2A58000F15B022E
:108CE000500007EB80008368DFF8C88183427BD0A7
:108CF0005A6822F00302914202D29B689842F7D14F
:108D0000D9687A68E160A360DC608C60C4E66119B0
:108D100042F0010045F00105656059611961486044
:108D2000C1F80CE0C1F808E08A50304600F00EFAB5
:108D3000083459E65A68AFE608F10108083418F01B
:108D4000030F7FF4BDAE49461CF0030FA1F10804E8
:108D50000CF1FF3C00F0A2800968A142F4D07C68CD
:108D60004000A0423FF6F5AE00283FF4F2AE0442C8
:108D700000F09980C4469FE604F108036469A342A9
:108D800008BF0CF1020C3FF45EAE1DE659184868AE
:108D90001C4654F8082FDB6840F001004860D3609F
:108DA0009A60304600F0D2F91EE60CF15B0E4FEAF5
:108DB0004E0132E68A093832500092E7BC423FF455
:108DC000F5AE3C4CA468626822F003004EE7BCF5A7
:108DD000AA7F1AD84FEAD53202F1770E4FEA4E0138
:108DE0001BE64FF48052FFE69110012000FA01F0DB
:108DF000D8F8042019460243C8F8042082E701226B
:108E0000C8F804204446002030E740F254539C4503
:108E100021D84FEA954000F17C0E4FEA4E01FCE567
:108E200003F1100CB2E6542829D80A0B6E32500018
:108E300057E7BC68616821F0030017E74FEA0B5061
:108E4000010D00297FF4BCAEB8680CEB090141F0BC
:108E500001044460FCE6FC214FF07E0EDDE516487F
:108E6000C0F80080B5E604F10801144C304603F068
:108E70007FFA2368ECE601204FF0000BC7E6B0F55F
:108E8000AA7F03D8CA0B773250002AE740F2545326
:108E900098420CD88A0C7C32500022E77C6824EA85
:108EA00000047C605CE7400008F104085FE7FC20F8
:108EB0007E2216E7E4040020F0080020600A00206B
:108EC0000F2A2DE9F00340F2A18041EA00039B073D
:108ED00040F09E800C68A2F1100504604B68AC461F
:108EE00043608C68BCF10F0F8460CC68C5F300153B
:108EF000C46000F1100301F110042BD975B125688D
:108F0000ACF1100C1D6065685D60A5689D60E5684A
:108F10001034DD601033BCF10F0F1BD9276804F14A
:108F200010061F60676803F110055F60A768ACF169
:108F3000200C9F60E768DF6024691C61776806F198
:108F400010046F60B7682033AF60F668BCF10F0F94
:108F5000EE60E3D8A2F1100828F00F0302F00F042E
:108F600003F1100C032C00EB0C0301EB0C0851D99E
:108F7000211F4FEA9109444608EB890C54F8046B11
:108F8000C8EB0C010CF1040C1D46644545F8046B5C
:108F9000C1F3800112D029B154F8041B644545F88F
:108FA000041B0BD0274657F8041B2E4646F8041B1B
:108FB00064686C603C1D351D6445F3D109F1010CFA
:108FC0004FEA8C0902F0030208EB09014B44D2B1CD
:108FD0000D789A18DC4303F8015B1419934204F0EE
:108FE000010410D02CB111F8014F03F8014B93424A
:108FF00009D04D781C4604F8015B8D7802315D7014
:10900000631C9342F5D1BDE8F00370470346DEE7E9
:109010000346DDE741462246D9E700BFF0B48407A6
:10902000034600F08D80541E002A00F08780E5077B
:10903000CEB211D41A4602F8016B134615469207B8
:1090400010D0621E002C79D003F8016B14469A07E9
:109050001D4607D0013CEDE7034603F8016B9A0774
:109060001D46F7D1032C52D9CEB246EA06270F2C63
:1090700047EA07432DD9A4F1100217460F2FC2F378
:1090800000162B606B60AB60EB6005F1100216D927
:109090003EB1103F136053609360D36010320F2FC6
:1090A0000DD9203F02F11006136053609360D36026
:1090B000136153619361D36120320F2FF1D8A4F172
:1090C000100222F00F0204F00F041032032C15449A
:1090D0001DD9271F3E462A46032E42F8043BC7F3FC
:1090E00080070DD927B1043E032E42F8043B07D96F
:1090F000174647F8043B083E53603A1D032EF7D845
:10910000231F23F00302131D04F00304ED18ACB178
:10911000C9B2EA432C1905F8011BA318A54203F0B4
:1091200001020BD01AB105F8011BA54206D02B464F
:1091300003F8011B69705D1CA542F8D1F0BC7047B3
:10914000054614468EE700BF704700BF704700BF5A
:1091500038B5074C0023054608462360FDF702F9A1
:10916000431C00D038BD21680029FBD0296038BDE0
:10917000541300201F2938B50C46054620D8D0F8D6
:10918000DC229AB152F8213083B1012B0CD0591C4A
:1091900006D00025204642F824509847284638BD7E
:1091A00016202860012038BD002038BD284600F078
:1091B00029F8224601462846BDE8384000F00EB89E
:1091C000162101604FF0FF3038BD00BF40F2E04390
:1091D000C2F2000301461868FFF7CCBF38B5084C4F
:1091E00000230546084611462360FDF7DBF8431CC3
:1091F00000D038BD21680029FBD0296038BD00BFF0
:1092000054130020FDF7D1B80CB4F0B5174B0C1E69
:109210009DB01F6825DB4FF40271ADF81410029069
:10922000069019D1264623AD229A04960796384611
:1092300002A92B464FF6FF76ADF81660019500F0B7
:109240002BF8421C0ADB14B1029B002119701DB0DF
:10925000BDE8F04002B07047661EE4E78B223A603A
:10926000F1E78B2038604FF0FF30F0E7E00400209A
:1092700038B502460C4659B1002501E0421C0546AE
:109280001046214603F01EFF0028F7D1284638BDBE
:10929000BDE8384003F016BF2DE9F04FC3B08B4650
:1092A000109314460C9003F02DF900680026002757
:1092B0001490CDE9166703F083FFBBF80C301890CB
:1092C00003F0800001B221B1DBF81020002A01F088
:1092D000CA82002732AEDFF82095119708962596AE
:1092E00027972697A24619971A970F979AF8004042
:1092F000002C00F0A281252C00F09F810AF10103CF
:1093000001E0252D04D01D781C460133002DF8D135
:10931000CAEB04057DB1269A2798531C4119072BE7
:10932000C6F800A075602791269300F3698108367E
:109330000F9F7F190F972078002800F06981002186
:1093400004F1010A94F801804FF0FF340D918DF87B
:10935000731009910A9420202B210AF1010AA8F127
:109360002002582A00F25D82DFE812F074025B02EC
:109370005B027E025B025B025B025B025B025B02E2
:10938000B901C5015B024301CA015B0285028C027F
:109390008C028C028C028C028C028C028C028C025D
:1093A0005B025B025B025B025B025B025B025B02D5
:1093B0005B025B02870088015B0288015B025B0243
:1093C0005B025B02F8015B025B026D005B025B0209
:1093D0005B025B025B0259005B025B02FF015B0206
:1093E0005B025B025B025B025B025B025B025B0295
:1093F0005B02E6018B00880188018801AA028B00CC
:109400005B025B02D7025B029D0271001F02340205
:109410005B02B1025B025D005B025B024802099DD8
:1094200045F010020992099B990600F10882099CF7
:10943000E20641F19180109F3D683B1D10932C4640
:109440000123002516E1099A42F010010991099BB8
:1094500013F0200340F00481099C14F0100040F048
:109460006187099D15F0400300F05C87109F03465B
:109470003A1D3C8800251092FCE0099D45F0100340
:109480000993099FBF0640F1DA80109CE01D20F08F
:109490000705D5E900230835109514461D46002A16
:1094A00073F10000C0F2358701230A9F002F03DB10
:1094B000099921F08000099054EA050040F0EF83FB
:1094C0000A9A002A40F0EB83002B40F05886099B53
:1094D000DA0741F1178042AF3021089807F8411DA3
:1094E000C21B0E920A990E9800248842B8BF084603
:1094F0009DF873300B901291159413B10B9B5A1C6D
:109500000B92099810F002010A9102D00B9A941C58
:109510000B94099B13F08400139040F028820D9D5A
:109520000B996D1A002D40F32282102D41F3148205
:10953000279A269B40F6FC601024C0F6010086E8BE
:1095400011001119A7485A1CA5F1110E072A1B90EA
:1095500027912692CEF3001300F36C850836103D58
:10956000102D40F3F8818BB1013240F6FC631031CD
:10957000C0F60103072A86E818002791269200F317
:1095800068850836103D102D40F3E58133462E46A0
:109590003D460C9F13E00833013240F6FC60103169
:1095A000C0F60100103E072A83E811002791269299
:1095B00000F3BF81103E0833102E40F3C981013201
:1095C00040F6FC601031C0F60100072A83E8110064
:1095D00027912692DFDD3846594625AA03F020FE62
:1095E000E8B92799269A32ABD6E70D9C10926742CC
:1095F0000D97099B43F0040209929AF80080ACE6AB
:109600000C98594625AA03F00BFE40B932AE8FE6FE
:10961000279C24B10C98594625AA03F001FEBBF8FB
:109620000C100F9C01F040031AB2002A18BF4FF033
:10963000FF34204643B0BDE8F08F54467BE60999DD
:10964000CD0600F15986099C640640F155861098B4
:10965000B0F90040021DE51710922B4622461EE786
:10966000109BDF1D27F0070202F108011091002373
:10967000D2E9004500208DF8730016E7109DEF1D1C
:1096800027F007010D684C680831109128462146E3
:10969000CDE916012146284603F0E0FC01282146C9
:1096A000284640F0408700220023FCF75BF90028A1
:1096B00041F0F8819DF8733000274B4A09991297C1
:1096C0004A4F03200B90B8F1470FD8BF174621F03F
:1096D00080040320002209940E9015920DE7109A41
:1096E000109B17681A1D002F0D97FFF67EAF9AF892
:1096F0000080109231E68DF873109AF800802CE605
:10970000544614F8018BB8F12A0F01F0F482A8F145
:1097100030030022092B01F23E8214F8018B02EB88
:10972000820703EB4702A8F13003092BA246F4D9C4
:1097300042EAE2740A9412E61099109C0868012724
:10974000221D00230B970E9710928DF8A0008DF824
:10975000733028AF002312931593D2E6099C44F08E
:10976000080309939AF80080F7E50999204D8F06C0
:10977000199548D5109FFA1D22F0070303F108043C
:109780001094D3E900450999C80740F1448454EA8C
:10979000050000F04084302041F002078DF874008D
:1097A0008DF875800997022364E710980999109D38
:1097B000071D104841F002034FF0780830222C6852
:1097C0000993109700258DF874208DF875801990F5
:1097D00002234FE7099B43F0200209929AF8008088
:1097E000BBE500BFFC0E0108A80E0108AC0E010885
:1097F000B80E0108CC0E0108EC0E010809999B4D2A
:109800008F061995B6D40998C50600F19285099F6F
:109810007C0640F18E85109A0025131D1488109344
:10982000B1E7B8F1000F3FF4F3AE012200240B9230
:109830008DF8A0808DF873400E9228AF8AE7109CB7
:109840000123E01D20F0070505F108071097D5E971
:1098500000450FE79DF87330002B40F095868DF89A
:1098600073009AF8008078E5099C44F00107099795
:109870009AF8008071E5099F47F0800309939AF8F0
:1098800000806AE557460022A8F1300517F8018BE1
:1098900002EB8203A8F13004092C05EB4302BA461F
:1098A000F2D90D925BE5099CA40640F16186109FF8
:1098B0000F983B68C417043718605C60109715E573
:1098C000099A42F0400309939AF8008045E5109BFD
:1098D00000248DF873401F681D1D002F01F0C58006
:1098E0000A9938460029C1F2028021460A9A02F0FC
:1098F0000FFE002801F042810A99C01B88420E9099
:10990000129440F3A687129821EAE1740B949DF813
:10991000733010950E911590EFE59AF8008052463D
:10992000B8F16C0F00F0DE86099F47F01003099331
:1099300013E53846594625AA03F072FC00287FF447
:109940006EAE103E102E32AB2799269A3FF737AEF7
:109950002F4635461E464C191B9B511C072986E88D
:1099600028002794269100F30F84083600E0279CF6
:109970009DF8730068B1269B0134591C01200DF13C
:1099800073020729326070602794269100F30583E3
:1099900008360A9B63B126990234481C02231DAA8B
:1099A0000728326073602794269000F301830836FD
:1099B000139D802D00F02E82129D0E9BED1A002D1E
:1099C00075DD102D40F3F385269A102301322848C7
:1099D000A5F1110EE418072AC6F8009073600A90EA
:1099E00027942692CEF3001C00F3AC820836103D7B
:1099F000102D51DDBCF1000F0DD001321034072ABB
:109A0000C6F8009073602794269200F3AD82083662
:109A1000103D102D40DD31463E460C9F0EE00831D2
:109A200001321034103D072AC1F800904B60269295
:109A300027941FDC103D0831102D2BDD013210342E
:109A4000072AC1F800904B6027942692E7DD38463C
:109A5000594625AA069303F0E3FB069B00287FF4F2
:109A6000DEAD279C269A32A9DAE700BFCC0E0108AA
:109A7000EC0E01083846594625AA069303F0D0FBA0
:109A8000069B00287FF4CBAD103D102D32A9279CFA
:109A9000269AD3DC37460E46501C0A9B64190728C9
:109AA00086E828002794269000F36C820836099BEC
:109AB000DB0500F11E8126980E9A3760411C0E9F2F
:109AC000A418072977602794269100F3A880083608
:109AD000099F7B0740F1B1800D9D0B9BED1A002D76
:109AE00040F3AB80102D40F3CC8726981027431C01
:109AF000B24940F6FC60A5F1110CE419C0F6010072
:109B0000072B86E88100099127942693CCF300184F
:109B100000F3BB830836103D102D40F3AD80B8F143
:109B2000000F11D0013340F6FC601034C0F6010084
:109B3000072B86E881002794269300F3D18308360B
:109B4000103D102D40F39880DDF8308012E008368B
:109B5000013340F6FC601034C0F60100103D072BC5
:109B600086E881002693279477DC103D0836102D77
:109B700040F38280013340F6FC621034C0F60102EB
:109B8000072B86E8840027942693E0DD404659465B
:109B900025AA03F045FB00287FF441AD279C269BB6
:109BA00032AED5E71199269D01340135012940F3E4
:109BB00079840123072D376073602794269500F37D
:109BC0008784083618990135149A6418072D326075
:109BD00071602794269500F388840836DDE9160124
:109BE00000220023FBF7B4FE002840F0D982119830
:109BF00001370138241801353760072D706027942C
:109C0000269500F3898108361A9F0135E41921ABA6
:109C1000072D86E88800279426957FF758AF0C9883
:109C2000594625AA03F0FCFA00287FF4F8AC099FF6
:109C300032AE7B07279C3FF54FAF0F9E0B980D9FD1
:109C4000B842ACBF3618F6190F96002C40F0708160
:109C50000026269632AEFFF749BB4046594625AA54
:109C600003F0DEFA00287FF4DAAC103D102D32AE9E
:109C7000279C269B3FF77EAF5A1C099F2C19072A69
:109C80003760756027942692D7DD0C98594625AA2F
:109C900003F0C6FA00287FF4C2AC279CCDE7012B65
:109CA00000F0AB81022B0DF1C70E00F08C81072371
:109CB000E70804EA0300E90847EA457430300D4636
:109CC000C2B254EA050177468EF800200EF1FF3E3D
:109CD000EED109983B46C10706D5302A00F096819F
:109CE0003024774603F8014C0899CA1B0E92FFF7FF
:109CF000F9BBB8F1650F7FF755AFDDE9160100221A
:109D00000023FBF725FE002800F0B28126982C499D
:109D1000431C01340122072B316072602794269383
:109D200000F34A8408361E98119FB84203DB099B52
:109D3000DF077FF5CDAE269A149F18993760501C27
:109D4000189F6418072877602794269000F375857C
:109D50000836119D013D002D7FF7BAAE102D40F35E
:109D60008682269A119B1027A3F1120E1548531CC8
:109D7000E419072BC6F8009077600A902794269381
:109D8000CEF3001800F317860836103D102D40F36F
:109D90007182B8F1000F0ED001331034072BC6F8D2
:109DA000009077602794269300F32B860836103DA9
:109DB000102D40F35F82DDF8308016E0FC0E0108C4
:109DC000E80E0108EC0E010808364B1C1034103D5B
:109DD000072BC6F8009077602693279400F31E8126
:109DE0000836103D102D40F34582591C10340729C8
:109DF000C6F80090776027942691E5DD40465946E5
:109E000025AA03F00DFA00287FF409AC279C2699B7
:109E100032AEDAE70D980B99451A002D7FF7CCADDD
:109E2000102D40F38886269A102301328F48A5F121
:109E30001101E418072AC6F8009073600A9027946D
:109E40002692C1F3001C00F31B830836103D102D31
:109E50004ADDBCF1000F0DD001321034072AC6F8DC
:109E6000009073602794269200F324830836103DF7
:109E7000102D39DD21460C9C0EE0083601321031E0
:109E8000103D072AC6F800907360269227911ADCCD
:109E9000103D0836102D26DD01321031072AC6F894
:109EA0000090736027912692E7DD2046594625AA47
:109EB000069303F0B5F9069B00287FF4B0AB279911
:109EC000269A32AEDAE72046594625AA069303F0D1
:109ED000A7F9069B00287FF4A2AB103D102D32AEEF
:109EE0002799269AD8DC0C46501C0A9B641907282F
:109EF00086E828002794269000F3098308365BE55E
:109F00005A480A9001350A9BE419072D86E8880013
:109F1000279426957FF777AE0C98594625AA03F02B
:109F20007FF900287FF47BAB32AE279C269D6BE641
:109F30000C98594625AA03F073F900283FF488AE1F
:109F4000FFF76DBB0C98594625AA0693CDF81CC0A7
:109F500003F066F9069BDDF81CC000287FF45FABB8
:109F600032AE279C269A42E50C98594625AA0693BC
:109F700003F056F9069B00287FF451AB32AE279CC4
:109F8000269A45E50C98594625AA03F049F9002878
:109F90007FF445AB279C32AE89E50C98594625AA3B
:109FA00003F03EF900287FF43AAB279C32AEF0E490
:109FB0000C98594625AA03F033F900287FF42FABFB
:109FC000279C32AEF4E419990B960F2604EA060397
:109FD00027092809CA1847EA05741678054654EA7D
:109FE000050077468EF800600EF1FF3EEDD108992E
:109FF0000B9ECB1B0E93FFF775BA002D08BF0A2CE2
:10A0000080F04F8142AF303407F8414D089CE21B8D
:10A010000E92FFF767BA0223FFF72CBB4046594662
:10A0200025AA03F0FDF800287FF4F9AA32AE279C98
:10A03000269BD6E60C98594625AA069303F0F0F81D
:10A04000069B00287FF4EBAA32AE2799269AFFF7E9
:10A0500086BA0C98594625AA03F0E2F800287FF446
:10A06000DEAA32AE2799269AFFF78CBAEC0E0108C9
:10A070001E9A002A40F3B282119D1599119B8D42C0
:10A08000A8BF0D46FA18002D0A920ADD2698641919
:10A09000411C0729376075602794269100F37F845F
:10A0A0000836159B25EAE5755D1B002D40F35681AA
:10A0B000102D40F36D8226984FF01008431CA14AE2
:10A0C000A5F111014444072BC6F80090C6F804809E
:10A0D0000E9227942693C1F3001C00F34F84083698
:10A0E000103D102D40F35782BCF1000F0FD001330B
:10A0F0001034072BC6F80090C6F8048027942693E6
:10A1000000F38C840836103D102D40F34482214624
:10A110000C9C12E006F1080001331031103D072BB2
:10A12000C0F80090C0F80480269327911BDC00F152
:10A130000806103D102D40F30D8401331031072B1C
:10A14000C6F80090C6F8048027912693E2DD2046E9
:10A15000594625AA03F064F800287FF460AA2799DD
:10A16000269B32A8D8E72046594625AA03F058F87E
:10A1700000287FF454AA32AE2799269BD9E70A9C7F
:10A1800032AF0E94FFF7AEB90C98594625AA03F0EA
:10A1900047F800287FF443AA279C32AEFFF7E8BBBC
:10A1A000119F013F002F7FF72FAD102F7FF7A8AE33
:10A1B000119B4FF0100801356249123B4444072DB2
:10A1C000C6F80090C6F804800A9127942695C3F338
:10A1D000001300F3B1830836103F102F7FF792AEC3
:10A1E0007BB101351034072DC6F80090C6F8048005
:10A1F0002794269500F3B6830836103F102F7FF77B
:10A2000081AE22460C9C10E0083601351032103F1A
:10A21000072DC6F80090C6F80480279226951ADC10
:10A220000836103F102F40F35F8301351032072DA1
:10A23000C6F80090C6F8048027922695E4DD2046F3
:10A24000594625AA02F0ECFF00287FF4E8A9279AD6
:10A25000269D32AED9E72046594625AA02F0E0FFF6
:10A2600000287FF4DCA932AE279A269DD9E735492C
:10A27000269B0A9101330A9F6419072B376075608A
:10A28000279426937FF723ACC9E40C98594625AA56
:10A2900002F0C6FF00287FF4C2A932AE279C269B9D
:10A2A00039E40DF1C70C0B966646204629460A2272
:10A2B0000023FBF7A7FB30323270204629460A22E2
:10A2C0000023FBF79FFB04460D463746013E54EA48
:10A2D0000500EAD108990B9ECB1B0E93FFF702B93C
:10A2E0000C98594625AA02F09BFF00287FF497A9F5
:10A2F00032AE279C269B23E4109D2B68291DDD1779
:10A300001A461C462B46002A73F100001091BFF636
:10A31000CBA82D22644265EB45058DF873200123FF
:10A32000FFF7C3B810990D1D0C6810950025FFF7B5
:10A33000A1B9109C2568201D10902C460025FFF720
:10A3400022BA00BFEC0E01080C98594625AA02F06B
:10A3500067FF00287FF463A9279C32AE1E9B1198EB
:10A36000159983420F4470DB099AD1076DD40A9D79
:10A37000119AED1BD31AAB42B8BF1D46002D0ADD62
:10A3800026996419481C0728376075602794269021
:10A3900000F35D83083625EAE5755D1B002D7FF728
:10A3A00097AB102D7FF763AF269A1027531C88496F
:10A3B000A5F11108E419072BC6F8009077600A91FF
:10A3C00027942693C8F3001800F335830836103D10
:10A3D000102D7FF74FAFB8F1000F0ED001331034BE
:10A3E000072BC6F8009077602794269300F34E83DE
:10A3F0000836103D102D7FF73DAFDDF830800FE0BF
:10A400000836431C1034103D072BC6F800907760C7
:10A410002693279428DC0836103D102D7FF72AAFAD
:10A42000581C10340728C6F80090776027942690AF
:10A43000E6DD4046594625AA02F0F2FE00287FF4E8
:10A44000EEA8279C269832AEDBE726981899421C86
:10A45000641818981499072A31607060279426921E
:10A4600000F3B682083682E74046594625AA02F034
:10A47000D7FE00287FF4D3A832AE279C269BCBE7DB
:10A480000C98594625AA0693CDF81CC002F0C8FEC8
:10A49000069BDDF81CC000287FF4C1A832AE279CC3
:10A4A000269AD3E4099AD2073FF583AB376001209F
:10A4B000FFF7A3BB0C98594625AA069302F0B0FEFD
:10A4C000069B00287FF4ABA832AE279C269ACEE4E8
:10A4D0000C98594625AA02F0A3FE00287FF49FA8F5
:10A4E000279C269D32AEFFF76DBB0C98594625AAD6
:10A4F00002F096FE00287FF492A8279C269D32AE9B
:10A50000FFF76CBB0A9F0E9732AFFEF7EBBF0C98BC
:10A51000594625AA02F084FE00287FF480A8279CD3
:10A5200032AEFFF749BA02F099FD002840F0E4800E
:10A530000327099A274B0B97274F22F0800103240A
:10A54000B8F1470FD8BF1F46129009919DF873309C
:10A550000E941590FEF7D1BF09994B0640F1B281D8
:10A56000109A0123111D148800251091FFF782B85D
:10A57000099FF80640F1AB81109C0F9A2168271DB6
:10A5800010970A60FEF7B2BE9AF80080FEF7E5BEAB
:10A590000F4A269B0E925A1C0E996419072A86E8C8
:10A5A0002200279426923FF7CFAE0836D6E6084918
:10A5B000269A0A91FFF770BA0C98594625AA02F01C
:10A5C0002FFE00287FF42BA8279C32AEFFF7ABBBF1
:10A5D000EC0E0108B00E0108B40E01082699B74B25
:10A5E000481C0134012107283360716027942690AC
:10A5F00000F3498108362AB9119818B9099BD80780
:10A600007FF566AA26981899431C6418189814991F
:10A61000072B316070602794269300F3C7820836B9
:10A62000C2F10008B8F1000F40F37A81B8F1100FC1
:10A6300040F3DA8110250133A8F11102A048641912
:10A64000C2F30011072BC6F8009075600A9027949A
:10A6500026930E9100F3DA820836A8F11008B8F1BB
:10A66000100F40F3C3810E9A82B101331034072BCF
:10A67000C6F8009075602794269300F30F83083680
:10A68000A8F11008B8F1100F40F3B08120460C9CDF
:10A6900013E0083601331030072BC6F800907560C0
:10A6A000A8F110082790269300F3FC800836A8F143
:10A6B0001008B8F1100F40F3948201331030072BCB
:10A6C000C6F80090756027902693E2DD2046594633
:10A6D00025AA02F0A5FD00287EF4A1AF2798269BAD
:10A6E00032AED7E7099C0AF1010A44F02007099726
:10A6F00092F80180FEF731BE0A98471C00F0CF8027
:10A70000B8F1670F00F04C82B8F1470F00F04882B3
:10A710000998002C40F480771397C0F26B820021D7
:10A720001291B8F1660F00F00B82B8F1460F00F0FD
:10A730000782B8F1650F00F06282B8F1450F00F0B2
:10A740005E82DDF828C002218DE802101EA81FAF2E
:10A7500020A9029003972A46234604910C98CDF82D
:10A760001CC000F0BDFCB8F1670F0746DDF81CC047
:10A7700002D0B8F1470F03D1099AD00740F14382C4
:10A7800007EB0C03B8F1460F0B9300F0EE8128465F
:10A79000214600220023FBF7DBF800BB209A0B9C2C
:10A7A000944240F2D88213463021D04303F8011B73
:10A7B0002018A342209300F001000FD028B151705F
:10A7C0000B9A01339342209308D00B9C184600F853
:10A7D000011B5970431CA3422093F7D10B930B9993
:10A7E000B8F1670FC7EB0103119300F06681B8F170
:10A7F000470F00F06281B8F1660F40F0B8821E9AF0
:10A800000A9C002A40F38882002C40F05382099968
:10A81000C80700F14F8222EAE2730B930E92159261
:10A820001299002900F0438113982D2200218DF800
:10A83000732009901291FEF761BE0C98594625AA23
:10A8400002F0EEFC00287EF4EAAE279C32AEFFF761
:10A8500080BA0E9B109523EAE3720B929DF8733039
:10A860001594FEF74ABE0C984021FEF791F8CBF8FC
:10A870000000CBF81000002800F072824026CBF8D0
:10A880001460FEF726BD0C98594625AA02F0C8FCB4
:10A8900000287EF4C4AE1E9A279C32AEABE6062298
:10A8A0000A9235E72046594625AA02F0B9FC00284D
:10A8B0007EF4B5AE32AE2798269BF8E6E80E010886
:10A8C000EC0E0108109805680746FEF7B6BD109A11
:10A8D000099913680F9F101D11F0400F109014BFBD
:10A8E0001F801F60FEF702BD1446FFF70BBB02F08E
:10A8F00067FC1294129C20EAE0720E900B929DF875
:10A90000733010951594FEF7F8BD0C98594625AA9A
:10A9100002F086FC00287EF482AE279C269B32AE95
:10A9200011995A1C6418072A37607160279426927F
:10A930007FF7CDA8FFF773B90C98594625AA06935F
:10A9400002F06EFC069B00287EF469AE32AE279CB6
:10A95000269D41E40C461EE6A34C2799269A1B949B
:10A96000FEF7F9BF0C98594625AA02F059FC0028B9
:10A970007EF455AE32AE279C269D3EE40C98594697
:10A9800025AACDF81CC002F04BFCDDF81CC0002845
:10A990007EF445AE32AE279C269BFFF7A1BB0C98F8
:10A9A000594625AA02F03CFC00287EF438AE279CCC
:10A9B00032AEFFF776BB0C98594625AA02F030FC60
:10A9C00000287EF42CAE32AE279C269BFFF7DDB923
:10A9D0000C98594625AA02F023FC00287EF41FAEED
:10A9E0001E9B279C32AEC2E480490A9101330A992A
:10A9F0004444072B86E802012794269385DC083619
:10AA00008EE70C98594625AA02F00AFC00287EF42D
:10AA100006AE32AE279C269BFFF7C9B90C98594663
:10AA200025AA02F0FDFB00287EF4F9AD32AE279C8A
:10AA3000269BFFF768BB0C98594625AA02F0F0FB4D
:10AA400000287EF4ECAD32AE279C269BBFE40C9828
:10AA5000594625AA02F0E4FB00287EF4E0AD119EE1
:10AA60001E9F279CF31B32AE95E40A9F1095062F7C
:10AA700028BF062727EAE7710E970B915C4FFEF778
:10AA800069BE594A269B0992FFF7F6B80C985946B9
:10AA900025AA02F0C5FB00287EF4C1AD32AE279C8A
:10AAA000269BA6E42D238DF87330FEF705BE139C7C
:10AAB0009DF873300994FEF720BD1E9AD11C1046F4
:10AAC00002DB0A9C944228DAA8F10208431E002BFC
:10AAD0001E938DF88480C0F232812B228DF8852060
