:020000040800F2
:105000000050002091570008D1560008D3560008E0
:10501000D5560008D7560008D956000800000000F1
:10502000000000000000000000000000DB56000847
:10503000DD56000800000000DF560008E1560008B9
:10504000DD570008DD570008DD570008DD57000870
:10505000DD570008DD570008DD570008DD57000860
:10506000F5560008DD570008DD570008DD57000839
:10507000DD570008DD570008DD570008EF5600082F
:10508000DD570008DD570008DD570008DD57000830
:10509000DD570008DD570008DD570008DD57000820
:1050A000DD570008DD570008DD57000849570008A4
:1050B000DD570008DD570008DD570008DD57000800
:1050C000DD570008DD570008DD570008DD570008F0
:1050D000DD570008DD570008DD570008DD570008E0
:1050E00029570008DD570008DD57000800000000C0
:1050F00000000000000000000000000000000000B0
:0C51000000000000000000005FF808F153
:10510C00844641EA000313F0030349D1403A23D308
:10511C000B6803604B6843608B688360CB68C3602B
:10512C000B6903614B6943618B698361CB69C36113
:10513C000B6A03624B6A43628B6A8362CB6AC362FB
:10514C000B6B03634B6B43638B6B8363CB6BC363E3
:10515C0040304031403ADBD230320BD30B68036025
:10516C004B6843608B688360CB68C3601030103130
:10517C00103AF3D20C3205D351F8043B40F8043BFF
:10518C00043AF9D2043208D0D2071CBF11F8013B03
:10519C0000F8013B01D30B8803806046704700BFC9
:1051AC00082A13D38B07B1D010F00303AED0C3F190
:1051BC000403D21ADB071CBF11F8013B00F8013BBA
:1051CC00A4D331F8023B20F8023B9FE7043AD9D331
:1051DC00013A11F8013B00F8013BF9D20B7803704E
:1051EC004B7843708B788370604670477047002310
:1051FC00036018467047002303601846704700236D
:10520C000360184670470000194B10B51A6812B1AC
:10521C001A68013A1A60174B1A6812B11A68013AE7
:10522C001A60154C236813B12368013B06E0134B3D
:10523C001B7823B9E72001F04FFCC8232360104BE7
:10524C001A68B2F57A7F0FD300221A6001F0E2FEE1
:10525C00042001F0BFFC4FF6FF71884207D0BDE877
:10526C001040042001F0A8BC1A6801321A6010BD6D
:10527C00AC0A0020A00A0020A80A0020AC000020E4
:10528C00B00A00201FB50446E72001F0E3FB01F053
:10529C00D9F901F0F5F80F4B0F4900930F4B104A59
:1052AC000193104B10480293104B0393104B00F0DA
:1052BC0067FB4FF47A7000F02DFE204600F078FB6F
:1052CC000C4800F0F9FB48F2442000F0C3FB00202E
:1052DC0004B010BD8D650008FB510008A1650008E5
:1052EC00035200080D660008F951000835660008E5
:1052FC000B52000800000020F0B50022184B8DB0B6
:10530C0007460E461020022100F092FA00231A469E
:10531C00FD5A00AC144445F001012D0A0DF80210A1
:10532C006570F55A0233A570182B4FEA1525E570F8
:10533C0002F10402ECD16B4630210422102000F063
:10534C0077FA68460021302202F07AFD10200146DF
:10535C0034226B4600F06CFAC0B20DB0F0BD00BF49
:10536C00ECB1000810B5084C601C00F0C7FA40B94D
:10537C006378012B06D1A278202A03D1E37018465A
:10538C0010BD002010BD00BFAC000020F8B5784D5A
:10539C000126002330462B7085F88460FFF772FFDE
:1053AC00FFF7E0FF2C46074610B12E70EE70F8BDEB
:1053BC0005F1850000F077FA6E4D84F88B70E8707B
:1053CC002E712B79BBB194F88B30694E022B12D80D
:1053DC0006F18C0302206421002200F0FBF9654BDE
:1053EC00643818BF6FF00000187196F88B300133D9
:1053FC0086F88B30E5E701232B71002384F88B3082
:10540C002B79B3B194F88B30594E022B11D8331D34
:10541C000B208021002200F0DDF9564B803818BF9C
:10542C006FF00000187196F88B30013386F88B30D2
:10543C00E6E7514B94F88B70504A032F14BF174674
:10544C001F4601232B712B794A4E33B1B01D06F147
:10545C001E01FFF751FF3071F5E7012333712B79F2
:10546C00444E3BB10B20802100223B4600F0E0F97A
:10547C003071F4E7012333712B793E4E3BB102209E
:10548C00642100223E4B00F0D3F93071F4E7012384
:10549C00337196F903301BB1012384F8F0300EE020
:1054AC0094F8853023F0010384F885302B79002B98
:1054BC00F2D0344800F0EEF92E4B1871F6E794F860
:1054CC00F0302B4E3BB10420E98E2F4A00F0F7F957
:1054DC0086F8F000F3E7012386F8F13094F8F10038
:1054EC00234E38B10520298F284A00F0E8F986F8B8
:1054FC00F100F3E7FFF7C6FE96F88530082B10D1C4
:10550C0096F88630B3B996F88730282B12D1012340
:10551C006420237000F0FEFCBDE8F840E72001F0A9
:10552C00BFBA3BB996F88630192B03D196F8873061
:10553C00942BEBE7164B082099781A7A5B7A84F84F
:10554C008500002084F8860084F88A302820012306
:10555C0084F8870084F8881084F889202B712B79C3
:10556C00002BD4D0074800F095F9024B1871F6E7E0
:10557C00AC00002000000020E07E0008B0000020FD
:10558C003801002031010020607F0008DC9A0008FF
:10559C00E8F7FF1F10B54FF4A0414FF0006001F089
:1055AC0001FB00F079FE00F099FC4FF0FF1001F0C8
:1055BC004BFAE72001F074FA40F6B83000F0D8FC52
:1055CC000020FFF75FFE3A4B93F884206AB91A78F3
:1055DC0002F0FF044AB9204600F0BEFE012120462D
:1055EC0000F0E0FCFFF7D2FEEDE793F88430304C8E
:1055FC00002BE8D02378002BE5D00121022000F00D
:10560C00D1FCFFF7AFFEE378002B4CD00120014614
:10561C0000F0C8FC4FF47F4001F016FAE72001F0CF
:10562C003FFA40F2DC5000F075FCFF2001F00CFA60
:10563C00E72001F035FAFF2000F0F0F900210E20F0
:10564C0000F076F910210E2000F072F904F1F2004E
:10565C000021102202F0F4FB102104F1F2030022CD
:10566C000E2000F0E5F8134B01221A70124B4FF686
:10567C00FF741C8001F01AF82146282001F09CFAD6
:10568C002146042001F098FA002001F001F8BFF344
:10569C004F8F0A4A0A4BD16801F4E0610B43D36087
:1056AC00BFF34F8FFEE74FF47A7000F033FC8AE7BC
:1056BC00AC000020B40100208000002000ED00E0D0
:1056CC000400FA057047FEE7FEE7FEE7FEE77047C9
:1056DC007047704708B501F035F8BDE80840FFF792
:1056EC0093BD00F059BB000008B5042001F084FB09
:1056FC0078B1042001F08EFB0020064B0146188087
:10570C0000F056FDBDE8084003481021012201F0CD
:10571C007EBE08BDB0010020002C014008B54FF43E
:10572C00006001F069FB38B14FF4006001F072FBCE
:10573C00BDE8084000F0A0BB08BD000008B50F484C
:10574C00102101F09DFEC0B10C48102101F0A3FE08
:10575C00002000F0F1FD28B9094B1A880A3292B2E8
:10576C001A8008BD05481021002201F050FEBDE84A
:10577C0008400020012100F01BBD08BD002C014099
:10578C00B0010020002100F004B80C4B5B584350D2
:10579C0004310B480B4B42189A42FFF4F6AF0A4AFD
:1057AC0000F003B8002342F8043B084B9A42FFF484
:1057BC00F9AF00F0D5FFFFF7EDFE7047F4B100082C
:1057CC0000000020AC000020AC000020BC0A00202F
:1057DC00FFF7FEBF2DE9F3411F4602ACFF2304F88F
:1057EC00053D124B86469D680E4605F10900714633
:1057FC00904601F054FE314601F051FE414601F055
:10580C004EFE29460C2240F2012002F08FFA21466E
:10581C0040F2012002F076FA3846002101AA02F08B
:10582C007BFA019802B0BDE8F08100BF3402002081
:10583C002DE9F341984602AD4FF0FF3345F8043D96
:10584C00134B86469E680C4606F10A0071461746B5
:10585C0001F025FE0C2101F022FE214601F01FFE75
:10586C00394601F01CFE4146224606F11A00FFF7AC
:10587C0047FC31461022A3B2902002F068FA40F2A5
:10588C000220294602F03EFA019802B0BDE8F081F0
:10589C003402002008B50346062001460022FFF71B
:1058AC00C7FFC0B208BD08B503460620014600225A
:1058BC00FFF790FF062814BFFF20002008BDF8B5A5
:1058CC0006460D4617460C467B192A1B1F2CC4EBAB
:1058DC00030392B208D930462021FFF7A9FFC0B2CA
:1058EC00203C0028F0D007E02CB130462146FFF7D1
:1058FC009FFFC0B2F8BD2046F8BD000013B50B4B9E
:10590C0004469968002240F2072002F00FFA40F298
:10591C000720694602F0F6F99DF803309DF8000067
:10592C0023709DF80430637002B010BD3402002067
:10593C0037B50E4A034694680D4604F10900194622
:10594C0001F0ADFD294601F0AAFD2146082240F2E6
:10595C00032002F0EBF940F203200DF1070102F0F5
:10596C00D1F99DF8070003B030BD00BF3402002010
:10597C00024B01225A80586001F028BF34020020EB
:10598C0010B50A4CE16022616361029BE361039BE9
:10599C002362049B6362059BA3620123A06184F8CC
:1059AC004030002384F8413010BD00BF3402002089
:1059BC0070B5174B174D002406461748AC63EC63C3
:1059CC002C802C866C86AC86EC86EC626C806C60D1
:1059DC00AB6000F0E7F8A642A9680CBF234602238F
:1059EC004B7201224FF4804002F0A0F921464FF493
:1059FC00804002F087F9A968224644F20B0002F0BD
:105A0C0095F9214644F20B00BDE8704002F07AB9DA
:105A1C00A0020020340200207D59000837B50C4B41
:105A2C0001469D6802AC05F1090001F038FD4FF00C
:105A3C00FF3344F8043D29460422062002F076F98F
:105A4C000620214602F05EF9019803B030BD00BF7C
:105A5C003402002037B548F2080248F2080102402F
:105A6C008A42034613490BD10020934281F840002F
:105A7C001ED023F4004323F0080343F4004302E058
:105A8C00012281F840208D684FF0FF32194602AC9C
:105A9C0005F1090044F8042D01F001FD294604220A
:105AAC00082002F043F90820214602F02BF9019856
:105ABC0003B030BD3402002013B50E4A4FF0FF3353
:105ACC000193916898B15423037043708370002242
:105ADC00845C8B180132032A5C72F9D10C2002F021
:105AEC0025F90C2001A902F00DF9019800E01846E7
:105AFC0002B010BD3402002000F0010383F001005D
:105B0C0003B962B6704700002DE9F0410546EFF38A
:105B1C00108872B60E4C237A27469D4209D0052D6B
:105B2C0001D0012606E00B4BDB6998470028F8D121
:105B3C00257200264046FFF7DFFF16B16369002B84
:105B4C00E5D07869D0F1010038BF0020BDE8F081C4
:105B5C00880200203402002010B5EFF3108072B6DA
:105B6C00034B1C7AFFF7C8FFE4B2204610BD00BF00
:105B7C008802002038B5EFF3108572B6084B012966
:105B8C001C7A1872E4B204D0022904D100F0EAFCA9
:105B9C0001E000F0C9FC2846FFF7AEFF204638BDF7
:105BAC00880200200F4B10B500220F490F4C1A72BF
:105BBC001961DA80DA609A8018601046A36A9847F7
:105BCC000B4800F0AFF9236A98474FF47A7000F055
:105BDC00A9F9A36A01209847BDE810400120FFF7FE
:105BEC0093BF00BF88020020A006002034020020D2
:105BFC00E0930400024B4FF480725A60704700BF70
:105C0C0000E100E02DE9F04114460E461D46074622
:105C1C00FFF7A2FF8046002000F076FCA4B2012022
:105C2C0037B93146224600F0F7FB3846164906E0F4
:105C3C00164B2246196900F0EFFB00203146224634
:105C4C0000F0EAFB12480221012201F074F8012055
:105C5C0000F05AFCA5B1EFF3108072B60B4C257A0C
:105C6C00FFF74AFFEDB2A845234602D16269002A2C
:105C7C00F1D05869D0F1010038BF0020BDE8F081A7
:105C8C002846BDE8F08100BF3A00002088020020C1
:105C9C0058000240CB074CBF0B464B1C10B5C3F34E
:105CAC00072444700024C4700471054C0122027056
:105CBC00837084F84120034AD0609180581D10BD38
:105CCC0034020020880200202DE9F84304460E46D9
:105CDC00FFF742FF10B1012805D023E00120FFF7A8
:105CEC0013FF002852D001210320FFF743FF314658
:105CFC0007462046FFF7CEFF0546002F46D0322040
:105D0C0000F010F90120214604220346FFF77AFF28
:105D1C0000283BD03220ADB200F004F90120211D47
:105D2C002A1F29E00220FFF7EFFE00282ED0EFF308
:105D3C00108972B6174D2F7AA846BB1E5F425F4181
:105D4C001FB104200121FFF715FF4846FFF7D4FED1
:105D5C0017B96B69002BEAD0D8F81430B3B92046C8
:105D6C003146FFF797FF05460520FFF7CDFE68B1DA
:105D7C00ADB2012021462A460346FFF743FF002817
:105D8C0014BF28464FF0FF30BDE8F8834FF0FF30CA
:105D9C00BDE8F8838802002070B54FF4003000F0A5
:105DAC00D3FF324C05464FF4005000F0CDFF237A60
:105DBC00033B052B54D8DFE803F03B533B5303293B
:105DCC00002D52D0002850D04FF4083000F0CAFFFC
:105DDC00082323722369B3F80330C3F3072545EA7C
:105DEC000325ADB2002D40D0EB075CBF0135ADB241
:105DFC00B5F5806F02D90A2000F02CFD0020216936
:105E0C002A460346BDE87040FFF7FCBE68B34FF46A
:105E1C00083000F0A7FF164B4FF480720220C3F835
:105E2C0084200146FFF7A6FE23682069984770BDC1
:105E3C00DDB11048802101F06FF90028F9D14FF441
:105E4C00083000F08FFF237A032B03D1074B052278
:105E5C001A7270BD02200146BDE87040FFF78ABE81
:105E6C000B20BDE8704000F0F5BC70BD880200202E
:105E7C0000E100E000380040144B70B5DB69984736
:105E8C00054608BB124C237ADBB2022B04D0042B40
:105E9C0018D0CBB9012316E0012000F071FD0146AA
:105EAC0058B101210720FFF765FE284621692B46D2
:105EBC000522BDE87040FFF7A5BE0A20BDE8704082
:105ECC00FFF758BE0523237270BD00BF34020020BB
:105EDC00880200204FF4407000F026BE0A4BF021DF
:105EEC001A684FF47A73B2FBF3F2084B013A5A601A
:105EFC00074A82F823100021996007211960D023EA
:105F0C0082F82330704700BF9000002010E000E0C2
:105F1C0000ED00E0024B18601A68002AFCD17047B3
:105F2C00AC0A002007B50F4B5B6800930E4B1A6848
:105F3C000E4BB2FBF3F34FF0FF32B2FBF3F2904295
:105F4C0028BF104643430193064B5968009A019BA6
:105F5C008A1A9A4202D201F05DF8F5E703B05DF8B7
:105F6C0004FB00BF001000E09000002040420F0036
:105F7C0010B5044645F2555001F03AF8062001F0F0
:105F8C003DF82820604340F6FF73000A984228BF72
:105F9C00184680B201F038F801F03CF8BDE810402A
:105FAC0001F040B8082812D8012907D10A4B0B4A36
:105FBC0053F8203032F810201A610AE049B9064B28
:105FCC00064A53F8203032F810205A6101E0FF20C5
:105FDC0000E0002040B270474000002020B10008D3
:105FEC0037B50F4D044605EB80031869012101F00C
:105FFC0047F835F8143001A9ADF8043010238DF8AA
:10600C00073003238DF80630064B53F8240000F0BC
:10601C0081FF20460021FFF7C5FF03B030BD00BF54
:10602C0020B100084000002070B5012188B04FF469
:10603C00006001F025F8314B01A81C68304B00259D
:10604C00B4FBF3F4A4B201F0B5F901A801F0B2F974
:10605C00ADF804402B4C42F20F7301A92046ADF869
:10606C000830ADF80A50ADF8065001F05BF804A802
:10607C0001F0A9F960230126ADF810302046022367
:10608C0004A9ADF81830ADF81260ADF81650ADF8A3
:10609C001C5001F091F82046294601F0CDF920461C
:1060AC0004A901F0CDF82046294601F0CDF920468F
:1060BC0004A901F009F92046294601F0CFF9204640
:1060CC0004A9ADF81050ADF81260ADF81650ADF84B
:1060DC00185001F03BF92046294601F0C7F920463B
:1060EC00314601F09DF92046314601F076F9204603
:1060FC00314601F07EF908B070BD00BF9000002061
:10610C0040420F00002C014073B50F4E85007319EF
:10611C0004460121186B06EB440600F0B1FFB6F8FB
:10612C004030ADF804300CB9102300E018238DF882
:10613C00073003238DF80630044B01A91D44286A4F
:10614C0000F0E8FE02B070BD20B100084000002055
:10615C00024B188799879A86704700BF002C014024
:10616C00034B1A8F02809A8F42809B8E83807047DC
:10617C00002C0140044A4FF40053126A08B1136119
:10618C0070475361704700BF40000020034B1B6AEF
:10619C00DA6882F40052DA60704700BF40000020D9
:1061AC00024B988D013080B2704700BF002C01402B
:1061BC0073B5104C0E4604EB400494F84C10054695
:1061CC0094F8480000F0FEFEB4F85040204600F071
:1061DC000DFE00238DF80430074B68461D4495F8DE
:1061EC00303000948DF805308DF8066000F0C4FD59
:1061FC0002B070BD20B1000840000020F7B5234E5E
:10620C008700F3190546586D0C4640F0010001213A
:10621C0000F036FF1E4B06EB45065A1992F8322059
:10622C0002A98DF80320B6F85C201F4421F8082D34
:10623C00786B694600F06EFE012C24D110210022EF
:10624C00144801F0E4F81B238DF8043000270523D3
:10625C0001A88DF805308DF806708DF8074000F018
:10626C006DFCB6F8603001A88DF8043006238DF86B
:10627C0005308DF806708DF8074000F05FFC28465D
:10628C002146FFF795FF03B0F0BD00BF20B1000819
:10629C0040000020002C014010B501214FF0C050EF
:1062AC0000F0FAFE012000F0C5FE242000F092FC64
:1062BC004AF2A553984207D124204FF6FF7100F003
:1062CC007BFC00F0BDFEFEE7194B00245A6842F43B
:1062DC0040725A60A3F54C33A3F50473DA6842F0AC
:1062EC008072DA60134B5C601A6842F001021A602B
:1062FC00FFF7F0FD0120014600F0C2FEE0B20134D0
:10630C00FFF76EFE082CF9D1FFF78EFE0020FFF789
:10631C00FBFE0120FFF7F8FE0220FFF7F5FE03203D
:10632C00FFF7F2FEBDE8104000200121FFF766BF29
:10633C00002004E0001000E0054A064B02EB80024E
:10634C0003EB4003B3F85C10506B00F031BE00BFA0
:10635C004000002020B10008024B002223F810203E
:10636C00704700BFB001002010B5082086B0012195
:10637C0000F086FE4FF48040012100F08DFE244C8D
:10638C004FF40053ADF8003003238DF80230204653
:10639C00182369468DF8033000F0BCFD4FF4004320
:1063AC0020466946ADF8003000F0B4FD4FF4804350
:1063BC00ADF800302046042369468DF8033000F018
:1063CC00A9FD4FF48272ADF8062001220023ADF82E
:1063DC000C20A4F554444FF40072ADF80430ADF821
:1063EC000830ADF80A30ADF80E20ADF812300822A6
:1063FC000723204601A9ADF81020ADF8143000F0A9
:10640C0057FE2288034B92B21A8006B010BD00BF13
:10641C00000C0140BA0A002070B5044601208CB073
:10642C000E460146154600F01FFE124B80220193CA
:10643C00069200234FF44052012C029605930793C9
:10644C00089309930A920B9306D10B480393049576
:10645C0000F0D0FB084807E04CB910230748039321
:10646C00049500F0C7FB054801A900F03BFC0CB0FB
:10647C0070BD00BF0C380040440002405800024080
:10648C0073B50F230124002501A88DF804308DF875
:10649C0005508DF80650174E8DF8074000F04EFB56
:1064AC00FFF762FF20462A461349FFF7B5FF28463F
:1064BC002A461249124DFFF7AFFF30462246022101
:1064CC0000F039FC28462146224600F01CFE2246EC
:1064DC002846022100F017FE2846214600F007FE50
:1064EC002146084800F01CFC3046214600F018FC00
:1064FC0002B070BD58000240A0060020A00200208F
:10650C00003800404400024010B5044621460448BF
:10651C0000F006FC21460348BDE8104000F000BC2A
:10652C00440002405800024008B5012000F042FA35
:10653C00094A0A4813884FF4805123F040031B0486
:10654C001B0C1380064B1B889BB243F0400313803B
:10655C00BDE8084000F034BD00380040000C01409C
:10656C00BA0A002008B505484FF4805100F026FD0A
:10657C00BDE80840012000F041BA00BF000C01400A
:10658C0008B54FF40061024800F012FD08BD00BFD1
:10659C00000C014030B5092085B0012100F070FDE0
:1065AC004FF400644823694614488DF80330ADF865
:1065BC00004000F0AFFC0B21012000F003FD204651
:1065CC0000F014FC002502940C23012402A88DF881
:1065DC000D308DF80C508DF80E4000F0CDFB2823BB
:1065EC0001A88DF804308DF805408DF806508DF813
:1065FC00074000F0A3FA05B030BD00BF000C01400D
:10660C001FB52823002401A88DF804308DF807400D
:10661C0000F094FA4FF4006302A802938DF80E4038
:10662C0000F0AAFB04B010BD20B105484FF48071F6
:10663C0000F0C4BC02484FF4807100F0C1BC00BF34
:10664C00000C014013B50820012100F019FD0F4C7E
:10665C004FF48053ADF804300323204601A98DF884
:10666C00063010238DF8073000F054FCFFF77AFF4A
:10667C004FF48073204601A9ADF8043000F04AFCB9
:10668C000020FFF7D1FF02B010BD00BF000C01408D
:10669C0020B105484FF4806100F092BC02484FF4E1
:1066AC00806100F08BBC00BF000C014010B51F4B8B
:1066BC001B79002B38D000F0B3FB342000F0C4FB66
:1066CC001B4800F0EDFB04282DD11A4C1848A18F63
:1066DC0000F004FC042825D11748E18F00F0FEFBE4
:1066EC0004281ED100F1006000F59840B4F8401069
:1066FC0000F0F4FB042813D11048B4F8421000F059
:10670C00EDFB04280BD10E48B4F8441000F0E6FB66
:10671C00042803D1BDE8104000F08EBBFEE7FEE775
:10672C00FEE7FEE7FEE7FEE710BD00BFB00100206C
:10673C00004C000840000020024C0008064C0008E9
:10674C00084C0008024B5A6A01325A62704700BF6B
:10675C00B0010020014B586A704700BFB001002007
:10676C00384B82B01A6842F001021A605968364AF6
:10677C000A405A601A6822F0847222F480321A603D
:10678C001A6822F480221A605A6822F4FE025A60B7
:10679C004FF41F029A600022009201921A6842F490
:1067AC0080321A601A6802F400320192009A0132A7
:1067BC000092019A1AB9009AB2F5A06FF2D11A6838
:1067CC0012F4003218BF01220192019A012A05D05D
:1067DC001E4B4FF000629A6002B070471C4A116861
:1067EC0041F010011160116821F003011160116872
:1067FC0041F0020111605A685A605A685A605A682E
:10680C0042F480625A605A6822F47C125A605A68C8
:10681C0042F4E8125A601A6842F080721A601968E1
:10682C00084A8901FBD5516821F003015160516878
:10683C0041F0020151605A6802F00C02082AFAD1A8
:10684C00C6E700BF001002400000FFF800ED00E0BA
:10685C0000200240F8B5074672B63F4B53F8304063
:10686C004FF47F0000F0F0F8E72000F019F93B4BF3
:10687C0013B13B48AFF30080E72000F0EBF80225A2
:10688C0000F0C8FB0326204600F0DEF8E72000F0FD
:10689C0007F93448FFF746FB013EE72000F0DAF831
:1068AC00B6B23148FFF73EFB002EECD12E48FFF775
:1068BC0039FB0326204600F0C7F8E72000F0F0F87B
:1068CC002A48FFF72FFB013EE72000F0C3F8B6B2D1
:1068DC002548FFF727FB002EECD12348FFF722FBBE
:1068EC000326204600F0B0F8E72000F0D9F81D4848
:1068FC00FFF718FB013EE72000F0ACF8B6B21A48DF
:10690C00FFF710FB002EECD11948FFF70BFB3E46AE
:10691C008EB1204600F098F8E72000F0C1F813483B
:10692C00FFF700FBE72000F095F8013E0F48FFF75A
:10693C00F9FAB6B2ECE70F48FFF7F4FA013D9FD134
:10694C00BFF34F8F0C4A0D4BD16801F4E0610B4340
:10695C00D360BFF34F8FFEE784B100080000000046
:10696C00EFB10008F0490200A0860100E09304009A
:10697C00A0BB0D0000350C0000ED00E00400FA0592
:10698C000B4BBFF35F8F1A6882420FD0BFF35F8F40
:10699C0053E8002F002A03D143E800010029F7D166
:1069AC00BFF35F8F14BF0020012070470120704798
:1069BC00DC01002010B504462046FFF7E1FF00285B
:1069CC00FAD010BD10B50C4BBFF35F8F1A6882B1B3
:1069DC000022BFF35F8F53E8001F814203D143E8CD
:1069EC000024002CF7D1BFF35F8F14BF00200120CF
:1069FC0010BD012010BD00BFDC01002010B5044605
:106A0C002046FFF7DFFF0028FAD010BD10B5044B6D
:106A1C001C784443FFF7C4FB6043000C10BD00BF5F
:106A2C00A400002038B50546C0F307400C46FFF71C
:106A3C00EDFF2080C5F30720FFF7E8FF6080E8B288
:106A4C00FFF7E4FFA08038BD014B1860704700BF12
:106A5C00E001002008B510B1E72804D008BDBDE85E
:106A6C000840FFF787BB002002460146FFF770FB8A
:106A7C00024B00225A7001229A7008BDA40000201B
:106A8C000346598800889A88FFF762BB07B56946A8
:106A9C00FFF7C8FF6846FFF7F3FF03B05DF804FB90
:106AAC0008B510B1E72805D008BD0120BDE80840A5
:106ABC00FFF760BB064B1A7A0AB1586800E01868F9
:106ACC00FFF7E4FF034B63225A70FF229A7008BD54
:106ADC00E0010020A400002013B510B1E72803D07A
:106AEC001EE0FFF753FB1BE00E4B1A7A0AB15C68F1
:106AFC0000E01C686846FFF733FBBDF80220BDF8C8
:106B0C0000301343BDF8042013439BB22BB100207B
:106B1C0001460246FFF71CFB02E02046FFF7B6FFDA
:106B2C0002B010BDE001002040F0BF60024B40F409
:106B3C000030D860704700BF00ED00E0C27810B59F
:106B4C000378FAB1154A4478D26803F16043D24312
:106B5C00C2F30222C2F1040104FA01F10F2424FA57
:106B6C0002F2847803F5614322400A431201D2B247
:106B7C0083F8002303780122590903F01F0302FA5A
:106B8C0003F306E05909012203F01F0302FA03F391
:106B9C002031034A42F8213010BD00BF00ED00E067
:106BAC0000E100E021F0604121F07F01014B08433E
:106BBC009860704700ED00E082B000230193044B15
:106BCC000193019B18440190019B196002B070471E
:106BDC00006C004082B000230193054B0193019B94
:106BEC0018440190019B188880B202B0704700BF16
:106BFC00006C004002684FF6FE73134003600023E4
:106C0C00036043608360C3602A4B984222D02A4BB6
:106C1C00984229D0294B984230D0294B984237D0F2
:106C2C00284B98423ED0284B984206D153F8682CFA
:106C3C0042F4700243F8682C7047244B984206D1FA
:106C4C0053F87C2C42F0706243F87C2C7047204B3C
:106C5C00984206D153F8042C42F00F0243F8042C4E
:106C6C0070471C4B984206D153F8182C42F0F00296
:106C7C0043F8182C7047184B984206D153F82C2C1B
:106C8C0042F4706243F82C2C7047144B984206D196
:106C9C0053F8402C42F4704243F8402C7047104B90
:106CAC00984205D153F8542C42F4702243F8542CDA
:106CBC00704700BF080002401C0002403000024038
:106CCC0044000240580002406C0002408000024028
:106CDC00080402401C0402403004024044040240F8
:106CEC00580402408A6810B50C6A036814430A6998
:106CFC0023F4FF4314434A6923F0700314438A6955
:106D0C001443CA6914434A6A14438A6A22431343DC
:106D1C000360CB6843600B6883604B68C36010BD35
:106D2C0019B1036843F0010303E002684FF6FE73E8
:106D3C0013400360704703680AB1194301E023EA6A
:106D4C000101016070470000C3004CBF034B044BB2
:106D5C001B6803420CBF0020012070470004024056
:106D6C0000000240C3004CBF014B024B58607047FF
:106D7C000004024000000240837930B501680279BA
:106D8C0043B3194BCC431D6802F1804225401D6072
:106D9C005D6802F582322C405C60146821431160FE
:106DAC0002689C68D1430C409C60DC682140D9602F
:106DBC004179102906D1996811439960D9680A4321
:106DCC00DA6030BD01F1804303F5823319680A4360
:106DDC001A6030BD02F1804303F582331A6822EA4F
:106DEC000101196030BD00BF00040140014B586126
:106DFC00704700BF00040140054B1A685B690340F3
:106E0C0004D010420CBF0020012070471846704778
:106E1C0000040140014B5861704700BF0004014061
:106E2C00034B044A5A6002F188325A60704700BF23
:106E3C000020024023016745024B1A6942F0800290
:106E4C001A61704700200240014BD860704700BFA8
:106E5C0000200240084BDA68D10709D4DA685207DF
:106E6C0008D4DB6813F0100F0CBF0420032070470C
:106E7C0001207047022070470020024010B50446E4
:106E8C00FFF7E8FF012806D11CB1FFF7E3FF013C37
:106E9C00F8E7052010BD002C08BF052010BD000030
:106EAC0038B505464FF43020FFF7E8FF042812D11F
:106EBC00094C4FF43020236943F0020323616561D0
:106ECC00236943F040032361FFF7D8FF226941F6A1
:106EDC00FD731340236138BD0020024070B5054698
:106EEC004FF400500E46FFF7C9FF04280ED1084C92
:106EFC004FF40050236943F0010323612E80FFF708
:106F0C00BDFF226941F6FE731340236170BD00BFC3
:106F1C0000200240CB78F0B5DA0648BF8A780988A1
:106F2C0003F00F0548BF154311F0FF0F1DD0046887
:106F3C0000220127974007EA0106BE4211D19700B3
:106F4C004FF00F0C0CFA07FC05FA07F724EA0C04B7
:106F5C00282B44EA070401D1466102E0482B08BF04
:106F6C0006610132082AE4D10460FF291FD9446864
:106F7C00002202F108060127B74007EA0106BE42CB
:106F8C0011D197004FF00F0C0CFA07FC05FA07F71C
:106F9C0024EA0C04282B44EA070401D1466102E0E0
:106FAC00482B08BF06610132082AE2D14460F0BDCB
:106FBC00836819420CBF00200120704701617047A3
:106FCC004161704701F003039B000F229A409840E7
:106FDC0001F0FC0101F1804101F5803110B58C68A4
:106FEC0024EA02028A608A6802438A6010BD0000AB
:106FFC00014B1860704700BF00300040014B5860D7
:10700C00704700BF00300040014B9860704700BFD4
:10701C0000300040024B4AF6AA221A60704700BFAB
:10702C0000300040024B4CF6CC421A60704700BF57
:10703C0000300040014B1860704700BF20000E422A
:10704C00074B1A6842F004021A601A6842F00202F6
:10705C001A60044B1A6942F004021A6130BF70477F
:10706C000070004000ED00E0044B5A6909B1104378
:10707C0001E022EA00005861704700BF0010024096
:10708C00044B9A6909B1104301E022EA00009861AF
:10709C00704700BF00100240044BDA6909B110437D
:1070AC0001E022EA0000D861704700BF00100240E6
:1070BC000B8810B54C88028823438C8802F441520B
:1070CC002343CC8823430C8923434C8923438C8949
:1070DC002343CC89234313439BB20380838B23F438
:1070EC0000631B041B0C83830B8A038210BD038873
:1070FC0019B19BB243F0400303E023F040031B049F
:10710C001B0C0380704783889BB20AB1194301E0C2
:10711C0023EA010181807047038919420CBF0020CA
:10712C0001207047224A038890429BB212D002F58C
:10713C00006290420ED0B0F1804F0BD0A2F5983285
:10714C00904207D002F58062904203D002F5806233
:10715C00904203D14A8823F070031343154A90429E
:10716C0008D002F58062904204D023F44073CA88A0
:10717C009BB2134303808B8883850B8803850C4B50
:10718C0098420FD003F5006398420BD003F540638F
:10719C00984207D003F58063984203D003F58063CF
:1071AC00984201D10B7A038601238382704700BF7A
:1071BC00002C014000100040038C70B523F001033B
:1071CC001B041B0C0384038C8488028B0D8822F017
:1071DC0073021204120C2A434E880D8923F0020309
:1071EC001B043543ADB21B0C2B43144DA4B2A84267
:1071FC000FD005F50065A8420BD005F54065A842F7
:10720C0007D005F58065A84203D005F58065A84236
:10721C000ED14D8923F008032B438D8823F00403F2
:10722C002B43CE898D8924F440743543ADB22C4365
:10723C0084800283CA888286038470BD002C01403E
:10724C00038C30B523F010031B041B0C0384038C3C
:10725C008288048B0D8824F4E6442404240C23F047
:10726C00200344EA05241B040D891B0C43EA051377
:10727C004D8892B243EA0513124DA4B2A8429BB2B8
:10728C0003D005F50065A84215D14D8923F0800384
:10729C009BB243EA05134FF6BF751D408B8822F451
:1072AC00406245EA03138D899BB242EA8502CD897F
:1072BC0042EA850292B28280CA88048302870384E0
:1072CC0030BD00BF002C0140038C30B523F480731B
:1072DC001B041B0C0384038C8288848B0D8824F084
:1072EC0073042404240C23F400732C431B040D8915
:1072FC001B0C43EA05234D8892B243EA0523124D39
:10730C009BB2A84203D005F50065A84215D14D8962
:10731C0023F400639BB243EA05234FF6FF351D406F
:10732C008B8822F4405245EA03238D899BB242EAB2
:10733C000512CD8942EA051292B28280CA888483F2
:10734C008287038430BD00BF002C0140038C30B514
:10735C0023F480531B041B0C0384038C8488828BC2
:10736C000D8822F4E6421204120C23F4005342EA74
:10737C0005221B040D891B0C43EA05334D88A4B26E
:10738C0043EA05330A4D92B2A8429BB203D005F5ED
:10739C000065A84205D18D8924F4804444EA851403
:1073AC00A4B284808283CA88A0F84020038430BDB4
:1073BC00002C01404FF6FF73838000230380C380B1
:1073CC004380037270470023038043808380C38013
:1073DC00038143818381C3817047038819B19BB2B8
:1073EC0043F0010303E023F001031B041B0C038097
:1073FC007047B0F8443029B16FEA43436FEA534306
:10740C009BB201E0C3F30E03A0F8443070478389AC
:10741C009BB20AB1194301E023EA01018181704753
:10742C00038819B19BB243F0800303E023F080037F
:10743C001B041B0C03807047038B23F008031B04F5
:10744C001B0C194301837047038B23F400631B044B
:10745C001B0C43EA01218BB203837047838B23F00F
:10746C0008031B041B0C194381837047838B23F483
:10747C0000631B041B0C43EA01218BB2838370470E
:10748C00038A828911EA030092B203D011420CBF25
:10749C00002001207047C94389B2018270470B0A52
:1074AC00017043700B0C090E8370C170043070476F
:1074BC000170090A41700230704743185A78435CD6
:1074CC0003EB022080B2704710B543189A78DC7831
:1074DC00415C120402EB046258780A4402EB00206F
:1074EC0010BD000073B544790023022C01930FD01A
:1074FC00032C19D0012C2BD1164D2B692E4623B100
:10750C002B6901A898470246B8B9B16801201BE065
:10751C00104DEB682E4623B1EB6801A89847024644
:10752C0058B9B16802200FE00A4D6B692E464BB179
:10753C006B6901A89847024620B1A9682046BDF89E
:10754C00043003E0B16803200022134600F013FC62
:10755C0002B070BD34020020072870B518D801297C
:10756C0016D80125854001FA00F0ED43094B1A6845
:10757C00BFF35F8F05EA0204044353E8001F9142F6
:10758C0003D143E80046002EF7D1BFF35F8FEDD156
:10759C0070BD00BFA800002070B5012186B0054663
:1075AC00FFF78BFF430404463BD5B0F5824F38D12F
:1075BC0028460521FFF781FF05EB8000EE1D002416
:1075CC00C51DAE4206D030460221FFF776FF0436C9
:1075DC000444F6E77B4BBFF35F8FD3E85F0F204487
:1075EC00C3E8510F0029F8D1BFF35F8F03F10C02F0
:1075FC00BFF35F8F52E8000F204442E800010029DE
:10760C00F8D1BFF35F8F303BD96B9A6B914240F04E
:10761C00CA8093F84020002A00F0C5809B6999200D
:10762C0031E024F4FF4020F07F0080B2002800F00D
:10763C00978048F210039C4228D00CD8B4F5004F28
:10764C0040F2BC8048F202039C4215D948F2040374
:10765C009C4211D0B2E048F280039C420CD004D87A
:10766C0048F240039C424FD0A8E0B4F5024F03D03F
:10767C00B4F5084F6BD0A1E0534B9A69002A00F087
:10768C0092809B69204600210A4667E00023EA1895
:10769C0052790DF803200133042BF8D16B7A05F1E4
:1076AC000D008DF80430AB7A8DF80530EB7A8DF83F
:1076BC0006302B7B8DF80730002300AA1A44C15CDE
:1076CC000133042B1172F8D105F11100002300AA2B
:1076DC001A44C15C0133042B1173F8D105F1150068
:1076EC00002300AA1A44C15C0133042B1174F8D195
:1076FC002B798DF81430344B9A69002A53D09B693E
:10770C0020466946152229E0053500212846FFF759
:10771C00DBFE042100902846FFF7D6FE08210190DD
:10772C002846FFF7D1FE0C2102902846FFF7CCFE2D
:10773C00102103902846FFF7C7FE234B04909A694B
:10774C00002A30D09B6920466946142206E01E4B65
:10775C009A6942B39B692046691D0122984722E031
:10776C0041F203039C4205D0A4F580530E3B9BB21F
:10777C00012B1AD86C1D20460421FFF7A5FE3930C9
:10778C001CD12A79104B00212046DA62FFF79CFEAF
:10779C00042105462046FFF797FE393003D12846D1
:1077AC000121FFF7D9FE012009E0074B1B889BB292
:1077BC009C4204D0B4F5805FF5D100E0002006B007
:1077CC0070BD00BF640200203402002070B50E4C66
:1077DC006688B6B2B6B1606805782B1F5D425D4114
:1077EC002DB1FFF7D9FE003018BF012000E028466C
:1077FC00064618B935B194F841301BB900236380A3
:10780C00FEF7F8F9304670BD340200202DE9F04F38
:10781C0085B004468A469146FEF79CFF00250190F0
:10782C00DFF80883B8F8023046469BB2002B40F0D4
:10783C009380FFF7EFFBFEF78DFF0290029A019BFE
:10784C00D31A0393039B002B03DA019B029A134474
:10785C000393B54B1B68002BE2D0039A9A42DFD3FB
:10786C00338841F207029BB2934227D841F20602B9
:10787C00934261D240F2022293425DD00FD80C2B7E
:10788C0008D8082B58D2002B4FD0062B88BF0023CA
:10789C005AD851E00D2B4CD040F201220BE041F2B2
:1078AC00020293424BD8B3F5805F45D8B3F5017F04
:1078BC003FD940F20722934237D13AE041F211020C
:1078CC00934236D014D841F20B02934234D005D8EF
:1078DC0041F2090293422FD031D82AE041F20F0233
:1078EC0093422CD028D841F20D02934227D01CE0B1
:1078FC0042F2060293421CD007D8B3F5005F14D9AC
:10790C0042F20402934221D813E0B3F5804F00F009
:10791C00F28105D8A3F50053083B012B09D904E0EB
:10792C0044F20B02934200F0E6810B20FEF792FF2B
:10793C00E1E1FF232370DEE14FF0FF3304E04FF071
:10794C00FF3323606360D6E12360D4E1204600213D
:10795C003A2200F075FACEE1D8F804603378042BA3
:10796C0040F07D8101213046FFF7A7FD05463046EA
:10797C00FFF712FE0146002840F0668141F2070332
:10798C009D4206F1050752D841F206039D4280F054
:10799C00AC8040F202239D4200F0A78011D80C2D40
:1079AC0009D8082D80F0A180002D00F04D81062D06
:1079BC0000F2E88099E00D2D00F0948040F2012354
:1079CC007EE041F202039D4218D8B5F5805F00F2CB
:1079DC008C80B5F5017F40F2858040F207239D42F3
:1079EC0040F032813379384604F8013B0021FFF72F
:1079FC006BFD01462046FFF752FD25E141F20403E1
:107A0C009D4200F0958040F2AB8000213846FFF794
:107A1C005BFD042120603846FFF756FD083444F81E
:107A2C00040C06F10D03224606F11D0175E041F22E
:107A3C0011039D4256D02BD841F20B039D4254D0DA
:107A4C001CD841F209039D424FD000F296800021D0
:107A5C003846FFF739FD042120603846FFF734FD26
:107A6C00082160603846FFF72FFD0C21A0603846D6
:107A7C00FFF72AFD04F10C0BE060E4E041F20F0388
:107A8C009D426DD037D841F20D039D4250D0DBE0C2
:107A9C0042F205039D4200F0998007D841F212038F
:107AAC009D4235D0B5F5005F1CD8CDE042F20903FC
:107ABC009D4208D842F208039D4213D242F20603BB
:107ACC009D420FD0C0E044F20B039D4240F0BC80BD
:107ADC00737938460121A8F83030FFF7EEFCA8F88E
:107AEC003200B1E033792370AEE038460021FFF765
:107AFC00EBFC2060A8E000213846FFF7E5FCA3462C
:107B0C004BF8040B04213846FFF7DEFC60609AE06A
:107B1C003846FFF7D2FC208096E053F8040B8B42DA
:107B2C0042F8040BF9D18FE0EC0100203402002064
:107B3C0000213846FFF7C8FC042120603846FFF7C7
:107B4C00C3FC082160603846FFF7BEFCE36804F113
:107B5C00080B3933A06076D10121FFF7FDFC72E0F0
:107B6C0000213846FFF7B0FC042120603846FFF7AF
:107B7C00ABFC083444F8040C66E0337923713B68A1
:107B8C00236061E000213846FFF79EFC0421206051
:107B9C003846FFF799FC082160603846FFF78DFCEA
:107BAC000A21A0603846FFF788FC0C3444F8020C1C
:107BBC0006F11103224606F1350153F8040B8B42F2
:107BCC0042F8040BF9D11B8813803DE073185B79E4
:107BDC00635401310429F9D106F109000023C15C79
:107BEC00E2180133042B1171F9D106F10D000023B9
:107BFC00C15CE2180133042B1172F9D106F11100AA
:107C0C000023C15CE2180133042B1173F9D106F186
:107C1C0015000023C15CE2180133042B1174F9D157
:107C2C0006F119000023C15CE2180133062B117513
:107C3C00F9D106F11F000023C15CE2180133202B9F
:107C4C009176F9D100E05C46B8F800202C4B92B24A
:107C5C00954236D100221A8083F8412031E0B8F8E1
:107C6C0036309BB26BB33046032196F802B0FFF767
:107C7C0024FC0746BAF1000F0BD00421701DFFF74E
:107C8C0023FC06F115010246C9F800005046FDF729
:107C9C0037FACBEB07077B1EB3F5806F07D20BF1DE
:107CAC000501204631443A46FDF72AFA01E04FF02F
:107CBC00FF37B9F1000F01D0C9F800700023A8F804
:107CCC0036300023A8F80230FDF794FF3378042BEC
:107CDC0005D1B5F5805F02D13046FFF703FCB8F84B
:107CEC0000309BB2002B7FF49BAD054BDB8E9BB21F
:107CFC00002B7FF495AD002005B0BDE8F08F00BFE0
:107D0C0034020020034B1880084600210A46FFF776
:107D1C007DBD00BF3402002010B5034B0124DC866E
:107D2C00BDE81040FFF772BD3402002038B50346A1
:107D3C00154601224A710C46881D1946FFF7B8FBFF
:107D4C00291D05702046FDF7BFFF002038BD38B552
:107D5C0013440C469DB202216171A0712946E27157
:107D6C0004F10800FFF7A4FB691D204689B2BDE8A9
:107D7C003840FDF7A9BF2DE9F84F1C4604F1020B62
:107D8C00032301F107091FFA8BFB88710D464B7118
:107D9C00484659461646FFF78BFBB4F57A7F824668
:107DAC0005F10B0812D82146FFF782FB21465046FD
:107DBC00FFF77EFB314640462246FDF7A1F9A11D97
:107DCC00284689B2BDE8F84FFDF77EBF4FF47A77AD
:107DDC00B4FBF7F30BEB430189B2FFF769FB3946B0
:107DEC005046FFF765FB314640463A46FDF788F9A9
:107DFC00A4F57A74284640F2EE31A4B23E44FDF765
:107E0C0063FFB4F57A7F84BFA4F57A74A7B2A84651
:107E1C0088BF4FF47A74314628F8054F48462246FD
:107E2C0098BF0027FDF76CF9A11C404689B2264487
:107E3C00FDF74AFF0FB13C46E3E7BDE8F88F0000C1
:107E4C00F0B4840743D0541E002A3ED0CDB2034672
:107E5C0003E0621E002C38D0144603F8015B9A072D
:107E6C00F7D1032C2AD9CDB245EA05250F2C45EACA
:107E7C00054515D9A4F110073F0903F1100606EBCF
:107E8C0007161A46156055609560D5601032B242DF
:107E9C00F8D104F00F040137032C03EB07130DD9B1
:107EAC001E462246043A032A46F8045BFAD8221FDF
:107EBC0022F003020432134404F003042CB1C9B2BF
:107ECC001C4403F8011BA342FBD1F0BC70471446C1
:107EDC000346C6E7030001011414002727272727B0
:107EEC002727272727272727272325252525252526
:107EFC00252525232323230000000000000000007B
:107F0C000000000000000000000000005050505025
:107F1C005050505050505050505050505050505055
:107F2C005050505050505050505050505050500194
:107F3C0077801D1F222628291A1F22242628161D69
:107F4C001E2024251E2D01020202020015151511FA
:107F5C0015150E0000010000741B0000280218000B
:107F6C00E462080096000000000000000000000021
:107F7C0000000000000000000000000000000000F5
:107F8C0000000000000000000000000000000000E5
:107F9C0000000000000000000000000000000000D5
:107FAC0000000000000000000000000000000000C5
:107FBC0000000000000000000000000000000000B5
:107FCC0000000000000000000000000000000000A5
:107FDC000000000000000000000000000000000095
:107FEC000000000000000000000000000000000085
:107FFC000000000000000000000000000000FFFF77
:10800C007A630800960000000000000000000000E9
:10801C000000000000000000000000000000000054
:10802C000000000000000000000000000000000044
:10803C000000000000000000000000000000000034
:10804C000000000000000000000000000000000024
:10805C000000000000000000000000000000000014
:10806C000000000000000000000000000000000004
:10807C0000000000000000000000000000000000F4
:10808C0000000000000000000000000000000000E4
:10809C000000000000000000000000000000FFFFD6
:1080AC0010640800960000000000000000000000B2
:1080BC0000000000000000000000000007200C4938
:1080CC0008600C481930F74630B5051CAC69686877
:1080DC005F3009D1606B0C3801218E460649FE4495
:1080EC00084700206063AC696C6004485B3030BDAD
:1080FC00403B080049D0010009EA020091E1000070
:10810C000000000000000000000000000000000063
:10811C000000000000000000000000000000000053
:10812C0000000000F0B585B0051CA88800902889D7
:10813C000190E9680291287C03902A6A0020FFFFD5
:10814C00A6640800960000001756686000294CD001
:10815C00002F4ADCCF490C1C08260490218800987B
:10816C0081420CD162880198824208D14620025D7E
:10817C000398824203D10E200057B8420AD0462001
:10818C00005D112822D1009881421FD10E2000578A
:10819C00B8421BD10420021C0298BE4901239E4602
:1081AC00ED4BFE441847002817D0201D02990422DD
:1081BC0001239E46E84BFE44184700280DD046206C
:1081CC00005D112809D0A06D002806D0AC340498AD
:1081DC0001300490013EC1D107E004980006FFFF76
:1081EC003C65080096000000000EAC214143AB48F2
:1081FC0040186860AB48AD3005B0F0BD00B5C26842
:10820C009069022101239E46A74BFE441847A748BC
:10821C00613000BD01790B2903D08900A44A515A61
:10822C0001E0012149024160A2480D30F746011CD2
:10823C00A1480268A148012A01D12530F746A04A7D
:10824C0012684A601930F746002141609E489D49EA
:10825C000818F746002141609C499D48FF3840189A
:10826C00F746FFB54669406801909A490A7CA04FD1
:10827C00012A63D0097C032960D0974A974BFFFFF2
:10828C00D265080096000000002102915956242363
:10829C00594353180393012817D18A1804236C46A9
:1082AC00924915790878C043284320700132013176
:1082BC000134013BF5D1311D6846042201239E4651
:1082CC00AA4BFE441847002840D0351D884800783A
:1082DC00FF2811D000280FD00398011D281C012461
:1082EC00A646834AFE441047002805D18048A6467E
:1082FC008149FE44084705E0281C01218E467D4932
:10830C00FE4408470199012901D100281ED1019989
:10831C005F3101D000280FD1A820815D0029FFFF1B
:10832C00686608009600000008D0491E8155805DE3
:10833C00002809D1381CFF30083011E003210291CC
:10834C0000E0A82002998155381CFF30163007E058
:10835C000198012802D1381CA33001E0381C9F3051
:10836C000090FFBD00B5021C106AD1695269C36947
:10837C005A6001229646644AFE4410476348FF3017
:10838C006E3000BD10B50A1C4169006A9369DB6947
:10839C00586090690124A6465B4AFE441047A646E5
:1083AC005B48FE4400475B48FF30B63010BD70B5EB
:1083BC00051C6E69584802685C21885D0428FFFF23
:1083CC00FE660800960000001DD107208855100B92
:1083DC0019D20124A6465348FE440047A6465248EB
:1083EC00FE44004700280AD047218957C16011215B
:1083FC00C90200220423A646EB4EFE443047A64693
:10840C00EA48FE440047012068604448E8490818DF
:10841C0070BD70B5051CAE699C2080194B2189007C
:10842C000124A646EA4AFE4410475C21885D0728D1
:10843C0001D1092000E00520AA698854301CA64609
:10844C00ED49FE4408476860EC484D3070BDF0B50E
:10845C004168826888235E1837880B6F002BFFFFFA
:10846C00946708009600000001D1002F10D1062F50
:10847C0002DD0021C94307E033889B00C9180A6755
:10848C0031880131318001218160E5481D30F0BD1A
:10849C000B1C01245D6F1D6704330134062CE1DADB
:1084AC00F8E700B50021C160EC4801681031EA48DA
:1084BC00202201239E46EA4BFE441847E948FB3034
:1084CC0000BDC046140D1B0054191B00911A01006D
:1084DC004BAD0300614E0100063208001F0B020079
:1084EC00543F080045C10000843C08001B020000FA
:1084FC00ED170000F3C10100C60500003419FFFFA1
:10850C002A680800960000001B0008191B00A644EE
:10851C0008001C171B0018171B00CB6703000D4726
:10852C00020039420300BDE70200B1400300B9EA82
:10853C00010045DA000024410800539F030071C07C
:10854C000200F0B588B0069107908669F01CDAA19C
:10855C0004220124A6460E4BFE441847002833D1B2
:10856C00F279D8480270357A777A781B431C93429B
:10857C001ED0162A0FDB002D0DD1D84804700A200E
:10858C008119D1481A1CA646B84BFE44184771E015
:10859C00C0468FC60300D2480470CB484019FFFF79
:1085AC00C0680800960000000A2189197A1B521C29
:1085BC00A646B04BFE44184761E0CB480470CB484C
:1085CC0004700A208119C348A646AA4BFE441847DA
:1085DC0055E0F01C03210A1CBCA1A646C74BFE4467
:1085EC00184700284BD1F179BB480170BB4DB279CB
:1085FC002A700320BB490139A646B94BFE441847E3
:10860C00287800280AD1FFE7B9490C70B9490C70D9
:10861C000320B449A646B84AFE441047201CF27900
:10862C00357A777A791B4B1C93421DD0AA4909786D
:10863C0016290CDB002D0AD1AD4908700A20FFFF6A
:10864C0056690800960000008119EB481A1CA646D2
:10865C008B4BFE44184717E0A9490870E7484019AE
:10866C000A2189197A1B521CA646844BFE441847D2
:10867C000AE0A1490870A14908700A208119DE4856
:10868C00A6467E4BFE4418479A48007800280AD02C
:10869C0099480078002806D098480078002802D025
:1086AC0097480078002800D18CE00320172189011D
:1086BC00A646934AFE4410478A4801788A480778B0
:1086CC00874E854DE448006800282ED107984161FB
:1086DC000662C948069A1064022F01D0032FFFFFCF
:1086EC00EC6908009600000001D1032200E03A1C5E
:1086FC00069BDA632A789A63012F03D1052904D0EB
:10870C000D2902D0EF48DB3064E000250095019183
:10871C000296039504902B1C201C011C8E46EA4EDD
:10872C00FE443047E9480460281CA646E849FE444C
:10873C0008474CE00D270020391C05AAA646E74B3C
:10874C00FE4418476846808A400805D2381C5021E0
:10875C00A646E04AFE441047381C211C0B1C291C61
:10876C000022A646DC4FFE4438472B780D20311CE6
:10877C00221CA646D84EFE44304728780130FFFF15
:10878C00826A080096000000021C0D205A49231C26
:10879C00A646D34EFE443047584E28780230021C71
:1087AC000D20311C231CA646CE4FFE443847307892
:1087BC0000280AD028780330021C4E4803780D207C
:1087CC009349A646C74DFE442847C2480460002082
:1087DC00A646C149FE440847BD48D849081808B008
:1087EC00F0BD7BC002005D9F03009F030000011CD5
:1087FC00D4480268D448002A04D000220A628A6154
:10880C001D30F746D730F746C0467DB80300011C33
:10881C00CE480268CE48002A02D0FF30B430FFFFA9
:10882C00186B080096000000F7460022CA618A61A6
:10883C000221EF4A11604F30F746C046C9210100B2
:10884C0091E10000EB4801688A690120C0031043E4
:10885C00886100200861EF482330F7468917020031
:10886C0070B5051CEE4E296AEA69301C0124A64637
:10887C000A4BFE4418476869A646EA49FE44084775
:10888C00A8690630A860E84800686860EE60E748B0
:10889C006D3070BD46171B00303F080009B4030053
:1088AC0041EB000030B5EF48016D806C084318D0E7
:1088BC00ED49081C0722FF2309331B58002BFFFF2F
:1088CC00AE6B08009600000004D0FF301D30013A5A
:1088DC00F6D10BE00220E74AE84B0124A646E74D0F
:1088EC00FE442847A646E648FE440047E648FF30CB
:1088FC005C3030BDC0465353494400C046C04B4564
:10890C005900EE620800F0620800EC620800ED62AB
:10891C000800E77E0300BC050000E8620800E9627D
:10892C000800EA620800EB620800DD7E03008FC6D7
:10893C000300F0B587B0009101906B480168CC4AF8
:10894C00141C029407260025039504940595E94808
:10895C000068084327D0E068039988420ADDFFFFCE
:10896C00446C0800960000000390401C009988603D
:10897C00C249FF201D3068430C18E068049102992D
:10898C00C968884210DB884210D102980127BE4684
:10899C00D849FE4408470690201CBE46D549FE44E3
:1089AC0008470699884201DA0595029451480168F6
:1089BC00FF2709373859002806D0D1480068072E00
:1089CC0000D12E1C084304D0FF341D340135072D73
:1089DC00C2DB072E0AD1CA480068084306D0059EA0
:1089EC00301C01218E46C449FE440847019847615A
:1089FC0000218161FF221D32724304998918FFFF07
:108A0C00DA6C080096000000C1610662BE4839307D
:108A1C0007B0F0BD10B5041C002001218E46BB49E7
:108A2C00FE440847401E00D500206060E061B84855
:108A3C00213010BDC0461063080070B5041CE569F8
:108A4C006669002001218E46B149FE4408476060EA
:108A5C00AB19B04AAF49934202D39A1A824202D957
:108A6C00081C993070BD081CAB3070BD086B417D83
:108A7C0002889200511A3C39FF225F32914203D98D
:108A8C006521018002218173A548A3490818F74686
:108A9C00C04630630800F8B5406824214143FFFF0D
:108AAC00706D080096000000A1484518281D0C2187
:108ABC004919042201239E469E4BFE4418479B4CA9
:108ACC0000281BD02B1C04226E469B491F7B087868
:108ADC00C04338433070013301310136013AF5D1CE
:108AEC000C2041196846042201239E46914BFE44FA
:108AFC001847002802D0201C4A30F8BD201CF8BDB5
:108B0C00B1BD000015950000583F0800F3F80000B7
:108B1C00E90902002B090200DD0A0200F8B5051C68
:108B2C00AA698749002008562421414380484318EC
:108B3C0004246E4680491F790878C0433843FFFFF0
:108B4C00066E0800960000003070013301310136CA
:108B5C00013CF5D1111D684604220124A646774B31
:108B6C00FE441847011C774804D07849097869609D
:108B7C004530F8BDEC61AF30F8BDB1020000743F78
:108B8C00080019C600005C3F08001DC20000F0B5CB
:108B9C00051CAB69EC69606800682A3001780A062C
:108BAC00417809048A18817809028A18C1788A18D0
:108BBC008E26F15A090A0170F05C616809682B264F
:108BCC0070548C20C01861680E680188090A2C2723
:108BDC00B955616809682D26007870546068FFFFEC
:108BEC009C6E080096000000016832310878000283
:108BFC00497808180004000C8C21CB585749414087
:108C0C000804000CC018801A01218E465449FE44F9
:108C1C00084761680A683223010A99546168096837
:108C2C0033225054606868604E48F0BD403B0800E9
:108C3C0068440800026A8B69DB691B688360886979
:108C4C00C06941688A4200DA426047487930F74689
:108C5C004312030045489130F746C0463463080080
:108C6C002F7A0200B43608008FF4010010B5416869
:108C7C0002220A400420084010433D4C02D0FFFF62
:108C8C00326F080096000000201C4D3010BD080605
:108C9C00000E01D0080904D3012086463848FE4452
:108CAC000047201C5D3010BDC04600001B00340482
:108CBC001B0032040000C407000015090200C59314
:108CCC0000000D910000F0B5466887682F480088B9
:108CDC00C00A1DD20124A6462D48FE440047051C9F
:108CEC0016D0301C391CA646264AFE441047307854
:108CFC00287370786873B078A873F078E873281CC0
:108D0C002121890200220423A646214CFE4420473F
:108D1C001D48FB30F0BD401E80001F4B1950FFFF5B
:108D2C00C86F0800960000001D490A50F746C0465F
:108D3C00BDB5000095920000FD930000543F080063
:108D4C00294F0300DFE8020036894100810600004C
:108D5C00B178000094EC010008191B008FC60300C9
:108D6C001C171B0067660300A644080018171B009D
:108D7C00FFFF000061A203006A1E010045DA00003B
:108D8C00E9780200D7E80100B9EA01006344020067
:108D9C00C54102002441080071C002007BC00200E2
:108DAC0004F31A00807B0800FCB5041CA569606AFA
:108DBC0001902069002835D4082833DAE169FFFFD7
:108DCC005E70080096000000096810292FD1AC21B4
:108DDC004143C84A515C490827D300060016A268D3
:108DEC00694601239E46C44BFE441847061C393085
:108DFC001FD0002E1DD00098076800990C390198DF
:108E0C000160281D1021791A042201239E46BB4BB8
:108E1C00FE44184702222A80A81C0821791A012333
:108E2C009E46B64BFE44184703E0382000E0002075
:108E3C00C6432660B3487C302062FCBD30B5051CAF
:108E4C002869A96990291DD169690978042919D063
:108E5C00052917D00A2915D0062913D00C29FFFF94
:108E6C00F47008009600000001DB10290FD10124DA
:108E7C00A646A749FE440847A648A7490022A6468D
:108E8C00E24BFE441847A548FF305F30286230BDE6
:108E9C00F0B589B00590416902699F48A04E8242A5
:108EAC003AD00430824225D0ED4DAA4200D0CCE01D
:108EBC000868061C0C228F1A4A688918091D102292
:108ECC000124A646E74BFE441847011C09D1AC22ED
:108EDC007243E54880184622125C112A01D14422C3
:108EEC001454281C3A1CA646C84BFE441847DF48AD
:108EFC00EC30ABE00868C00030188A68022AFFFF2B
:108F0C008A7108009600000002D0E7208000A2E0E1
:108F1C00CA688918097B4160802101603B200001EF
:108F2C0099E008680690C000345810200490012580
:108F3C00AE46E048FE4400470790002800D189E087
:108F4C000C2107980F18CA49AC20069A50430818F0
:108F5C004822135C5B065B0E1354069AD200B618BB
:108F6C007168002947D1002C01DD082C21DB00227F
:108F7C0069460A7001920A818A72CD720D734D7323
:108F8C000188CD480623AE46CD4CFE442047041C38
:108F9C0002DC0020C04336E03460AC206043FFFFAD
:108FAC002072080096000000B44909185C22281CA5
:108FBC0050544820425C5206520E4254AC2060433E
:108FCC00AE4908185C21095C491E022916D90339DF
:108FDC0008D000203056AE46BC49FE4408478020DD
:108FEC003060DBE70894802131604822135C194320
:108FFC001154AE46B649FE4408470AE00120CEE7BC
:10900C000698391C04AAAE46B24BFE441847041C01
:10901C0008900698386008987860002815D0AC2025
:10902C006043964909184888020402201043B8602E
:10903C004868020E0102090E090211430204FFFFE7
:10904C00B672080096000000120E12040A430006C5
:10905C001043F8600798374900221023AE46A04C05
:10906C00FE442047894800E01620EE49091805986F
:10907C00016209B0F0BDFEB5051C2E696C690C20AF
:10908C00201A0290E9498E4215D160680F30001108
:10909C000001606020680B280DD80023684603701F
:1090AC00029805220127BE46EA4FFE443847E9489C
:1090BC00FF3095302862E8498E4217D1E84A137880
:1090CC00684603715378437193788371D278C27177
:1090DC00042202700298002201AB0127BE46FFFF5A
:1090EC004C73080096000000DC4FFE443847DC4807
:1090FC00FF3095302862E9498E4213D1022268462E
:10910C0002702068AC224243614868308318029890
:10911C0000220124A646D14CFE442047D048FF3003
:10912C0095302862FEBDC0465D0D1B0081E7020034
:10913C0009B40300271A02002F7A02000202000071
:10914C0005100000D5F400006C640800FEB5071C87
:10915C007D69BE690C20301A0190DC4C0A2D13D1AC
:10916C003068D849086001208646D748FE4400473D
:10917C000A200021019A01239E462E4BFE44FFFF3C
:10918C00E2730800960000001847F52080000019D3
:10919C003862032D7CD1F520800000190290706894
:1091AC0000280CD10021CC480160CC480068002874
:1091BC0064D001218E46CA49FE4408475EE0C94886
:1091CC00B1680160F1684160316981607169C160A9
:1091DC00B169C163F1690164316AC1640124A646B5
:1091EC00C248FE440047A646C148FE44004770688A
:1091FC007D25ED00A84224D8012818D0022805D0DE
:10920C00281CA646EB49FE4408471FE0B64800233D
:10921C00191C59433E224A43828302300133FFFF1B
:10922C007874080096000000102BF6DBA646B148B7
:10923C00FE440047E24810E0E24D281CA646DF49F8
:10924C00FE44084707E0C046CFF60000A646DB49BF
:10925C00FE4408477568DA480560051CA24E306864
:10926C00002806D1EA480068A646EA49FE440847A9
:10927C00306000942B68E849E84AA646E84DFE4465
:10928C0028479848046003200021019A01239E4638
:10929C00E44BFE44184702983862FEBD02100000F1
:1092AC0091190200140D1B002A03000030B5051C97
:1092BC0000200124A646DC49FE440847A646FFFFD1
:1092CC000E75080096000000DB49FE440847A646D0
:1092DC00DA48FE4400477D21C900A646DA4AFE441E
:1092EC001047D7490818D5490880D7480A30286252
:1092FC0030BD71C0020050191B0029160100C118A5
:10930C000100F11B0100F31C02007BC00200FEB542
:10931C0002904569684601218E46CC49FE440847B7
:10932C00CC48041C686801694A7800273E1C2088D8
:10933C00400831D3201D891C01239E46C64BFE4498
:10934C001847002816D12420001929680622012369
:10935C009E46C04BFE44184700280BD16868FFFF9F
:10936C00A475080096000000006940782188090463
:10937C008916814203D13206120E009B3CE002207A
:10938C00005F0099081A000400143C2803DD2088B3
:10939C00401040002080781C07063F0E6868016969
:1093AC004A782A340136142EC6DB002A02D1AB20AF
:1093BC0040004CE0009BA94814210022048864085A
:1093CC0003D32A3001320139F8D11206120E142FB0
:1093DC0012D1A248008800064416A04900220120A0
:1093EC004E8D36067616A64202DD341C0206120E8F
:1093FC002A3101301428F3DB2A2042439748FFFF1F
:10940C003A7608009600000011180C8801202043C1
:10941C000004000C0880FE24A04314246457640646
:10942C00240E044390481452141863800888800555
:10943C00820D686800694078800210430880686873
:10944C000269201D911C527801239E46894BFE44D3
:10945C00184702980461FE20854909180298016298
:10946C00FEBD91F0000003020000826941690369AE
:10947C00022B0AD1012A01D1002905D0022A04D1DC
:10948C00002902D1112100E006214161F746A3C059
:10949C000200A9E9000007020000E4620800FFFFD7
:1094AC00D07608009600000030B5051C7448007892
:1094BC00002804D0012086467248FE44004701244F
:1094CC00A6467148FE440047A6467048FE44004735
:1094DC006F480E30286230BD1210000018B5436979
:1094EC0081696C48812900D10B38002100911A68E0
:1094FC009B680124A646684CFE44204718BDC04614
:10950C0030630800199E0000B9EC0000743F08009D
:10951C00803F0800B75D030000001B00D38E0000E5
:10952C00F7C60000F0B586B00590056924204619F1
:10953C00002000903268B368584800210124FFFFD6
:10954C006677080096000000A646554FFE44384743
:10955C000C20401900211822A646534BFE441847F4
:10956C00706830187C30E860B0682861A6464F48B7
:10957C00FE44004700281AD001A8316971188831BF
:10958C001022A646404BFE44184770690090306884
:10959C00F268291C01ABA646464FFE443847071C0F
:1095AC001DD55F301BD0381C3A3002D117E03A2061
:1095BC00C743A6464048FE440047002801D1382046
:1095CC00C743281CA6463C49FE440847002100918D
:1095DC0032683B1C3448A646324CFE442047FFFF01
:1095EC00FC770800960000003749FF313B310598A5
:1095FC00016206B0F0BDC046E5900000686408004A
:10960C00C027090010B5C0690124A6462F49FE44A5
:10961C000847002805D0C168002902D0407C0028EA
:10962C0013D02B4800880921090201420DD1A6460E
:10963C002848FE440047002807D00022892109024F
:10964C00131CA646244CFE44204710BDA03B08002A
:10965C003D5D030019C60000E83A0800815D030077
:10966C00CFF600004B4F03006BC00300951E0100AA
:10967C00DA400800DC05000055AA03000D91FFFF3D
:10968C0092780800960000000000D756030008519D
:10969C0008008FC6030065B8000009B403008417E6
:1096AC001B00B58601003D470200734902005F9024
:1096BC0000000E100000F7F600000F100000C9BAF1
:1096CC000300B9900000C91802005DF9000079E7A9
:1096DC000200D5F400000D4702002441080071C0BF
:1096EC0002007BC00200FFB56846FFF7ECFEFFBD31
:1096FC00FFB56846FFF7CDFEFFBDFFB56846FFF727
:10970C00FCFEFFBDFFB56846FFF781FFFFBDFFB54F
:10971C006846FFF716FFFFBDFFB56846FFF7FFFF72
:10972C002879080040000000DDFCFFBDFFB568464D
:10973C00FFF7CFFBFFBDFFB56846FFF785FBFFBD0D
:10974C00FFB56846FFF734FDFFBDFFB56846FFF770
:10975C0001FEFFBDFFB56846FFF7D0FDFFBDFFB5AD
:10976C006846FFF7DBFBFFBD787B08008800000034
:10977C0000B5F8F043FA00BD516508008365080098
:10978C008D64080069650800256408009D65080063
:10979C00A9650800B7650800A5660800C56608003D
:1097AC00EF660800496708008567080065680800CF
:1097BC00E96A0800096B0800356B0800516B08005A
:1097CC00CF670800956B0800E76C08003F6D080038
:1097DC00696D0800196C0800E56D08000D6D080036
:1097EC004D6E0800E96E080031640800096F08002E
:1097FC00216F0800716F080004F31A00800000004C
:10980C00B24E01005AC10000961A0100220B020050
:10981C0060D00100061A0000B8C60100D84203004F
:10982C0016420300EEDB000062DC0000C8E1000021
:10983C008A17020038BE000026C6000056C200007F
:10984C0062120300E4F401003AEC00005E920000A6
:10985C00FEE80200187F000064EC01001C9400007C
:10986C00A866030074E90200681E0100BCDA00005F
:10987C00EAE100007079020012E90100BC4202002A
:10988C00000018009600000000060120F0B586B01C
:10989C00594D0327381C2A786B78594E311C0139E5
:1098AC000124A646554CFE442047AA78EB78381C78
:1098BC00311C0124A646514CFE442047381C311C57
:1098CC000131012296464F4AFE4410474E482978F2
:1098DC00017069784170E978C170A97881700024B1
:1098EC000F252906090E00206A4601239E46474B88
:1098FC00FE4418476B46188840080ED3A0000F2171
:10990C00CA4369460E88164001AF3E524988114041
:10991C006844C180601C0404240C013D0B2DFFFF26
:10992C009600180096000000E0DA601E0004000C9F
:10993C001DD08646011C01AD0122AE889000C75A8D
:10994C00B7420ADABC46071C6F447F88684406801D
:10995C00EE8846806046A880EF800435501C0204D7
:10996C00120C0139E9D1704601388646E2D199884A
:10997C006846C08840180004000C274B1880274903
:10998C00081A5880022C1EDB0120651E01AA011C3E
:10999C008C006B46E65A9388D488E718B7420CDAE9
:1099AC00062444431D4B1B191F801C88341B5C80F0
:1099BC0001241C71401C0004000C0432491CFFFFE4
:1099CC002C011800960000000906090E013DE4D197
:1099DC000024164804701648047016480470164883
:1099EC0004700125AE461548FE4400471449201C5E
:1099FC000A68002A02D02A1CA24010430431013408
:109A0C00202CF5D30F49086006B0F0BD00001800FB
:109A1C00F37E0300C6050000DD7E0300E46208004F
:109A2C00DD0A0200483208000080FFFFE8620800EF
:109A3C00E9620800EA620800EB620800AD01180058
:109A4C00807B080084F31A000F491048886710487F
:109A5C008864104848641048C86410480865FFFFC3
:109A6C00C2011800660000001348021C04320E4BA1
:109A7C0013600E4B93620E4A8A660F4901600F49C0
:109A8C00104A0A60104A4A60104944380160F7468F
:109A9C00C0461C210800377908002D79080023796D
:109AAC000800417908005F790800557908004B7966
:109ABC000800FB78080050230800F17808005826AD
:109ACC00080005790800197908000F790800FFFFD4
:109ADC00000100003C1600000000180014030000F8
:109AEC0008000000684625F095FBE06BD0030000F1
:109AFC000400000025F038FB2C04000004000000DA
:109B0C0025F00AFB0415000004000000B8F1900FCA
:109B1C00A4160000C800000066E004A8351D21F062
:109B2C0099FC684623F028FB9AF80000012807D11D
:109B3C00284605F0C3FE014601AA002021F050F989
:109B4C00284605F0BBFE01A921F02AFAE9794FEA73
:109B5C00E00040B211B100F1060040B2A8711F380C
:109B6C004000E871304601F00DFF10F100094FF094
:109B7C00000109D02868400C09D3E868C00B03D257
:109B8C004846FFF7DDFE01212868400C0AD23868F0
:109B9C00401C386020686FF30F0020602268386822
:109BAC0010432060E868C00B0FD3D8F8000000F118
:109BBC000100C8F8000020686FF31F402060D8F83F
:109BCC000020206840EA0240206049B9B9F1000F3A
:109BDC0003D1304607F0BEF902E0484607F006FA1A
:109BEC006C1700001400000068460EF085FB009E08
:109BFC00002E96D105B0BDE8F087C0469C20000031
:109C0C000400000023F02AFE744700000800000046
:109C1C000B2121F041FA2068184B000014000000C1
:109C2C0021F01CF90AE0206800680C2140F02000AB
:109C3C0021F014F9105700000800000001A820F0D2
:109C4C0097F901985C5700000800000002A820F06A
:109C5C0071F90398005800000400000020F020F96E
:109C6C001C5800000400000020F012F954580000A9
:109C7C000800000009A820F0F5F804AB046200000D
:109C8C000800000020791FF01BFD69E060930000C4
:109C9C004000000000000000000000000000000078
:109CAC0000000000000000000000000000000000A8
:109CBC000000000000000000000000000000000098
:109CCC000000000000000000000000000000000088
:109CDC000000000048A600000800000000781BF0FF
:109CEC0039FB284690A800000800000000781BF003
:109CFC0069F91E4834AD0000040000000968FF2912
:109D0C0098AD0000040000000010D421D4B2000073
:109D1C000800000009D01AF047FC2098ACC50000E0
:109D2C0008000000007819F0DBFA094928C6000089
:109D3C000400000019F09EFADCD3000010000000B3
:109D4C0000B518F0ABFC00F003F800BD00000000FB
:109D5C00C0DF00000400000017F0A8FDCCEB0000F1
:109D6C000C000000387817F077F8387816F0F0FF10
:109D7C00A8F70000080000000E4909682322416181
:109D8C00C8F7000028000000312E31392E33313451
:109D9C005F4E65775F4343415F616C676F726974B7
:109DAC00686D00C074563080000000000000000098
:109DBC004CF900000800000002A816F079F812E037
:109DCC0038FA00000800000001A816F003F8322051
:109DDC0094FB000050000000000000000000000098
:109DEC000000000000000000000000000000000067
:109DFC000000000000000000000000000000000057
:109E0C000000000000000000000000000000000046
:109E1C000000000000000000000000000000000036
:109E2C000000000000000000340C010008000000DD
:109E3C0005A814F005FF01F0101B01004400000000
:109E4C000000000000000000000000000000000006
:109E5C0000000000000000000000000000000000F6
:109E6C0000000000000000000000000000000000E6
:109E7C0000000000000000000000000000000000D6
:109E8C0000000000301E01000400000013F046BF6B
:109E9C00183001004000000000000000000000002D
:109EAC0000000000000000000000000000000000A6
:109EBC000000000000000000000000000000000096
:109ECC000000000000000000000000000000000086
:109EDC0000000000000000009030010004000000B1
:109EEC0012F0D8FC9C31010008000000684612F00A
:109EFC0051FCFEF7F035010008000000684612F036
:109F0C0027FAFEF7F03D01000800000005A911F04A
:109F1C0027FE206FD0620100040000000FF0B8FB98
:109F2C00807E010004000000DFF85882E07E010012
:109F3C00180000000DF06AFE0BF09AF90320A8F54A
:109F4C0088710860F2F716F97A486B499C7F01001A
:109F5C00040000000070514DC47F01003C00000063
:109F6C00404900F152003A4AA8812883E883E884EA
:109F7C00A8852A60394841F211122A851890199146
:109F8C0039491A9139491B9139492046DFF8C49057
:109F9C001C913849DFF8C0B0314E1D91488001004A
:109FAC00040000000DF07CFAB480010034000000C5
:109FBC0034126609846B002094700020B470002069
:109FCC00C4780020507A0020FEFF0300A47000200B
:109FDC00B0700020B8700020605530803C5C0020D0
:109FEC0004740020B8E401000C000000207807F095
:109FFC0001FC207807F07AFB044D0200C800000039
:10A00C002DE9F04FADF18C0D04680F300394FEF781
:10A01C00DBFA04F114000490217D002021F073017F
:10A02C00882908BF012005900398001D06905D4803
:10A03C000068012840F0FA835B4D5C48DFF87091B2
:10A04C002968DFF87081DFF874A1884221D11022D1
:10A05C00002148464F46FBF7B7FE10220021404630
:10A06C00FBF7B2FE5449086840F4801008600120E8
:10A07C0051460860002129603978464600913178B4
:10A08C0041F2111304220191072102900320F3F7EE
:10A09C0041FC5146079108685649DFF85CB101282C
:10A0AC0008915649DFF848A1099155490A9144494C
:10A0BC000B9144490C9144490D9144490E914449EA
:10A0CC000F91444910914449CC4D0200C800000046
:10A0DC0011914449129144491391444914914449B2
:10A0EC001591444916919F4917919F4918919F4981
:10A0FC0019919F491A919F491B919F491C919F4906
:10A10C001D919F491E919F491F9140F00081049819
:10A11C00407800F00301012940F0F9800499097896
:10A12C0001F00C01082940F0F28006990988A1F190
:10A13C003C010EB2059911B1A6F1020636B2C00966
:10A14C004FF0000715D3083E36B2032E10D0172E51
:10A15C000ED0083E36B2032E08D0172E06D0361F6E
:10A16C0036B2032E14BF172E022702E0032700E09D
:10A17C000127032E18BF172E049A40F0C8800A320C
:10A18C0012F8011B052412F8013B4B40641ED9B296
:10A19C00F9D181EA2111032E944E0200C80000006F
:10A1AC0001F00F01484635D04346CA5C521CCA54D4
:10A1BC000C1833E050570200047400203412660966
:10A1CC006057020070570200C84830804C5702009C
:10A1DC0088570200805702001858020020580200CD
:10A1EC00285802003058020038580200405802002B
:10A1FC00E4580200E258020014580200EF58020022
:10A20C00E0580200EE5802005C570200E6580200CB
:10A21C00E85802000C182078401C20702078434627
:10A22C0003EB01080A2876DB98F800000A2872DB99
:10A23C00944800250160049800F10A09407841080F
:10A24C0024BF0499091D04D280082EBF49460499E5
:10A25C0010310B980622FAF7B9FC0C9806224946E5
:10A26C00FAF7B4FC9B489A495C4F0200C800000006
:10A27C00007808220860584607600D982946FBF7BD
:10A28C00AFFD08220E982946FBF7AAFD08220F986D
:10A29C002946FBF7A5FD082210982946FBF7A0FDDF
:10A2AC00082211982946FBF79BFD08221298294693
:10A2BC00FBF796FD07990220086013992846088041
:10A2CC000899087014990870159908601699087007
:10A2DC0017990860189908601999086009990880FD
:10A2EC000A9908801A9908807D490D601B9908709D
:10A2FC001C9908701D9908701E9908801F99088078
:10A30C0051460880207800960422019098F80000AD
:10A31C0041F21413072102900320F3F707FB07986F
:10A32C00A24900682091A249052821919E492291B9
:10A33C0040F037820498407824500200C800000096
:10A34C00410824BF0499091D05D2800827BF049930
:10A35C000A31049910310B98F8F72DFC0128049858
:10A36C0040F02382407800F00300032818D0022824
:10A37C0007BF0499103104990A3113E048580200C0
:10A38C004C58020050580200F0580200F2580200DB
:10A39C00F3580200F4580200EA580200EC5802008C
:10A3AC00049918310C98F8F706FC0499012840F030
:10A3BC00FC81497801F00301012940F0F6815946EE
:10A3CC000968049A8E465146D28A0B881211934220
:10A3DC0000F037820A80069909883C390BB2714625
:10A3EC00491E09D0491E04D0491E08D1A3F11003FF
:10A3FC0004E0A3F1140301E0A3F108031BB20598D8
:10A40C0010B1A3F102031BB2EC500200C800000013
:10A41C00002B00F1CE81169840F2775199420B90A7
:10A42C001498059000F0A381084600F13C00984276
:10A43C00059A00F09A81DFF8488214780B9ABB2CAD
:10A44C0012780C9263D1DDF868C0BCF900209142FF
:10A45C0018BF90425BD11C2B4FF00000C0F28281E0
:10A46C003D2B139D80F27E81A3F11C0109B2298042
:10A47C001E9ADDF83090B2F90060B9F1010F15D1D8
:10A48C00DDF82490032E0DDAB9F90070B94207D02B
:10A49C00012616804A460E4603E0C046905702003D
:10A4AC00761C16801B9A16781D9A16700C9A1F9E95
:10A4BC00022A28D1B6F90020BEF1000F1AD0032AC7
:10A4CC0035460BDA0A9EB6F90070B94204D0012267
:10A4DC002A800A46354600E0B4510200C80000004C
:10A4EC00521C2A801C990A781D990A700FE0C046EC
:10A4FC0058570200A6640020545702002880059982
:10A50C000870089A117841F0040111700446454610
:10A51C00ACF800002870CC2C099A40F00081DDF8D2
:10A52C007CC00A991E9F4546B1F90060B2F90090B3
:10A53C002878CDF850C016910A97139209950C996A
:10A54C00012905D1059AB0EB490F01D100211170F9
:10A55C000C99022905D1059AB0EB460F01D10021C7
:10A56C001170B3F5147F40F3BA8040F25131994227
:10A57C00089940F3B4800978062900F0B080A3F262
:10A58C0051210BB24FEAE30103EB11714FEA211198
:10A59C00CAB24FEAE30103EB1171159D21F00F01D3
:10A5AC00A3EB01031D992E687C520200C800000029
:10A5BC0091F800E05FFA83F860B1311811F8011CD2
:10A5CC005140CBB207E0C046585802005458020024
:10A5DC00DC58020013461999DDF86CA0DDF870B058
:10A5EC00D1F800C000F00F01994222D00A9B864599
:10A5FC009AF80010B3F900309BF8005015DD375C69
:10A60C00441C82EA070C04F00F0767450BD0A645E3
:10A61C0006440ADD76787240861C06F00F069642D8
:10A62C0003D1C01C4DE0801C4BE0059E0022327013
:10A63C004AE000F01F0101228A401799C4100B68F0
:10A64C0024F003015CF801703A4232D15F583A426F
:10A65C0006441FD0189B37781B68B84504D158584E
:10A66C00024219D0634615E0A1108C001959914390
:10A67C00195100903078019044530200C80000003A
:10A68C000320062102464DF68053F3F763F909992E
:10A69C0028680E78361806E0E3580200A0108100F6
:10A6AC00585802435A5086F800800B9800780C904A
:10A6BC001398B0F90090099800780A9A401C9BF8FE
:10A6CC0000509AF80010B2F90030099AC0B210701C
:10A6DC000C9A012A03D18842C8BF8AF800000C9951
:10A6EC00022907D1A842C8BF8BF8000002E00A98E3
:10A6FC00B0F90030B9F1000F06DD032B04D111982D
:10A70C000122494600F072FB1698B0F9001014981B
:10A71C000029B0F9000005DD032803D112980222AC
:10A72C0000F064FB059804780B9800780C9008985E
:10A73C00BB2C017802D0AA2C2FD031E00C98012828
:10A74C000BD10D98179A10600C540200C800000031
:10A75C000F98189A1060199A11981060474A15981A
:10A76C0002600C9802280BD10E98179A1060109862
:10A77C00189A1060199A12981060414A1598026044
:10A78C00CC200FE0089909780CE0022000E00120B1
:10A79C000B9908701A990B8013990020088008985F
:10A7AC000178BB20059A10700629079911D1062053
:10A7BC000860209800250570219829460422FBF793
:10A7CC0027FB012000F03AFA022000F037FA229819
:10A7DC000560079804990068072844D10978039C00
:10A7EC00802940D138342178641C224600293AD182
:10A7FC00209890F800A022980590D0F8009051462F
:10A80C004846FDF779F95FFA80F8219F1578514693
:10A81C00484617F80830FDF7D4540200C800000071
:10A82C006FF91E461B1DC0B2385C001DA84228469D
:10A83C0007DD8018821C10782D18AD1CADB2AB4210
:10A84C00F7DC04F8016B11493246204601EB481144
:10A85C00FAF7DCF9AD1BFF203419AD1E04F8010B1F
:10A86C00257005980168491C016007980068072845
:10A87C0004D00699086820F48030086023B0BDE845
:10A88C00F08FC04694570200D45702005C58020067
:10A89C006E482DE9F0476E4D82894AF65521ADF58B
:10A8AC00FE7D91424FF00001ADF1380D12D12960BF
:10A8BC00684A117041F2104181814FF6FF70664970
:10A8CC0008602868009002220521032041F23423FD
:10A8DC00F3F748F82968614C0129206840F0AF80F3
:10A8EC005F4D0228296823D19C550200C800000046
:10A8FC005E4800685F4A125C009201915E490968EB
:10A90C0002915B490B5C032007210422F3F72EF81C
:10A91C005B494A79594800920279019240790422A4
:10A92C00029003200B790721F3F720F80320206015
:10A93C00ECF71AFF20682968042815D10D208DF832
:10A94C00100000258DF814508DF815102846632141
:10A95C0000F0AAFB6321284600F0FAFA03A904A828
:10A96C00E0F7CAFC05202060464D0528296801F156
:10A97C00010129601DD1444A8A421AD14348016819
:10A98C00009140680190032002460621414E334657
:10A99C00223BF2F7EBFF3E480168009140683346DA
:10A9AC000621019003200246F2F7E0FF0020286008
:10A9BC002068062847D14FF064560200C8000000FA
:10A9CC00070AC4F800A0032048F2705301220421A6
:10A9DC00F2F7D0FFDFF8CC80314F48F270590125E7
:10A9EC0049EA0503012204210320F2F7C3FF0024E6
:10A9FC0017F8020F20E0690104EB08028818C61C46
:10AA0C00437800938078019030780290535C5146E3
:10AA1C0004220320F2F7AEFF3878011BB1F1FF3F9F
:10AA2C0008D1F0780090B378032002220521F2F7C8
:10AA3C00A1FF3878241DE4B2A042DCDCAD1CEDB2E1
:10AA4C00042DCDDB63214FF40570F1F7A3FCE1F786
:10AA5C0085FD7FB00EB0BDE8F087C04604740020C1
:10AA6C00505702006C5D020040003D804C570200C4
:10AA7C0058570200905702006057020070570200AE
:10AA8C005C570200805702002C570200C8000000DF
:10AA9C008857020054570200FFFF03003858020089
:10AAAC00405802006655DDEEDB5802005C5802008F
:10AABC00000000000000000000000000000000008A
:10AACC00000000000000000000000000000000007A
