:020000040800F2
:105000000050002091550008D1540008D3540008E6
:10501000D5540008D7540008D954000800000000F7
:10502000000000000000000000000000DB54000849
:10503000DD54000800000000DF540008E1540008BF
:10504000DD550008DD550008DD550008DD55000878
:10505000DD550008DD550008DD550008DD55000868
:10506000F5540008DD550008DD550008DD55000841
:10507000DD550008DD550008DD550008EF54000837
:10508000DD550008DD550008DD550008DD55000838
:10509000DD550008DD550008DD550008DD55000828
:1050A000DD550008DD550008DD55000849550008AC
:1050B000DD550008DD550008DD550008DD55000808
:1050C000DD550008DD550008DD550008DD550008F8
:1050D000DD550008DD550008DD550008DD550008E8
:1050E00029550008DD550008DD55000800000000C6
:1050F00000000000000000000000000000000000B0
:0C51000000000000000000005FF808F153
:10510C00704700230360184670470023036018465D
:10511C00704700230360184670470000194B10B508
:10512C001A6812B11868411E1960174C236813B124
:10513C002268501E2060154C216811B12168481E50
:10514C0006E0134B1A7822B9E72000F037FFC8208D
:10515C002060104B1A68B2F57A7F0FD300221A60C8
:10516C0001F0CEFD042001F09FFB4FF6FF71884249
:10517C0007D00420BDE8104001F088BB1868411C22
:10518C00196010BD940A0020880A0020900A0020A3
:10519C00AC000020980A00201FB50446E72000F060
:1051AC00F5FE01F06BF901F0ABF80F4B0F4810490D
:1051BC00104A00930190104B029103920F49104A30
:1051CC00104800F0BBFA4FF47A7000F08DFD2046C9
:1051DC0000F0CCFA0C4800F047FB48F2442000F0F9
:1051EC0011FB002004B010BDC5630008D963000892
:1051FC00456400086D6400081F5100080F51000839
:10520C00175100080D5100080000002070B5002255
:10521C008CB0174B06460D461020022100F006FA02
:10522C0001AB0022B45A200A44F00101AC5A0232FC
:10523C0003F8024C240A03F8041C03F8030C03F8CB
:10524C00014C0433182AEDD16B4630210422102076
:10525C0000F0ECF900213022684602F0DFFC10204F
:10526C00014634226B4600F0E1F9C0B20CB070BDBF
:10527C0018B0000810B5084C601C00F03DFA40B99D
:10528C006378012B06D1A2781D2A03D1E37018464E
:10529C0010BD002010BD00BFAC00002038B54A4D39
:1052AC000124002320462B7085F88440FFF774FFFF
:1052BC00FFF7E0FF10B12C70EC7038BD05F18500E4
:1052CC0000F0EFF94149C8700C71404D3E4C287903
:1052DC0018B194F88B20022A68D994F88B103C4BA7
:1052EC003C4D3A4C0120032908BF1D462071374C18
:1052FC00227932B1A01D04F11E01FFF787FF207146
:10530C00F5E700F069FA0120FFF746FF0121217152
:10531C002E4C23793BB10B20802100222B4600F030
:10532C0085F92071F4E794F903200120207122B152
:10533C002549012281F88C200FE0234991F8854002
:10534C0024F0010381F88530204C20790028EFD01F
:10535C00214800F09DF92071F6E71B4C94F88C3035
:10536C0043B11A4B0420D98E1C4A00F0A6F984F8DC
:10537C008C00F2E7012084F88D00134C94F88D001A
:10538C0040B112490520098F154A00F096F984F8AE
:10539C008D00F2E7FFF700FF01226420227000F07D
:1053AC00A3FCE720BDE8384000F0E2BD0B208021D3
:1053BC000022231D00F00EF9287194F88B50681C04
:1053CC0084F88B0081E700BFAC00002000000020B7
:1053DC00547D0008B000002031010020D47D00086D
:1053EC00449D000810B54FF4A0414FF0006001F04F
:1053FC0043FA00F0A1FE00F05BFC4FF0FF1000F050
:10540C006BFDE72000F0B4FD40F6B83000F098FCDE
:10541C000020FFF7C1FE264B93F884205AB91C7864
:10542C004CB9204600F0D8FE0121204600F0A2FC29
:10543C00FFF734FFEFE793F884001D4C0028EAD007
:10544C0021780029E7D00121022000F093FCFFF71E
:10545C0011FFE3783BB34FF47F4000F03DFD154C5A
:10546C00E72000F085FD0122134822704FF6FF74EF
:10547C00048001F05BF82820214601F007FA042093
:10548C00214601F003FA002001F042F8BFF34F8FE0
:10549C000A4A0B4BD16801F4E06444EA0300D06083
:1054AC00BFF34F8FFEE74FF47A7000F01DFCB2E7AC
:1054BC00AC000020B00100208800002000ED00E0CE
:1054CC000400FA057047FEE7FEE7FEE7FEE77047CB
:1054DC007047704708B501F06DF8BDE80840FFF75C
:1054EC001DBE00F02DBB000008B5042001F0F2FA3F
:1054FC0078B1042001F0FEFA0020064B014618801A
:10550C0000F0A8FD044810210122BDE8084001F07C
:10551C00E0BD08BDAC010020002C014008B54FF4E3
:10552C00006001F0D7FA38B14FF4006001F0E2FAF4
:10553C00BDE8084000F074BB08BD000008B50F487A
:10554C00102101F0FFFDC0B10C48102101F005FE47
:10555C00002000F031FE28B9094B1A880A3290B2AB
:10556C00188008BD10210548002201F0B2FD002072
:10557C000121BDE8084000F06DBD08BD002C0140C4
:10558C00AC010020002100F004B80C4B5B584350D8
:10559C0004310B480B4B42189A42FFF4F6AF0A4AFF
:1055AC0000F003B8002342F8043B084B9A42FFF486
:1055BC00F9AF01F00DF8FFF715FF704720B00008A8
:1055CC0000000020AC000020AC000020A40A002049
:1055DC00FFF7FEBF2DE9F341864613480D4686685A
:1055EC0071461F4602ACFF2306F1090004F8053D85
:1055FC00904601F0B6FD294601F0B3FD40F20125BD
:10560C00414601F0AEFD0C223146284602F0D0F99D
:10561C002846214602F0B8F93846002101AA02F0CA
:10562C00BDF90198BDE8FC811C0200202DE9F34175
:10563C00864616480C4686687146984602AD4FF071
:10564C00FF3306F10A0045F8043D174601F089FDC9
:10565C000C2101F086FD214601F083FD394601F055
:10566C0080FD4146224606F11A0002F029FA9020EC
:10567C0031461022A3B202F0ACF940F202202946C6
:10568C0002F082F90198BDE8FC8100BF1C020020E9
:10569C0008B50346062001460022FFF7C7FFC0B23B
:1056AC0008BD08B50346062001460022FFF792FF0D
:1056BC00062814BFFF20002008BDF8B506460D468D
:1056CC0017460C467B192A1B1F2CC4EB030392B202
:1056DC0008D930462021FFF7A9FFC0B2203C002892
:1056EC00F0D007E02CB130462146FFF79FFFC0B247
:1056FC00F8BD2046F8BD000037B50B4B40F207252E
:10570C00044699680022284602F052F92846694658
:10571C0002F03AF99DF803009DF8041020706170B6
:10572C009DF800003EBD00BF1C020020024B012270
:10573C005A80586001F098BE1C02002010B50A4C2B
:10574C00E16022616361029B0399E361049A059B0A
:10575C00216262620021A362A061012084F84000F2
:10576C0084F8411010BD00BF1C02002070B5174B0F
:10577C00174D002406461748AC63EC632C802C862E
:10578C006C86AC86EC86EC626C806C60AB6000F076
:10579C00B7F8A968A64214BF0226264601224E720B
:1057AC004FF4804002F004F921464FF4804002F09F
:1057BC00EBF8A968224644F20B0002F0F9F844F227
:1057CC000B002146BDE8704002F0DEB888020020D4
:1057DC001C0200203957000838B5094C0020A36A78
:1057EC0098472546E869064C80470028FAD0A168FE
:1057FC0009B10022A260BDE8384000F0A9B800BF92
:10580C001C02002037B548F2080248F20801024099
:10581C008A42034613490BD10020934281F8400081
:10582C001FD023F4004424F0080545F4004302E0A3
:10583C00012081F840000B494FF0FF328D6802AC1B
:10584C00194605F1090044F8042D01F08AFC29469B
:10585C000422082002F0ACF80820214602F094F84B
:10586C0001983EBD1C02002007B50D4A4FF0FF33D6
:10587C000193916890B154234370037083704B7201
:10588C0042788A7280780322C8720C2002F090F859
:10589C000C2001A902F078F8019800E018460EBD22
:1058AC001C02002000F0010383F0010003B962B672
:1058BC0070470000F8B50446EFF3108772B60E4E31
:1058CC00337A9C4209D0052C01D0012506E00B4807
:1058DC00C16988470028F8D1347200253846FFF793
:1058EC00E1FF054B15B15A69002AE5D05869D0F192
:1058FC00010038BF0020F8BD700200201C020020FF
:10590C000F4B10B500220F490F4C1A721961DA8037
:10591C00DA609A801860A36A104698470B4800F02A
:10592C00EBF9206A80474FF47A7000F0E5F901201A
:10593C00A26A90470120BDE81040FFF7BBBF00BF33
:10594C0070020020880600201C020020E093040056
:10595C0010B5054C636A98470020A16A8847034834
:10596C000022026110BD00BF1C020020700200204A
:10597C00024B4FF480725A60704700BF00E100E0A8
:10598C002DE9F84307460E4614461D46EFF31080EA
:10599C0072B6DFF88080A4B298F80890FFF782FF07
:1059AC00002000F0F1FC012037B93146224600F00E
:1059BC0073FC3846154906E0D8F81010224600F062
:1059CC006BFC00203146224600F066FC1048022198
:1059DC00012201F01CF8012000F0D6FC9DB1EFF380
:1059EC00108072B60B4C257AFFF75CFFA945234655
:1059FC0002D16269002AF2D05869D0F1010038BF97
:105A0C000020BDE8F8832846BDE8F8833A00002062
:105A1C005800024070020020CB074CBF0B464B1CB9
:105A2C0010B5C3F3072444700024C4700471054CF2
:105A3C0001220270837084F84120034AD060918067
:105A4C00581D10BD1C020020700200202DE9F041F1
:105A5C0004460D46EFF3108072B6384E377AFFF7D6
:105A6C0021FF17B1012F2AD104E00120FFF722FFFB
:105A7C0000285FD0EFF3108872B60321377A3172A9
:105A8C0000F028FD4046FFF70DFF20462946FFF7A2
:105A9C00C3FF0646002F4DD0322000F02DF9012017
:105AAC00214604220346FFF76BFF002842D0322028
:105ABC00B5B200F021F90120211D2A1F30E002208F
:105ACC00FFF7F8FE002835D0EFF3108772B61B4BAA
:105ADC001E7AB21E504250EB020656B1EFF31088FC
:105AEC0072B604211A7A197200F0F4FC4046FFF7E2
:105AFC00D9FE3846FFF7D6FE104B16B95A69002A64
:105B0C00E2D05869B0B920462946FFF785FF064612
:105B1C000520FFF7CFFE68B1B5B2012021462A4619
:105B2C000346FFF72DFF002814BF28464FF0FF3027
:105B3C00BDE8F0814FF0FF30BDE8F081700200202D
:105B4C0070B54FF4003000F06BFF324C05464FF44B
:105B5C00005000F065FF237AD91E052954D8DFE8E0
:105B6C0001F03D533D53032A002D52D0002850D054
:105B7C004FF4083000F062FF082020722469B4F85A
:105B8C000320C2F3072343EA02218CB2002C40D03D
:105B9C00E10701D4601C84B2B4F5806F02D90A20ED
:105BAC0000F094FD1B4A0020116903462246BDE813
:105BBC007040FFF7E5BE00282BD04FF4083000F002
:105BCC003DFF154B02204FF480722072C3F88420E5
:105BDC0000F0EAFB21682069884770BDCDB10F4801
:105BEC00802101F0FBF80028F9D10A4C4FF4083061
:105BFC0000F024FF237A032B01D1052102E000F0F1
:105C0C00D3FB0221217270BD0B20BDE8704000F067
:105C1C005DBD70BD7002002000E100E00038004066
:105C2C000E4B70B5D86980470546B0B90C4C217A3B
:105C3C00022904D004290ED079B901220CE00723E3
:105C4C00237200F047FC2169284605222B46BDE84B
:105C5C007040FFF795BE0522227270BD1C02002019
:105C6C00700200200D4B0E4A197839B9D88881B2D0
:105C7C001187188981B291879B8806E0D88981B2F7
:105C8C001187188A81B291879B8906489BB29386AB
:105C9C00FF21632202704170704700BF9001002009
:105CAC00002C0140400000204FF4407000F0A6BDD5
:105CBC000A4B4FF47A701A68094BB2FBF0F10948A1
:105CCC004A1EF0215A6080F82310002207219A60A6
:105CDC001960D02380F82330704700BF9400002057
:105CEC0010E000E000ED00E0024B18601A68002A9A
:105CFC00FCD17047940A002007B50E4B0E4A596828
:105D0C000E4B009111684FF0FF32B1FBF3F1B2FB77
:105D1C00F1F3984228BF1846414301910548416868
:105D2C00009A019B881A984202D200F0E9FFF5E72D
:105D3C000EBD00BF001000E09400002040420F0098
:105D4C0010B5044645F2555000F0C8FF062000F08F
:105D5C00CBFF2820604340F6FF73010A994228BF0D
:105D6C00194688B200F0C6FF00F0CAFFBDE810402B
:105D7C0000F0CEBF082814D8012908D10B490C4AD1
:105D8C0001EB8003596832F8100008610BE051B93F
:105D9C00064B074A03EB80014B6832F81000586140
:105DAC0001E0FF2300E0002358B2704740000020C0
:105DBC004CAF000873B50E4E8500731904460121D3
:105DCC00186900F0BFFF0B4B36F8140010215D1959
:105DDC00ADF804008DF807100322686801A98DF84E
:105DEC00062000F007FF20460021FFF7C3FF7CBD13
:105DFC004CAF00084000002070B5012188B04FF472
:105E0C00006000F09FFF314B31481C686026B4FBEA
:105E1C00F0F1304C01A88DB201F02EF901A801F07F
:105E2C002BF942F20F7201A9ADF80450204600255F
:105E3C00ADF80820ADF80A50ADF8065000F0D4FFCC
:105E4C0004A801F022F90223ADF8106020460126C7
:105E5C0004A9ADF81830ADF81260ADF81650ADF8D5
:105E6C001C5001F00BF82046294601F047F920465A
:105E7C0004A901F047F82046294601F047F92046CD
:105E8C0004A901F083F82046294601F049F920467F
:105E9C0004A9ADF81050ADF81260ADF81650ADF87D
:105EAC00185001F0B5F82046294601F041F920467A
:105EBC00314601F017F92046314601F0F0F8204642
:105ECC00314601F0F8F808B070BD00BF9400002016
:105EDC0040420F00002C014030B51049104A8C8D07
:105EEC0092F82420A5B26C1C5443C0F307456C43B4
:105EFC000C4B240CDC808D8D5861ACB201345443B6
:105F0C00C0F307256C43240C1C81898DC0B289B267
:105F1C00013148434243120C9A8030BD002C0140A1
:105F2C00400000209001002037B50F4D044605EBD2
:105F3C008003186B012105EB440500F003FFB5F855
:105F4C004000ADF804000CB9102100E01821074BFB
:105F5C008DF8071003EB84040322A06A01A98DF8C5
:105F6C00062000F047FE3EBD4CAF0008400000206C
:105F7C0018B1E72807D1FFF775BE034B4FF4005259
:105F8C00986A0261704770474000002058B1E728BA
:105F9C000FD1084A00230848138793879386012260
:105FAC000370427005E0044B4FF40050996A48614D
:105FBC0070477047002C01404000002010B1E728CA
:105FCC0040D106E020498B6ADA6882F40050D86030
:105FDC0070471E4A1E4B1178C1B9188F80B208B198
:105FEC00198702E0D1888AB21A879B8F184899B218
:105FFC0009B1002102E0154A138999B2818714492D
:10600C00888E82B2C2B9114B988819E0188F81B270
:10601C0009B1002001E0D28990B218879B8F0C49FE
:10602C009AB20AB1002202E00848038A9AB28A871F
:10603C000749888E83B20BB1002002E0034A908995
:10604C0080B28886704700BF40000020900100207D
:10605C00002C014073B5104C0E4604EB400494F830
:10606C004C10054694F8480000F01EFEB4F8504061
:10607C00204600F029FD09480023451995F83810F1
:10608C00684600948DF804308DF805108DF8066084
:10609C0000F0DEFC7CBD00BF4CAF000840000020CF
:1060AC00F7B5224E8700F3190546586D0C4640F0A3
:1060BC000100012100F046FE1D4B06EB45065A1966
:1060CC0092F83A10B6F85C0002AADF198DF80310AA
:1060DC0022F8080D6946F86B00F08CFD012C24D1D8
:1060EC001021002213481B2700F0F3FF05238DF825
:1060FC00047001A800278DF805308DF806708DF816
:10610C00074000F085FBB6F8601006208DF80500FE
:10611C0001A88DF804108DF806708DF8074000F07A
:10612C0077FB28462146FFF795FFFEBD4CAF0008D4
:10613C0040000020002C01401C4B1D495A6810B532
:10614C0042F440705860CC681A4844F080730024C4
:10615C00CB604460026842F00101016001214FF004
:10616C00C05000F0FBFD012000F0DAFDFFF79CFDB4
:10617C000120014600F0E6FDE0B20134FFF71AFE03
:10618C00082CF9D1FFF738FE0020FFF7CDFE0120D7
:10619C00FFF7CAFE0220FFF7C7FE0320FFF7C4FE7D
:1061AC0000200121BDE81040FFF77ABF002004E079
:1061BC00F0ED00E0001000E0054A064B02EB800118
:1061CC0003EB4002C86BB2F85C1000F063BD00BF7B
:1061DC00400000204CAF0008024B002203EB4000B3
:1061EC00828370479001002010B5082086B00121F1
:1061FC0000F0A8FD264C4FF48040012100F0AEFDCC
:10620C00032018214FF400538DF802008DF8031071
:10621C0020466946ADF8003000F0ECFC4FF400422B
:10622C0020466946ADF8002000F0E4FC04204FF451
:10623C0080438DF8030069462046ADF8003000F02D
:10624C00D9FC0021ADF804104FF48272ADF808109F
:10625C00ADF80A104FF40070ADF81210A4F55444C8
:10626C0007210123ADF80620ADF80E000822ADF889
:10627C001410204601A9ADF80C30ADF8102000F038
:10628C0079FD2388034A98B2108006B010BD00BF78
:10629C00000C0140A20A002070B5044601208CB00D
:1062AC000E460146154600F041FD124B002080229F
:1062BC004FF44051012C01930296059006920790E1
:1062CC00089009900A910B9006D103900A48049506
:1062DC0000F0FAFA084807E04CB91023074803937A
:1062EC00049500F0F1FA054801A900F065FB0CB02B
:1062FC0070BD00BF0C380040440002405800024002
:10630C0073B50F230124002501A88DF804308DF8F6
:10631C0005508DF80650174E8DF8074000F078FAAE
:10632C00FFF762FF20462A461349FFF7B5FF2846C0
:10633C002A461249124DFFF7AFFF30460221224682
:10634C0000F065FB28462146224600F03EFD224621
:10635C002846022100F039FD2846214600F029FD8F
:10636C002146084800F048FB3046214600F044FB2B
:10637C007CBD00BF58000240880600208802002027
:10638C00003800404400024010B504462146044841
:10639C0000F032FB03482146BDE8104000F02CBB56
:1063AC00440002405800024002484FF4805100F073
:1063BC0077BC00BF000C014008B54FF400610248E7
:1063CC0000F068FC08BD00BF000C014030B509208E
:1063DC0085B0012100F0B6FC4FF4006448236946F7
:1063EC0014488DF80330ADF8004000F003FC0B218D
:1063FC00012000F059FC204600F066FB0C200294B2
:10640C00002501248DF80D0002A88DF80C508DF894
:10641C000E4000F01DFB282101A88DF804108DF80A
:10642C0005408DF806508DF8074000F0F1F905B0E5
:10643C0030BD00BF000C01401FB52823002401A86B
:10644C008DF804308DF8074000F0E2F94FF400604D
:10645C00029002A88DF80E4000F0FAFA1FBD000061
:10646C0020B105484FF4807100F01ABC02484FF47B
:10647C00807100F017BC00BF000C014013B5082060
:10648C0001210F4C00F05EFC032010214FF48053CF
:10649C008DF806008DF80710204601A9ADF80430E0
:1064AC0000F0A8FBFFF780FF4FF48072204601A993
:1064BC00ADF8042000F09EFB0020FFF7D1FF1CBDBF
:1064CC00000C014002484FF4007100F0E9BB00BF22
:1064DC00000C014010B50B4C238823F04000010444
:1064EC000A0C2280FFF7EEFF074B188881B2074891
:1064FC0041F040024FF480512280BDE8104000F082
:10650C00D1BB00BF00380040A20A0020000C0140A3
:10651C0020B105484FF4806100F0C4BB02484FF431
:10652C00806100F0BDBB00BF000C014010B51B4BDF
:10653C0093F8200000282FD000F0E2FA342000F06D
:10654C00F3FA174800F038FB042824D1154C1448F2
:10655C00B4F8441000F014FB04281BD11248B4F812
:10656C00461000F00DFB042813D11048B4F8481065
:10657C0000F006FB04280BD10D48B4F84A1000F0CB
:10658C00FFFA042803D1BDE8104000F0C5BAFEE7BD
:10659C00FEE7FEE7FEE7FEE710BD00BF900100201E
:1065AC00004C000840000020024C0008044C00087D
:1065BC00064C0008024BDA6B501CD863704700BFC6
:1065CC0090010020014BD86B704700BF9001002058
:1065DC003A4B82B01A6842F0010018605968384A88
:1065EC000A405A60186820F0847121F480321A60D5
:1065FC00186820F4802119605A684FF41F0122F4A6
:10660C00FE0000225860996000920192186840F4D4
:10661C0080311960294B1A6802F4003001900099FE
:10662C004A1C0092019818B90099B1F5A06FF1D1EC
:10663C001B6813F4003218BF012201920198012843
:10664C0005D0204B4FF000629A6002B070471E4993
:10665C000B6843F010020A60086820F003030B601B
:10666C000A68A1F5805342F002000860596859602D
:10667C005A685A60586840F4806159605A6822F42C
:10668C007C105860596841F4E8125A60186840F060
:10669C00807119601868094A8101FBD5536823F091
:1066AC0003015160506840F002035360034A516883
:1066BC0001F00C000828F9D1C3E700BF001002401C
:1066CC000000FFF800ED00E000200240F8B507469E
:1066DC0072B6404B53F830404FF47F00FFF7FCFB91
:1066EC00E720FFF745FC3C4810B13C48AFF3008075
:1066FC00E720FFF74BFC022600F002FB03252046A7
:10670C00FFF7EAFBE720FFF733FC3548FFF7F4FA15
:10671C00E720FFF73BFC3348FFF7EEFA691E8DB21A
:10672C00002DECD12F48FFF7E7FA03252046FFF7A1
:10673C00D3FBE720FFF71CFC2B48FFF7DDFAE72023
:10674C00FFF724FC2748FFF7D7FA6A1E95B2002DF5
:10675C00ECD12448FFF7D0FA03252046FFF7BCFB09
:10676C00E720FFF705FC1E48FFF7C6FAE720FFF706
:10677C000DFC1C48FFF7C0FA6B1E9DB2002DECD12E
:10678C001A48FFF7B9FAA8B2874210D02046FFF793
:10679C00A3FBE720FFF7ECFB1348FFF7ADFAE7206C
:1067AC00FFF7F4FB1048FFF7A7FA0135EBE71048A9
:1067BC00FFF7A2FA013E9FD1BFF34F8F0D4C0E4A4B
:1067CC00E76807F4E06141EA0205E560BFF34F8F2B
:1067DC00FEE700BFB0AF0008000000001BB00008CF
:1067EC00F0490200A0860100E0930400A0BB0D005C
:1067FC0000350C0000ED00E00400FA0540F0BF602D
:10680C00024B40F40031D960704700BF00ED00E04E
:10681C00C37810B503B3164CE168CB43C3F3022421
:10682C004178C4F1040201FA02F10F2222FA04F2B7
:10683C008478037822400A43110103F16043CAB201
:10684C0003F5614181F800230078012200F01F0359
:10685C00410902FA03F007E00078012200F01F035F
:10686C00410902FA03F02031024B43F8210010BD1C
:10687C0000ED00E000E100E021F0604121F07F023A
:10688C00014B10439860704700ED00E0054A82B060
:10689C00002301930192019BC0180190019A116091
:1068AC0002B07047006C0040064982B0002301938F
:1068BC000191019A80180190019B198888B202B04D
:1068CC00704700BF006C004002684FF6FE73134027
:1068DC0003602D4B00219842016041608160C160D2
:1068EC0022D02A49884229D0294B984230D02949B4
:1068FC00884237D0284B98423ED0284B984206D13C
:10690C0053F8681C41F4700043F8680C7047244934
:10691C00884206D151F87C0C40F0706241F87C2C16
:10692C007047204B984206D153F8042C42F00F01CB
:10693C0043F8041C70471C49884206D151F8183C96
:10694C0043F0F00041F8180C7047184B984206D1F0
:10695C0053F82C2C42F4706143F82C1C70471449EA
:10696C00884206D151F8403C43F4704041F8400C49
:10697C007047104B984205D153F8542C42F47021B7
:10698C0043F8541C704700BF080002401C00024032
:10699C003000024044000240580002406C000240AB
:1069AC0080000240080402401C04024030040240F3
:1069BC00440402405804024070B506688C680D6AA5
:1069CC0026F4FF4222F070060A6945EA04034C697A
:1069DC0013438A692343CC6913431C434B6A44EA2F
:1069EC0003028B6A1A4332430260CB680A68496817
:1069FC0043608260C16070BD19B1016841F0010350
:106A0C0003E002684FF6FE7313400360704703689F
:106A1C000AB1194301E023EA01010160704700004B
:106A2C00C3004CBF034B044B196801420CBF002040
:106A3C00012070470004024000000240C2004CBF1D
:106A4C00014B024B586070470004024000000240AA
:106A5C00837910B5002B29D01A4B01681C68CA43E6
:106A6C0014401C605C6822405A60027902F1804438
:106A7C0004F5823214682143116002689C68D1438A
:106A8C000C409C60DC68407921401028D96006D10C
:106A9C00986810439860D9680A43DA6010BD00F119
:106AAC00804303F5823319680A4308E001790068D2
:106ABC0001F1804202F582331A6822EA00021A6060
:106ACC0010BD00BF00040140014B5861704700BF6E
:106ADC0000040140064B1A68596910EA010304D0FE
:106AEC0010420CBF0020012070471846704700BFB1
:106AFC0000040140014B5861704700BF0004014085
:106B0C00034A044B02F188305A605860704700BF4A
:106B1C002301674500200240024B1A6942F08000B5
:106B2C001861704700200240014BD860704700BFCD
:106B3C0000200240084BDA68D20709D4D868400715
:106B4C0008D4D96811F0100F0CBF04200320704733
:106B5C0001207047022070470020024010B5044607
:106B6C00FFF7E8FF012806D11CB1FFF7E3FF013C5A
:106B7C00F8E7052010BD002C08BF052010BD000053
:106B8C0070B505464FF400500E46FFF7E7FF04289A
:106B9C000ED1084C236943F0010020612E804FF484
:106BAC000050FFF7DBFF226941F6FE7111402161B5
:106BBC0070BD00BF0020024038B505464FF43020B0
:106BCC00FFF7CCFF042812D1094C236943F00200D3
:106BDC002061656121694FF4302041F0400222614F
:106BEC00FFF7BCFF216941F6FD730B40236138BDF3
:106BFC0000200240CB78F0B5DA0648BF8A780988C5
:106C0C0003F00F0548BF154311F0FF0F1ED00468A9
:106C1C000022012707FA02F707EA0106BE4211D14A
:106C2C0097004FF00F0C0CFA07FC05FA07F724EA53
:106C3C000C04282B44EA070401D1466102E0482BDE
:106C4C0008BF06610132082AE3D10460FF2920D96C
:106C5C004468002202F10806012707FA06F707EA42
:106C6C000106BE4211D197004FF00F0C0CFA07FC35
:106C7C0005FA07F724EA0C04282B44EA070401D18F
:106C8C00466102E0482B08BF06610132082AE1D1B7
:106C9C004460F0BD836819420CBF0020012070478E
:106CAC00016170474161704701F0030230B59200F9
:106CBC000F2404FA02F400FA02F0074B890802319F
:106CCC0053F8215025EA040443F8214053F821409D
:106CDC00044343F8214030BD00000140014B1860D3
:106CEC00704700BF00300040014B5860704700BF38
:106CFC0000300040014B9860704700BF00300040EE
:106D0C00024B4AF6AA221A60704700BF00300040BE
:106D1C00024B4CF6CC421A60704700BF003000406A
:106D2C00014B1860704700BF20000E42044B5A699B
:106D3C0009B1104301E022EA00005861704700BF1E
:106D4C0000100240044B9A6909B1104301E022EA99
:106D5C0000009861704700BF00100240044BDA69D4
:106D6C0009B1104301E022EA0000D861704700BF6E
:106D7C00001002400B8810B54C88028823438C8885
:106D8C0002F441522343CC8823430C8923434C897E
:106D9C0023438C892343CC89098A23431A4393B216
:106DAC000380828B22F400631A04130C8383018208
:106DBC0010BD038819B199B241F0400303E023F0F0
:106DCC0040010A04130C0380704783889BB20AB1FC
:106DDC00194301E023EA01018180704703891942BC
:106DEC000CBF002001207047224A038890429BB2BE
:106DFC0012D002F5006290420ED0B0F1804F0BD051
:106E0C00A2F59832904207D002F58062904203D0EE
:106E1C0002F58062904203D14A8823F07003134339
:106E2C00154A904208D002F58062904204D023F4B7
:106E3C004073CA889BB2134303808B880A8883856E
:106E4C000C4B028598420FD003F5006290420BD098
:106E5C0002F54063984207D003F58062904203D05C
:106E6C0002F58063984201D1097A0186012282825F
:106E7C00704700BF002C014000100040038C70B51F
:106E8C0023F001021404250C0584068C8388028BE4
:106E9C009CB222F073052B040D881A0C26F0020606
:106EAC0033042A434E880D891B0C3543ADB22B435A
:106EBC00134DA8420FD005F50065A8420BD005F57F
:106ECC004065A84207D005F58065A84203D005F5BA
:106EDC008065A8420ED123F008064B898D881E438D
:106EEC0026F004032B43CE898D8924F4407435435A
:106EFC00ADB22C43C988848002838186038470BD23
:106F0C00002C0140038C30B523F010021404250C26
:106F1C000584038C8288048B23F0200324F4E6453B
:106F2C002C040D88240C44EA05241D042B0C0D891B
:106F3C0092B243EA05134D88A4B243EA0513124DED
:106F4C009BB2A84203D005F50065A84215D14D8926
:106F5C0023F080039BB243EA05134FF6BF751D4027
:106F6C008B8822F4406245EA0315ABB28D8942EA64
:106F7C008502CD8942EA850292B2C9888280048357
:106F8C000187038430BD00BF002C0140038C30B559
:106F9C0023F480721404250C0584038C8288848B62
:106FAC0023F4007324F073052C040D88240C2C435B
:106FBC001D042B0C0D8992B243EA05234D8843EA3C
:106FCC000523124D9BB2A84203D005F50065A842DB
:106FDC0015D14D8923F400639BB243EA05234FF688
:106FEC00FF351D408B8822F4405245EA0325ABB295
:106FFC008D8942EA0512CD8942EA051292B2C988FE
:10700C00828084838187038430BD00BF002C0140C3
:10701C00038C30B523F480521404250C0584038CA6
:10702C008288858B94B225F4E64215042A0C0D88CF
:10703C0023F4005342EA05221D042B0C0D8992B255
:10704C0043EA05334D8843EA05330A4D9BB2A84207
:10705C0003D005F50065A84205D18D8924F4804440
:10706C0044EA8514A4B2C98884808283A0F84010B5
:10707C00038430BD002C014000214FF6FF73838048
:10708C000180C180418001727047002303804380DE
:10709C008380C380038143818381C38170470388CC
:1070AC0019B199B241F0010303E023F001010A0484
:1070BC00130C03807047B0F8443029B16FEA434396
:1070CC006FEA53418AB201E059044A0CA0F84420FB
:1070DC00704783899BB20AB1194301E023EA01018D
:1070EC0081817047038819B199B241F0800303E0A4
:1070FC0023F080010A04130C03807047038B23F0E8
:10710C00080213041A0C114301837047038B23F4F8
:10711C00006213041A0C42EA01218BB203837047FC
:10712C00838B23F0080213041A0C114381837047DC
:10713C00838B23F4006213041A0C42EA01218BB2F4
:10714C0083837047038A828911EA030092B203D0C9
:10715C0011420CBF002001207047C9438AB2028241
:10716C00704701700B0A0A0C090E43708270C170D3
:10717C00043070470170090A41700230704743189F
:10718C005A78405C00EB022188B2704710B5431866
:10719C009A78DC78415C120402EB0462587852183D
:1071AC0002EB002010BD000073B544790023022CC3
:1071BC0001930FD0032C19D0012C2BD1164D28691B
:1071CC002E4620B1296901A888470246B8B9B16892
:1071DC0001201BE0104DE8682E4620B1E96801A89B
:1071EC008847024658B9B16802200FE00A4D6A6917
:1071FC002E464AB16B6901A89847024620B1A9688E
:10720C002046BDF8043003E0B16803200022134689
:10721C0000F0F3FB7CBD00BF1C020020072830B53A
:10722C0012D8012910D8EFF3108472B6012505FA93
:10723C0000F501FA00F0054B1A6822EA0502024338
:10724C001A60E30700D462B630BD00BFA80000206E
:10725C00F0B5012187B00546FFF791FF00F480439C
:10726C00044698B250B3B4F5824F27D12846052175
:10727C00FFF785FF0026074607353446BE4208D087
:10728C0028460221FFF77BFF013624180435B6B2DD
:10729C00F4E7744B188E21188AB21A86D86B24180E
:1072AC00DC63D96B9A6B914240F0CE8093F840002E
:1072BC00002800F0C9809B69992033E024F4FF4139
:1072CC0021F07F0290B2002800F09B8048F210025F
:1072DC0094422AD00CD8B4F5004F40F2C08048F24A
:1072EC0002039C4217D9991C8C4240F0B88012E0E2
:1072FC0048F2800084420ED005D848F240029442F5
:10730C0040F0AD8051E0B4F5024F04D0B4F5084F15
:10731C0040F0A5806CE053498869002800F0948007
:10732C008B69204600210A4669E00023EA1851794E
:10733C000DF803100133042BF8D1687A2B7BAA7A51
:10734C00E97A8DF804008DF807308DF805208DF85A
:10735C00061005F10D00002306AAD218C15C0133FA
:10736C00042B02F8101CF7D105F11100002306AA1A
:10737C00D218C15C0133042B02F80C1CF7D105F1B7
:10738C001500002300AAD218C15C0133042B117420
:10739C00F8D1344928798A698DF81400002A53D021
:1073AC008B6920466946152229E0053500212846BF
:1073BC00FFF7ECFE042100902846FFF7E7FE0821BA
:1073CC0001902846FFF7E2FE0C2102902846FFF7B9
:1073DC00DDFE102103902846FFF7D8FE214B0490C8
:1073EC009969002930D09B6920466946142206E031
:1073FC001C48826942B38369691D20460122984763
:10740C0022E041F203039C4205D00C339C4202D093
:10741C00591E8C421AD16C1D04212046FFF7B6FE72
:10742C0039301CD12D790F480021C5622046FFF759
:10743C00ADFE042105462046FFF7A8FE393003D1E6
:10744C0028460121FFF7EAFE012009E0054A1388CE
:10745C0099B28C4204D0B4F5805FF5D100E00020E5
:10746C0007B0F0BD1C02002038B5104B5D88ADB2E2
:10747C00CDB158680478221F514251EB02042CB153
:10748C00FFF7E6FE003018BF012000E0204605465D
:10749C0020B944B1054B93F8412022B9034800218F
:1074AC004180FEF765FA284638BD00BF1C0200205B
:1074BC002DE9FF47044689469046FFF783F80025DF
:1074CC000190BB4B5A8890B2002840F09280FFF795
:1074DC0017FCFFF777F802900298019BC21A0392EF
:1074EC000399002903DA0198029B1A180392B149F7
:1074FC0008680028E5D0039B8342E2D3AC4A41F2F2
:10750C000703118888B2984224D85A1E90425FD241
:10751C0040F2022188425BD00DD80C2806D80828EE
:10752C0056D200284DD0062852D959E00D284CD0FF
:10753C0040F201220BE041F2020398424BD8B0F525
:10754C00805F45D8B0F5017F3FD940F207229042C9
:10755C0037D13AE041F21101884236D014D841F2C9
:10756C000B03984234D005D841F2090290422FD037
:10757C0031D82AE041F20F0188422CD028D841F2B0
:10758C000D0398421DD126E042F2060290421CD017
:10759C0007D8B0F5005F14D942F20401884214D91F
:1075AC0021E0B0F5804F00F0E88105D8A0F500533C
:1075BC00083B012B05D808E044F20B02904200F086
:1075CC00DC810B20FFF782F8D7E1FF202070D4E19B
:1075DC004FF0FF3005E04FF0FF3020606060CCE1F1
:1075EC0000202060C9E1204600213A2200F016FB61
:1075FC00C3E15E683178042940F075813046012181
:10760C00FFF7BDFD05463046FFF722FE002840F08F
:10761C00608141F20702771D954253D8511E8D426D
:10762C0080F0AC8040F20220854200F0A78014D894
:10763C000C2D09D8082D80F0A180002D00F0498177
:10764C00062D40F29B80E1E00D2D00F0948040F27D
:10765C0001239D4240F03D818DE041F202029542B2
:10766C0018D8B5F5805F00F28980B5F5017F40F23E
:10767C00828040F207218D4240F02B81307900212D
:10768C0004F8010B3846FFF781FD01462046FFF751
:10769C0068FD1EE141F204039D4200F08D8040F232
:1076AC00A48038460021FFF771FD04212060384684
:1076BC00FFF76CFD6060083406F10D07224606F1F9
:1076CC001D016EE041F211039D4254D02CD841F2C1
:1076DC000B02954252D01CD841F209018D424DD07B
:1076EC0000F28F8000213846FFF750FD0421206006
:1076FC003846FFF74BFD082160603846FFF746FD22
:10770C000C21A0603846FFF741FD04F10C0AE06043
:10771C00DEE041F20F039D4267D035D841F20D02F5
:10772C00954240F0D68047E042F206018D4222D0CD
:10773C0008D8B5F5005F40F2CC8042F204008542D7
:10774C0019D987E042F208029542C0F0C280501C61
:10775C00854210D944F20B018D4240F0BA80737906
:10776C00DFF84CA038460121AAF83030FFF707FDAE
:10777C00AAF83200ADE037792770AAE0384600212C
:10778C00FFF704FD2060A4E000213846FFF7FEFC63
:10779C00A2464AF8040B04213846FFF7F7FC606058
:1077AC0096E057F8040B8F4242F8040BF9D190E0A5
:1077BC001C020020D401002000213846FFF7E6FC13
:1077CC00042120603846FFF7E1FC08216060384650
:1077DC00FFF7DCFC04F1080AA060E46814F139033B
:1077EC0076D10121FFF71AFD72E000213846FFF730
:1077FC00CDFC042120603846FFF7C8FC60600834DB
:10780C0067E0307920713F68276062E038460021DC
:10781C00FFF7BCFC042120603846FFF7B7FC0821B9
:10782C0060603846FFF7ABFC0A21A0603846FFF7D2
:10783C00A6FCC4F80A000C3406F11103274606F125
:10784C00350253F8041B934247F8041BF9D11888EE
:10785C0038803EE00023F7187A79E2540133042B88
:10786C00F9D106F109000022815CA7180132042A23
:10787C003971F9D106F10D000023C15CE718013311
:10788C00042B3972F9D106F111000027C15DE21900
:10789C000137042F1173F9D106F115000023C15CD7
:1078AC00E2180133042B1174F9D106F119070022E7
:1078BC00B85CA1180132062A0875F9D106F11F0728
:1078CC000023F85CE1180133202B8876F9D100E015
:1078DC0054462C48028891B28D4235D10023038046
:1078EC0080F8413030E0DF8EBBB26BB33046032101
:1078FC0096F802A0FFF743FC0746B9F1000F0BD036
:10790C000421701DFFF742FC06F115010246C8F870
:10791C000000484600F0D4F8CAEB07077A1EB2F50F
:10792C00806F07D20AF10501204671183A4600F023
:10793C00C7F801E04FF0FF37B8F1000F01D0C8F8DD
:10794C000070104B0020D8860E4F00207880FEF778
:10795C000FF83278042A05D1B5F5805F02D1304694
:10796C00FFF722FC39888BB2002B7FF4AAAD0548B7
:10797C00C28E91B200297FF4A4AD002004B0BDE802
:10798C00F08700BF1C020020034B18800846002122
:10799C000A46FFF78DBD00BF1C02002010B5034B3B
:1079AC000124DC86BDE81040FFF782BD1C020020DC
:1079BC0038B50346154601224A710C46881D1946F6
:1079CC00FFF7D8FB291D05702046FEF73FF8002075
:1079DC0038BD38B59B180C469DB202216171A0715F
:1079EC00E271294604F10800FFF7C4FB6A1D20462A
:1079FC0091B2BDE83840FEF729B82DE9F0471D4695
:107A0C0005F1020A032301F107091FFA8AFA8871AA
:107A1C004B710C46484651461746FFF7ABFBB5F584
:107A2C007A7F804613D82946FFF7A4FB29464046A7
:107A3C00FFF7A0FB394604F10B002A4600F040F892
:107A4C00A91D204689B2BDE8F047FDF7FFBF4FF4F2
:107A5C007A76B5FBF6F10AEB410291B2FFF78AFB9D
:107A6C0031464046FFF786FB394604F10B0032469F
:107A7C0000F026F8A5F57A75204640F2EE31ADB24D
:107A8C00BF19FDF7E3FFB5F57A7F05D9A5F57A7037
:107A9C0085B24FF47A7601E02E460025A046394691
:107AAC0028F8056F4846324600F00AF8B31C4046E9
:107ABC0099B2BF19FDF7CAFF002DE4D1BDE8F087DC
:107ACC000F2A2DE9F00340F2A18041EA00039B0745
:107ADC0040F09E800C68A2F1100504604B68AC4627
:107AEC0043608C68BCF10F0F8460CC68C5F3001543
:107AFC00C46000F1100301F110042BD975B1256895
:107B0C00ACF1100C1D6065685D60A5689D60E56852
:107B1C001034DD601033BCF10F0F1BD9276804F152
:107B2C0010061F60676803F110055F60A768ACF171
:107B3C00200C9F60E768DF6024691C61776806F1A0
:107B4C0010046F60B7682033AF60F668BCF10F0F9C
:107B5C00EE60E3D8A2F1100828F00F0302F00F0436
:107B6C0003F1100C032C00EB0C0301EB0C0851D9A6
:107B7C00211F4FEA9109444608EB890C54F8046B19
:107B8C00C8EB0C010CF1040C1D46644545F8046B64
:107B9C00C1F3800112D029B154F8041B644545F897
:107BAC00041B0BD0274657F8041B2E4646F8041B23
:107BBC0064686C603C1D351D6445F3D109F1010C02
:107BCC004FEA8C0902F0030208EB09014B44D2B1D5
:107BDC000D789A18DC4303F8015B1419934204F0F6
:107BEC00010410D02CB111F8014F03F8014B934252
:107BFC0009D04D781C4604F8015B8D7802315D701C
:107C0C00631C9342F5D1BDE8F00370470346DEE7F1
:107C1C000346DDE741462246D9E700BFF0B48407AE
:107C2C00034600F08D80541E002A00F08780E50783
:107C3C00CEB211D41A4602F8016B134615469207C0
:107C4C0010D0621E002C79D003F8016B14469A07F1
:107C5C001D4607D0013CEDE7034603F8016B9A077C
:107C6C001D46F7D1032C52D9CEB246EA06270F2C6B
:107C7C0047EA07432DD9A4F1100217460F2FC2F380
:107C8C0000162B606B60AB60EB6005F1100216D92F
:107C9C003EB1103F136053609360D36010320F2FCE
:107CAC000DD9203F02F11006136053609360D3602E
:107CBC00136153619361D36120320F2FF1D8A4F17A
:107CCC00100222F00F0204F00F041032032C1544A2
:107CDC001DD9271F3E462A46032E42F8043BC7F304
:107CEC0080070DD927B1043E032E42F8043B07D977
:107CFC00174647F8043B083E53603A1D032EF7D84D
:107D0C00231F23F00302131D04F00304ED18ACB180
:107D1C00C9B2EA432C1905F8011BA318A54203F0BC
:107D2C0001020BD01AB105F8011BA54206D02B4657
:107D3C0003F8011B69705D1CA542F8D1F0BC7047BB
:107D4C00054614468EE700BF0300010114140027FA
:107D5C0027272727272727272727272727232525AF
:107D6C002525252525252523232323000000000078
:107D7C0000000000000000000000000000000000F7
:107D8C0050505050505050505050505050505050E7
:107D9C0050505050505050505050505050505050D7
:107DAC005050500177801D1F222628291A1F22248B
:107DBC002628161D1E2024251E2D0102020202005B
:107DCC001515151115150E0000010000681F000097
:107DDC00F0031800E46208009600000000000000A8
:107DEC000000000000000000000000000000000087
:107DFC000000000000000000000000000000000077
:107E0C000000000000000000000000000000000066
:107E1C000000000000000000000000000000000056
:107E2C000000000000000000000000000000000046
:107E3C000000000000000000000000000000000036
:107E4C000000000000000000000000000000000026
:107E5C000000000000000000000000000000000016
:107E6C000000000000000000000000000000000006
:107E7C000000FFFF7A63080096000000000000007D
:107E8C0000000000000000000000000000000000E6
:107E9C0000000000000000000000000000000000D6
:107EAC0000000000000000000000000000000000C6
:107EBC0000000000000000000000000000000000B6
:107ECC0000000000000000000000000000000000A6
:107EDC000000000000000000000000000000000096
:107EEC000000000000000000000000000000000086
:107EFC000000000000000000000000000000000076
:107F0C000000000000000000000000000000000065
:107F1C000000FFFF10640800960000000000000045
:107F2C000000000000000000000000000000000045
:107F3C0007200C4908600C481930F74630B5051C71
:107F4C00AC6968685F3009D1606B0C3801218E46D2
:107F5C000649FE44084700206063AC696C60044825
:107F6C005B3030BD403B080049D0010009EA0200FB
:107F7C0091E1000000000000000000000000000083
:107F8C0000000000000000000000000000000000E5
:107F9C0000000000000000000000000000000000D5
:107FAC0000000000000000000000000000000000C5
:107FBC000000FFFFA664080096000000000000000F
:107FCC0000000000000000000000000000000000A5
:107FDC000000000000000000000000000000000095
:107FEC000000000000000000000000000000000085
:107FFC000000000000000000000000000000000075
:10800C000000000000000000000000000000000064
:10801C000000000000000000000000000000000054
:10802C000000000000000000000000000000000044
:10803C000000000000000000000000000000000034
:10804C000000000000000000000000000000000024
:10805C000000FFFF3C6508009600000000000000D7
:10806C000000000000000000000000000000000004
:10807C0000000000000000000000000000000000F4
:10808C0000000000000000000000000000000000E4
:10809C00F0B585B0051CA888009028890190E96886
:1080AC000291287C03902A6A0020175668600029E8
:1080BC004CD0002F4ADCCE490C1C08260490218899
:1080CC00009881420CD162880198824208D14620E6
:1080DC00025D0398824203D10E200057B8420AD0A9
:1080EC004620005D112822D1009881421FD10E201C
:1080FC000057FFFFD265080096000000B8421BD164
:10810C000420021C0298BD4901239E46EB4BFE4401
:10811C001847002817D0201D0299042201239E46DF
:10812C00E64BFE44184700280DD04620005D112870
:10813C0009D0A06D002806D0AC340498013004900E
:10814C00013EC1D107E004980006000EAC2141436A
:10815C00AA4840186860AA48AD3005B0F0BD00B51B
:10816C00C2689069022101239E46A64BFE44184723
:10817C00A648613000BD01790B2903D08900A34AC0
:10818C00515A01E0012149024160A1480D30F746E6
:10819C00011CFFFF6866080096000000A0480268FA
:1081AC00A048012A01D12530F7469F4A12684A603F
:1081BC001930F746002141609D489C490818F74644
:1081CC00002141609B48EC490818F746FFB5466909
:1081DC004068019098490A7C9E4F012A63D0097C23
:1081EC00032960D0954A964B0021029159562423BD
:1081FC00594353180393012817D18A1804236C464A
:10820C00904915790878C043284320700132013118
:10821C000134013BF5D1311D6846042201239E46F1
:10822C00A84BFE441847002840D0351D86480078DE
:10823C00FF28FFFFFE6608009600000011D0002802
:10824C000FD00398011D281C0124A646824AFE4427
:10825C001047002805D17E48A6467F49FE440847B2
:10826C0005E0281C01218E467C49FE4408470199F3
:10827C00012901D100281ED101995F3101D00028BC
:10828C000FD1A820815D002908D0491E8155805D41
:10829C00002809D1381CFF30083011E0032102916D
:1082AC0000E0A82002998155381CFF30163007E0F9
:1082BC000198012802D1381CA33001E0381C9F30F2
:1082CC000090FFBD00B5021C106AD1695269C369E8
:1082DC005A60FFFF94670800960000000122964642
:1082EC00624AFE4410476248FF306E3000BD10B544
:1082FC000A1C4169006A9369DB6958609069012422
:10830C00A6465A4AFE441047A6465A48FE44004721
:10831C005948FF30B63010BD70B5051C6E69574812
:10832C0002685C21885D04281DD107208855100B3C
:10833C0019D20124A6465248FE440047A64651488D
:10834C00FE44004700280AD047218957C1601121FB
:10835C00C90200220423A646EB4EFE443047A64633
:10836C00EA48FE440047012068604348E849081881
:10837C0070BDFFFF2A6808009600000070B5051C50
:10838C00AE699C2080194B2189000124A646EA4A3B
:10839C00FE4410475C21885D072801D1092000E0CC
:1083AC000520AA698854301CA646EB49FE440847B0
:1083BC006860EA484D3070BDF0B54168826888232A
:1083CC005E1837880B6F002B01D1002F10D1062FB0
:1083DC0002DD0021C94307E033889B00C9180A67F6
:1083EC0031880131318001218160E3481D30F0BDBD
:1083FC000B1C01245D6F1D6704330134062CE1DA7C
:10840C00F8E700B50021C160EB4801681031E8487D
:10841C002022FFFFC06808009600000001239E4642
:10842C00E94BFE441847E748FB3000BD140D1B0018
:10843C0054191B00911A01004BAD0300614E010051
:10844C00063208001F0B0200543F080045C1000013
:10845C00843C08001B020000ED170000F3C1010072
:10846C0034191B0008191B00A64408001C171B001C
:10847C0018171B00CB6703000D470200394203009D
:10848C00BDE70200B1400300B9EA010045DA000083
:10849C0024410800539F030071C00200F0B588B05E
:1084AC00069107908669F01CDAA104220124A646E5
:1084BC000E4BFFFF5669080096000000FE4418475B
:1084CC00002833D1F279D8480270357A777A781B44
:1084DC00431C93421ED0162A0FDB002D0DD1D7481A
:1084EC0004700A208119D1481A1CA646B94BFE44C7
:1084FC00184774E0C0468FC60300D1480470CB48BF
:10850C0040190A2189197A1B521CA646B14BFE440C
:10851C00184764E0CA480470CA4804700A208119DC
:10852C00C348A646AB4BFE44184758E0F01C032149
:10853C000A1CBCA1A646C64BFE44184700284ED1C7
:10854C00F179BB480170BB4DB2792A7003201649F2
:10855C00F431FFFFEC69080096000000A646B94B09
:10856C00FE441847287800280BD1FFE7B8490C7057
:10857C00B8490C7003200F49F531A646B64AFE44A3
:10858C001047201CF279357A777A791B4B1C934271
:10859C001FD0AA49097816290EDB002D0CD1AC4945
:1085AC0008700A208119EA481A1CA6468B4BFE4417
:1085BC00184719E0C7040000A6490870E4484019A0
:1085CC000A2189197A1B521CA646844BFE44184773
:1085DC000AE09F4908709F4908700A208119DC48FD
:1085EC00A6467E4BFE4418479748007800280AD0D0
:1085FC009648FFFF826A0800960000000078002869
:10860C0006D095480078002802D0944800780028BD
:10861C0000D18CE0032017218901A646914AFE4423
:10862C0010478848017888480778854E844DE14882
:10863C00006800282ED1079841610662C748069A47
:10864C001064022F01D0032F01D1032200E03A1C49
:10865C00069BDA632A789A63012F03D1052904D08B
:10866C000D2902D0ED48DB3064E000250095019126
:10867C000296039504902B1C201C011C8E46E74E81
:10868C00FE443047E7480460281CA646E649FE44F1
:10869C000847FFFF186B0800960000004CE00D2700
:1086AC000020391C05AAA646E44BFE441847684630
:1086BC00808A400805D2381C5021A646DD4AFE446B
:1086CC001047381C211C0B1C291C0022A646DA4F13
:1086DC00FE4438472B780D20311C221CA646D64E62
:1086EC00FE44304728780130021C0D205849231CC9
:1086FC00A646D14EFE443047564E28780230021C16
:10870C000D20311C231CA646CB4FFE443847307835
:10871C0000280AD028780330021C4D4803780D201D
:10872C009049A646C44DFE442847C048046000202A
:10873C00A646FFFFAE6B080096000000BF49FE4442
:10874C000847BA48ED49081808B0F0BDC0467BC0D0
:10875C0002005D9F03009F030000011CE8480268B3
:10876C00E848002A04D000220A628A611D30F746CC
:10877C00D730F746C0467DB80300011CE2480268BA
:10878C00E248002A02D0FF30B430F7460022CA611A
:10879C008A614F30F746C921010091E10000DB48A6
:1087AC0001688A690120C0031043886100200861B8
:1087BC00D8482330F7468917020070B5051CD54EF2
:1087CC00296AEA69301C0124A6460B4BFE44184763
:1087DC006869FFFF446C080096000000A646D1496A
:1087EC00FE440847A8690630A860CF480068686056
:1087FC00EE60CE486D3070BD46171B00303F080050
:10880C0041EB000009B4030030B5EE48016D806CFB
:10881C00084318D0EC49081C0722FF2309331B58C6
:10882C00002B04D0FF301D30013AF6D10BE00220B2
:10883C00F04AF14B0124A646F04DFE442847A646CB
:10884C00EF48FE440047EF48FF305C3030BDC04677
:10885C005353494400C046C04B455900EE620800D2
:10886C00F0620800EC620800ED620800E77E03008D
:10887C00E862FFFFDA6C0800960000000800E9626D
:10888C000800EA620800EB620800DD7E03008FC678
:10889C000300F0B587B0009101906B480168CC4A99
:1088AC00141C029407260025039504940595DF48B3
:1088BC000068084327D0E068039988420ADD0390DA
:1088CC00401C00998860C249FF201D3068430C1879
:1088DC00E06804910299C968884210DB884210D183
:1088EC0002980127BE46CE49FE4408470690201C3C
:1088FC00BE46CB49FE4408470699884201DA0595E5
:10890C00029451480168FF2709373859002806D0CE
:10891C00C748FFFF706D0800960000000068072E26
:10892C0000D12E1C084304D0FF341D340135072D13
:10893C00C2DB072E0AD1C0480068084306D0059E4A
:10894C00301C01218E46BA49FE4408470198476104
:10895C0000218161FF221D32724304998918C16183
:10896C000662B448393007B0F0BD10B5041C0020C5
:10897C0001218E46B149FE440847401E00D5002017
:10898C006060E061AE48213010BDC0461063080045
:10899C0070B5041CE5696669002001218E46A74963
:1089AC00FE4408476060AB19A64AA549934202D31E
:1089BC009A1AFFFF066E080096000000824202D948
:1089CC00081C993070BD081CAB3070BD086B417D24
:1089DC0002889200511A3C39FF225F32914203D92E
:1089EC0065210180022181739B4899490818F7463B
:1089FC00C04630630800F8B54068242141439748CD
:108A0C004518281D0C214919042201239E46944B1C
:108A1C00FE441847914C00281BD02B1C04226E4698
:108A2C0091491F7B0878C0433843307001330131C2
:108A3C000136013AF5D10C20411968460422012374
:108A4C009E46874BFE441847002802D0201C4A3013
:108A5C00F8BDFFFF9C6E080096000000201CF8BDBE
:108A6C00B1BD000015950000583F0800F3F8000058
:108A7C00E90902002B090200DD0A0200F8B5051C09
:108A8C00AA697D49002008562421414376484318A1
:108A9C0004246E4676491F790878C04338433070F9
:108AAC00013301310136013CF5D1111D6846042218
:108ABC000124A6466D4BFE441847011C6D4804D09A
:108ACC006E49097869604530F8BDEC61AF30F8BD8E
:108ADC0070B5C56881680A896D4E002A22D00124C0
:108AEC00C26DA218C26508890D281BD1686B211CA8
:108AFC00A646FFFF326F080096000000634AFE4452
:108B0C001047221C281C0021A646604BFE44184727
:108B1C002C60E96B281CA6465E4AFE441047281CB4
:108B2C00A6465C49FE440847301C3D3070BD301CE5
:108B3C00233070BDC046B1020000743F080019C656
:108B4C0000005C3F08001DC200006844080043128E
:108B5C000300346308002F7A0200B43608008FF447
:108B6C000100F0B5051CAB69EC69606800682A303F
:108B7C0001780A06417809048A18817809028A1852
:108B8C00C1788A188E26F15A090A0170F05C616866
:108B9C000968FFFFC86F0800960000002B26705470
:108BAC008C20C01861680E680188090A2C27B955F9
:108BBC00616809682D26007870546068016832314C
:108BCC0008780002497808180004000C8C21CB5856
:108BDC00354941400804000CC018801A01218E460A
:108BEC003249FE44084761680A683223010A9954E5
:108BFC006168096833225054606868602C48F0BD85
:108C0C0000001B0034041B00026A8B69DB691B68C3
:108C1C0083608869C06941688A4200DA42602548ED
:108C2C007930F74624485730F74624489130F746B8
:108C3C003204FFFF5E700800960000000000C407BD
:108C4C00000015090200C59300000D910000401EA4
:108C5C0080001E4B19501C490A50F746C046BDB542
:108C6C00000095920000FD930000543F0800294F2E
:108C7C000300DFE802003689410081060000B1786C
:108C8C00000094EC010008191B008FC603001C1790
:108C9C001B0067660300A644080018171B00A72FCB
:108CAC00020091440300916303005B440300E7441A
:108CBC000300FFFF000061A203006A1E010045DAF9
:108CCC000000D7E80100E978020004F31A00807B69
:108CDC000800FFFFF470080096000000FCB5041CAF
:108CEC00A569606A01902069002835D4082833DA18
:108CFC00E169096810292FD1AC2141439E4A515C8E
:108D0C00490827D300060016A268694601239E462F
:108D1C009A4BFE441847061C39301FD0002E1DD02C
:108D2C000098076800990C3901980160281D1021E2
:108D3C00791A042201239E46914BFE4418470222C5
:108D4C002A80A81C0821791A01239E468C4BFE44CC
:108D5C00184703E0382000E00020C643266089480D
:108D6C007C302062FCBD30B5051C2869A9699029AE
:108D7C001DD1FFFF8A71080096000000696909780F
:108D8C00042919D0052917D00A2915D0062913D082
:108D9C000C2901DB10290FD10124A6467D49FE4484
:108DAC0008477C487D490022A6467C4BFE44184768
:108DBC007C48FF305F30286230BDF0B589B005903B
:108DCC00416902697548794E82423AD00430824238
:108DDC0025D0744DAA4200D0CCE00868061C0C22A9
:108DEC008F1A4A688918091D10220124A6466E4B59
:108DFC00FE441847011C09D1AC227243CB488018A1
:108E0C004622125C112A01D144221454281C3A1C0B
:108E1C00A646FFFF2072080096000000624BFE443D
:108E2C0018476948EC30ABE00868C00030188A6815
:108E3C00022A02D0E7208000A2E0CA688918097BC8
:108E4C004160802101603B20000199E00868069098
:108E5C00C0003458102004900125AE465748FE44FB
:108E6C0000470790002800D189E00C2107980F18C3
:108E7C00B049AC20069A504308184822135C5B0694
:108E8C005B0E1354069AD200B6187168002947D1AC
:108E9C00002C01DD082C21DB002269460A700192AE
:108EAC000A818A72CD720D734D7301884448062372
:108EBC00AE46FFFFB672080096000000444CFE441C
:108ECC002047041C02DC0020C04336E03460AC2098
:108EDC0060439A4909185C22281C50544820425C73
:108EEC005206520E4254AC206043944908185C213F
:108EFC00095C491E022916D9033908D000203056C6
:108F0C00AE46EA49FE44084780203060DBE708940F
:108F1C00802131604822135C19431154AE46E44958
:108F2C00FE4408470AE00120CEE70698391C04AA43
:108F3C00AE46E04BFE441847041C08900698386077
:108F4C0008987860002815D0AC2060437C4909183B
:108F5C004888FFFF4C7308009600000002040220B2
:108F6C001043B8604868020E0102090E0902114351
:108F7C000204120E12040A4300061043F86007980C
:108F8C000D4900221023AE46CE4CFE442047134818
:108F9C0000E01620CC4909180598016209B0F0BD13
:108FAC005D0D1B0081E7020009B40300271A0200C3
:108FBC002F7A02000202000005100000CFF600001C
:108FCC00D5F4000002100000911902005065080051
:108FDC0071C0020050191B00291601002A03000061
:108FEC00F0B58BB00790056947690C20381A0890CA
:108FFC00B649FFFFE2730800960000008D4216D1BF
:10900C0078680F3000110001786038680B280ED892
:10901C00002368460370089805220124A646AE4C2E
:10902C00FE442047AE48FF30953007990862AC48A3
:10903C00854223D1AC4802786C4622724378637225
:10904C008178A172C078E072009101900320A6494A
:10905C0001390126B646F34EFE44304704202070F9
:10906C0008989F49002202AB0124A6469B4CFE4463
:10907C0020479A48FF30953007990862EB498D429A
:10908C0014D10222684602703A68AC204243304840
:10909C006830FFFF78740800960000008318089869
:1090AC0000220124A6468F4CFE4420478E48FF30F8
:1090BC00953007990862EF48854200D004E10320FF
:1090CC008C4901229646EC4AFE4410478648FF30F4
:1090DC00953009903868EA4D002800D1E2E001246F
:1090EC00A646E648FE440047002800D1D6E0E448F6
:1090FC00026803207F490131A646E24BFE44184723
:10910C00DF48006800285AD1DF4D2E204119B8687D
:10911C0003300870387A48702E1C3036B86828181E
:10912C003030DA490A68303A311CA646D84BFE4436
:10913C001847FFFF0E750800960000007868381875
:10914C00011DBA68301CA646D94BFE441847B868B6
:10915C004119972209305054B86846199E36307020
:10916C000136B86801E0140D1B003018CA490A68B2
:10917C009E3A311CA646C84BFE44184778683818EE
:10918C00011DBA68301CA646C94BFE441847B86886
:10919C004000C049096808182818C0490A790270AB
:1091AC004A7942708A798270C979C17004300F2172
:1091BC00411A0A78BB689A180A70401B0004000C0C
:1091CC00B5490860B14804600220011C1122A64672
:1091DC00B44BFFFFA475080096000000FE4418472E
:1091EC00061C63D40320A646B149FE4408470A90E6
:1091FC000025011C8D4250D0291C2B22A646AD4BBC
:10920C00FE4418470C200A994018AC227243AB4913
:10921C008F187863291C1822A646A64BFE441847C3
:10922C009F480268796B4A600A98AC3008600868FD
:10923C009A49A646A04BFE441847291C03A81022A5
:10924C00A6469C4BFE441847E021684601744574C1
:10925C008574FB21C174EE49C18102218181796B36
:10926C00CA680120C0031043C860486800902A1CDB
:10927C00301CFFFF3A760800960000000A9D291C5E
:10928C0003ABA646E64FFE443847071C30060016D3
:10929C00A646EF49FE440847281CA646EE49FE4464
:1092AC00084711E030060016A646E949FE44084777
:1092BC000120C74308E0071C06E000200021CF4333
:1092CC0001E00020071C28600023684603703A0662
:1092DC00120E08986F490124A646094CFE442047FB
:1092EC000798099901620BB0F0BDC1180100F11B80
:1092FC000100F31C02007BC0020091F0000003028D
:10930C000000A3C00200A9E9000007020000E4620B
:10931C000800FFFFD076080096000000AC050000A6
:10932C00FEB5071C7D69BE690C20301A0190DF4C1C
:10933C000A2D13D13068DB49086001208646DA48D3
:10934C00FE4400470A200021019A01239E46E64B69
:10935C00FE441847F520800000193862032D79D19E
:10936C00F520800000190290706800280CD10021B3
:10937C00CF480160CF480068002861D001218E469B
:10938C00CD49FE4408475BE0CC48B1680160F16808
:10939C004160316981607169C160B169C163F16912
:1093AC000164316AC1640124A646C548FE440047E5
:1093BC00A646FFFF6677080096000000C448FE44EE
:1093CC00004770687D25ED00A84221D8012818D0EF
:1093DC00022805D0281CA646BE49FE4408471CE0BE
:1093EC00B9480023191C59433E224A438283023058
:1093FC000133102BF6DBA646B448FE440047B548B3
:10940C000DE0B54D281CA646B249FE44084704E0C1
:10941C00A646AF49FE4408477568AE480560051C72
:10942C00A74E3068002806D1AD480068A646AC4966
:10943C00FE440847306000942B68AA49AB4AA64604
:10944C00AB4DFE4428479C48046003200021019A40
:10945C000123FFFFFC770800960000009E46A74BF7
:10946C00FE44184702983862FEBDC046137F0300C5
:10947C001210000030B5051C00200124A646A0499E
:10948C00FE440847A6469F49FE440847A6469E4808
:10949C00FE4400477D21C900A6469E4AFE44104763
:1094AC009B490818994908809B480A30286230BDAE
:1094BC0011100000DD7E0300B99000006C64080000
:1094CC00E77E030074640800706408006DC6030036
:1094DC0008191B0011180200D1780200C9BA030048
:1094EC0009B40300140D1B00FEB5029045696846D3
:1094FC000121FFFF92780800960000008E468949F2
:10950C00FE4408478948041C686801694A780027AA
:10951C003E1C2088400822D3201D891C01239E4616
:10952C00834BFE441847002807D1686800694078CF
:10953C0021880904891681423DD00220005F0099E0
:10954C00081A000400143C2803DD20884010400059
:10955C002080781C07063F0E686801694A782A3417
:10956C000136142ED5DB002A02D1AB20400050E08E
:10957C00009B6D48142100220488640803D32A3010
:10958C0001320139F8D11206120E142F16D1664889
:10959C000088FFFF2879080096000000000644169A
:1095AC006449002201204E8D36067616A64202DD55
:1095BC00341C0206120E2A3101301428F3DB02E0AF
:1095CC003206120E009B2A2042435A4811180C886E
:1095DC00012020430004000C0880FE24A043142426
:1095EC0064576406240E04435248145214186380C2
:1095FC0008888005820D68680069407880021043F5
:10960C00088068680269201D911C527801239E46CF
:10961C004B4BFE44184702980461FE204749091839
:10962C0002980162FEBD826941690369022B0AD16D
:10963C00012AFFFFBE7908009600000001D1002925
:10964C0005D0022A04D1002902D1112100E0062103
:10965C004161F746C04614E90000C918020030B554
:10966C00051C3A480078002804D00120864638486A
:10967C00FE4400470124A6463748FE440047A64650
:10968C003648FE44004735480E30286230BD491933
:10969C0001002F7A020018B543698169314881298C
:1096AC0000D10B38002100911A689B680124A64652
:1096BC002D4CFE44204718BD18B54069002100917F
:1096CC0002688368274801300124A646264CFE44D4
:1096DC002047FFFF547A08009600000018BDC046D2
:1096EC0030630800199E0000B9EC0000743F0800BC
:1096FC00803F0800B75D030000001B00D38E000004
:10970C00F7C60000E590000068640800C027090057
:10971C00A03B08003D5D030019C60000E83A0800B4
:10972C00815D0300CFF600004B4F03006BC00300BC
:10973C00951E0100DA400800DC05000055AA030064
:10974C000D910000D7560300085108008FC6030086
:10975C0065B8000009B4030084171B00B58601002E
:10976C003D470200734902005F9000000E1000009C
:10977C00F7F6FFFFEA7A0800700000000000FFB562
:10978C006846FFF776FFFFBDFFB56846FFF75AFF47
:10979C00FFBDFFB56846FFF799FFFFBDFFB56846F3
:1097AC00FFF783FFFFBDFFB56846FFF7B6FEFFBDB1
:1097BC00FFB56846FFF755FCFFBDFFB56846FFF7E0
:1097CC0027FBFFBDFFB56846FFF7DDFAFFBDFFB510
:1097DC006846FFF768FEFFBDFFB56846FFF73DFB27
:1097EC00FFBDFFB56846FFF7BEFDFFBD787B0800E7
:1097FC008800000000B5F8F043FA00BD356608009B
:10980C0067660800716508004D660800256408004D
:10981C00816608008D660800996608008767080055
:10982C00A7670800D16708002B6808006768080064
:10983C0041690800CD6B0800ED6B0800116C080045
:10984C002D6C0800B1680800716C0800BF6D080031
:10985C00176E0800416E0800116F0800F16C0800CB
:10986C00BD6E0800E56D0800996F080035700800A2
:10987C0031640800517008005770080004F31A0096
:10988C0080000000B24E01005AC10000961A01007F
:10989C00220B020060D00100061A0000B8C60100BD
:1098AC00D842030016420300EEDB000062DC00002D
:1098BC00C8E100008A17020038BE000026C600006E
:1098CC0056C2000062120300E4F401003AEC0000FE
:1098DC005E920000FEE80200187F000064EC0100BC
:1098EC00FE4403001C940000A866030074E9020007
:1098FC00681E0100BCDA0000EAE1000024E9010066
:10990C007079020000001800960000000006011D8E
:10991C00F0B588B0CA4C032022786378CA4E311C4B
:10992C0001390125AE46C74FFE443847A278E3788B
:10993C000320311CAE46C34FFE4438470320311C74
:10994C000131AE46C14AFE441047C148217801702E
:10995C0061784170E178C170A1788170BF48041CB6
:10996C00333C201C0021DC22AE46BA4BFE44184787
:10997C008420A0700527E7710C2626730D20001992
:10998C0098A1321CAE46B44BFE44184704206076B6
:10999C001A20001997A106910422AE46AE4BFE4444
:1099AC001847FFFF9600180096000000A7771F3499
:1099BC0095A10791201C3A1CAE46A94BFE441847B2
:1099CC00E671281C60721120207394206073C025EE
:1099DC006574A6740922E274A34C201C8CA101238B
:1099EC009E469F4BFE441847072262729E4C0A34D7
:1099FC00201C89A101239E469A4BFE441847042043
:109A0C00E071984C1234201C0699042201239E46C6
:109A1C00944BFE4418472771934C1734201C07991C
:109A2C003A1C01239E468E4BFE441847E6710120DA
:109A3C00607211202073942060730220E0732574EF
:109A4C006674FFFF2C01180096000000A5742F27E8
:109A5C00E774102060758026A6750120E075112032
:109A6C00A0769420E076242060770A22A277804C9E
:109A7C003634201C6DA101239E467C4BFE441847B6
:109A8C001822A2727A4C4134201C6BA101239E46F1
:109A9C00764BFE441847257667762120E0762677AC
:109AAC00012060777248613011210170942141705E
:109ABC0004210172D2214172C5721E2101734573BA
:109ACC009E218173012101744674817411214175A9
:109ADC009421817504210176AD206649086000242B
:109AEC000F25FFFFC2011800960000002906090E81
:109AFC0000206A4601239E46624BFE4418476B4683
:109B0C00188840080ED3A0000F21CA4369460E885E
:109B1C00164001AF3E52498811406844C180601C18
:109B2C000404240C013D0B2DE0DA601E0004000C33
:109B3C001DD08646011C01AD0122AE889000C75A8B
:109B4C00B7420ADABC46071C6F447F88684406801B
:109B5C00EE8846806046A880EF800435501C0204D5
:109B6C00120C0139E9D1704601388646E2D1998848
:109B7C006846C08840180004000C424B18804249CB
:109B8C00081AFFFF58021800960000005880022C9B
:109B9C001EDB651E01AA0120011C8C006B46E65AD7
:109BAC009388D488E718B7420CDA06244443384B20
:109BBC001B191F801C88341B5C8001241C71401CE9
:109BCC000004000C0432491C0906090E013DE4D1C5
:109BDC000024314804703148047031480470314815
:109BEC000470012086463048FE4400472F49221C51
:109BFC000868002802D0012090400443043101324F
:109C0C00202AF5D32A48046008B0F0BD5F6465765D
:109C1C006963652D696E666F00C046C05F756470C0
:109C2C0000C0FFFFEE0218009600000046C06C6FEB
:109C3C0063616C00C0465F7365727669636573001F
:109C4C00C0465F646E732D7364006465763D434358
:109C5C003330303000C076656E646F723D54657879
:109C6C0061732D496E737472756D656E747300C07B
:109C7C0046C000001800F37E0300C6050000DD7E20
:109C8C000300E4620800C9BA030009B40300A76426
:109C9C00080070640800DD0A0200483208000080E9
:109CAC00FFFFE8620800E9620800EA620800EB6264
:109CBC00080081031800807B080084F31A000D490A
:109CCC000E48FFFF840318006C00000088670E48E4
:109CDC0088640E4848640E48C8640E4808651148EC
:109CEC00021C04320C4B13600C4B93620C4A8A66B8
:109CFC000D4901600D480E4901600E494160F7465F
:109D0C001C210800337B0800297B08001F7B0800FE
:109D1C00517B0800477B08003D7B0800157B080041
:109D2C00F77A080050230800ED7A0800582608003E
:109D3C000B7B0800017B08000001000000120000F2
:109D4C00000018000415000004000000B8F1900F8A
:109D5C00A4160000C800000066E004A8351D21F020
:109D6C0099FC684623F028FB9AF80000012807D1DB
:109D7C00284605F0C3FE014601AA002021F050F947
:109D8C00284605F0BBFE01A921F02AFAE9794FEA31
:109D9C00E00040B211B100F1060040B2A8711F38CA
:109DAC004000E871304601F00DFF10F100094FF052
:109DBC00000109D02868400C09D3E868C00B03D215
:109DCC004846FFF7DDFE01212868400C0AD23868AE
:109DDC00401C386020686FF30F00206022683868E0
:109DEC0010432060E868C00B0FD3D8F8000000F1D6
:109DFC000100C8F8000020686FF31F402060D8F8FD
:109E0C000020206840EA0240206049B9B9F1000FF7
:109E1C0003D1304607F0BEF902E0484607F006FAD7
:109E2C006C1700001400000068460EF085FB009EC5
:109E3C00002E96D105B0BDE8F087C0469C200000EE
:109E4C000400000023F07AFD7447000008000000B5
:109E5C000B2121F0CBF92068184B000014000000F6
:109E6C0021F06CF80AE0206800680C2140F020001A
:109E7C0021F064F8046200000800000020791FF053
:109E8C00A5FC69E034AD0000040000000968FF295E
:109E9C0098AD0000040000000010D421DCD30000B9
:109EAC001000000000B518F0FBFB00F003F800BD3B
:109EBC0000000000C0DF00000400000017F03CFDB3
:109ECC00C8F7000020000000312E31392E33313418
:109EDC005F4E65775F4654435F6C656E6774685F71
:109EEC006D6F64756C617469807E01000400000004
:109EFC00DFF85882F47E0100040000007A486B49B8
:109F0C009C7F0100040000000070514DC47F0100D3
:109F1C003C000000404900F152003A4AA8812883D5
:109F2C00E883E884A8852A60394841F211122A8511
:109F3C001890199139491A9139491B913949204680
:109F4C00DFF8C4901C913849DFF8C0B0314E1D9138
:109F5C0048800100040000000DF07CFAB480010080
:109F6C003400000034126609846B002094700020C9
:109F7C00B4700020C4780020507A0020FEFF03004B
:109F8C00A4700020B0700020B870002060553080A4
:109F9C003C5C002004740020044D0200C80000004A
:109FAC002DE9F04FADF18C0D04680F300394FEF7E2
:109FBC00DBFA04F114000490217D002021F07301E0
:109FCC00882908BF012005900398001D06905D4864
:109FDC000068012840F0FA835B4D5C48DFF8709113
:109FEC002968DFF87081DFF874A1884221D1102232
:109FFC00002148464F46FBF7B7FE10220021404691
:10A00C00FBF7B2FE5449086840F480100860012048
:10A01C005146086000212960397846460091317814
:10A02C0041F2111304220191072102900320F3F74E
:10A03C0041FC5146079108685649DFF85CB101288C
:10A04C0008915649DFF848A1099155490A914449AC
:10A05C000B9144490C9144490D9144490E9144494A
:10A06C000F91444910914449CC4D0200C8000000A6
:10A07C001191444912914449139144491491444912
:10A08C001591444916919F4917919F4918919F49E1
:10A09C0019919F491A919F491B919F491C919F4966
:10A0AC001D919F491E919F491F9140F0008104987A
:10A0BC00407800F00301012940F0F98004990978F7
:10A0CC0001F00C01082940F0F28006990988A1F1F1
:10A0DC003C010EB2059911B1A6F1020636B2C009C7
:10A0EC004FF0000715D3083E36B2032E10D0172EB2
:10A0FC000ED0083E36B2032E08D0172E06D0361FCF
:10A10C0036B2032E14BF172E022702E0032700E0FD
:10A11C000127032E18BF172E049A40F0C8800A326C
:10A12C0012F8011B052412F8013B4B40641ED9B2F6
:10A13C00F9D181EA2111032E944E0200C8000000CF
:10A14C0001F00F01484635D04346CA5C521CCA5434
:10A15C000C1833E0485702000474002034126609CE
:10A16C005857020068570200C84830804457020014
:10A17C00805702007857020010580200185802004D
:10A18C0020580200285802003058020038580200AB
:10A19C00DC580200DA5802000C580200E7580200A2
:10A1AC00D8580200E658020054570200DE5802004C
:10A1BC00E05802000C182078401C20702078434690
:10A1CC0003EB01080A2876DB98F800000A2872DBFA
:10A1DC00944800250160049800F10A094078410870
:10A1EC0024BF0499091D04D280082EBF4946049946
:10A1FC0010310B980622FAF7B9FC0C980622494646
:10A20C00FAF7B4FC9B489A495C4F0200C800000066
:10A21C00007808220860584607600D982946FBF71D
:10A22C00AFFD08220E982946FBF7AAFD08220F98CD
:10A23C002946FBF7A5FD082210982946FBF7A0FD3F
:10A24C00082211982946FBF79BFD082212982946F3
:10A25C00FBF796FD079902200860139928460880A1
:10A26C000899087014990870159908601699087067
:10A27C00179908601899086019990860099908805D
:10A28C000A9908801A9908807D490D601B990870FD
:10A29C001C9908701D9908701E9908801F990880D8
:10A2AC0051460880207800960422019098F800000E
:10A2BC0041F21413072102900320F3F707FB0798D0
:10A2CC00A24900682091A249052821919E4922911A
:10A2DC0040F037820498407824500200C8000000F7
:10A2EC00410824BF0499091D05D2800827BF049991
:10A2FC000A31049910310B98F8F72DFC01280498B9
:10A30C0040F02382407800F00300032818D0022884
:10A31C0007BF0499103104990A3113E04058020028
:10A32C004458020048580200E8580200EA5802005B
:10A33C00EB580200EC580200E2580200E45802000C
:10A34C00049918310C98F8F706FC0499012840F090
:10A35C00FC81497801F00301012940F0F68159464E
:10A36C000968049A8E465146D28A0B881211934280
:10A37C0000F037820A80069909883C390BB2714685
:10A38C00491E09D0491E04D0491E08D1A3F110035F
:10A39C0004E0A3F1140301E0A3F108031BB2059838
:10A3AC0010B1A3F102031BB2EC500200C800000074
:10A3BC00002B00F1CE81169840F2775199420B9008
:10A3CC001498059000F0A381084600F13C009842D7
:10A3DC00059A00F09A81DFF8488214780B9ABB2C0E
:10A3EC0012780C9263D1DDF868C0BCF90020914260
:10A3FC0018BF90425BD11C2B4FF00000C0F2828141
:10A40C003D2B139D80F27E81A3F11C0109B22980A2
:10A41C001E9ADDF83090B2F90060B9F1010F15D138
:10A42C00DDF82490032E0DDAB9F90070B94207D08B
:10A43C00012616804A460E4603E0C04688570200A5
:10A44C00761C16801B9A16781D9A16700C9A1F9EF5
:10A45C00022A28D1B6F90020BEF1000F1AD0032A27
:10A46C0035460BDA0A9EB6F90070B94204D00122C7
:10A47C002A800A46354600E0B4510200C8000000AC
:10A48C00521C2A801C990A781D990A700FE0C0464C
:10A49C0050570200A66400204C57020028800599F2
:10A4AC000870089A117841F0040111700446454671
:10A4BC00ACF800002870CC2C099A40F00081DDF833
:10A4CC007CC00A991E9F4546B1F90060B2F9009014
:10A4DC002878CDF850C016910A97139209950C99CB
:10A4EC00012905D1059AB0EB490F01D1002111705A
:10A4FC000C99022905D1059AB0EB460F01D1002128
:10A50C001170B3F5147F40F3BA8040F25131994287
:10A51C00089940F3B4800978062900F0B080A3F2C2
:10A52C0051210BB24FEAE30103EB11714FEA2111F8
:10A53C00CAB24FEAE30103EB1171159D21F00F0133
:10A54C00A3EB01031D992E687C520200C800000089
:10A55C0091F800E05FFA83F860B1311811F8011C32
:10A56C005140CBB207E0C046505802004C58020094
:10A57C00D458020013461999DDF86CA0DDF870B0C0
:10A58C00D1F800C000F00F01994222D00A9B8645F9
:10A59C009AF80010B3F900309BF8005015DD375CC9
:10A5AC00441C82EA070C04F00F0767450BD0A64544
:10A5BC0006440ADD76787240861C06F00F06964239
:10A5CC0003D1C01C4DE0801C4BE0059E0022327074
:10A5DC004AE000F01F0101228A401799C4100B6851
:10A5EC0024F003015CF801703A4232D15F583A42D0
:10A5FC0006441FD0189B37781B68B84504D15858AF
:10A60C00024219D0634615E0A1108C0019599143F0
:10A61C00195100903078019044530200C80000009A
:10A62C000320062102464DF68053F3F763F909998E
:10A63C0028680E78361806E0DB580200A01081005E
:10A64C00585802435A5086F800800B9800780C90AA
:10A65C001398B0F90090099800780A9A401C9BF85E
:10A66C0000509AF80010B2F90030099AC0B210707C
:10A67C000C9A012A03D18842C8BF8AF800000C99B1
:10A68C00022907D1A842C8BF8BF8000002E00A9843
:10A69C00B0F90030B9F1000F06DD032B04D111988D
:10A6AC000122494600F070FB1698B0F9001014987E
:10A6BC000029B0F9000005DD032803D1129802220D
:10A6CC0000F062FB059804780B9800780C900898C1
:10A6DC00BB2C017802D0AA2C2FD031E00C98012889
:10A6EC000BD10D98179A10600C540200C800000092
:10A6FC000F98189A1060199A11981060474A15987B
:10A70C0002600C9802280BD10E98179A10601098C2
:10A71C00189A1060199A12981060414A15980260A4
:10A72C00CC200FE0089909780CE0022000E0012011
:10A73C000B9908701A990B801399002008800898BF
:10A74C000178BB20059A10700629079911D10620B3
:10A75C000860209800250570219829460422FBF7F3
:10A76C0027FB012000F036FA022000F033FA229881
:10A77C000560079804990068072844D10978039C60
:10A78C00802940D138342178641C224600293AD1E2
:10A79C00209890F800A022980590D0F8009051468F
:10A7AC004846FDF779F95FFA80F8219F15785146F4
:10A7BC00484617F80830FDF7D4540200C8000000D2
:10A7CC006FF91E461B1DC0B2385C001DA8422846FE
:10A7DC0007DD8018821C10782D18AD1CADB2AB4271
:10A7EC00F7DC04F8016B11493246204601EB4811A5
:10A7FC00FAF7DCF9AD1BFF203419AD1E04F8010B80
:10A80C00257005980168491C0160079800680728A5
:10A81C0004D00699086820F48030086023B0BDE8A5
:10A82C00F08FC0468C570200CC57020054580200DF
:10A83C006D482DE9F0476D4D82894AF65521ADF5ED
:10A84C00FE7D91424FF00001ADF1380D10D1296021
:10A85C0041F2104181814FF6FF706549086028680C
:10A86C00009002220521032041F23423F3F74AF829
:10A87C002968604C0129206840F0AF805E4D0228A9
:10A88C00296823D15D4800689C550200C80000006F
:10A89C005E4A125C009201915D49096802915A4925
:10A8AC000B5C032007210422F3F730F85A494A794C
:10A8BC0058480092027901924079042202900320B8
:10A8CC000B790721F3F722F803202060ECF71CFF2B
:10A8DC0020682968042815D10D208DF8100000255A
:10A8EC008DF814508DF815102846632100F0FCFAF1
:10A8FC006321284600F086FA03A904A8E0F7CCFCF3
:10A90C0005202060454D0528296801F101012960C9
:10A91C001DD1434A8A421AD14248016800914068CD
:10A92C000190032002460621404E3346223BF2F7AB
:10A93C00EDFF3D48016800914068334606210190C7
:10A94C0003200246F2F7E2FF002028602068062868
:10A95C0047D14FF0070AC4F864560200C800000043
:10A96C0000A0032048F2705301220421F2F7D2FF19
:10A97C00DFF8C880304F48F27059012549EA0503C9
:10A98C00012204210320F2F7C5FF002417F8020F5F
:10A99C0020E0690104EB08028818C61C4378009378
:10A9AC008078019030780290535C51460422032049
:10A9BC00F2F7B0FF3878011BB1F1FF3F08D1F07806
:10A9CC000090B378032002220521F2F7A3FF387818
:10A9DC00241DE4B2A042DCDCAD1CEDB2042DCDDBB9
:10A9EC0063214FF40570F1F7A5FCE1F787FD7FB00B
:10A9FC000EB0BDE8F087C046047400204857020032
:10AA0C0040003D8044570200505702008857020016
:10AA1C00585702006857020054570200785702003A
:10AA2C00805702004C5702002C570200C80000004F
:10AA3C00FFFF030030580200385802006655DDEE67
:10AA4C00D35802005458020000000000000000001F
:10AA5C0000000000000000000000000000000000EA
:10AA6C0000000000000000000000000000000000DA
:10AA7C0000000000000000000000000000000000CA
:10AA8C0000000000000000000000000000000000BA
:10AA9C0000000000000000000000000000000000AA
:10AAAC00000000000000000000000000000000009A
:10AABC00000000000000000000000000000000008A
:10AACC00000000000000000000000000000000007A
