:020000040800F2
:10000000005000200D010008FD030008FF03000858
:1000100001040008030400080504000800000000B3
:1000200000000000000000000000000007040008BD
:1000300009040008000000000B0400080D0400087B
:100040005901000859010008590100085901000828
:100050005901000859010008590100085901000818
:100060001504000859010008590100085901000849
:10007000590100085901000859010008110400083D
:1000800059010008590100085901000859010008E8
:1000900059010008590100085901000859010008D8
:1000A00059010008590100085901000869040008B5
:1000B00059010008590100085901000859010008B8
:1000C00059010008590100085901000859010008A8
:1000D0005901000859010008590100085901000898
:1000E00049040008590100085901000800000000F7
:1000F0000000000000000000000000000000000000
:0C01000000000000000000005FF808F1A3
:10010C00002100F004B80C4B5B58435004310B48F1
:10011C000B4B42189A42FFF4F6AF0A4A00F003B8B0
:10012C00002342F8043B084B9A42FFF4F9AF01F06C
:10013C00BBF900F043F9704740590008000000205B
:10014C009C0000209C000020780A0020FFF7FEBFD6
:10015C0070470000134B10B51A6812B11868411E95
:10016C001960114C236813B12268501E20600F4C8B
:10017C00216811B12068421E06E00D4B1A782AB98D
:10018C00E72000F0E3FEC822226010BD0948017888
:10019C0039B11B782BB102200121BDE8104000F0D1
:1001AC00BBBD10BDCC090020BC090020C409002037
:1001BC00000000209C0000201FB50446E72000F042
:1001CC00B1FE01F01BF901F05BF80F4B0F48104921
:1001DC00104A00930190104B029103920F49104A60
:1001EC00104801F057FE4FF47A7000F08DFD204658
:1001FC0001F064FE0C4801F0F3FE48F2442001F0DB
:10020C00BDFE002004B010BD4513000859130008B2
:10021C00C5130008ED130008AD1400089D14000868
:10022C00A51400085D0100080100002070B5002233
:10023C008CB0174B06460D461020022101F0BCFD78
:10024C0001AB0022B45A200A44F00101AC5A02322C
:10025C0003F8024C240A03F8041C03F8030C03F8FB
:10026C00014C0433182AEDD16B46302104221020A6
:10027C0001F0A2FD00213022684602F059F910204D
:10028C00014634226B4601F097FDC0B20CB070BD34
:10029C003C59000838B54048404C002301252370D8
:1002AC0005702846FFF788FF3D4801F0C0FD6571D9
:1002BC0020713A4D384C697969B16278022A0AD8B2
:1002CC00384B0B208021002201F048FD68716078CA
:1002DC00431C6370EDE76078334B324D2F4C01219A
:1002EC00032808BF1D4661712C4C627932B1A01DE8
:1002FC0004F11E01FFF79AFF6071F5E701F028FE8B
:10030C000120FFF759FF01206071244C63793BB148
:10031C000B20802100222B4601F04EFD6071F4E78A
:10032C0094F904100125657119B12048012101705F
:10033C000DE01B48027822F001040470174D6B7914
:10034C00002BF2D0164801F069FD6871F6E7174CE6
:10035C0022783AB1114A0420D18E154A01F070FD71
:10036C002070F4E7134B01251D70124C0B4D2078B7
:10037C0030B10520298F104A01F062FD2070F4E79E
:10038C00FFF71AFF01216420297000F0BDFCE72063
:10039C00BDE8384000F0B8BD9C00002000000020F3
:1003AC0062010020C90000206826000861010020BD
:1003BC00E8260008C8000020D046000808B500F068
:1003CC005BFE0021022000F0A7FC4FF0FF1000F0B4
:1003DC0051FDE72000F098FD002000F0B7FEB0F5CD
:1003EC007A7FF9D3002000F0B9FEFFF753FFF3E753
:1003FC007047FEE7FEE7FEE7FEE770477047704781
:10040C00FFF7A8BE00F0C6BB08B5042000F08CF8BE
:10041C0078B1042000F098F80020064B01461880B3
:10042C0000F0B8FD044810210122BDE8084000F09E
:10043C0006BA08BDA8000020002C014008B54FF4F6
:10044C00006000F071F838B14FF4006000F07CF8F7
:10045C00BDE8084000F010BC08BD000008B50F480E
:10046C00102100F025FAC0B10C48102100F02BFA35
:10047C00002000F05BFE28B9094B1A880A3290B2B2
:10048C00188008BD10210548002200F0D8F9002082
:10049C000121BDE8084000F07DBD08BD002C0140E5
:1004AC00A8000020837910B5002B29D01A4B0168C5
:1004BC001C68CA4314401C605C6822405A60027974
:1004CC0002F1804404F58232146821431160026801
:1004DC009C68D1430C409C60DC684079214010281A
:1004EC00D96006D1986810439860D9680A43DA60DD
:1004FC0010BD00F1804303F5823319680A4308E00C
:10050C000179006801F1804202F582331A6822EA0F
:10051C0000021A6010BD00BF00040140014B58617D
:10052C00704700BF00040140064B1A68596910EA75
:10053C00010304D010420CBF002001207047184664
:10054C00704700BF00040140014B5861704700BF69
:10055C0000040140224A038890429BB212D002F55B
:10056C00006290420ED0B0F1804F0BD0A2F59832C1
:10057C00904207D002F58062904203D002F580626F
:10058C00904203D14A8823F070031343154A9042DA
:10059C0008D002F58062904204D023F44073CA88DC
:1005AC009BB2134303808B880A8883850C4B02858E
:1005BC0098420FD003F5006290420BD002F54063D5
:1005CC00984207D003F58062904203D002F5806315
:1005DC00984201D1097A018601228282704700BFBC
:1005EC00002C014000100040038C70B523F0010278
:1005FC001404250C0584068C8388028B9CB222F093
:10060C0073052B040D881A0C26F0020633042A43BA
:10061C004E880D891B0C3543ADB22B43134DA842AC
:10062C000FD005F50065A8420BD005F54065A84232
:10063C0007D005F58065A84203D005F58065A84272
:10064C000ED123F008064B898D881E4326F0040337
:10065C002B43CE898D8924F440743543ADB22C43A1
:10066C00C988848002838186038470BD002C01407C
:10067C00038C30B523F010021404250C0584038C74
:10068C008288048B23F0200324F4E6452C040D8887
:10069C00240C44EA05241D042B0C0D8992B243EA68
:1006AC0005134D88A4B243EA0513124D9BB2A84220
:1006BC0003D005F50065A84215D14D8923F08003C0
:1006CC009BB243EA05134FF6BF751D408B8822F48D
:1006DC00406245EA0315ABB28D8942EA8502CD89A9
:1006EC0042EA850292B2C98882800483018703841E
:1006FC0030BD00BF002C0140038C30B523F4807258
:10070C001404250C0584038C8288848B23F40073D9
:10071C0024F073052C040D88240C2C431D042B0C85
:10072C000D8992B243EA05234D8843EA0523124D05
:10073C009BB2A84203D005F50065A84215D14D899E
:10074C0023F400639BB243EA05234FF6FF351D40AB
:10075C008B8822F4405245EA0325ABB28D8942EADC
:10076C000512CD8942EA051292B2C988828084832F
:10077C008187038430BD00BF002C0140038C30B551
:10078C0023F480521404250C0584038C8288858BF9
:10079C0094B225F4E64215042A0C0D8823F4005378
:1007AC0042EA05221D042B0C0D8992B243EA053353
:1007BC004D8843EA05330A4D9BB2A84203D005F598
:1007CC000065A84205D18D8924F4804444EA85143F
:1007DC00A4B2C98884808283A0F84010038430BD01
:1007EC00002C014000214FF6FF7383800180C180F3
:1007FC004180017270470023038043808380C38053
:10080C00038143818381C3817047038819B199B2F5
:10081C0041F0010303E023F001010A04130C0380EF
:10082C007047B0F8443029B16FEA43436FEA534143
:10083C008AB201E059044A0CA0F84420704783891D
:10084C009BB20AB1194301E023EA0101818170478F
:10085C00038819B199B241F0800303E023F08001C1
:10086C000A04130C03807047038B23F00802130453
:10087C001A0C114301837047038B23F40062130499
:10088C001A0C42EA01218BB203837047838B23F04D
:10089C00080213041A0C114381837047838B23F4D1
:1008AC00006213041A0C42EA01218BB28383704755
:1008BC00038A828911EA030092B203D011420CBF61
:1008CC00002001207047C9438AB2028270470000A1
:1008DC0008B5064B00221860054906489A60196154
:1008EC00DA80DA609A80036A984708BDA401002078
:1008FC00B8050020240A002008B5044B1A690AB177
:10090C000020186102494B6A984708BDA4010020D9
:10091C00240A002062B6704708B572B600F004FDD8
:10092C00034B022218699A6019680530884708BD84
:10093C00A401002070B50646002014460D4600F0B8
:10094C00E3FC012EA4B207D130462946224600F022
:10095C0063FC0020124907E0124B01201969224662
:10096C0000F05AFC00202946224600F055FC0E48A7
:10097C000221012201F033FC012000F0C5FC0A48E1
:10098C0001F035FC0028FAD1084801F030FC0028B1
:10099C00FAD10748802101F017FD0028F9D170BD6C
:1009AC003A000020A40100205800024044000240FC
:1009BC000038004003460A4601201946FFF7BABF2B
:1009CC0070B50646002014460D4600F09DFC012E25
:1009DC00A4B207D130462946224600F01DFC002067
:1009EC00104907E0104B01201969224600F014FC55
:1009FC0000202946224600F00FFC012000F084FC68
:100A0C000A4801F0F4FB0028FAD1094801F0EFFB89
:100A1C000028FAD10748802101F0D6FC0028F9D132
:100A2C0070BD00BF3A000020A40100205800024015
:100A3C00440002400038004003460A460020194694
:100A4C00FFF7BEBF38B504460D4600F003FD00208D
:100A5C0021460422FFF7B4FF0020211D2A1FFFF7B7
:100A6C00AFFF034B02229A6000F05EFC002038BD01
:100A7C00A4010020F8B501F00106044686F001003F
:100A8C000D18012300262370C5F307221B4BE670BB
:100A9C0026716270A57005319D68081886B215B96B
:100AAC009A68012AFCD19968144D012907D1204676
:100ABC003146FFF7C7FFA8680228FCD11CE0AF68DD
:100ACC00022FFCD10E48802101F07EFC0028F9D1C8
:100ADC000C4DE86980472F460028F9D0074D0323B9
:100AEC00AB60EC60AE8000F0B5FCFA699047002872
:100AFC00FBD0A9680229FCD10020F8BDA40100207C
:100B0C0000380040240A002070B5184E35696B7906
:100B1C00022B08D0042B25D1287A441E14F0010F87
:100B2C0018BF044614E0681D032100F049FDB0F520
:100B3C00806F044608DB05F10A004FF4806107243E
:100B4C00FFF738FFB4600EE0C30701D4441C00E08B
:100B5C0024B105F10A00A1B2FFF72CFF03490822CA
:100B6C008A6000E00024204670BD00BFA401002074
:100B7C00024B012019690A22FFF7DCBEA4010020F8
:100B8C0008B5FFF7C1FF18B9BDE80840FFF7C4BEB0
:100B9C0008BD000070B5364C4FF40030266901F0EA
:100BAC0029FB05464FF4005001F024FBA368062BEB
:100BBC000BD1002D5BD0002859D04FF4083001F038
:100BCC0027FBBDE87040FFF7DBBFA16807291BD1ED
:100BDC0000284CD04FF4083001F01AFB0321701D93
:100BEC0000F0EEFCA0F58064A1B2214CCA0758BFFE
:100BFC00A0F2FF31206958BF89B200F20A40FFF71A
:100C0C00D9FE0823A36070BDA268082A09D1002868
:100C1C002DD04FF4083001F0FBFABDE87040FFF71F
:100C2C007BBEA068052811D1002D20D01148802151
:100C3C0001F0CAFB0028F9D14FF4083001F0E8FAB2
:100C4C0000F072FB0A4A0221916070BDA368042B6C
:100C5C000DD165B1A088E2680521A0F58063A16083
:100C6C0002F5806099B2BDE87040FFF7E5BE70BD3B
:100C7C00A40100200038004008B5174BD869804704
:100C8C00002827D1154B9A6812B90120986008BD2D
:100C9C009968022907D106229A6000F0DBFBBDE8B7
:100CAC000840FFF765BF9A68032A13D19A88B2F5FA
:100CBC00806F06D805219960D968BDE80840FFF718
:100CCC0039BE04209860D8684FF48061BDE80840B4
:100CDC00FFF7B2BE08BD00BF240A0020A40100200B
:100CEC00054A064B918888B21887D18888B29887B4
:100CFC00528891B299867047A0000020002C0140C8
:100D0C004FF4A06001F08AB9024B18601A68002AEF
:100D1C00FCD17047CC090020082812D8012907D132
:100D2C000A4B0B4A53F8201032F8100008610AE005
:100D3C0049B9064B064A53F8201032F810004861A6
:100D4C0001E0FF2300E0002358B270474000002070
:100D5C00D858000837B50E4D044605EB80031869CA
:100D6C00012101F0E5FA35F814000A4B1021ADF819
:100D7C0004008DF80710032253F8240001A98DF804
:100D8C00062001F04FFA20460021FFF7C5FF3EBDBB
:100D9C00D85800084000002070B5012188B04FF4ED
:100DAC00006001F0C5FA314B42F210701C686326EA
:100DBC00B4FBF0F14A1E2E4C01A895B2FFF712FDC0
:100DCC0001A8FFF70FFD01A9ADF80450204600253E
:100DDC00ADF80860ADF80A50ADF80650FFF7BAFB55
:100DEC0004A8FFF708FD022060230126ADF81800C7
:100DFC0004A92046ADF81030ADF81260ADF81650CD
:100E0C00ADF81C50FFF7F0FB20462946FFF72CFDF0
:100E1C00204604A9FFF72CFC20462946FFF72CFDA1
:100E2C00204604A9FFF768FC20462946FFF72EFD53
:100E3C00204604A9ADF81050ADF81260ADF816506C
:100E4C00ADF81850FFF79AFC20462946FFF726FD0F
:100E5C0020463146FFF7FCFC20463146FFF7D5FC17
:100E6C0020463146FFF7DDFC08B070BD8400002041
:100E7C00002C0140104930B58C8DC0F30743A2B251
:100E8C00551C5D43FF22B5FBF2F40C4BA5B29D80C3
:100E9C008C8DC0F30725A4B201346C43B4FBF2F47F
:100EAC00A4B2DC80898DC0B289B201314843B0FB59
:100EBC00F2F291B2598030BD002C0140A00000200C
:100ECC0037B50F4D044605EB8003186B012105EB7C
:100EDC00440501F02DFAB5F84000ADF804000CB94A
:100EEC00102100E01821074B8DF8071003EB840448
:100EFC000322206A01A98DF8062001F093F93EBD6A
:100F0C00D85800084000002018B1E72807D1FFF797
:100F1C00E7BE034B4FF40052186A026170477047EA
:100F2C004000002038B1E7280BD1064B00221A876D
:100F3C009A879A8605E004484FF40053016A4B6186
:100F4C0070477047002C01404000002098B1E72802
:100F5C0018D10D4B0D4A198F9088414088B21887D3
:100F6C00998FD088414088B29887998E52884A4090
:100F7C0090B2988606E0064B196ACA6882F4005053
:100F8C00C8607047704700BF002C0140A0000020D3
:100F9C004000002073B5104C0E4604EB400494F84E
:100FAC004C10054694F8480001F096F9B4F85040FE
:100FBC002046FFF7B3FA09480023451995F830107D
:100FCC00684600948DF804308DF805108DF8066095
:100FDC00FFF768FA7CBD00BFD8580008400000201D
:100FEC00F7B5224E8700F3190546586D0C4640F0B4
:100FFC000100012101F09CF91D4B06EB45065A1925
:10100C0092F83210B6F85C0002AADF198DF80310C2
:10101C0022F8080D6946786B01F004F9012C23D1F4
:10102C001021002213481B27FFF709FC00238DF821
:10103C00047001A802278DF806308DF805708DF824
:10104C00074000F0F5FFB6F8601001A88DF8041009
:10105C008DF805708DF806408DF8074000F0E8FF1C
:10106C0028462146FFF796FFFEBD00BFD858000862
:10107C0040000020002C014010B501214FF0C05061
:10108C0001F062F9012001F041F9FFF739FE01206E
:10109C00014601F04DF90024E0B20134FFF75AFE8D
:1010AC00082CF9D1FFF778FE0020FFF709FF01208B
:1010BC00FFF706FF0220FFF703FF0320FFF700FFF7
:1010CC0000200121FFF78CFF154B4FF47A701A6842
:1010DC00144BB2FBF0F14A1E1349F0205A6081F810
:1010EC002300002207209A601860CB68C3F302200B
:1010FC00011D0629C0F1070388BFC21E042B28BF9F
:10110C000423012000FA03F14B1E03F0030000FA44
:10111C0002F2054B1101C8B283F8230010BD00BFC9
:10112C008400002010E000E000ED00E0054A064BD2
:10113C0002EB800103EB4002486BB2F85C1001F04B
:10114C00C1B800BF40000020D8580008024B03EB88
:10115C004000018988B27047A0000020024B002299
:10116C0003EB400002817047A000002030B508203E
:10117C0087B0012101F0DCF8254C4FF480400121AF
:10118C0001F0E2F818204FF4005301258DF803000C
:10119C0069462046ADF800308DF8025001F042F857
:1011AC004FF400412046ADF80010694601F03AF8C2
:1011BC004FF48042042320466946ADF800208DF898
:1011CC00033001F02FF80020ADF804004FF48271C9
:1011DC00ADF80800ADF80A00ADF81200A4F55444BF
:1011EC0007204FF400722023ADF80610ADF8140060
:1011FC0001A92046ADF80E20ADF81030ADF80C501A
:10120C0001F0AEF82188034B8AB21A8007B030BDCA
:10121C00000C0140DC09002070B5044601208CB0A4
:10122C000E460146154601F077F8124B002080223D
:10123C004FF44051012C01930296059006920790B1
:10124C00089009900A910B9006D103900A480495D6
:10125C0000F022FF084807E04CB91023074803931D
:10126C00049500F019FF054801A900F08DFF0CB0A2
:10127C0070BD00BF0C3800404400024058000240D2
:10128C0073B50F230124002501A88DF804308DF8C7
:10129C0005508DF80650174E8DF8074000F0C8FE2B
:1012AC00FFF764FF20462A461349FFF7B5FF28468F
:1012BC002A461249124DFFF7AFFF30460221224653
:1012CC0000F08DFF28462146224601F074F8224694
:1012DC002846022101F06FF82846214601F05FF8FC
:1012EC002146084800F070FF3046214600F06CFFA4
:1012FC007CBD00BF58000240B8050020B80100209A
:10130C00003800404400024010B504462146044811
:10131C0000F05AFF03482146BDE8104000F054BFCE
:10132C00440002405800024002484FF4805100F043
:10133C00CFBF00BF000C014008B54FF4006102485C
:10134C0000F0C0FF08BD00BF000C014030B5092003
:10135C0085B0012100F0ECFF4FF40064482369468E
:10136C0014488DF80330ADF8004000F05BFF0B2102
:10137C00012000F0B1FF2046FFF7D0F80C200294BA
:10138C00002501248DF80D0002A88DF80C508DF865
:10139C000E40FFF787F8282101A88DF804108DF86E
:1013AC0005508DF806408DF8074000F041FE05B061
:1013BC0030BD00BF000C01401FB52823002401A83C
:1013CC008DF804308DF8074000F032FE4FF40060C9
:1013DC00029002A88DF80E40FFF764F81FBD0000C4
:1013EC0020B105484FF4807100F072BF02484FF4F1
:1013FC00807100F06FBF00BF000C014013B50820D6
:10140C0001210F4C00F094FF032010214FF4805366
:10141C008DF806008DF80710204601A9ADF80430B0
:10142C0000F000FFFFF780FF4FF48072204601A907
:10143C00ADF8042000F0F6FE0020FFF7D1FF1CBD34
:10144C00000C014002484FF4007100F041BF00BF96
:10145C00000C014010B50B4C238823F04000010414
:10146C000A0C2280FFF7EEFF074B188881B2074861
:10147C0041F040024FF480512280BDE8104000F052
:10148C0029BF00BF00380040DC090020000C0140DF
:10149C00002303601846704700230360184670470A
:1014AC0000230360184670473A4B82B01A6842F02A
:1014BC00010018605968384A0A405A60186820F0D0
:1014CC00847121F480321A60186820F4802119602C
:1014DC005A684FF41F0122F4FE00002258609960F4
:1014EC0000920192186840F480311960294B1A68F7
:1014FC0002F40030019000994A1C0092019818B92E
:10150C000099B1F5A06FF1D11B6813F4003218BF2C
:10151C00012201920198012805D0204B4FF0006266
:10152C009A6002B070471E490B6843F010020A60C3
:10153C00086820F003030B600A68A1F5805342F0A1
:10154C0002000860596859605A685A60586840F43B
:10155C00806159605A6822F47C105860596841F4D3
:10156C00E8125A60186840F0807119601868094ACE
:10157C008101FBD5536823F003015160506840F0A2
:10158C0002035360034A516801F00C000828F9D19A
:10159C00C3E700BF001002400000FFF800ED00E0C0
:1015AC000020024001700B0A0A0C090E4370827075
:1015BC00C170043070470170090A417002307047E5
:1015CC0043185A78405C00EB022188B2704710B582
:1015DC0043189A78DC78415C120402EB0462587868
:1015EC00521802EB002010BD73B544790023022C75
:1015FC0001930FD0032C19D0012C2BD1164D286937
:10160C002E4620B1296901A888470246B8B9B168AD
:10161C0001201BE0104DE8682E4620B1E96801A8B6
:10162C008847024658B9B16802200FE00A4D6A6932
:10163C002E464AB16B6901A89847024620B1A968A9
:10164C002046BDF8043003E0B168032000221346A5
:10165C0000F021FB7CBD00BF240A0020072810B538
:10166C000CD801290AD8012404FA00F401FA00F07C
:10167C00034B1A6822EA040202431A6010BD00BF31
:10168C0098000020F0B5012187B00546FFF798FFC0
:10169C0000F48043044698B250B3B4F5824F27D17E
:1016AC0028460521FFF78CFF0026074607353446F0
:1016BC00BE4208D028460221FFF782FF01362418CB
:1016CC000435B6B2F4E76A4B188E21188AB21A8622
:1016DC00D86B2418DC63D96B9A6B914240F0C280B2
:1016EC0093F84000002800F0BD809B69992092E09F
:1016FC0024F4FF4121F07F0293B2002B00F08F8085
:10170C0048F210039C421ED00AD8B4F5004F40F2A8
:10171C00AB8048F20200844278D9811C8C420FE0E5
:10172C0048F28002944271D005D848F240039C42A2
:10173C0040F09A8047E0B4F5024F67D0B4F5084FFB
:10174C0040F0928062E00022A81841790DF8021056
:10175C000132042AF8D16B7AA87AE97A2A7B8DF8BF
:10176C0004308DF805008DF806108DF8072005F172
:10177C000D00002306A9CA18C15C0133042B02F822
:10178C00101CF7D105F11100002306AAD218C15C78
:10179C000133042B02F80C1CF7D105F115000023C2
:1017AC0000AAD218C15C0133042B1174F8D1304952
:1017BC0028798A698DF81400002A53D08B69204649
:1017CC006946152229E0053500212846FFF7FFFE62
:1017DC00042100902846FFF7FAFE082101902846C4
:1017EC00FFF7F5FE0C2102902846FFF7F0FE1021C2
:1017FC0003902846FFF7EBFE04901D4881690029F1
:10180C0030D0836969462046142206E0184B9A6949
:10181C0042B39B69204600210A46984722E041F2D8
:10182C000300844205D00C30844202D0411E8C420D
:10183C001AD16C1D04212046FFF7C9FE393013D193
:10184C002D790B4A00212046D562FFF7C0FE0421FA
:10185C0005462046FFF7BBFE393003D1284601214F
:10186C00FFF7FCFE012000E0002007B0F0BD00BF38
:10187C00240A002038B50A4C638898B208B90020B5
:10188C0038BD606801780429F9D1FFF7FBFE012807
:10189C000546F4D100226280FFF73CF8284638BD9B
:1018AC00240A00202DE9F04704468846914600257D
:1018BC00BC4B5A8890B20028FAD05E683178042963
:1018CC0040F0728130460121FFF77AFE0546304622
:1018DC00FFF7D8FE002840F05C8141F20703771D2A
:1018EC009D4253D85A1E954280F0AC8040F20220A3
:1018FC00854200F0A78014D80C2D09D8082D80F053
:10190C00A180002D00F04581062D40F29B80DDE08A
:10191C000D2D00F0948040F20127BD4240F039813A
:10192C008DE041F20202954218D8B5F5805F00F2C5
:10193C008980B5F5017F40F2828040F207218D420B
:10194C0040F027813379002104F8013B3846FFF73A
:10195C003EFE01462046FFF725FE1AE141F2040047
:10196C00854200F0898040F2A08038460021FFF7C4
:10197C002EFE042120603846FFF729FE60600834F3
:10198C0006F10D07224606F11D016EE041F2110031
:10199C00854254D02CD841F20B02954252D01CD81F
:1019AC0041F209018D424DD000F28B800021384666
:1019BC00FFF70DFE042120603846FFF708FE0821D2
:1019CC0060603846FFF703FE0C21A0603846FFF735
:1019DC00FEFD04F10C0AE060DAE041F20F008542F2
:1019EC0063D035D841F20D02954240F0D28043E0ED
:1019FC0042F206018D4222D008D8B5F5005F40F2C4
:101A0C00C88042F204039D4219D983E042F20803D4
:101A1C009D42C0F0BE80581C854210D944F20B0286
:101A2C00954240F0B6807179DFF878A13846AAF873
:101A3C0030100121FFF7C4FDAAF83200A9E0377974
:101A4C002770A6E038460021FFF7C1FD2060A0E01A
:101A5C0000213846FFF7BBFDA2464AF8040B0421CF
:101A6C003846FFF7B4FD606092E057F8043B8F42B4
:101A7C0042F8043BF9D18CE000213846FFF7A7FD72
:101A8C00042120603846FFF7A2FD0821606038462B
:101A9C00FFF79DFD04F1080AA060E46814F1390316
:101AAC0076D10121FFF7DAFD72E000213846FFF70D
:101ABC008EFD042120603846FFF789FD60600834F4
:101ACC0067E0337923713F68276062E03846002174
:101ADC00FFF77DFD042120603846FFF778FD0821D3
:101AEC0060603846FFF76CFD0A21A0603846FFF7AE
:101AFC0067FDC4F80A000C3406F11107224606F102
:101B0C00350157F8043B8F4242F8043BF9D1388831
:101B1C0010803EE00022B7187879A0540132042AD4
:101B2C00F9D106F109070023F95CE0180133042B05
:101B3C000171F9D106F10D070020395C2218013032
:101B4C0004281172F9D106F111070023F95CE2188F
:101B5C000133042B1173F9D106F115000022875CB7
:101B6C00A1180132042A0F74F9D106F119000023CF
:101B7C00C75CE1180133062B0F75F9D106F11F0074
:101B8C000021475C6218013120299776F9D100E0D9
:101B9C005446044B188882B2954225D100211980F5
:101BAC0022E000BF240A002030460321B778FFF75B
:101BBC0007FD8246B8F1000F0CD00421701DFFF711
:101BCC0006FD0346C9F8000006F115014046DAB2DD
:101BDC0000F000FC7A1DB1182046C7EB0A0200F099
:101BEC00F9FB0F490020C8860D4F00237B80FEF7C0
:101BFC0091FE3078042805D1B5F5805F02D13046CE
:101C0C00FFF7F2FC3A8891B200297FF451AE044BF5
:101C1C00D88E80B200287FF44BAEBDE8F08700BFB1
:101C2C00240A0020034B1880084600210A46FFF7BF
:101C3C0039BE00BF240A002010B5034B0124DC86FA
:101C4C00BDE81040FFF72EBE240A002038B503462D
:101C5C00154601224A710C46881D1946FFF7ABFC4C
:101C6C00291D05702046FEF705FF002038BD38B54C
:101C7C009B180C469DB202216171A071E27129463C
:101C8C0004F10800FFF797FC6A1D204691B2BDE8ED
:101C9C003840FEF7EFBE2DE9F0471D4605F1020A6C
:101CAC00032301F107091FFA8AFA88714B710C465C
:101CBC00484651461746FFF77EFCB5F57A7F8046BD
:101CCC0013D82946FFF777FC29464046FFF773FCEB
:101CDC00394604F10B002A4600F07CFBA91D204676
:101CEC0089B2BDE8F047FEF7C5BE4FF47A76B5FB76
:101CFC00F6F10AEB410291B2FFF75DFC314640462A
:101D0C00FFF759FC394604F10B00324600F062FB38
:101D1C00A5F57A75204640F2EE31ADB2BF19FEF74B
:101D2C00A9FEB5F57A7F05D9A5F57A7085B24FF481
:101D3C007A7601E02E460025A046394628F8056F34
:101D4C004846324600F046FBB31C404699B2BF19D8
:101D5C00FEF790FE002DE4D1BDE8F0872DE9F341AC
:101D6C00864614480D46866871461F4602ACFF2312
:101D7C0006F1090004F8013D9046FFF713FC2946D3
:101D8C00FFF710FC40F201254146FFF70BFC0C223B
:101D9C0031462846FFF75AFF28462146FFF742FFF7
:101DAC00002138460A46FFF747FF9DF80700BDE8BB
:101DBC00FC8100BF240A00202DE9F3418646164819
:101DCC000C4686687146984602AD4FF0FF3306F11B
:101DDC000A0045F8043D1746FFF7E4FB0C21FFF71A
:101DEC00E1FB2146FFF7DEFB3946FFF7DBFB414603
:101DFC00224606F11A0000F0EDFA9020314610222E
:101E0C00A3B2FFF734FF40F202202946FFF70AFF86
:101E1C000198BDE8FC8100BF240A002008B50346E8
:101E2C00062001460022FFF7C7FFC0B208BD08B567
:101E3C000346062001460022FFF790FFC0B208BD02
:101E4C00F8B506460D4617460C467B192A1BB4F509
:101E5C00007FC4EB030392B20AD330464FF40071F7
:101E6C00FFF7AAFFC0B2A4F500740028EDD007E07C
:101E7C002CB130462146FFF79FFFC0B2F8BD20467B
:101E8C00F8BD0000024B01225A805860FFF7F2BCEB
:101E9C00240A002010B5084CE16022616361029BAA
:101EAC000399E361049A059B21626262A362A061BB
:101EBC00012084F8400010BD240A002070B5214C8C
:101ECC00054621480023A363E363238023866386AE
:101EDC00A386E386E36263806360A0601B48FEF721
:101EEC00F7FCE1698847A26A06460120904706B3D1
:101EFC00E16988470028FBD1124C0035A16818BF56
:101F0C0001254D7201224FF48040FFF79FFE002106
:101F1C004FF48040FFF786FEA168002244F20B00CC
:101F2C00FFF794FE44F20B000021BDE87040FFF770
:101F3C0079BEE36998470028FBD0E0698047002808
:101F4C00FBD1D9E7240A0020B8010020911E00081B
:101F5C0038B5094C0020A36A98472546E869064C19
:101F6C0080470028FAD0A16809B10022A260BDE820
:101F7C003840FEF7C1BC00BF240A002037B548F238
:101F8C00080248F2080102408A42034613490BD169
:101F9C000020934281F840001FD023F4004424F029
:101FAC00080545F4004302E0012081F840000B498C
:101FBC004FF0FF328D6802AC194605F1090044F868
:101FCC00042DFFF7EFFA294604220820FFF73EFE06
:101FDC0008202146FFF726FE01983EBD240A00206A
:101FEC0007B50D4A4FF0FF330193916890B154231C
:101FFC004370037083704B7242788A72807803222C
:10200C00C8720C20FFF722FE0C2001A9FFF70AFE74
:10201C00019800E018460EBD240A002040F0BF6075
:10202C00024B40F40031D960704700BF00ED00E076
:10203C00C37810B503B3164CE168CB43C3F3022449
:10204C004178C4F1040201FA02F10F2222FA04F2DF
:10205C008478037822400A43110103F16043CAB229
:10206C0003F5614181F800230078012200F01F0381
:10207C00410902FA03F007E00078012200F01F0387
:10208C00410902FA03F02031024B43F8210010BD44
:10209C0000ED00E000E100E002684FF6FE73134033
:1020AC0003602D4B00219842016041608160C1604A
:1020BC0022D02A49884229D0294B984230D029492C
:1020CC00884237D0284B98423ED0284B984206D1B4
:1020DC0053F8681C41F4700043F8680C70472449AD
:1020EC00884206D151F87C0C40F0706241F87C2C8F
:1020FC007047204B984206D153F8042C42F00F0144
:10210C0043F8041C70471C49884206D151F8183C0E
:10211C0043F0F00041F8180C7047184B984206D168
:10212C0053F82C2C42F4706143F82C1C7047144962
:10213C00884206D151F8403C43F4704041F8400CC1
:10214C007047104B984205D153F8542C42F470212F
:10215C0043F8541C704700BF080002401C000240AA
:10216C003000024044000240580002406C00024023
:10217C0080000240080402401C040240300402406B
:10218C00440402405804024070B506688C680D6A1D
:10219C0026F4FF4222F070060A6945EA04034C69F2
:1021AC0013438A692343CC6913431C434B6A44EAA7
:1021BC0003028B6A1A4332430260CB680A6849688F
:1021CC0043608260C16070BD19B1016841F00103C8
:1021DC0003E002684FF6FE73134003607047036818
:1021EC000AB1194301E023EA01010160704740681C
:1021FC0080B27047C3004CBF034B044B19680142BB
:10220C000CBF002001207047000402400000024077
:10221C00C2004CBF014B024B586070470004024097
:10222C0000000240CB78F0B5DA0648BF8A780988FE
:10223C0003F00F0548BF154311F0FF0F1ED00468C3
:10224C000022012707FA02F707EA0106BE4211D164
:10225C0097004FF00F0C0CFA07FC05FA07F724EA6D
:10226C000C04282B44EA070401D1466102E0482BF8
:10227C0008BF06610132082AE3D10460FF2920D986
:10228C004468002202F10806012707FA06F707EA5C
:10229C000106BE4211D197004FF00F0C0CFA07FC4F
:1022AC0005FA07F724EA0C04282B44EA070401D1A9
:1022BC00466102E0482B08BF06610132082AE1D1D1
:1022CC004460F0BD836819420CBF002001207047A8
:1022DC00016170474161704701F0030230B5920013
:1022EC000F2404FA02F400FA02F0074B89080231B9
:1022FC0053F8215025EA040443F8214053F82140B7
:10230C00044343F8214030BD00000140014B1860EC
:10231C00704700BF20000E42044B5A6909B11043AC
:10232C0001E022EA00005861704700BF0010024033
:10233C00044B9A6909B1104301E022EA000098614C
:10234C00704700BF00100240044BDA6909B110431A
:10235C0001E022EA0000D861704700BF0010024083
:10236C000B8810B54C88028823438C8802F44152A8
:10237C002343CC8823430C8923434C8923438C89E6
:10238C002343CC89098A23431A4393B20380828B5B
:10239C0022F400631A04130C8383018210BD03889A
:1023AC0019B199B241F0400303E023F040010A0453
:1023BC00130C0380704783889BB20AB1194301E068
:1023CC0023EA010181807047038919420CBF002068
:1023DC00012070470F2A2DE9F00340F2A18041EA59
:1023EC0000039B0740F09E800C68A2F1100504606E
:1023FC004B68AC4643608C68BCF10F0F8460CC68B2
:10240C00C5F30015C46000F1100301F110042BD9C1
:10241C0075B12568ACF1100C1D6065685D60A56830
:10242C009D60E5681034DD601033BCF10F0F1BD9D3
:10243C00276804F110061F60676803F110055F60E0
:10244C00A768ACF1200C9F60E768DF6024691C6111
:10245C00776806F110046F60B7682033AF60F668D8
:10246C00BCF10F0FEE60E3D8A2F1100828F00F03B7
:10247C0002F00F0403F1100C032C00EB0C0301EB26
:10248C000C0851D9211F4FEA9109444608EB890CDD
:10249C0054F8046BC8EB0C010CF1040C1D4664459C
:1024AC0045F8046BC1F3800112D029B154F8041B18
:1024BC00644545F8041B0BD0274657F8041B2E46E1
:1024CC0046F8041B64686C603C1D351D6445F3D1F3
:1024DC0009F1010C4FEA8C0902F0030208EB090127
:1024EC004B44D2B10D789A18DC4303F8015B1419F4
:1024FC00934204F0010410D02CB111F8014F03F8F1
:10250C00014B934209D04D781C4604F8015B8D7841
:10251C0002315D70631C9342F5D1BDE8F003704746
:10252C000346DEE70346DDE741462246D9E700BF16
:10253C00F0B48407034600F08D80541E002A00F08E
:10254C008780E507CEB211D41A4602F8016B134608
:10255C001546920710D0621E002C79D003F8016B3F
:10256C0014469A071D4607D0013CEDE7034603F8D5
:10257C00016B9A071D46F7D1032C52D9CEB246EA0D
:10258C0006270F2C47EA07432DD9A4F11002174652
:10259C000F2FC2F300162B606B60AB60EB6005F184
:1025AC00100216D93EB1103F136053609360D36094
:1025BC0010320F2F0DD9203F02F11006136053601B
:1025CC009360D360136153619361D36120320F2FF9
:1025DC00F1D8A4F1100222F00F0204F00F04103213
:1025EC00032C15441DD9271F3E462A46032E42F8BC
:1025FC00043BC7F380070DD927B1043E032E42F8E4
:10260C00043B07D9174647F8043B083E53603A1D74
:10261C00032EF7D8231F23F00302131D04F0030429
:10262C00ED18ACB1C9B2EA432C1905F8011BA3187B
:10263C00A54203F001020BD01AB105F8011BA5420B
:10264C0006D02B4603F8011B69705D1CA542F8D11E
:10265C00F0BC7047054614468EE700BF030001012D
:10266C00141400272727272727272727272727273B
:10267C00272325252525252525252523232323002B
:10268C00000000000000000000000000000000003E
:10269C00000000005050505050505050505050506E
:1026AC00505050505050505050505050505050501E
:1026BC00505050505050500177801D1F2226282911
:1026CC001A1F22242628161D1E2024251E2D010229
:1026DC00020202001515151115150E00000100005F
:1026EC00E01F00005C041800E46208009600000083
:1026FC0000000000000000000000000000000000CE
:10270C0000000000000000000000000000000000BD
:10271C0000000000000000000000000000000000AD
:10272C00000000000000000000000000000000009D
:10273C00000000000000000000000000000000008D
:10274C00000000000000000000000000000000007D
:10275C00000000000000000000000000000000006D
:10276C00000000000000000000000000000000005D
:10277C00000000000000000000000000000000004D
:10278C00000000000000FFFF7A63080096000000C4
:10279C00000000000000000000000000000000002D
:1027AC00000000000000000000000000000000001D
:1027BC00000000000000000000000000000000000D
:1027CC0000000000000000000000000000000000FD
:1027DC0000000000000000000000000000000000ED
:1027EC0000000000000000000000000000000000DD
:1027FC0000000000000000000000000000000000CD
:10280C0000000000000000000000000000000000BC
:10281C0000000000000000000000000000000000AC
:10282C00000000000000FFFF10640800960000008C
:10283C00000000000000000000000000000000008C
:10284C000000000007200C4908600C481930F746BE
:10285C0030B5051CAC6968685F3009D1606B0C3809
:10286C0001218E460649FE44084700206063AC698E
:10287C006C6004485B3030BD403B080049D001001F
:10288C0009EA020091E100000000000000000000D5
:10289C00000000000000000000000000000000002C
:1028AC00000000000000000000000000000000001C
:1028BC00000000000000000000000000000000000C
:1028CC00000000000000FFFFA66408009600000056
:1028DC0000000000000000000000000000000000EC
:1028EC0000000000000000000000000000000000DC
:1028FC0000000000000000000000000000000000CC
:10290C0000000000000000000000000000000000BB
:10291C0000000000000000000000000000000000AB
:10292C00000000000000000000000000000000009B
:10293C00000000000000000000000000000000008B
:10294C00000000000000000000000000000000007B
:10295C00000000000000000000000000000000006B
:10296C00000000000000FFFF3C650800960000001E
:10297C00000000000000000000000000000000004B
:10298C00000000000000000000000000000000003B
:10299C00000000000000000000000000000000002B
:1029AC0000000000F0B585B0051CA88800902889AF
:1029BC000190E9680291287C03902A6A002017563E
:1029CC00686000294CD0002F4ADCCA490C1C082630
:1029DC0004902188009881420CD16288019882422F
:1029EC0008D14620025D0398824203D10E20005785
:1029FC00B8420AD04620005D112822D100988142AD
:102A0C001FD10E200057FFFFD26508009600000072
:102A1C00B8421BD10420021C0298B94901239E46DE
:102A2C00EB4BFE441847002817D0201D02990422B6
:102A3C0001239E46E64BFE44184700280DD0462045
:102A4C00005D112809D0A06D002806D0AC34049884
:102A5C0001300490013EC1D107E004980006000E3D
:102A6C00AC214143A64840186860A648AD3005B07B
:102A7C00F0BD00B5C2689069022101239E46A24BAD
:102A8C00FE441847A248613000BD01790B2903D0E0
:102A9C0089009F4A515A01E00121490241609D4839
:102AAC000D30F746011CFFFF686608009600000019
:102ABC009C4802689C48012A01D12530F7469B4A64
:102ACC0012684A601930F7460021416099489849CC
:102ADC000818F746002141609748E6490818F74660
:102AEC00FFB546694068019094490A7C9A4F012AC7
:102AFC0063D0097C032960D0914A924B002102914A
:102B0C0059562423594353180393012817D18A1873
:102B1C0004236C468C4915790878C04328432070EF
:102B2C00013201310134013BF5D1311D68460422DB
:102B3C0001239E46A84BFE441847002840D0351D63
:102B4C0082480078FF28FFFFFE6608009600000010
:102B5C0011D000280FD00398011D281C0124A64673
:102B6C007E4AFE441047002805D17A48A6467B4988
:102B7C00FE44084705E0281C01218E467849FE4496
:102B8C0008470199012901D100281ED101995F3113
:102B9C0001D000280FD1A820815D002908D0491E42
:102BAC008155805D002809D1381CFF30083011E0B8
:102BBC000321029100E0A82002998155381CFF30B6
:102BCC00163007E00198012802D1381CA33001E02F
:102BDC00381C9F300090FFBD00B5021C106AD169F3
:102BEC005269C3695A60FFFF9467080096000000A1
:102BFC00012296465E4AFE4410475E48FF306E3016
:102C0C0000BD10B50A1C4169006A9369DB69586004
:102C1C0090690124A646564AFE441047A6465648DB
:102C2C00FE4400475548FF30B63010BD70B5051C4A
:102C3C006E69534802685C21885D042815D1072011
:102C4C008855100B11D20124A6464E48FE4400476D
:102C5C0000280AD047218957C1601121C9020022DE
:102C6C000423A646484CFE44204701206860434894
:102C7C004649081870BD70B5051CAE699C208019BA
:102C8C004B2189000124FFFF2A68080096000000F0
:102C9C00A646414AFE4410475C21885D072801D1B5
:102CAC00092000E00520AA698854301CA6463B493F
:102CBC00FE4408476860E9484D3070BDF0B5416886
:102CCC00826888235E1837880B6F002B01D1002F88
:102CDC0010D1062F02DD0021C94307E033889B0089
:102CEC00C9180A6731880131318001218160EA48B5
:102CFC001D30F0BD0B1C01245D6F1D6704330134C6
:102D0C00062CE1DAF8E700B50021C160EB48016858
:102D1C001031E848202201239E46E94BFE44184717
:102D2C00E748FB3000BDFFFFC068080096000000BC
:102D3C00140D1B0054191B00911A01004BAD03001C
:102D4C00614E0100063208001F0B0200543F0800C0
:102D5C0045C10000843C08001B020000ED17000078
:102D6C00F3C1010034191B0008191B00A64408000C
:102D7C001C171B0018171B00CB6703000D47020024
:102D8C0039420300BDE70200B1400300B9EA01007B
:102D9C0045DA00002441080071C002007BC002002B
:102DAC009F0300007DB80300C9210100F0B588B075
:102DBC00069107908669F01CE4A104220124A64622
:102DCC000F4BFE441847FFFF5669080096000000A1
:102DDC00002840D1F379E2481A1C0370307A009035
:102DEC00707A019003202F49F031A646E24DFE4443
:102DFC002847F279357A777A781B431C93421ED098
:102E0C00162A0FDB002D0DD101E08FC60300DA4826
:102E1C0004700A208119D3481A1CA646AE4BFE44F6
:102E2C00184782E0D6480470CF4840190A21891906
:102E3C007A1B521CA646A74BFE44184775E0CE4899
:102E4C000470CE4804700A208119C648A646A14BCE
:102E5C00FE44184769E0F01C0327C0A13A1CA646A3
:102E6C00CB4BFE441847FFFFEC69080096000000AE
:102E7C0000285FD1FFE7F179BE480170BE4DB279F1
:102E8C002A70381C0A49F431A646BC4BFE4418473C
:102E9C00287800280ED1BD480470BD480470381C39
:102EAC000349F531A646BB4AFE44104702E0C04632
:102EBC00C7040000307A0090707A0190AD48027817
:102ECC00F379381CB549F631A646AD4DFE4428477A
:102EDC00231CF279377A707AC11B4D1C95421ED097
:102EEC00A449097816290CDB002F0AD1A7480370D6
:102EFC000A208119E6482A1CA646794BFE4418473D
:102F0C0018E0A3490B70FFFF826A080096000000CE
:102F1C00E249CB190A218919C01B421C181CA64670
:102F2C00724BFE4418470AE09B4803709B480370A1
:102F3C000A208119D948A6466C4BFE441847934881
:102F4C00007800280AD092480078002806D09148D2
:102F5C000078002802D090480078002800D18CE03E
:102F6C00032017218901A6468D4AFE441047834849
:102F7C00017883480778804E7F4DDE480068002832
:102F8C002ED1079841610662C448069A1064022F3C
:102F9C0001D0032F01D1032200E03A1C069BDA6317
:102FAC002A789A63012FFFFF186B08009600000027
:102FBC0003D1052904D00D2902D0EA48DB3064E0A6
:102FCC000025009501910296039504902B1C201C62
:102FDC00011C8E46E44EFE443047E4480460281C35
:102FEC00A646E349FE4408474CE00D270020391C57
:102FFC0005AAA646E04BFE4418476846808A40085E
:10300C0005D2381C5021A646DA4AFE441047381C1B
:10301C00231C291C00229E46ED4FFE4438472B787A
:10302C000D20311C221C9646E94EFE443047287870
:10303C000130021C0D205449231C9E46E44EFE44D4
:10304C003047524E2878FFFFAE6B08009600000008
:10305C000230021C0D20311C231C9E46DF4FFE4407
:10306C003847307800280AD028780330021C4848AA
:10307C0003780D208E49A646D84DFE442847BD48FE
:10308C00211C016000208E46BC49FE440847B7480D
:10309C00EA49081808B0F0BDC04691E10000011CD7
:1030AC00E7480268E748002A04D000220A628A61D5
:1030BC001D30F746D730F746011CE2480268E2485B
:1030CC00002A02D0FF30B430F7460022CA618A6170
:1030DC004F30F746C04689170200DC4801688A6900
:1030EC000120C0031043FFFF446C08009600000051
:1030FC00886100200861D9482330F74646171B0029
:10310C00303F080041EB000009B4030070B5051C0A
:10311C00D34E296AEA69301C0124A646D44BFE44DE
:10312C0018476869A646CF49FE440847A869063087
:10313C00A860CD4800686860EE60CC486D3070BD0A
:10314C0030B5F148016D806C084318D0EF49081C6C
:10315C000722FF2309331B58002B04D0FF301D30EE
:10316C00013AF6D10BE00220F04AF14B0124A646BD
:10317C00F04DFE442847A646EF48FE440047EF4872
:10318C00FF305C3030BDFFFFDA6C080096000000A9
:10319C00C0465353494400C046C04B455900EE62EB
:1031AC000800F0620800EC620800ED620800E77E9F
:1031BC000300137F0300E8620800E9620800EA627A
:1031CC000800EB620800DD7E03008FC60300C70415
:1031DC000000F0B587B0009101906B480168CD4AB2
:1031EC00141C029407260025039504940595DD48CC
:1031FC000068084327D0E068039988420ADD0390F1
:10320C00401C00998860C349FF201D3068430C188E
:10321C00E06804910299C968884210DB884210D199
:10322C0002980127BE46FFFF706D08009600000053
:10323C00CC49FE4408470690201CBE46C949FE44B2
:10324C0008470699884201DA0595029451480168AD
:10325C00FF2709373859002806D0C5480068072EC3
:10326C0000D12E1C084304D0FF341D340135072D2A
:10327C00C2DB072E0AD1BE480068084306D0059E63
:10328C00301C01218E46B849FE440847019847611D
:10329C0000218161FF221D32724304998918C1619A
:1032AC000662B248393007B0F0BD10B5041C0020DE
:1032BC0001218E46AF49FE440847401E00D5002030
:1032CC006060E061AC48FFFF066E080096000000ED
:1032DC00213010BDC0461063080070B5041CE569B0
:1032EC006669002001218E46A549FE4408476060AE
:1032FC00AB19A44AA349934202D39A1A824202D927
:10330C00081C993070BD081CAB3070BD086B417D3A
:10331C0002889200511A3C39FF225F32914203D944
:10332C006521018002218173994897490818F74655
:10333C00C04630630800F8B54068242141439548E5
:10334C004518281D0C214919042201239E46924B35
:10335C00FE4418478F4C00281BD02B1C04226E46B1
:10336C008F491F7B0878FFFF9C6E080096000000B9
:10337C00C04338433070013301310136013AF5D185
:10338C000C2041196846042201239E46854BFE44BD
:10339C001847002802D0201C4A30F8BD201CF8BD6C
:1033AC00B1BD000015950000583F0800F3F800006F
:1033BC00E9090200DD0A0200F8B5051CAA697C497E
:1033CC0000200856242141437548431804246E46B6
:1033DC0075491F790878C043384330700133013187
:1033EC000136013CF5D1111D684604220124A64684
:1033FC006C4BFE441847011C6C4804D06D4909788D
:10340C0069604530F8BDFFFF326F08009600000080
:10341C00EC61AF30F8BD2B09020070B5C56881684E
:10342C000A896B4E002A22D00124C26DA218C265F3
:10343C0008890D281BD1686B211CA646614AFE44E5
:10344C001047221C281C0021A6465E4BFE44184740
:10345C002C60E96B281CA6465C4AFE441047281CCD
:10346C00A6465A49FE440847301C3D3070BD301CFE
:10347C00233070BDC046B1020000743F080019C66D
:10348C0000005C3F08001DC20000684408004312A5
:10349C000300346308002F7A0200B43608008FF45E
:1034AC00010009B40300FFFFC86F0800960000007C
:1034BC00F0B5051CAB69EC69606800682A300178CE
:1034CC000A06417809048A18817809028A18C17899
:1034DC008A188E26F15A090A0170F05C6168096835
:1034EC002B2670548C20C01861680E680188090A5C
:1034FC002C27B955616809682D26007870546068CE
:10350C000168323108780002497808180004000C70
:10351C008C21CB58324941400804000CC018801A49
:10352C0001218E462F49FE44084761680A68322300
:10353C00010A9954616809683322505460686860C4
:10354C002948F0BD0000FFFF5E70080096000000E7
:10355C001B0034041B00026A8B69DB691B688360E7
:10356C008869C06941688A4200DA42602248793031
:10357C00F74632040000C407000015090200C59389
:10358C0000000D910000401E80001C4B19501A4980
:10359C000A50F746C046BDB5000095920000FD9359
:1035AC000000543F0800294F0300DFE80200368971
:1035BC00410081060000B178000094EC010008196C
:1035CC001B008FC603001C171B0067660300A64474
:1035DC00080018171B00A72F0200914403009163E9
:1035EC0003005B440300FFFFF4700800960000002A
:1035FC00E7440300FFFF000061A203006A1E010004
:10360C0045DA000004F31A00807B0800FCB5041CAA
:10361C00A569606A01902069002835D4082833DA3E
:10362C00E169096810292FD1AC214143AD4A515CA5
:10363C00490827D300060016A268694601239E4656
:10364C00A94BFE441847061C39301FD0002E1DD044
:10365C000098076800990C3901980160281D102109
:10366C00791A042201239E46A04BFE4418470222DD
:10367C002A80A81C0821791A01239E469B4BFE44E4
:10368C00184703E03820FFFF8A71080096000000FD
:10369C0000E00020C643266098487C302062FCBDC8
:1036AC0070B5051C286969690E78A969902922D121
:1036BC00042E20D0052E1ED00A2E1CD0062E1AD079
:1036CC000C2E01DB102E16D10124A6468C49FE448B
:1036DC0008478B488C490022A6468B4BFE44184762
:1036EC00321C0320DD49A646DD4BFE4418478748B3
:1036FC00FF305F30286270BDF0B589B0059041692C
:10370C0002698048864E824251D0043082423CD0BD
:10371C008048824200D0E3E00D680C20081A069025
:10372C0048680818061DFFFF20720800960000006C
:10373C008868009073880320B721C9002A1C0124D3
:10374C00A646774FFE443847281C311C1022A6464B
:10375C00744BFE441847061C12D1AC216943F24845
:10376C0040184621095C112901D144210C544421F3
:10377C000A5C0320BB490B31A646BB4BFE441847E1
:10378C006648311C069AA646624BFE4418476848A8
:10379C00EC30ABE00868C00030188A68022A02D00E
:1037AC00E7208000A2E0CA688918097B416080216B
:1037BC0001603B20000199E008680690C000345875
:1037CC00102004900125FFFFB6720800960000003F
:1037DC00AE465848FE4400470790002800D189E0C7
:1037EC000C2107980F18D249AC20069A50430818A0
:1037FC004822135C5B065B0E1354069AD200B61873
:10380C007168002947D1002C01DD082C21DB002236
:10381C0069460A7001920A818A72CD720D734D73DA
:10382C000188E4480623AE46E44CFE442047041CC1
:10383C0002DC0020C04336E03460AC206043BC495D
:10384C0009185C22281C50544820425C5206520E27
:10385C004254AC206043B64908185C21095C491EEF
:10386C00022916D90339FFFF4C730800960000009B
:10387C0008D000203056AE46D349FE44084780207D
:10388C003060DBE70894802131604822135C1943D7
:10389C001154AE46CD49FE4408470AE00120CEE75C
:1038AC000698391C04AAAE46C94BFE441847041CA2
:1038BC0008900698386008987860002815D0AC20DD
:1038CC0060439E4909184888020402201043B860DE
:1038DC004868020E0102090E090211430204120E7D
:1038EC0012040A4300061043F86007980D490022A1
:1038FC001023AE46B74CFE442047124800E0162079
:10390C00B54909180598FFFFE273080096000000FE
:10391C00016209B0F0BD5D0D1B0081E7020009B426
:10392C000300271A02002F7A020002020000051081
:10393C000000CFF60000D5F4000002100000017F5B
:10394C000300911902005065080071C002002A039F
:10395C000000F0B58BB00790056947690C20381A48
:10396C000890F1498D4216D178680F300011000192
:10397C00786038680B280ED80023684603700898C6
:10398C0005220124A646E94CFE442047E948FF30B5
:10399C00953007990862E748854223D1F7480278A9
:1039AC006C4622724378FFFF787408009600000082
:1039BC0063728178A172C078E0720091019003204B
:1039CC00324901310126B646EF4EFE443047042001
:1039DC0020700898DA49002202AB0124A646D64C86
:1039EC00FE442047D548FF30953007990862E748D8
:1039FC00854200D0EBE00324201C24490231012233
:103A0C009646E34AFE441047CC48FF309530099067
:103A1C003868E14E002800D1C7E001208646DD4819
:103A2C00FE440047002800D1BBE03268201C174937
:103A3C00033101239E46164BFE441847306800287C
:103A4C003FD1D64C2E20FFFF0E75080096000000CB
:103A5C000119B86803300870387A4870D34D211CAE
:103A6C000A9430310A91B868201830302A68303AFC
:103A7C0001239E46CE4BFE44184778683818011D2A
:103A8C00BA680A9801239E46CE4BFE441847B86884
:103A9C002968081803E0AA050000E77E0300201837
:103AAC00C4490A7902704A7942708A798270C9795C
:103ABC00C17004300F21411A0A78BB689A180A7039
:103ACC00001B0004000C2860012030600220011C47
:103ADC0011220124A646B74BFE441847061C63D49A
:103AEC000320A646B549FFFFA47508009600000008
:103AFC00FE440847071C0021B94251D02B22A64690
:103B0C00B14BFE4418470C20C019AC217143154A27
:103B1C005518686300211822A646AB4BFE44184783
:103B2C00A4480268686B4260391CAC3101600068C3
:103B3C009F49A646A54BFE441847002103A8102216
:103B4C00A646A14BFE441847E021684601740021AB
:103B5C0041748174FB21C174F149C18102218181BD
:103B6C00696B01E0140D1B00CA680120C0031043EF
:103B7C00C860486800900022301C391C03ABA64674
:103B8C00E84DFE442847FFFF3A76080096000000F7
:103B9C00051C30060016A646E649FE440847381CAC
:103BAC00A646F049FE44084711E030060016A6462A
:103BBC00E049FE4408470120C54308E0051C06E027
:103BCC0000200021CD4301E00020051C30600023C3
:103BDC00684603702A06120E089873490124A646FB
:103BEC005D4CFE4420470798099901620BB0F0BD6B
:103BFC00C04650191B0029160100C1180100F11B09
:103C0C000100F31C02007BC0020091F00000FEB525
:103C1C00071C7D69BE690C20301A01900A2D19D140
:103C2C003268E1480260FFFFD07608009600000081
:103C3C000320E1490124A646F04BFE441847A64652
:103C4C00DE48FE4400470A200021019AA646EC4BB0
:103C5C00FE441847DA48F521890008183862032D0C
:103C6C007AD1D748F521890008180290706800288D
:103C7C000CD10021D3480160D3480068002861D0E2
:103C8C0001218E46D149FE4408475BE0D048B1681B
:103C9C000160F1684160316981607169C160B1692D
:103CAC00C163F1690164316AC1640124A646C94843
:103CBC00FE440047A646C848FE44004770687D2570
:103CCC00ED00A84221D8FFFF66770800960000009F
:103CDC00012818D0022805D0281CA646C249FE444B
:103CEC0008471CE0BD480023191C59433E224A4397
:103CFC00828302300133102BF6DBA646B848FE4413
:103D0C000047B9480DE0B94D281CA646B649FE44FB
:103D1C00084704E0A646B349FE4408477568B24814
:103D2C000560051CAB4E3068002806D1B148006810
:103D3C00A646B049FE440847306000942B68AE4953
:103D4C00AF4AA646AF4DFE442847A0480460032066
:103D5C000021019A01239E46AC4BFE441847029861
:103D6C003862FEBDC046FFFFFC77080096000000DD
:103D7C0003020000A3C00200A9E900000702000032
:103D8C0030B5051C00200124A646A349FE44084773
:103D9C00A646A249FE440847A646A148FE44004751
:103DAC007D21C900A646A04AFE44104787492E3102
:103DBC0008189C4908809D480A30286230BDC046CE
:103DCC00E4620800137F030011100000DD7E030085
:103DDC00B99000006C6408007464080070640800FA
:103DEC006DC6030008191B0011180200D1780200DF
:103DFC00C9BA030009B40300FEB5029045696846D0
:103E0C0001218E468A49FFFF927808009600000037
:103E1C00FE4408478A48041C686801694A780027F0
:103E2C003E1C2088400822D3201D891C01239E465D
:103E3C00844BFE441847002807D168680069407815
:103E4C0021880904891681423DD00220005F009927
:103E5C00081A000400143C2803DD208840104000A0
:103E6C002080781C07063F0E686801694A782A345E
:103E7C000136142ED5DB002A02D1AB20400050E0D5
:103E8C00009B6E48142100220488640803D32A3056
:103E9C0001320139F8D11206120E142F16D16748CF
:103EAC00008800064416FFFF2879080096000000E1
:103EBC006549002201204E8D36067616A64202DD9B
:103ECC00341C0206120E2A3101301428F3DB02E0F6
:103EDC003206120E009B2A2042435B4811180C88B4
:103EEC00012020430004000C0880FE24A04314246D
:103EFC0064576406240E0443534814521418638008
:103F0C0008888005820D686800694078800210433B
:103F1C00088068680269201D911C527801239E4616
:103F2C004C4BFE44184702980461FE20484909187E
:103F3C0002980162FEBD826941690369022B0AD1B4
:103F4C00012A01D10029FFFFBE790800960000006C
:103F5C0005D0022A04D1002902D1112100E006214A
:103F6C004161F746C04614E90000C918020049191E
:103F7C00010030B5051C3A480078002804D0012017
:103F8C0086463848FE4400470124A6463748FE447E
:103F9C000047A6463648FE44004735480E30286296
:103FAC0030BD2F7A020018B54369816932488129E6
:103FBC0000D10B38002100911A689B680124A64699
:103FCC002E4CFE44204718BD18B5406900210091C5
:103FDC0002688368284801300124A646274CFE4419
:103FEC00204718BDC046FFFF547A08009600000019
:103FFC0030630800AE050000199E0000B9EC00000B
:10400C00743F0800803F0800B75D030000001B00F0
:10401C00D38E0000F7C60000E5900000686408002D
:10402C00C0270900A03B08003D5D030019C6000035
:10403C00E83A0800815D0300E77E0300CFF600003C
:10404C004B4F03006BC00300951E0100DA400800C3
:10405C0055AA03000D910000D75603000851080023
:10406C008FC6030065B8000009B4030084171B0059
:10407C00B58601003D470200734902005F900000C5
:10408C000E100000F7F6FFFFEA7A0800700000003F
:10409C000000FFB56846FFF776FFFFBDFFB5684629
:1040AC00FFF758FFFFBDFFB56846FFF797FFFFBD51
:1040BC00FFB56846FFF781FFFFBDFFB56846FFF708
:1040CC00B4FEFFBDFFB56846FFF77FFCFFBDFFB533
:1040DC006846FFF735FBFFBDFFB56846FFF7EBFA07
:1040EC00FFBDFFB56846FFF764FEFFBDFFB5684630
:1040FC00FFF752FBFFBDFFB56846FFF7B0FDFFBDF4
:10410C00787B08008800000000B5F8F043FA00BD89
:10411C003566080067660800716508004D66080082
:10412C0025640800816608008D6608009966080001
:10413C0087670800A7670800D16708001B6808009C
:10414C00576808003D690800FD6B0800176C0800F3
:10415C00396C0800616C0800A1680800956C0800B7
:10416C00EB6D0800436E08006D6E08003D6F080093
:10417C001D6D0800E56E0800116E0800C96F08007F
:10418C0065700800316408000000000000000000A9
:10419C0004F31A0080000000B24E01005AC1000066
:1041AC00961A0100220B020060D00100061A0000D2
:1041BC00B8C60100D842030016420300EEDB000033
:1041CC0062DC0000C8E100008A17020038BE000063
:1041DC0026C6000056C2000062120300E4F401007F
:1041EC003AEC00005E920000FEE80200187F00002E
:1041FC0064EC0100FE4403001C940000A86603005C
:10420C0074E90200681E0100BCDA0000EAE100005B
:10421C00FFFFFFFFFFFFFFFF0000180096000000EC
:10422C0000060118F0B58AB0E34C032022786378BD
:10423C00E34901390125AE46E04EFE443047A278F1
:10424C00E3780320DE49AE46DC4EFE4430470320C3
:10425C00DB490131AE46DB4AFE441047DA4821788F
:10426C00017061784170E178C170A1788170D94892
:10427C00041C333C201C0021DC22AE46D34BFE44F4
:10428C0018478420A0700527E7710C2626730D2093
:10429C000019B0A1321CAE46CD4BFE441847042089
:1042AC0060761A200019AFA108910422AE46C84BC3
:1042BC00FE441847A777FFFF9600180096000000F1
:1042CC001F34ACA10991201C3A1CAE46C34BFE44D2
:1042DC001847E671281C60721120207394206073BB
:1042EC00C0256574A6740922E274BC4C201CA3A1E1
:1042FC0001239E46B94BFE44184707226272B74C05
:10430C000A34201CA1A101239E46B34BFE4418473E
:10431C000420E071B24C1234201C089904220123B1
:10432C009E46AD4BFE4418472771AC4C1734201CED
:10433C0009993A1C01239E46A84BFE441847E67186
:10434C000120607211202073942060730220E073AE
:10435C0025746674A574FFFF2C01180096000000EC
:10436C002F26E674102060758027A7750120E07554
:10437C001120A0769420E076242060770A22A27780
:10438C00994C3634201C85A101239E46954BFE4446
:10439C0018471822A272944C4134201C82A101238C
:1043AC009E46904BFE441847257666762120E07693
:1043BC002777012060778C4861301121017094219E
:1043CC0041700F26C67004210172D2214172062160
:1043DC008172854C6C34201C7AA1062201239E46E6
:1043EC00804BFE441847A5711E20E07125729E205B
:1043FC0060720120E072FFFFC201180096000000FD
:10440C002773607311202074942060740420E0746E
:10441C00B3207849086000243106090E002002AA56
:10442C0001239E46754BFE44184768460089400898
:10443C000ED3A1000F20C24368460389134003AD7D
:10444C006B52408910406944C881601C0404240CE0
:10445C00013E0B2EE0DA601E0204120C1CD0151C5F
:10446C0003AB01219E88880002AF3F5AB7420BDA9A
:10447C00BC46071C6F447F89684406810830DE887F
:10448C00468060469880DF800433481C0104090C88
:10449C00013DE7D1013AFFFF5802180096000000D9
:1044AC00E2D168468189C28951180904090C564D1C
:1044BC002980564B82899A1AC089101A68802879EB
:1044CC0000902A88581A03041B0C03204649113902
:1044DC000126B6464E4EFE443047022C30DB671E9A
:1044EC0003AE0124201C09900998800002A9095AE6
:1044FC00B088F28812188A421ADA06206043424BBE
:10450C00181802800288891A4180012101714188A2
:10451C00009101210191221C03880320324910399A
:10452C000125AE463B4DFE442847601C0404240C78
:10453C0004360998401CFFFFEE021800960000009C
:10454C000006000E0990013FD3D1002435480470B9
:10455C00354804703548047035480470012086468F
:10456C003448FE4400473349221C0868002802D016
:10457C0001209040044304310132202AF5D32E4807
:10458C0004600AB0F0BD5F6465766963652D696E81
:10459C00666F00C046C05F75647000C046C06C6F2B
:1045AC0063616C00C0465F73657276696365730006
:1045BC00C0465F646E732D7364006465763D43433F
:1045CC003330303000C076656E646F723D54657860
:1045DC0061732D496E73FFFF840318009600000071
:1045EC007472756D656E747300C046C074617267C9
:1045FC00657400C000001800F37E0300C6050000BF
:10460C00DD7E0300E4620800C9BA030009B40300AC
:10461C00A764080070640800DD0A02004832080034
:10462C000080FFFF017F0300137F0300E862080096
:10463C00E9620800EA620800EB620800ED0318006A
:10464C00807B080084F31A000D490E4888670E48D9
:10465C0088640E4848640E48C8640E4808651148C2
:10466C00021C04320C4B13600C4B93620C4A8A668E
:10467C000D4901600D48FFFF1A04180042000000AC
:10468C000E4901600E494160F7461C210800337B3E
:10469C000800297B08001F7B0800517B0800477B22
:1046AC0008003D7B0800157B0800F77A08005023B2
:1046BC000800ED7A0800582608000B7B0800017BE7
:1046CC000800FFFF000100000012000000001800AD
:1046DC000415000004000000B8F1900FA4160000AF
:1046EC00C800000066E004A8351D21F099FC68465E
:1046FC0023F028FB9AF80000012807D1284605F082
:10470C00C3FE014601AA002021F050F9284605F00D
:10471C00BBFE01A921F02AFAE9794FEAE00040B288
:10472C0011B100F1060040B2A8711F384000E871C9
:10473C00304601F00DFF10F100094FF0000109D0D7
:10474C002868400C09D3E868C00B03D24846FFF731
:10475C00DDFE01212868400C0AD23868401C386004
:10476C0020686FF30F0020602268386810432060C7
:10477C00E868C00B0FD3D8F8000000F10100C8F8AE
:10478C00000020686FF31F402060D8F800202068DC
:10479C0040EA0240206049B9B9F1000F03D130461C
:1047AC0007F0BEF902E0484607F006FA6C17000065
:1047BC001400000068460EF085FB009E002E96D17A
:1047CC0005B0BDE8F087C0469C2000000400000046
:1047DC0023F07AFD74470000080000000B2121F043
:1047EC00CBF92068184B00001400000021F06CF885
:1047FC000AE0206800680C2140F0200021F064F8E9
:10480C00046200000800000020791FF0A5FC69E09C
:10481C0034AD0000040000000968FF2998AD0000C9
:10482C00040000000010D421DCD3000010000000B4
:10483C0000B518F0FBFB00F003F800BD0000000011
:10484C00C0DF00000400000017F03CFDC8F70000BA
:10485C0020000000312E31392E3331345F4E657714
:10486C005F4654435F6C656E6774685F6D6F64750B
:10487C006C617469807E010004000000DFF85882CE
:10488C00F47E0100040000007A486B499C7F010013
:10489C00040000000070514DC47F01003C0000007A
:1048AC00404900F152003A4AA8812883E883E88401
:1048BC00A8852A60394841F211122A85189019915D
:1048CC0039491A9139491B9139492046DFF8C4906E
:1048DC001C913849DFF8C0B0314E1D914880010061
:1048EC00040000000DF07CFAB480010034000000DC
:1048FC0034126609846B002094700020B470002080
:10490C00C4780020507A0020FEFF0300A470002021
:10491C00B0700020B8700020605530803C5C0020E6
:10492C0004740020044D0200C80000002DE9F04F73
:10493C00ADF18C0D04680F300394FEF7DBFA04F133
:10494C0014000490217D002021F07301882908BFF8
:10495C00012005900398001D06905D480068012811
:10496C0040F0FA835B4D5C48DFF870912968DFF802
:10497C007081DFF874A1884221D1102200214846B1
:10498C004F46FBF7B7FE102200214046FBF7B2FE64
:10499C005449086840F480100860012051460860B2
:1049AC0000212960397846460091317841F2111383
:1049BC0004220191072102900320F3F741FC514698
:1049CC00079108685649DFF85CB1012808915649EF
:1049DC00DFF848A1099155490A9144490B91444982
:1049EC000C9144490D9144490E9144490F9144490D
:1049FC0010914449CC4D0200C8000000119144496B
:104A0C0012914449139144491491444915914449D4
:104A1C0016919F4917919F4918919F4919919F4948
:104A2C001A919F491B919F491C919F491D919F4928
:104A3C001E919F491F9140F000810498407800F02E
:104A4C000301012940F0F9800499097801F00C0167
:104A5C00082940F0F28006990988A1F13C010EB2B8
:104A6C00059911B1A6F1020636B2C0094FF0000744
:104A7C0015D3083E36B2032E10D0172E0ED0083E9A
:104A8C0036B2032E08D0172E06D0361F36B2032EA0
:104A9C0014BF172E022702E0032700E00127032E84
:104AAC0018BF172E049A40F0C8800A3212F8011B66
:104ABC00052412F8013B4B40641ED9B2F9D181EAAE
:104ACC002111032E944E0200C800000001F00F01CA
:104ADC00484635D04346CA5C521CCA540C1833E0C5
:104AEC00485702000474002034126609585702001B
:104AFC0068570200C84830804457020080570200B3
:104B0C007857020010580200185802002058020072
:104B1C00285802003058020038580200DC580200B5
:104B2C00DA5802000C580200E7580200D85802006C
:104B3C00E658020054570200DE580200E05802000A
:104B4C000C182078401C20702078434603EB010899
:104B5C000A2876DB98F800000A2872DB94480025B6
:104B6C000160049800F10A094078410824BF0499B7
:104B7C00091D04D280082EBF4946049910310B98A8
:104B8C000622FAF7B9FC0C9806224946FAF7B4FC4F
:104B9C009B489A495C4F0200C8000000007808222C
:104BAC000860584607600D982946FBF7AFFD0822B0
:104BBC000E982946FBF7AAFD08220F982946FBF709
:104BCC00A5FD082210982946FBF7A0FD0822119894
:104BDC002946FBF79BFD082212982946FBF796FD08
:104BEC0007990220086013992846088008990870D4
:104BFC00149908701599086016990870179908602F
:104C0C001899086019990860099908800A99088010
:104C1C001A9908807D490D601B9908701C990870C1
:104C2C001D9908701E9908801F99088051460880AC
:104C3C00207800960422019098F8000041F2141399
:104C4C00072102900320F3F707FB0798A24900689D
:104C5C002091A249052821919E49229140F037824A
:104C6C000498407824500200C8000000410824BF7A
:104C7C000499091D05D2800827BF04990A310499AB
:104C8C0010310B98F8F72DFC0128049840F0238282
:104C9C00407800F00300032818D0022807BF0499BD
:104CAC00103104990A3113E04058020044580200B4
:104CBC0048580200E8580200EA580200EB5802007B
:104CCC00EC580200E2580200E45802000499183132
:104CDC000C98F8F706FC0499012840F0FC814978FF
:104CEC0001F00301012940F0F68159460968049A44
:104CFC008E465146D28A0B881211934200F03782AD
:104D0C000A80069909883C390BB27146491E09D0B4
:104D1C00491E04D0491E08D1A3F1100304E0A3F1ED
:104D2C00140301E0A3F108031BB2059810B1A3F121
:104D3C0002031BB2EC500200C8000000002B00F173
:104D4C00CE81169840F2775199420B9014980590A9
:104D5C0000F0A381084600F13C009842059A00F04F
:104D6C009A81DFF8488214780B9ABB2C12780C923B
:104D7C0063D1DDF868C0BCF90020914218BF9042A5
:104D8C005BD11C2B4FF00000C0F282813D2B139D98
:104D9C0080F27E81A3F11C0109B229801E9ADDF8F4
:104DAC003090B2F90060B9F1010F15D1DDF8249003
:104DBC00032E0DDAB9F90070B94207D0012616801E
:104DCC004A460E4603E0C04688570200761C168001
:104DDC001B9A16781D9A16700C9A1F9E022A28D1BF
:104DEC00B6F90020BEF1000F1AD0032A35460BDAB3
:104DFC000A9EB6F90070B94204D001222A800A46F4
:104E0C00354600E0B4510200C8000000521C2A8054
:104E1C001C990A781D990A700FE0C0465057020081
:104E2C00A66400204C570200288005990870089A47
:104E3C00117841F00401117004464546ACF80000AD
:104E4C002870CC2C099A40F00081DDF87CC00A99BE
:104E5C001E9F4546B1F90060B2F900902878CDF854
:104E6C0050C016910A97139209950C99012905D1F6
:104E7C00059AB0EB490F01D1002111700C99022950
:104E8C0005D1059AB0EB460F01D100211170B3F595
:104E9C00147F40F3BA8040F251319942089940F3A3
:104EAC00B4800978062900F0B080A3F251210BB22E
:104EBC004FEAE30103EB11714FEA2111CAB24FEA39
:104ECC00E30103EB1171159D21F00F01A3EB01031D
:104EDC001D992E687C520200C800000091F800E079
:104EEC005FFA83F860B1311811F8011C5140CBB254
:104EFC0007E0C046505802004C580200D45802003B
:104F0C0013461999DDF86CA0DDF870B0D1F800C02B
:104F1C0000F00F01994222D00A9B86459AF80010A6
:104F2C00B3F900309BF8005015DD375C441C82EA65
:104F3C00070C04F00F0767450BD0A64506440ADDA5
:104F4C0076787240861C06F00F06964203D1C01C80
:104F5C004DE0801C4BE0059E002232704AE000F0D0
:104F6C001F0101228A401799C4100B6824F0030119
:104F7C005CF801703A4232D15F583A4206441FD075
:104F8C00189B37781B68B84504D15858024219D081
:104F9C00634615E0A1108C001959914319510090EA
:104FAC003078019044530200C80000000320062111
:104FBC0002464DF68053F3F763F9099928680E7889
:104FCC00361806E0DB580200A01081005858024346
:104FDC005A5086F800800B9800780C901398B0F912
:104FEC000090099800780A9A401C9BF800509AF897
:104FFC000010B2F90030099AC0B210700C9A012A54
:10500C0003D18842C8BF8AF800000C99022907D145
:10501C00A842C8BF8BF8000002E00A98B0F9003033
:10502C00B9F1000F06DD032B04D11198012249467A
:10503C0000F070FB1698B0F9001014980029B0F924
:10504C00000005DD032803D11298022200F062FB58
:10505C00059804780B9800780C900898BB2C017874
:10506C0002D0AA2C2FD031E00C9801280BD10D982E
:10507C00179A10600C540200C80000000F98189A80
:10508C001060199A11981060474A159802600C9894
:10509C0002280BD10E98179A10601098189A10606D
:1050AC00199A12981060414A15980260CC200FE0B2
:1050BC00089909780CE0022000E001200B99087097
:1050CC001A990B8013990020088008980178BB204E
:1050DC00059A10700629079911D1062008602098AE
:1050EC0000250570219829460422FBF727FB012097
:1050FC0000F036FA022000F033FA22980560079887
:10510C0004990068072844D10978039C802940D170
:10511C0038342178641C224600293AD1209890F822
:10512C0000A022980590D0F8009051464846FDF713
:10513C0079F95FFA80F8219F15785146484617F89F
:10514C000830FDF7D4540200C80000006FF91E4669
:10515C001B1DC0B2385C001DA842284607DD801814
:10516C00821C10782D18AD1CADB2AB42F7DC04F8E4
:10517C00016B11493246204601EB4811FAF7DCF974
:10518C00AD1BFF203419AD1E04F8010B25700598DA
:10519C000168491C016007980068072804D006992B
:1051AC00086820F48030086023B0BDE8F08FC0465A
:1051BC008C570200CC570200545802006D482DE960
:1051CC00F0476D4D82894AF65521ADF5FE7D914231
:1051DC004FF00001ADF1380D10D1296041F21041B2
:1051EC0081814FF6FF7065490860286800900222A3
:1051FC000521032041F23423F3F74AF82968604C67
:10520C000129206840F0AF805E4D0228296823D127
:10521C005D4800689C550200C80000005E4A125CA4
:10522C00009201915D49096802915A490B5C032077
:10523C0007210422F3F730F85A494A79584800926A
:10524C000279019240790422029003200B79072104
:10525C00F3F722F803202060ECF71CFF2068296884
:10526C00042815D10D208DF8100000258DF8145050
:10527C008DF815102846632100F0FCFA63212846AE
:10528C0000F086FA03A904A8E0F7CCFC0520206006
:10529C00454D0528296801F1010129601DD1434ABA
:1052AC008A421AD14248016800914068019003205B
:1052BC0002460621404E3346223BF2F7EDFF3D48B5
:1052CC000168009140683346062101900320024694
:1052DC00F2F7E2FF002028602068062847D14FF043
:1052EC00070AC4F864560200C800000000A003209E
:1052FC0048F2705301220421F2F7D2FFDFF8C88084
:10530C00304F48F27059012549EA05030122042166
:10531C000320F2F7C5FF002417F8020F20E0690103
:10532C0004EB08028818C61C43780093807801901F
:10533C0030780290535C514604220320F2F7B0FF00
:10534C003878011BB1F1FF3F08D1F0780090B378A9
:10535C00032002220521F2F7A3FF3878241DE4B2C2
:10536C00A042DCDCAD1CEDB2042DCDDB63214FF48F
:10537C000570F1F7A5FCE1F787FD7FB00EB0BDE835
:10538C00F087C046047400204857020040003D805E
:10539C004457020050570200885702005857020029
:1053AC0068570200545702007857020080570200D9
:1053BC004C5702002C570200C8000000FFFF0300EE
:1053CC0030580200385802006655DDEED358020002
:1053DC005458020000000000000000000000000013
:1053EC0000000000000000000000000000000000B1
:1053FC0000000000000000000000000000000000A1
:10540C000000000000000000000000000000000090
:10541C000000000000000000000000000000000080
:10542C000000000000000000000000000000000070
:10543C000000000000000000000000000000000060
:10544C000000000000000000000000000000000050
:10545C000000000000000000000000000000000040
:10546C000000000000000000000000000000000030
:10547C000000000000000000000000000000000020
:10548C0000000000F4570200C800000000000000FB
:10549C000000000000000000000000000000000000
:1054AC0000000000000000000000000000000000F0
:1054BC0000000000000000000000000000000000E0
:1054CC0000000000000000000000000000000000D0
:1054DC0000000000000000000000000000000000C0
:1054EC0000000000000000000000000000000000B0
:1054FC0000000000000000000000000000000000A0
:10550C00000000000000000000000000000000008F
:10551C00000000000000000000000000000000007F
:10552C00000000000000000000000000000000006F
:10553C00000000000000000000000000000000005F
:10554C00000000000000000000000000000000004F
:10555C0000000000BC580200C80000000000000061
:10556C00000000000000000000000000000000002F
:10557C00000000000000000000000000000000001F
:10558C00000000000000000000000000000000000F
:10559C002DE9FE4F4A4A494D0090B2F9002043A331
:1055AC002978019343A301280293474EDFF81C810D
:1055BC00DFF81C911ED04348047848018719301835
:1055CC0001990622F9F7CCFF40460178006807F1F3
:1055DC00060707F8011B07F8014B4FF0000107F80D
:1055EC00011B20B9397028784E460A2158E0DFF8A3
:1055FC00E4B00FE0D4B248018719301802990722A1
:10560C00F9F7AEFFFF1D0020DFF8CCB007F8014B17
:10561C0007F8010B162CB246AEBF1420601EC0B2A8
:10562C0038704E4684590200C80000007F1C401C94
:10563C00C2B228785B4600213254384600F010F98B
:10564C002878162C315C01F10A01315400F101006B
:10565C00C0B228702BDB00990AEB401007460129D9
:10566C00A4F1010909D001990622F9F77DFF404602
:10567C000078BF1D07F8010B04E002990722F9F727
:10568C0073FFFF1D07F8014B153C15212878E2B27A
:10569C005B4607F8011B325407F8019B384600F0B3
:1056AC00DFF82878315C0A313154401C2870BDE891
:1056BC00FE8FC0465454544B455900C05454545357
:1056CC00534944004C580200DE580200E0580200D6
:1056DC005458020054570200D4580200CC57020010
:1056EC008C5702007EB504460D4694F83610154AC8
:1056FC00072918BF4C5A0200C800000011680AD1D3
:10570C0001211160124B0D2604F12402761E42F881
:10571C00143F5360FAD194F836000E4E0090306866
:10572C0041F2121304220190029107210320F2F797
:10573C00CBFD29462046E7F781FC3168002205297C
:10574C0002D1054908310A607EBDC04648570200A7
:10575C00A086010044570200007C002070B54D006B
:10576C00202D4FF000010C464FEA551309D350F889
:10577C002160B6F1FF3F04D1491CC9B2203D5B1E2C
:10578C00F5D14DB1202D09D20123AB405B1E50F851
:10579C0021001840834201D14FF0010407480378DF
:1057AC002CB901219140C943C9B20B4003E001213E
:1057BC009140C9B20B43037070BDC046E65802005D
:1057CC001CB50F4C145B0200C80000002268012AB3
:1057DC0015D10C480068072814BF40204FF4057001
:1057EC006321F1F785FA2068009043F233330621E8
:1057FC004020019003200246F2F76AFD1CBDF1F730
:10580C0077FA1CBD44570200485702001EB50446E7
:10581C000A4900200A4A08600A4900900190116068
:10582C00094A45F2555302911060072104220320C6
:10583C00F2F74EFD2046E7F7CFFD1EBD485702009C
:10584C0004740020341266094457020030B50D462A
:10585C008469DCF747FC241D012804EB450106D1C3
:10586C00898E04EB850411B9216901B9002030BD82
:10587C0030B505465AB103EB41031C78597841EA1F
:10588C000411521E03F1020305F8011BF5D130BDC2
:10589C0000B50020DC5B020030000000E7F786FF5B
:1058AC0003480168032904BF0421016000BDC04600
:1058BC0044570200034A1268012A04BF02486321BC
:1058CC00F1F726BA48570200022001008000400080
:1058DC00200010000800008000400020080000009C
:1058EC00080000000800000008000000080000008C
:1058FC00040000000400000004000000040000008C
:10590C00040000000400000004000000002000015E
:10591C00000200040100000002000000040000006E
:10592C000800000000000000040000000800000057
:04593C004C530000C8
:1059400001545454FFFF5000F00190039013902332
:1059500090439063A063B063F06330643068A0014B
:10596000A0010010001000200020100010004000D6
:10597000400000040002E81F0812030000000000BD
:10598000000C0140000C0140000C0140000C0140E3
:10599000000C0140000801400008014000080140DF
:1059A00000080140000801400008014000080140D3
:1059B0000C004800000C014000000000FFFFFFFF4A
:1059C000FFFF040000A24A040000000000000000E5
:0C59D0000102030406070809FFFF0000A5
:040000050800010CE2
:00000001FF
