:020000040800F2
:10500000005000205D5600089D5500089F5500087F
:10501000A1550008A3550008A55500080000000090
:10502000000000000000000000000000A75500087C
:10503000A955000800000000AB550008AD55000858
:10504000A9560008A9560008A9560008A956000844
:10505000A9560008A9560008A9560008A956000834
:10506000C1550008A9560008A9560008A95600080D
:10507000A9560008A9560008A9560008BB55000803
:10508000A9560008A9560008A9560008A956000804
:10509000A9560008A9560008A9560008A9560008F4
:1050A000A9560008A9560008A95600081556000878
:1050B000A9560008A9560008A9560008A9560008D4
:1050C000A9560008A9560008A9560008A9560008C4
:1050D000A9560008A9560008A9560008A9560008B4
:1050E000F5550008A9560008A95600080000000060
:1050F00000000000000000000000000000000000B0
:0C51000000000000000000005FF808F153
:10510C00704700230360184670470023036018465D
:10511C00704700230360184670470000194B10B508
:10512C001A6812B11868411E1960174C236813B124
:10513C002268501E2060154C216811B12168481E50
:10514C0006E0134B1A7822B9E72000F077FFC8204D
:10515C002060104B1A68B2F57A7F0FD300221A60C8
:10516C0001F028FE042001F0F9FB4FF6FF71884294
:10517C0007D00420BDE8104001F0E2BB1868411CC8
:10518C00196010BDAC0A0020A00A0020A80A00205B
:10519C00B0000020B00A00201FB50446E72000F044
:1051AC0035FF01F0BBF901F0FBF80F4B0F4810492C
:1051BC00104A00930190104B029103920F49104A30
:1051CC00104800F021FB4FF47A7000F0CDFD204622
:1051DC0000F032FB0C4800F097FB48F2442000F042
:1051EC0061FB002004B010BD656400087964000800
:1051FC00E56400080D6500081F5100080F510008F8
:10520C00175100080D5100080000002070B5002255
:10521C008CB0174B06460D461020022100F06CFA9C
:10522C0001AB0022B45A200A44F00101AC5A0232FC
:10523C0003F8024C240A03F8041C03F8030C03F8CB
:10524C00014C0433182AEDD16B4630210422102076
:10525C0000F052FA00213022684602F057FD10206F
:10526C00014634226B4600F047FAC0B20CB070BD58
:10527C002CB5000810B5084C601C00F0A3FA40B91E
:10528C006378012B06D1A2781C2A03D1E37018464F
:10529C0010BD002010BD00BFB000002070B57B4CCD
:1052AC00012500232846237084F88450FFF774FFEF
:1052BC00FFF7E0FF064610B12570E57070BD04F1F4
:1052CC00850000F054FA724984F88B60C8700D7137
:1052DC006F4D6E4C2A7928461AB194F88B30022BFC
:1052EC0003D901210171002323E064210022022053
:1052FC0004F18C0300F0D4F994F88B20642814BFCB
:10530C00FF210021501C297184F88B00E0E794F8F0
:10531C008B00022814D8231D0B208021002200F0C2
:10532C00BFF9802814BFFF200020287194F88B50FF
:10533C006B1C574D84F88B302A79544C002AE6D1DB
:10534C0094F88B10534B544D514C0122032908BF38
:10535C001D4622714E4C207930B1A01D04F11E0166
:10536C00FFF754FF2071F5E701212171484C237997
:10537C003BB10B20802100222B4600F0BDF920719F
:10538C00F4E701222271424C207938B102206421C9
:10539C000022424B00F0B0F92071F4E794F903308D
:1053AC000121217123B1394B012283F8F0200FE048
:1053BC00364C94F8852022F0010084F88500344C9A
:1053CC0021790029EFD0364800F0C8F92071F6E7B2
:1053DC002E4C94F8F00040B12D4A0420D18E314A65
:1053EC0000F0D1F984F8F000F2E7012184F8F11013
:1053FC00264C94F8F10040B125490520098F2A4A22
:10540C0000F0C1F984F8F100F2E7FFF7C5FE94F85B
:10541C008520082A11D194F88630BBB994F88700FE
:10542C00282813D1194B01201870642000F09CFC23
:10543C00E720BDE8704000F0DBBD3AB994F8861067
:10544C00192903D194F88720942AEAE7174C0F4BBB
:10545C00217AA078627A082483F8854083F8891031
:10546C0000240B4983F8864083F888002824012007
:10547C0083F8874083F88A200871054C2279002A2A
:10548C00D0D0074800F06AF92071F6E7B000002090
:10549C0000000020447E0008B40000203C010020E5
:1054AC0035010020C47E00081C9E0008E8F7FF1F91
:1054BC0010B54FF4A0414FF0006001F037FA00F046
:1054CC007BFE00F035FC4FF0FF1000F045FDE720AF
:1054DC0000F08EFD40F6B83000F072FC0020FFF7B3
:1054EC005BFE264B93F884205AB91C784CB92046A5
:1054FC0000F0C2FE0121204600F07CFCFFF7CEFE3E
:10550C00EFE793F884001D4C0028EAD0217800299D
:10551C00E7D00121022000F06DFCFFF7ABFEE37831
:10552C00002BDED040F2DC5000F01EFC4FF47F402C
:10553C0000F012FD124CE72000F05AFD0122114838
:10554C0022704FF6FF74048001F040F828202146A9
:10555C0001F0F6F90420214601F0F2F9002001F0E7
:10556C0027F8BFF34F8F084A084BD16801F4E06469
:10557C0044EA0300D060BFF34F8FFEE7B000002079
:10558C00C40100208800002000ED00E00400FA05B2
:10559C007047FEE7FEE7FEE7FEE77047704770478F
:1055AC0008B501F061F8BDE80840FFF7B7BD00F0A1
:1055BC0007BB000008B5042001F0E6FA78B104201E
:1055CC0001F0F2FA0020064B0146188000F082FD33
:1055DC00044810210122BDE8084001F0E8BD08BDD7
:1055EC00C0010020002C014008B54FF4006001F010
:1055FC00CBFA38B14FF4006001F0D6FABDE80840A0
:10560C0000F04EBB08BD000008B50F48102101F09A
:10561C0007FEC0B10C48102101F00DFE002000F077
:10562C001BFE28B9094B1A880A3290B2188008BDA3
:10563C0010210548002201F0BAFD00200121BDE82F
:10564C00084000F047BD08BD002C0140C0010020FF
:10565C00002100F004B80C4B5B58435004310B484C
:10566C000B4B42189A42FFF4F6AF0A4A00F003B80B
:10567C00002342F8043B084B9A42FFF4F9AF01F0C7
:10568C0001F8FFF715FF704734B500080000002043
:10569C00B0000020B0000020BC0A0020FFF7FEBFC5
:1056AC002DE9F341864613480D46866871461F4620
:1056BC0002ACFF2306F1090004F8053D904601F009
:1056CC00BEFD294601F0BBFD40F20125414601F02B
:1056DC00B6FD0C223146284602F0E2F92846214656
:1056EC0002F0CAF93846002101AA02F0CFF901985C
:1056FC00BDE8FC81340200202DE9F34186461648B2
:10570C000C4686687146984602AD4FF0FF3306F1A1
:10571C000A0045F8043D174601F091FD0C2101F0FB
:10572C008EFD214601F08BFD394601F088FD414686
:10573C00224606F11A0002F03BFA90203146102264
:10574C00A3B202F0BEF940F20220294602F094F90D
:10575C000198BDE8FC8100BF3402002008B5034667
:10576C00062001460022FFF7C7FFC0B208BD08B5EE
:10577C000346062001460022FFF792FF062814BFBD
:10578C00FF20002008BDF8B506460D4617460C460E
:10579C007B192A1B1F2CC4EB030392B208D9304689
:1057AC002021FFF7A9FFC0B2203C0028F0D007E071
:1057BC002CB130462146FFF79FFFC0B2F8BD204602
:1057CC00F8BD000037B50B4B40F20725044699682D
:1057DC000022284602F064F92846694602F04CF98A
:1057EC009DF803009DF80410207061709DF8000076
:1057FC003EBD00BF34020020024B01225A8058608B
:10580C0001F0A0BE3402002010B50A4CE160226108
:10581C006361029B0399E361049A059B21626262B6
:10582C000021A362A061012084F8400084F841109B
:10583C0010BD00BF3402002070B5174B174D00246B
:10584C0006461748AC63EC632C802C866C86AC86C1
:10585C00EC86EC626C806C60AB6000F0A1F8A9681F
:10586C00A64214BF0226264601224E724FF48040F7
:10587C0002F016F921464FF4804002F0FDF8A968B9
:10588C00224644F20B0002F00BF944F20B002146C5
:10589C00BDE8704002F0F0B8A002002034020020F5
:1058AC000558000837B548F2080248F208010240D2
:1058BC008A42034613490BD10020934281F84000E1
:1058CC001FD023F4004424F0080545F4004302E003
:1058DC00012081F840000B494FF0FF328D6802AC7B
:1058EC00194605F1090044F8042D01F0A8FC2946DD
:1058FC000422082002F0D4F80820214602F0BCF85B
:10590C0001983EBD3402002007B50D4A4FF0FF331D
:10591C000193916890B154234370037083704B7260
:10592C0042788A7280780322C8720C2002F0B8F890
:10593C000C2001A902F0A0F8019800E018460EBD59
:10594C003402002000F0010383F0010003B962B6B9
:10595C0070470000F8B50446EFF3108772B60E4E90
:10596C00337A9C4209D0052C01D0012506E00B4866
:10597C00C16988470028F8D1347200253846FFF7F2
:10598C00E1FF054B15B15A69002AE5D05869D0F1F1
:10599C00010038BF0020F8BD88020020340200202E
:1059AC000F4B10B500220F490F4C1A721961DA8097
:1059BC00DA609A801860A36A104698470B4800F08A
:1059CC00DBF9206A80474FF47A7000F0D5F901209A
:1059DC00A26A90470120BDE81040FFF7BBBF00BF93
:1059EC0088020020A006002034020020E09304006E
:1059FC00024B4FF480725A60704700BF00E100E028
:105A0C002DE9F84307460E4614461D46EFF3108069
:105A1C0072B6DFF88080A4B298F80890FFF792FF76
:105A2C00002000F001FD012037B93146224600F07C
:105A3C0083FC3846154906E0D8F81010224600F0D1
:105A4C007BFC00203146224600F076FC10480221F7
:105A5C00012201F036F8012000F0E6FC9DB1EFF3D5
:105A6C00108072B60B4C257AFFF76CFFA9452346C4
:105A7C0002D16269002AF2D05869D0F1010038BF16
:105A8C000020BDE8F8832846BDE8F8833A000020E2
:105A9C005800024088020020CB074CBF0B464B1C21
:105AAC0010B5C3F3072444700024C4700471054C72
:105ABC0001220270837084F84120034AD0609180E7
:105ACC00581D10BD34020020880200202DE9F04141
:105ADC0004460D46EFF3108072B6384E377AFFF756
:105AEC0031FF17B1012F2AD104E00120FFF732FF5B
:105AFC0000285FD0EFF3108872B60321377A317229
:105B0C0000F038FD4046FFF71DFF20462946FFF701
:105B1C00C3FF0646002F4DD0322000F02DF9012096
:105B2C00214604220346FFF76BFF002842D03220A7
:105B3C00B5B200F021F90120211D2A1F30E002200E
:105B4C00FFF708FF002835D0EFF3108772B61B4B18
:105B5C001E7AB21E504250EB020656B1EFF310887B
:105B6C0072B604211A7A197200F004FD4046FFF750
:105B7C00E9FE3846FFF7E6FE104B16B95A69002AC3
:105B8C00E2D05869B0B920462946FFF785FF064692
:105B9C000520FFF7DFFE68B1B5B2012021462A4689
:105BAC000346FFF72DFF002814BF28464FF0FF30A7
:105BBC00BDE8F0814FF0FF30BDE8F0818802002095
:105BCC0070B54FF4003000F085FF324C05464FF4B1
:105BDC00005000F07FFF237AD91E052954D8DFE846
:105BEC0001F03D533D53032A002D52D0002850D0D4
:105BFC004FF4083000F07CFF082020722469B4F8C0
:105C0C000320C2F3072343EA02218CB2002C40D0BC
:105C1C00E10701D4601C84B2B4F5806F02D90A206C
:105C2C0000F0AEFD1B4A0020116903462246BDE878
:105C3C007040FFF7E5BE00282BD04FF4083000F081
:105C4C0057FF154B02204FF480722072C3F884204A
:105C5C0000F0FAFB21682069884770BDCDB10F4870
:105C6C00802101F029F90028F9D10A4C4FF40830B1
:105C7C0000F03EFF237A032B01D1052102E000F056
:105C8C00E3FB0221217270BD0B20BDE8704000F0D7
:105C9C0077BD70BD8802002000E100E000380040B4
:105CAC000E4B70B5D86980470546B0B90C4C217ABB
:105CBC00022904D004290ED079B901220CE0072363
:105CCC00237200F057FC2169284605222B46BDE8BB
:105CDC007040FFF795BE0522227270BD3402002081
:105CEC00880200200D4B0E4A197839B9D88881B238
:105CFC001187188981B291879B8806E0D88981B277
:105D0C001187188A81B291879B8906489BB293862A
:105D1C00FF21632202704170704700BFA401002074
:105D2C00002C0140400000204FF4407000F0C0BD3A
:105D3C000A4B4FF47A701A68094BB2FBF0F1094820
:105D4C004A1EF0215A6080F82310002207219A6025
:105D5C001960D02380F82330704700BF98000020D2
:105D6C0010E000E000ED00E0024B18601A68002A19
:105D7C00FCD17047AC0A002007B50E4B0E4A59688F
:105D8C000E4B009111684FF0FF32B1FBF3F1B2FBF7
:105D9C00F1F3984228BF18464143019105484168E8
:105DAC00009A019B881A984202D201F003F8F5E799
:105DBC000EBD00BF001000E09800002040420F0014
:105DCC0010B5044645F2555000F0E2FF062000F0F5
:105DDC00E5FF2820604340F6FF73010A994228BF73
:105DEC00194688B200F0E0FF00F0E4FFBDE8104077
:105DFC0000F0E8BF082814D8012908D10B490C4A37
:105E0C0001EB8003596832F8100008610BE051B9BE
:105E1C00064B074A03EB80014B6832F810005861BF
:105E2C0001E0FF2300E0002358B27047400000203F
:105E3C0060B4000873B50E4E850073190446012139
:105E4C00186900F0EDFF0B4B36F8140010215D19AA
:105E5C00ADF804008DF807100322686801A98DF8CD
:105E6C00062000F021FF20460021FFF7C3FF7CBD78
:105E7C0060B400084000002070B5012188B04FF4D8
:105E8C00006000F0CDFF314B31481C686026B4FB3C
:105E9C00F0F1304C01A88DB201F05CF901A801F0D1
:105EAC0059F942F20F7201A9ADF8045020460025B1
:105EBC00ADF80820ADF80A50ADF8065001F002F824
:105ECC0004A801F050F90223ADF810602046012619
:105EDC0004A9ADF81830ADF81260ADF81650ADF855
:105EEC001C5001F039F82046294601F075F920467E
:105EFC0004A901F075F82046294601F075F92046F1
:105F0C0004A901F0B1F82046294601F077F92046A2
:105F1C0004A9ADF81050ADF81260ADF81650ADF8FC
:105F2C00185001F0E3F82046294601F06FF920469D
:105F3C00314601F045F92046314601F01EF9204664
:105F4C00314601F026F908B070BD00BF9800002062
:105F5C0040420F00002C014030B51049104A8C8D86
:105F6C0092F82420A5B26C1C5443C0F307456C4333
:105F7C000C4B240CDC808D8D5861ACB20134544335
:105F8C00C0F307256C43240C1C81898DC0B289B2E7
:105F9C00013148434243120C9A8030BD002C014021
:105FAC0040000020A401002037B50F4D044605EB3E
:105FBC008003186B012105EB440500F031FFB5F8A7
:105FCC004000ADF804000CB9102100E01821074B7B
:105FDC008DF8071003EB84040322A06A01A98DF845
:105FEC00062000F061FE3EBD60B4000840000020B9
:105FFC0018B1E72807D1FFF775BE034B4FF40052D9
:10600C00986A0261704770474000002058B1E72839
:10601C000FD1084A002308481387938793860122DF
:10602C000370427005E0044B4FF40050996A4861CC
:10603C0070477047002C01404000002010B1E72849
:10604C0040D106E020498B6ADA6882F40050D860AF
:10605C0070471E4A1E4B1178C1B9188F80B208B117
:10606C00198702E0D1888AB21A879B8F184899B297
:10607C0009B1002102E0154A138999B281871449AC
:10608C00888E82B2C2B9114B988819E0188F81B2F0
:10609C0009B1002001E0D28990B218879B8F0C497E
:1060AC009AB20AB1002202E00848038A9AB28A879F
:1060BC000749888E83B20BB1002002E0034A908915
:1060CC0080B28886704700BF40000020A4010020E9
:1060DC00002C014073B5104C0E4604EB400494F8B0
:1060EC004C10054694F8480000F038FEB4F85040C7
:1060FC00204600F043FD09480023451995F8381057
:10610C00684600948DF804308DF805108DF8066003
:10611C0000F0F8FC7CBD00BF60B40008400000201B
:10612C00F7B5224E8700F3190546586D0C4640F022
:10613C000100012100F074FE1D4B06EB45065A19B7
:10614C0092F83A10B6F85C0002AADF198DF8031029
:10615C0022F8080D6946F86B00F0A6FD012C24D13D
:10616C001021002213481B2701F021F805238DF87C
:10617C00047001A800278DF805308DF806708DF895
:10618C00074000F09FFBB6F8601006208DF8050064
:10619C0001A88DF804108DF806708DF8074000F0FA
:1061AC0091FB28462146FFF795FFFEBD60B4000821
:1061BC0040000020002C0140012110B54FF0C050D0
:1061CC0000F03AFE012000F005FE242000F0C6FB92
:1061DC004AF2A553984207D124204FF6FF7100F0E4
:1061EC00AFFB00F0FDFDFEE71848194C426842F485
:1061FC0040714160E368174943F08070E06000240F
:10620C004C600A6842F001030B60FFF78DFD012022
:10621C00014600F005FEE0B20134FFF70BFE082C3E
:10622C00F9D1FFF729FE0020FFF7BEFE0120FFF792
:10623C00BBFE0220FFF7B8FE0320FFF7B5FE0020DF
:10624C000121BDE81040FFF76BBF00BF002004E048
:10625C00F0ED00E0001000E0054A064B02EB800177
:10626C0003EB4002C86BB2F85C1000F06DBD00BFD0
:10627C004000002060B40008024B002203EB4000F9
:10628C0082837047A401002010B5082086B001213C
:10629C0000F0C6FD264C4FF48040012100F0CCFDEF
:1062AC00032018214FF400538DF802008DF80310D1
:1062BC0020466946ADF8003000F0F6FC4FF4004281
:1062CC0020466946ADF8002000F0EEFC04204FF4A7
:1062DC0080438DF8030069462046ADF8003000F08D
:1062EC00E3FC0021ADF804104FF48272ADF80810F5
:1062FC00ADF80A104FF40070ADF81210A4F5544428
:10630C0007210123ADF80620ADF80E000822ADF8E8
:10631C001410204601A9ADF80C30ADF8102000F097
:10632C0097FD2388034A98B2108006B010BD00BFB9
:10633C00000C0140BA0A002070B5044601208CB054
:10634C000E460146154600F05FFD124B00208022E0
:10635C004FF44051012C0193029605900692079040
:10636C00089009900A910B9006D103900A48049565
:10637C0000F004FB084807E04CB9102307480393CE
:10638C00049500F0FBFA054801A900F06FFB0CB076
:10639C0070BD00BF0C380040440002405800024061
:1063AC0073B50F230124002501A88DF804308DF856
:1063BC0005508DF80650174E8DF8074000F082FA04
:1063CC00FFF762FF20462A461349FFF7B5FF284620
:1063DC002A461249124DFFF7AFFF304602212246E2
:1063EC0000F06FFB28462146224600F05CFD224659
:1063FC002846022100F057FD2846214600F047FDB3
:10640C002146084800F052FB3046214600F04EFB76
:10641C007CBD00BF58000240A0060020A002002056
:10642C00003800404400024010B5044621460448A0
:10643C0000F03CFB03482146BDE8104000F036BBA1
:10644C00440002405800024002484FF4805100F0D2
:10645C0081BC00BF000C014008B54FF4006102483C
:10646C0000F072FC08BD00BF000C014030B50920E3
:10647C0085B0012100F0D4FC4FF400644823694638
:10648C0014488DF80330ADF8004000F00DFC0B21E2
:10649C00012000F063FC204600F070FB0C200294FD
:1064AC00002501248DF80D0002A88DF80C508DF8F4
:1064BC000E4000F027FB282101A88DF804108DF860
:1064CC0005408DF806508DF8074000F0FBF905B03B
:1064DC0030BD00BF000C01401FB52823002401A8CB
:1064EC008DF804308DF8074000F0ECF94FF40060A3
:1064FC00029002A88DF80E4000F004FB1FBD0000B6
:10650C0020B105484FF4807100F024BC02484FF4D0
:10651C00807100F021BC00BF000C014013B50820B5
:10652C0001210F4C00F07CFC032010214FF4805310
:10653C008DF806008DF80710204601A9ADF804303F
:10654C0000F0B2FBFFF780FF4FF48072204601A9E8
:10655C00ADF8042000F0A8FB0020FFF7D1FF1CBD14
:10656C00000C014002484FF4007100F0F3BB00BF77
:10657C00000C014010B50B4C238823F040000104A3
:10658C000A0C2280FFF7EEFF074B188881B20748F0
:10659C0041F040024FF480512280BDE8104000F0E1
:1065AC00DBBB00BF00380040BA0A0020000C0140E1
:1065BC0020B105484FF4806100F0CEBB02484FF487
:1065CC00806100F0C7BB00BF000C014010B51F4B31
:1065DC0093F82000002837D000F0ECFA342000F0BB
:1065EC00FDFA1B4800F042FB04282CD1194C18482A
:1065FC00B4F8441000F01EFB042823D11648B4F85C
:10660C00461000F017FB04281BD11448B4F84810AE
:10661C0000F010FB042813D11148B4F84A1000F014
:10662C0009FB04280BD10F48B4F84C1000F002FB06
:10663C00042803D1BDE8104000F0C8BAFEE7FEE71D
:10664C00FEE7FEE7FEE7FEE710BD00BFA401002059
:10665C00004C000840000020024C0008044C0008CC
:10666C00064C0008084C0008024B1A6C501C1864AD
:10667C00704700BFA4010020014B186C704700BF8D
:10668C00A40100203A4B82B01A6842F00100186055
:10669C005968384A0A405A60186820F0847121F40D
:1066AC0080321A60186820F4802119605A684FF4FF
:1066BC001F0122F4FE0000225860996000920192A2
:1066CC00186840F480311960294B1A6802F40030C4
:1066DC00019000994A1C0092019818B90099B1F5E3
:1066EC00A06FF1D11B6813F4003218BF0122019284
:1066FC000198012805D0204B4FF000629A6002B03F
:10670C0070471E490B6843F010020A60086820F0BD
:10671C0003030B600A68A1F5805342F00200086085
:10672C00596859605A685A60586840F480615960D9
:10673C005A6822F47C105860596841F4E8125A6087
:10674C00186840F0807119601868094A8101FBD5FE
:10675C00536823F003015160506840F0020353600A
:10676C00034A516801F00C000828F9D1C3E700BFB7
:10677C00001002400000FFF800ED00E00020024095
:10678C00F8B5074672B6404B53F830404FF47F00D3
:10679C00FFF7E2FBE720FFF72BFC3C4810B13C482D
:1067AC00AFF30080E720FFF731FC022600F002FB7C
:1067BC0003252046FFF7D0FBE720FFF719FC3548EF
:1067CC00FFF7DAFAE720FFF721FC3348FFF7D4FA9A
:1067DC00691E8DB2002DECD12F48FFF7CDFA0325A1
:1067EC002046FFF7B9FBE720FFF702FC2B48FFF729
:1067FC00C3FAE720FFF70AFC2748FFF7BDFA6A1E29
:10680C0095B2002DECD12448FFF7B6FA03252046AB
:10681C00FFF7A2FBE720FFF7EBFB1E48FFF7ACFAF4
:10682C00E720FFF7F3FB1C48FFF7A6FA6B1E9DB29F
:10683C00002DECD11A48FFF79FFAA8B2874210D06E
:10684C002046FFF789FBE720FFF7D2FB1348FFF741
:10685C0093FAE720FFF7DAFB1048FFF78DFA0135C2
:10686C00EBE71048FFF788FA013E9FD1BFF34F8F3B
:10687C000D4C0E4AE76807F4E06141EA0205E56059
:10688C00BFF34F8FFEE700BFC4B400080000000048
:10689C002FB50008F0490200A0860100E093040027
:1068AC00A0BB0D0000350C0000ED00E00400FA0563
:1068BC0040F0BF60024B40F40031D960704700BF1C
:1068CC0000ED00E0C37810B503B3164CE168CB4380
:1068DC00C3F302244178C4F1040201FA02F10F223D
:1068EC0022FA04F28478037822400A43110103F15E
:1068FC006043CAB203F5614181F80023007801229C
:10690C0000F01F03410902FA03F007E000780122AE
:10691C0000F01F03410902FA03F02031024B43F847
:10692C00210010BD00ED00E000E100E021F060412D
:10693C0021F07F02014B10439860704700ED00E09E
:10694C00054A82B0002301930192019BC01801906B
:10695C00019A116002B07047006C0040064982B089
:10696C00002301930191019A80180190019B1988D1
:10697C0088B202B0704700BF006C004002684FF64E
:10698C00FE73134003602D4B00219842016041605F
:10699C008160C16022D02A49884229D0294B984273
:1069AC0030D02949884237D0284B98423ED0284BCA
:1069BC00984206D153F8681C41F4700043F8680CF7
:1069CC0070472449884206D151F87C0C40F0706223
:1069DC0041F87C2C7047204B984206D153F8042C7C
:1069EC0042F00F0143F8041C70471C49884206D141
:1069FC0051F8183C43F0F00041F8180C7047184B54
:106A0C00984206D153F82C2C42F4706143F82C1C9C
:106A1C0070471449884206D151F8403C43F4704009
:106A2C0041F8400C7047104B984205D153F8542C48
:106A3C0042F4702143F8541C704700BF0800024018
:106A4C001C0002403000024044000240580002404A
:106A5C006C00024080000240080402401C0402400A
:106A6C0030040240440402405804024070B50668E9
:106A7C008C680D6A26F4FF4222F070060A6945EA1A
:106A8C0004034C6913438A692343CC6913431C43A5
:106A9C004B6A44EA03028B6A1A4332430260CB68A6
:106AAC000A68496843608260C16070BD19B10168B1
:106ABC0041F0010303E002684FF6FE7313400360DC
:106ACC00704703680AB1194301E023EA0101016030
:106ADC0070470000C3004CBF034B044B19680142C4
:106AEC000CBF00200120704700040240000002404F
:106AFC00C2004CBF014B024B58607047000402406F
:106B0C0000000240837910B5002B29D01A4B016884
:106B1C001C68CA4314401C605C6822405A600279AD
:106B2C0002F1804404F5823214682143116002683A
:106B3C009C68D1430C409C60DC6840792140102853
:106B4C00D96006D1986810439860D9680A43DA6016
:106B5C0010BD00F1804303F5823319680A4308E045
:106B6C000179006801F1804202F582331A6822EA49
:106B7C0000021A6010BD00BF00040140014B5861B7
:106B8C00704700BF00040140064B1A68596910EAAF
:106B9C00010304D010420CBF00200120704718469E
:106BAC00704700BF00040140014B5861704700BFA3
:106BBC0000040140034A044B02F188305A605860CB
:106BCC00704700BF2301674500200240024B1A6941
:106BDC0042F080001861704700200240014BD860E1
:106BEC00704700BF00200240084BDA68D20709D476
:106BFC00D868400708D4D96811F0100F0CBF0420D6
:106C0C00032070470120704702207047002002408B
:106C1C0010B50446FFF7E8FF012806D11CB1FFF7B9
:106C2C00E3FF013CF8E7052010BD002C08BF052050
:106C3C0010BD000070B505464FF400500E46FFF72E
:106C4C00E7FF04280ED1084C236943F001002061B2
:106C5C002E804FF40050FFF7DBFF226941F6FE71E6
:106C6C001140216170BD00BF0020024038B50546BF
:106C7C004FF43020FFF7CCFF042812D1094C2369C4
:106C8C0043F002002061656121694FF4302041F02E
:106C9C0040022261FFF7BCFF216941F6FD730B40F6
:106CAC00236138BD00200240CB78F0B5DA0648BF2E
:106CBC008A78098803F00F0548BF154311F0FF0FC0
:106CCC001ED004680022012707FA02F707EA010622
:106CDC00BE4211D197004FF00F0C0CFA07FC05FACD
:106CEC0007F724EA0C04282B44EA070401D1466177
:106CFC0002E0482B08BF06610132082AE3D1046088
:106D0C00FF2920D94468002202F10806012707FA5E
:106D1C0006F707EA0106BE4211D197004FF00F0C9F
:106D2C000CFA07FC05FA07F724EA0C04282B44EAB2
:106D3C00070401D1466102E0482B08BF066101320D
:106D4C00082AE1D14460F0BD836819420CBF0020D1
:106D5C0001207047016170474161704701F00302E7
:106D6C0030B592000F2404FA02F400FA02F0074B3B
:106D7C008908023153F8215025EA040443F82140D4
:106D8C0053F82140044343F8214030BD000001403A
:106D9C00014B1860704700BF00300040014B586039
:106DAC00704700BF00300040014B9860704700BF37
:106DBC0000300040024B4AF6AA221A60704700BF0E
:106DCC0000300040024B4CF6CC421A60704700BFBA
:106DDC0000300040014B1860704700BF20000E428D
:106DEC00074B1A6842F004001860196841F002025F
:106DFC001A60044B186940F00401196130BF7047E8
:106E0C000070004000ED00E0044B5A6909B11043DA
:106E1C0001E022EA00005861704700BF00100240F8
:106E2C00044B9A6909B1104301E022EA0000986111
:106E3C00704700BF00100240044BDA6909B11043DF
:106E4C0001E022EA0000D861704700BF0010024048
:106E5C000B8810B54C88028823438C8802F441526D
:106E6C002343CC8823430C8923434C8923438C89AB
:106E7C002343CC89098A23431A4393B20380828B20
:106E8C0022F400631A04130C8383018210BD03885F
:106E9C0019B199B241F0400303E023F040010A0418
:106EAC00130C0380704783889BB20AB1194301E02D
:106EBC0023EA010181807047038919420CBF00202D
:106ECC0001207047224A038890429BB212D002F5EF
:106EDC00006290420ED0B0F1804F0BD0A2F59832E8
:106EEC00904207D002F58062904203D002F5806296
:106EFC00904203D14A8823F070031343154A904201
:106F0C0008D002F58062904204D023F44073CA8802
:106F1C009BB2134303808B880A8883850C4B0285B4
:106F2C0098420FD003F5006290420BD002F54063FB
:106F3C00984207D003F58062904203D002F580633B
:106F4C00984201D1097A018601228282704700BFE2
:106F5C00002C014000100040038C70B523F001029E
:106F6C001404250C0584068C8388028B9CB222F0B9
:106F7C0073052B040D881A0C26F0020633042A43E1
:106F8C004E880D891B0C3543ADB22B43134DA842D3
:106F9C000FD005F50065A8420BD005F54065A84259
:106FAC0007D005F58065A84203D005F58065A84299
:106FBC000ED123F008064B898D881E4326F004035E
:106FCC002B43CE898D8924F440743543ADB22C43C8
:106FDC00C988848002838186038470BD002C0140A3
:106FEC00038C30B523F010021404250C0584038C9B
:106FFC008288048B23F0200324F4E6452C040D88AE
:10700C00240C44EA05241D042B0C0D8992B243EA8E
:10701C0005134D88A4B243EA0513124D9BB2A84246
:10702C0003D005F50065A84215D14D8923F08003E6
:10703C009BB243EA05134FF6BF751D408B8822F4B3
:10704C00406245EA0315ABB28D8942EA8502CD89CF
:10705C0042EA850292B2C988828004830187038444
:10706C0030BD00BF002C0140038C30B523F480727E
:10707C001404250C0584038C8288848B23F4007300
:10708C0024F073052C040D88240C2C431D042B0CAC
:10709C000D8992B243EA05234D8843EA0523124D2C
:1070AC009BB2A84203D005F50065A84215D14D89C5
:1070BC0023F400639BB243EA05234FF6FF351D40D2
:1070CC008B8822F4405245EA0325ABB28D8942EA03
:1070DC000512CD8942EA051292B2C9888280848356
:1070EC008187038430BD00BF002C0140038C30B578
:1070FC0023F480521404250C0584038C8288858B20
:10710C0094B225F4E64215042A0C0D8823F400539E
:10711C0042EA05221D042B0C0D8992B243EA053379
:10712C004D8843EA05330A4D9BB2A84203D005F5BE
:10713C000065A84205D18D8924F4804444EA851465
:10714C00A4B2C98884808283A0F84010038430BD27
:10715C00002C014000214FF6FF7383800180C18019
:10716C004180017270470023038043808380C38079
:10717C00038143818381C3817047038819B199B21C
:10718C0041F0010303E023F001010A04130C038016
:10719C007047B0F8443029B16FEA43436FEA53416A
:1071AC008AB201E059044A0CA0F844207047838944
:1071BC009BB20AB1194301E023EA010181817047B6
:1071CC00038819B199B241F0800303E023F08001E8
:1071DC000A04130C03807047038B23F0080213047A
:1071EC001A0C114301837047038B23F400621304C0
:1071FC001A0C42EA01218BB203837047838B23F074
:10720C00080213041A0C114381837047838B23F4F7
:10721C00006213041A0C42EA01218BB2838370477B
:10722C00038A828911EA030092B203D011420CBF87
:10723C00002001207047C9438AB202827047017056
:10724C000B0A0A0C090E43708270C170043070472F
:10725C000170090A41700230704743185A78405C3B
:10726C0000EB022188B2704710B543189A78DC788D
:10727C00415C120402EB04625878521802EB0020B5
:10728C0010BD000073B544790023022C01930FD07C
:10729C00032C19D0012C2BD1164D28692E4620B168
:1072AC00296901A888470246B8B9B16801201BE0DA
:1072BC00104DE8682E4620B1E96801A888470246BF
:1072CC0058B9B16802200FE00A4D6A692E464AB1DE
:1072DC006B6901A89847024620B1A9682046BDF801
:1072EC00043003E0B16803200022134600F0FDFBDC
:1072FC007CBD00BF34020020072830B512D801290C
:10730C0010D8EFF3108472B6012505FA00F501FAD6
:10731C0000F0054B1A6822EA050202431A60E307E3
:10732C0000D462B630BD00BFAC000020F0B5012126
:10733C0087B00546FFF791FF00F48043044698B2EE
:10734C0050B3B4F5824F27D128460521FFF785FFAE
:10735C000026074607353446BE4208D0284602218F
:10736C00FFF77BFF013624180435B6B2F4E7744BF3
:10737C00188E21188AB21A86D86B2418DC63D96B44
:10738C009A6B914240F0CE8093F84000002800F0B8
:10739C00C9809B69992033E024F4FF4121F07F02DE
:1073AC0090B2002800F09B8048F2100294422AD040
:1073BC000CD8B4F5004F40F2C08048F202039C4256
:1073CC0017D9991C8C4240F0B88012E048F280002A
:1073DC0084420ED005D848F24002944240F0AD8071
:1073EC0051E0B4F5024F04D0B4F5084F40F0A5803D
:1073FC006CE053498869002800F094808B69204622
:10740C0000210A4669E00023EA1851790DF80310AF
:10741C000133042BF8D1687A2B7BAA7AE97A8DF8A0
:10742C0004008DF807308DF805208DF8061005F155
:10743C000D00002306AAD218C15C0133042B02F8FC
:10744C00101CF7D105F11100002306AAD218C15C5B
:10745C000133042B02F80C1CF7D105F115000023A5
:10746C0000AAD218C15C0133042B1174F8D1344931
:10747C0028798A698DF81400002A53D08B6920462C
:10748C006946152229E0053500212846FFF7ECFE58
:10749C00042100902846FFF7E7FE082101902846BA
:1074AC00FFF7E2FE0C2102902846FFF7DDFE1021CB
:1074BC0003902846FFF7D8FE214B049099690029C8
:1074CC0030D09B6920466946142206E01C4882692C
:1074DC0042B38369691D20460122984722E041F29C
:1074EC0003039C4205D00C339C4202D0591E8C42A3
:1074FC001AD16C1D04212046FFF7B6FE39301CD181
:10750C002D790F480021C5622046FFF7ADFE0421FE
:10751C0005462046FFF7A8FE393003D12846012145
:10752C00FFF7EAFE012009E0054A138899B28C4264
:10753C0004D0B4F5805FF5D100E0002007B0F0BDB9
:10754C003402002038B5104B5D88ADB2CDB158680F
:10755C000478221F514251EB02042CB1FFF7E6FED6
:10756C00003018BF012000E02046054620B944B188
:10757C00054B93F8412022B9034800214180FEF7C6
:10758C0037FA284638BD00BF340200202DE9FF47EA
:10759C00044689469046FFF76FF800250190BA4BD8
:1075AC005A8890B2002840F09280FFF703FCFFF756
:1075BC0063F80290029901980A1A0392039B002B1C
:1075CC0003DA0199029842180392B04B196800290A
:1075DC00E5D003988842E2D3AB4A41F20700138806
:1075EC0099B2814224D8421E91425FD240F20223CA
:1075FC0099425BD00DD80C2906D8082956D20029FF
:10760C004DD0062952D959E00D294CD040F2012217
:10761C000BE041F2020081424BD8B1F5805F45D8B6
:10762C00B1F5017F3FD940F20722914237D13AE0C0
:10763C0041F21103994236D014D841F20B00814229
:10764C0034D005D841F2090291422FD031D82AE02A
:10765C0041F20F0399422CD028D841F20D008142FF
:10766C001DD126E042F2060291421CD007D8B1F59A
:10767C00005F14D942F20403994214D921E0B1F508
:10768C00804F00F0F28105D8A1F500500838012890
:10769C0005D808E044F20B02914200F0E6810B2081
:1076AC00FFF76EF8E1E1FF212170DEE14FF0FF31D1
:1076BC0005E04FF0FF3121606160D6E100212160CF
:1076CC00D3E1204600213A2200F020FBCDE15E6898
:1076DC003178042940F07E8101213046FFF7BDFD51
:1076EC0005463046FFF722FE0146002840F068812F
:1076FC0041F20700771D854250D8411E8D4280F023
:10770C00AF8040F20222954200F0AA8011D80C2DD5
:10771C0009D8082D80F0A480002D00F05181062D91
:10772C0040F29E80EAE00D2D00F0978040F201239C
:10773C007EE041F202039D4218D8B5F5805F00F25D
:10774C008F80B5F5017F40F2888040F207218D4291
:10775C0040F036813079002104F8010B3846FFF7F0
:10776C0083FD01462046FFF76AFD29E141F2040240
:10777C00954200F0998040F2B08038460021FFF726
:10778C0073FD042120603846FFF76EFD60600834FD
:10779C0006F10D07234606F11D017EE041F21102B0
:1077AC0095425AD02CD841F20B039D4258D01CD88C
:1077BC0041F209018D4253D000F29B8000213846E2
:1077CC00FFF752FD042120603846FFF74DFD0821DC
:1077DC0060603846FFF748FD0C21A0603846FFF783
:1077EC0043FD04F10C0AE060E9E041F20F0295421E
:1077FC0073D03BD841F20D039D4240F0E18053E041
:10780C0042F20500854200F09D8008D841F2120238
:10781C0095423DD0B5F5005F40F2D2801DE042F2BA
:10782C0009018D4208D84F1EBD4216D242F2060302
:10783C009D4240F0C58010E044F20B00854240F0C0
:10784C00BF807279DFF840A038460121AAF83020B9
:10785C00FFF703FDAAF83200B2E031792170AFE0F6
:10786C0038460021FFF700FD2060A9E000213846D2
:10787C00FFF7FAFCA2464AF8040B04213846FFF73E
:10788C00F3FC60609BE000BF34020020EC010020A0
:10789C003846FFF7E2FC208092E057F8040B8F4249
:1078AC0043F8040BF9D18BE000213846FFF7DCFCE0
:1078BC00042120603846FFF7D7FC08216060384669
:1078CC00FFF7D2FC04F1080AA060E46814F1390354
:1078DC0075D10121FFF710FD71E000213846FFF74B
:1078EC00C3FC042120603846FFF7BEFC60600834FE
:1078FC0066E0307920713F68276061E038460021EE
:10790C00FFF7B2FC042120603846FFF7ADFC0821DC
:10791C0060603846FFF7A1FC0A21A0603846FFF7EB
:10792C009CFCC4F80A000C3406F11103274606F13E
:10793C00350153F8040B8B4247F8040BF9D11A8824
:10794C003A803DE077187B79635401310429F9D1F1
:10795C0006F109000027C15DE2190137042F1171EE
:10796C00F9D106F10D000023C15CE2180133042BA0
:10797C001172F9D106F111070022B85CA11801327D
:10798C00042A0873F9D106F115070023F85CE118F5
:10799C000133042B0874F9D106F119070021785C26
:1079AC006218013106291075F9D106F11F07002361
:1079BC00F85CE2180133202B9076F9D100E05446A4
:1079CC002C4F388882B2954236D100233B8087F801
:1079DC00413031E0DF8EBBB273B33046032196F8F1
:1079EC0002A0FFF73AFC0746B9F1000F0CD00421B6
:1079FC00701DFFF739FC0246C8F8000006F11501AE
:107A0C004846D2B200F0D4F8CAEB0707781EB0F59E
:107A1C00806F07D20AF10501204671183A4600F032
:107A2C00C7F801E04FF0FF37B8F1000F01D088F82C
:107A3C000070104B0022DA860E4F00207880FDF784
:107A4C00D7FF3278042A05D1B5F5805F02D13046D4
:107A5C00FFF718FC3B8899B200297FF4A0AD0548CC
:107A6C00C28E93B2002B7FF49AAD002004B0BDE817
:107A7C00F08700BF34020020034B18800846002119
:107A8C000A46FFF783BD00BF3402002010B5034B3C
:107A9C000124DC86BDE81040FFF778BD34020020DD
:107AAC0038B50346154601224A710C46881D194605
:107ABC00FFF7CEFB291D05702046FEF707F80020C6
:107ACC0038BD38B59B180C469DB202216171A0716E
:107ADC00E271294604F10800FFF7BAFB6A1D204643
:107AEC0091B2BDE83840FDF7F1BF2DE9F0471D46D6
:107AFC0005F1020A032301F107091FFA8AFA8871BA
:107B0C004B710C46484651461746FFF7A1FBB5F59D
:107B1C007A7F804613D82946FFF79AFB29464046C0
:107B2C00FFF796FB394604F10B002A4600F040F8AB
:107B3C00A91D204689B2BDE8F047FDF7C7BF4FF439
:107B4C007A76B5FBF6F10AEB410291B2FFF780FBB6
:107B5C0031464046FFF77CFB394604F10B003246B8
:107B6C0000F026F8A5F57A75204640F2EE31ADB25C
:107B7C00BF19FDF7ABFFB5F57A7F05D9A5F57A707E
:107B8C0085B24FF47A7601E02E460025A0463946A0
:107B9C0028F8056F4846324600F00AF8B31C4046F8
:107BAC0099B2BF19FDF792FF002DE4D1BDE8F08723
:107BBC000F2A2DE9F00340F2A18041EA00039B0754
:107BCC0040F09E800C68A2F1100504604B68AC4636
:107BDC0043608C68BCF10F0F8460CC68C5F3001552
:107BEC00C46000F1100301F110042BD975B12568A4
:107BFC00ACF1100C1D6065685D60A5689D60E56862
:107C0C001034DD601033BCF10F0F1BD9276804F161
:107C1C0010061F60676803F110055F60A768ACF180
:107C2C00200C9F60E768DF6024691C61776806F1AF
:107C3C0010046F60B7682033AF60F668BCF10F0FAB
:107C4C00EE60E3D8A2F1100828F00F0302F00F0445
:107C5C0003F1100C032C00EB0C0301EB0C0851D9B5
:107C6C00211F4FEA9109444608EB890C54F8046B28
:107C7C00C8EB0C010CF1040C1D46644545F8046B73
:107C8C00C1F3800112D029B154F8041B644545F8A6
:107C9C00041B0BD0274657F8041B2E4646F8041B32
:107CAC0064686C603C1D351D6445F3D109F1010C11
:107CBC004FEA8C0902F0030208EB09014B44D2B1E4
:107CCC000D789A18DC4303F8015B1419934204F005
:107CDC00010410D02CB111F8014F03F8014B934261
:107CEC0009D04D781C4604F8015B8D7802315D702B
:107CFC00631C9342F5D1BDE8F00370470346DEE701
:107D0C000346DDE741462246D9E700BFF0B48407BD
:107D1C00034600F08D80541E002A00F08780E50792
:107D2C00CEB211D41A4602F8016B134615469207CF
:107D3C0010D0621E002C79D003F8016B14469A0700
:107D4C001D4607D0013CEDE7034603F8016B9A078B
:107D5C001D46F7D1032C52D9CEB246EA06270F2C7A
:107D6C0047EA07432DD9A4F1100217460F2FC2F38F
:107D7C0000162B606B60AB60EB6005F1100216D93E
:107D8C003EB1103F136053609360D36010320F2FDD
:107D9C000DD9203F02F11006136053609360D3603D
:107DAC00136153619361D36120320F2FF1D8A4F189
:107DBC00100222F00F0204F00F041032032C1544B1
:107DCC001DD9271F3E462A46032E42F8043BC7F313
:107DDC0080070DD927B1043E032E42F8043B07D986
:107DEC00174647F8043B083E53603A1D032EF7D85C
:107DFC00231F23F00302131D04F00304ED18ACB190
:107E0C00C9B2EA432C1905F8011BA318A54203F0CB
:107E1C0001020BD01AB105F8011BA54206D02B4666
:107E2C0003F8011B69705D1CA542F8D1F0BC7047CA
:107E3C00054614468EE700BF030001011414002709
:107E4C0027272727272727272727272727232525BE
:107E5C002525252525252523232323000000000087
:107E6C000000000000000000000000000000000006
:107E7C0050505050505050505050505050505050F6
:107E8C0050505050505050505050505050505050E6
:107E9C005050500177801D1F222628291A1F22249A
:107EAC002628161D1E2024251E2D0102020202006A
:107EBC001515151115150E0000010000501F0000BE
:107ECC00F0031800E46208009600000000000000B7
:107EDC000000000000000000000000000000000096
:107EEC000000000000000000000000000000000086
:107EFC000000000000000000000000000000000076
:107F0C000000000000000000000000000000000065
:107F1C000000000000000000000000000000000055
:107F2C000000000000000000000000000000000045
:107F3C000000000000000000000000000000000035
:107F4C000000000000000000000000000000000025
:107F5C000000000000000000000000000000000015
:107F6C000000FFFF7A63080096000000000000008C
:107F7C0000000000000000000000000000000000F5
:107F8C0000000000000000000000000000000000E5
:107F9C0000000000000000000000000000000000D5
:107FAC0000000000000000000000000000000000C5
:107FBC0000000000000000000000000000000000B5
:107FCC0000000000000000000000000000000000A5
:107FDC000000000000000000000000000000000095
:107FEC000000000000000000000000000000000085
:107FFC000000000000000000000000000000000075
:10800C000000FFFF10640800960000000000000054
:10801C000000000000000000000000000000000054
:10802C0007200C4908600C481930F74630B5051C80
:10803C00AC6968685F3009D1606B0C3801218E46E1
:10804C000649FE44084700206063AC696C60044834
:10805C005B3030BD403B080049D0010009EA02000A
:10806C0091E1000000000000000000000000000092
:10807C0000000000000000000000000000000000F4
:10808C0000000000000000000000000000000000E4
:10809C0000000000000000000000000000000000D4
:1080AC000000FFFFA664080096000000000000001E
:1080BC0000000000000000000000000000000000B4
:1080CC0000000000000000000000000000000000A4
:1080DC000000000000000000000000000000000094
:1080EC000000000000000000000000000000000084
:1080FC000000000000000000000000000000000074
:10810C000000000000000000000000000000000063
:10811C000000000000000000000000000000000053
:10812C000000000000000000000000000000000043
:10813C000000000000000000000000000000000033
:10814C000000FFFF3C6508009600000000000000E6
:10815C000000000000000000000000000000000013
:10816C000000000000000000000000000000000003
:10817C0000000000000000000000000000000000F3
:10818C00F0B585B0051CA888009028890190E96895
:10819C000291287C03902A6A0020175668600029F7
:1081AC004CD0002F4ADCCA490C1C082604902188AC
:1081BC00009881420CD162880198824208D14620F5
:1081CC00025D0398824203D10E200057B8420AD0B8
:1081DC004620005D112822D1009881421FD10E202B
:1081EC000057FFFFD265080096000000B8421BD173
:1081FC000420021C0298B94901239E46EC4BFE4414
:10820C001847002817D0201D0299042201239E46EE
:10821C00E74BFE44184700280DD04620005D11287E
:10822C0009D0A06D002806D0AC340498013004901D
:10823C00013EC1D107E004980006000EAC21414379
:10824C00A64840186860A648AD3005B0F0BD00B532
:10825C00C2689069022101239E46A24BFE44184736
:10826C00A248613000BD01790B2903D089009F4AD7
:10827C00515A01E00121490241609D480D30F746F9
:10828C00011CFFFF68660800960000009C4802680D
:10829C009C48012A01D12530F7469B4A12684A6056
:1082AC001930F74600214160994898490818F7465B
:1082BC00002141609748E7490818F746FFB5466921
:1082CC004068019094490A7C9A4F012A63D0097C3A
:1082DC00032960D0914A924B0021029159562423D4
:1082EC00594353180393012817D18A1804236C4659
:1082FC008C4915790878C04328432070013201312C
:10830C000134013BF5D1311D6846042201239E4600
:10831C00A94BFE441847002840D0351D82480078F0
:10832C00FF28FFFFFE6608009600000011D0002811
:10833C000FD00398011D281C0124A6467E4AFE443A
:10834C001047002805D17A48A6467B49FE440847C9
:10835C0005E0281C01218E467849FE440847019906
:10836C00012901D100281ED101995F3101D00028CB
:10837C000FD1A820815D002908D0491E8155805D50
:10838C00002809D1381CFF30083011E0032102917C
:10839C0000E0A82002998155381CFF30163007E008
:1083AC000198012802D1381CA33001E0381C9F3001
:1083BC000090FFBD00B5021C106AD1695269C369F7
:1083CC005A60FFFF94670800960000000122964651
:1083DC005E4AFE4410475E48FF306E3000BD10B55B
:1083EC000A1C4169006A9369DB6958609069012431
:1083FC00A646564AFE441047A6465648FE44004739
:10840C005548FF30B63010BD70B5051C6E69534829
:10841C0002685C21885D042815D107208855100B53
:10842C0011D20124A6464E48FE44004700280AD02B
:10843C0047218957C1601121C90200220423A64695
:10844C00E84CFE442047012068604348ED49081879
:10845C0070BD70B5051CAE699C2080194B2189003C
:10846C000124FFFF2A68080096000000A646E84A8F
:10847C00FE4410475C21885D072801D1092000E0EB
:10848C000520AA698854301CA646E949FE440847D1
:10849C006860E8484D3070BDF0B54168826888234B
:1084AC005E1837880B6F002B01D1002F10D1062FCF
:1084BC0002DD0021C94307E033889B00C9180A6715
:1084CC0031880131318001218160E1481D30F0BDDE
:1084DC000B1C01245D6F1D6704330134062CE1DA9B
:1084EC00F8E700B50021C160E94801681031E648A1
:1084FC00202201239E46E74BFE441847E548FB30FB
:10850C0000BDFFFFC068080096000000140D1B00A2
:10851C0054191B00911A01004BAD0300614E010070
:10852C00063208001F0B0200543F080045C1000032
:10853C00843C08001B020000ED170000F3C1010091
:10854C0034191B0008191B00A64408001C171B003B
:10855C0018171B00CB6703000D47020039420300BC
:10856C00BDE70200B1400300B9EA010045DA0000A2
:10857C002441080071C00200F0B588B00691079044
:10858C008669F01CD9A104220124A646144BFE4492
:10859C001847002832D1F279D7480270357A777AA9
:1085AC00781BFFFF5669080096000000431C93429D
:1085BC001DD0162A0CDB002D0AD1D64804700A20D7
:1085CC008119D0481A1CA646B84BFE44184774E0D3
:1085DC00D2480470CC4840190A2189197A1B521CC4
:1085EC00A646B14BFE44184767E08FC60300C94846
:1085FC000470C94804700A208119C248A646AA4BC7
:10860C00FE44184759E0F01C03210A1CBCA1A646E5
:10861C00C64BFE44184700284FD1F179BB48017076
:10862C00BB4DB2792A7003201749F431A646B84BDA
:10863C00FE441847287800280BD1FFE7B8490C7086
:10864C00B849FFFFEC690800960000000C7003208D
:10865C000F49F531A646B64AFE441047201CF27964
:10866C00357A777A791B4B1C934220D0A94909782B
:10867C0016290FDB002D0DD1AB4908700A2081198A
:10868C00E9481A1CA6468B4BFE4418471AE0C04614
:10869C00C7040000A5490870E34840190A2189194C
:1086AC007A1B521CA646834BFE4418470AE09E498F
:1086BC0008709E4908700A208119DB48A6467D4B3C
:1086CC00FE4418479648007800280AD09548007850
:1086DC00002806D094480078002802D093480078EF
:1086EC000028FFFF826A08009600000000D18CE091
:1086FC00032017218901A646904AFE44104787485B
:10870C00017887480778844E834DE048006800283C
:10871C002ED1079841610662C648069A1064022F52
:10872C0001D0032F01D1032200E03A1C069BDA632F
:10873C002A789A63012F03D1052904D00D2902D080
:10874C00EC48DB3064E0002500950191029603951E
:10875C0004902B1C201C011C8E46E64EFE44304718
:10876C00E6480460281CA646E549FE4408474CE050
:10877C000D270020391C05AAA646E34BFE441847DA
:10878C006846FFFF186B080096000000808A4008BE
:10879C0005D2381C5021A646DC4AFE441047381C32
:1087AC00211C0B1C291C0022A646D94FFE4438471D
:1087BC002B780D20311C221CA646D54EFE4430478A
:1087CC0028780130021C0D205749231CA646D04E98
:1087DC00FE443047554E28780230021C0D20311CC7
:1087EC00231CA646CA4FFE443847307800280AD0CE
:1087FC0028780330021C4C4803780D208F49A6467C
:10880C00C34DFE442847BF4804600020A646BE491D
:10881C00FE440847B948EC49081808B0F0BDC046FA
:10882C007BC0FFFFAE6B0800960000000200011C2D
:10883C00E9480268E948002A04D000220A628A61E9
:10884C001D30F746D730F746C0469F0300007DB871
:10885C000300011CE2480268E248002A02D0FF3003
:10886C00B430F7460022CA618A614F30F746C921FD
:10887C00010091E10000DB4801688A690120C00316
:10888C001043886100200861D8482330F7468917C7
:10889C00020070B5051CD54E296AEA69301C01240A
:1088AC00A6460B4BFE4418476869A646D149FE44C0
:1088BC000847A8690630A860CF4800686860EE6079
:1088CC00CE48FFFF446C0800960000006D3070BD70
:1088DC0046171B00303F080041EB000009B40300B1
:1088EC0030B5EE48016D806C084318D0EC49081C7B
:1088FC000722FF2309331B58002B04D0FF301D30F7
:10890C00013AF6D10BE00220F04AF14B0124A646C5
:10891C00F04DFE442847A646EF48FE440047EF487A
:10892C00FF305C3030BDC0465353494400C046C094
:10893C004B455900EE620800F0620800EC6208003A
:10894C00ED620800E77E0300E8620800E9620800B7
:10895C00EA620800EB620800DD7E03008FC60300AC
:10896C00F0B5FFFFDA6C08009600000087B00091AC
:10897C0001906B480168CC4A141C02940726002510
:10898C00039504940595DF480068084327D0E068F8
:10899C00039988420ADD0390401C00998860C24903
:1089AC00FF201D3068430C18E06804910299C968D7
:1089BC00884210DB884210D102980127BE46CE496E
:1089CC00FE4408470690201CBE46CB49FE4408478F
:1089DC000699884201DA0595029451480168FF27EF
:1089EC0009373859002806D0C7480068072E00D12F
:1089FC002E1C084304D0FF341D340135072DC2DB77
:108A0C00072EFFFF706D0800960000000AD1C048C9
:108A1C000068084306D0059E301C01218E46BA49D9
:108A2C00FE4408470198476100218161FF221D32F5
:108A3C00724304998918C1610662B448393007B091
:108A4C00F0BD10B5041C002001218E46B149FE4436
:108A5C000847401E00D500206060E061AE48213020
:108A6C0010BDC0461063080070B5041CE56966694A
:108A7C00002001218E46A749FE4408476060AB19CF
:108A8C00A64AA549934202D39A1A824202D9081CDB
:108A9C00993070BD081CAB3070BD086B417D0288ED
:108AAC009200FFFF066E080096000000511A3C3938
:108ABC00FF225F32914203D965210180022181732B
:108ACC009B4899490818F746C04630630800F8B52A
:108ADC0040682421414397484518281D0C21491909
:108AEC00042201239E46944BFE441847914C0028C7
:108AFC001BD02B1C04226E4691491F7B0878C04367
:108B0C0038433070013301310136013AF5D10C2074
:108B1C0041196846042201239E46874BFE441847A0
:108B2C00002802D0201C4A30F8BD201CF8BDB1BD75
:108B3C00000015950000583F0800F3F80000E90903
:108B4C000200FFFF9C6E0800960000002B0902003B
:108B5C00DD0A0200F8B5051CAA697D4900200856FB
:108B6C00242141437648431804246E4676491F79E4
:108B7C000878C04338433070013301310136013C71
:108B8C00F5D1111D684604220124A6466D4BFE4406
:108B9C001847011C6D4804D06E490978696045304E
:108BAC00F8BDEC61AF30F8BD70B5C56881680A8955
:108BBC006D4E002A22D00124C26DA218C26508890C
:108BCC000D281BD1686B211CA646634AFE44104736
:108BDC00221C281C0021A646604BFE4418472C6022
:108BEC00E96BFFFF326F080096000000281CA646B8
:108BFC005E4AFE441047281CA6465C49FE440847C2
:108C0C00301C3D3070BD301C233070BDC046B102ED
:108C1C000000743F080019C600005C3F08001DC22C
:108C2C0000006844080043120300346308002F7AE4
:108C3C000200B43608008FF40100F0B5051CAB69D6
:108C4C00EC69606800682A3001780A0641780904EA
:108C5C008A18817809028A18C1788A188E26F15AE6
:108C6C00090A0170F05C616809682B2670548C202D
:108C7C00C01861680E680188090A2C27B95561680B
:108C8C000968FFFFC86F0800960000002D260078C9
:108C9C00705460680168323108780002497808180D
:108CAC000004000C8C21CB58354941400804000CC1
:108CBC00C018801A01218E463249FE44084761686B
:108CCC000A683223010A99546168096833225054A6
:108CDC00606868602C48F0BD00001B0034041B0069
:108CEC00026A8B69DB691B6883608869C0694168AB
:108CFC008A4200DA426025487930F74624485730DA
:108D0C00F74624489130F74632040000C4070000AF
:108D1C0015090200C59300000D910000401E800053
:108D2C001E4BFFFF5E7008009600000019501C4996
:108D3C000A50F746C046BDB5000095920000FD9361
:108D4C000000543F0800294F0300DFE80200368979
:108D5C00410081060000B178000094EC0100081974
:108D6C001B008FC603001C171B0067660300A6447C
:108D7C00080018171B00A72F0200914403009163F1
:108D8C0003005B440300E7440300FFFF000061A203
:108D9C0003006A1E010045DA0000D7E80100E978FB
:108DAC00020004F31A00807B0800FCB5041CA569C2
:108DBC00606A01902069002835D4082833DAE1690B
:108DCC000968FFFFF47008009600000010292FD1ED
:108DDC00AC2141439E4A515C490827D3000600163A
:108DEC00A268694601239E469A4BFE441847061C0E
:108DFC0039301FD0002E1DD00098076800990C390F
:108E0C0001980160281D1021791A042201239E4625
:108E1C00914BFE44184702222A80A81C0821791A7B
:108E2C0001239E468C4BFE44184703E0382000E09B
:108E3C000020C643266089487C302062FCBD30B5DA
:108E4C00051C2869A96990291DD16969097804292B
:108E5C0019D0052917D00A2915D0062913D00C29A9
:108E6C0001DBFFFF8A7108009600000010290FD16A
:108E7C000124A6467D49FE4408477C487D490022D2
:108E8C00A6467C4BFE4418477C48FF305F30286276
:108E9C0030BDF0B589B00590416902697548794ECD
:108EAC0082423AD00430824225D0744DAA4200D07E
:108EBC00CCE00868061C0C228F1A4A688918091D18
:108ECC0010220124A6466E4BFE441847011C09D102
:108EDC00AC227243CB4880184622125C112A01D175
:108EEC0044221454281C3A1CA646624BFE441847D4
:108EFC006948EC30ABE00868C00030188A68022A78
:108F0C0002D0FFFF2072080096000000E7208000CE
:108F1C00A2E0CA688918097B4160802101603B206E
:108F2C00000199E008680690C000345810200490A5
:108F3C000125AE465748FE4400470790002800D153
:108F4C0089E00C2107980F18B049AC20069A5043C1
:108F5C0008184822135C5B065B0E1354069AD20069
:108F6C00B6187168002947D1002C01DD082C21DBD3
:108F7C00002269460A7001920A818A72CD720D73C1
:108F8C004D73018844480623AE46444CFE442047AA
:108F9C00041C02DC0020C04336E03460AC2060438B
:108FAC009A49FFFFB67208009600000009185C226F
:108FBC00281C50544820425C5206520E4254AC209D
:108FCC006043944908185C21095C491E022916D992
:108FDC00033908D000203056AE46EA49FE44084713
:108FEC0080203060DBE70894802131604822135CDC
:108FFC0019431154AE46E449FE4408470AE00120E7
:10900C00CEE70698391C04AAAE46E04BFE4418473E
:10901C00041C08900698386008987860002815D0D1
:10902C00AC2060437C490918488802040220104394
:10903C00B8604868020E0102090E090211430204CD
:10904C00120EFFFF4C7308009600000012040A4336
:10905C0000061043F86007980D4900221023AE4615
:10906C00CE4CFE442047134800E01620CC4909188A
:10907C000598016209B0F0BD5D0D1B0081E702008F
:10908C0009B40300271A02002F7A02000202000022
:10909C0005100000CFF60000D5F40000021000000F
:1090AC00911902005065080071C0020050191B0094
:1090BC00291601002A030000F0B58BB00790056952
:1090CC0047690C20381A0890B6498D4216D1786839
:1090DC000F3000110001786038680B280ED800237F
:1090EC006846FFFFE27308009600000003700898C2
:1090FC0005220124A646AE4CFE442047AE48FF3064
:10910C00953007990862AC48854223D1AC48027867
:10911C006C462272437863728178A172C078E072D7
:10912C00009101900320A64901390126B646F34E61
:10913C00FE4430470420207008989F49002202AB5F
:10914C000124A6469B4CFE4420479A48FF3095309C
:10915C0007990862EB498D4214D1022268460270CD
:10916C003A68AC2042433048683083180898002293
:10917C000124A6468F4CFE4420478E48FF30953084
:10918C000799FFFF78740800960000000862EF480A
:10919C00854200D004E103208C4901229646EC4A1A
:1091AC00FE4410478648FF30953009903868EA4DE8
:1091BC00002800D1E2E00124A646E648FE44004720
:1091CC00002800D1D6E0E448026803207F49013131
:1091DC00A646E24BFE441847DF48006800285AD1E7
:1091EC00DF4D2E204119B86803300870387A48706A
:1091FC002E1C3036B86828183030DA490A68303AF4
:10920C00311CA646D84BFE44184778683818011D07
:10921C00BA68301CA646D94BFE441847B8684119A9
:10922C009722FFFF0E75080096000000093050547D
:10923C00B86846199E3630700136B86801E0140DD6
:10924C001B003018CA490A689E3A311CA646C84B06
:10925C00FE44184778683818011DBA68301CA646B9
:10926C00C94BFE441847B8684000C0490968081843
:10927C002818C0490A7902704A7942708A7982703A
:10928C00C979C17004300F21411A0A78BB689A1849
:10929C000A70401B0004000CB5490860B14804601A
:1092AC000220011C1122A646B44BFE441847061C92
:1092BC0063D40320A646B149FE4408470A90002512
:1092CC00011CFFFFA4750800960000008D4250D0D1
:1092DC00291C2B22A646AD4BFE4418470C200A999C
:1092EC004018AC227243AB498F187863291C1822A2
:1092FC00A646A64BFE4418479F480268796B4A6005
:10930C000A98AC30086008689A49A646A04BFE44FF
:10931C001847291C03A81022A6469C4BFE4418474C
:10932C00E0216846017445748574FB21C174EE49D3
:10933C00C18102218181796BCA680120C00310436D
:10934C00C860486800902A1C301C0A9D291C03AB7D
:10935C00A646E64FFE443847071C30060016A646C4
:10936C00EF49FFFF3A76080096000000FE440847DC
:10937C00281CA646EE49FE44084711E030060016AC
:10938C00A646E949FE4408470120C74308E0071CEC
:10939C0006E000200021CF4301E00020071C2860DC
:1093AC000023684603703A06120E08986F49012490
:1093BC00A646094CFE4420470798099901620BB058
:1093CC00F0BDC1180100F11B0100F31C02007BC0B1
:1093DC00020091F0000003020000A3C00200A9E902
:1093EC00000007020000E4620800AC050000FEB5B6
:1093FC00071C7D69BE690C20301A0190DF4C0A2DC8
:10940C0013D1FFFFD0760800960000003068DB49CE
:10941C00086001208646DA48FE4400470A200021F5
:10942C00019A01239E46E64BFE441847F520800026
:10943C0000193862032D79D1F520800000190290B3
:10944C00706800280CD10021CF480160CF4800681B
:10945C00002861D001218E46CD49FE4408475BE0CF
:10946C00CC48B1680160F168416031698160716913
:10947C00C160B169C163F1690164316AC1640124DD
:10948C00A646C548FE440047A646C448FE440047CD
:10949C0070687D25ED00A84221D8012818D002283B
:1094AC0005D0FFFF6677080096000000281CA64632
:1094BC00BE49FE4408471CE0B9480023191C594317
:1094CC003E224A43828302300133102BF6DBA64640
:1094DC00B448FE440047B5480DE0B54D281CA646DF
:1094EC00B249FE44084704E0A646AF49FE4408478B
:1094FC007568AE480560051CA74E3068002806D17B
:10950C00AD480068A646AC49FE440847306000945C
:10951C002B68AA49AB4AA646AB4DFE4428479C484B
:10952C00046003200021019A01239E46A74BFE44B0
:10953C00184702983862FEBDC046137F0300121014
:10954C000000FFFFFC7708009600000030B5051CFA
:10955C0000200124A646A049FE440847A6469F4980
:10956C00FE440847A6469E48FE4400477D21C9009C
:10957C00A6469E4AFE4410479B4908189949088004
:10958C009B480A30286230BD11100000DD7E0300BC
:10959C00B99000006C640800E77E03007464080056
:1095AC00706408006DC6030008191B001118020036
:1095BC00D1780200C9BA030009B40300140D1B00D2
:1095CC00FEB502904569684601218E468949FE44E4
:1095DC0008478948041C686801694A7800273E1CC2
:1095EC002088FFFF9278080096000000400822D3E4
:1095FC00201D891C01239E46834BFE4418470028DE
:10960C0007D168680069407821880904891681426D
:10961C003DD00220005F0099081A000400143C2879
:10962C0003DD2088401040002080781C07063F0E88
:10963C00686801694A782A340136142ED5DB002A71
:10964C0002D1AB20400050E0009B6D481421002259
:10965C000488640803D32A3001320139F8D1120688
:10966C00120E142F16D16648008800064416644961
:10967C00002201204E8D36067616A64202DD341CE1
:10968C000206FFFF2879080096000000120E2A310E
:10969C0001301428F3DB02E03206120E009B2A2064
:1096AC0042435A4811180C88012020430004000C36
:1096BC000880FE24A043142464576406240E04433B
:1096CC00524814521418638008888005820D68680B
:1096DC000069407880021043088068680269201D88
:1096EC00911C527801239E464B4BFE44184702981E
:1096FC000461FE204749091802980162FEBD826987
:10970C0041690369022B0AD1012A01D1002905D034
:10971C00022A04D1002902D1112100E00621416165
:10972C00F746FFFFBE79080096000000C04614E91A
:10973C000000C918020030B5051C3A480078002812
:10974C0004D0012086463848FE4400470124A64632
:10975C003748FE440047A6463648FE440047354885
:10976C000E30286230BD491901002F7A020018B55D
:10977C00436981693148812900D10B38002100915E
:10978C001A689B680124A6462D4CFE44204718BD40
:10979C0018B54069002100910268836827480130A0
:1097AC000124A646264CFE44204718BDC046306313
:1097BC000800199E0000B9EC0000743F0800803FBF
:1097CC000800FFFF547A080096000000B75D030004
:1097DC0000001B00D38E0000F7C60000E5900000CF
:1097EC0068640800C0270900A03B08003D5D030029
:1097FC0019C60000E83A0800815D0300CFF60000AE
:10980C004B4F03006BC00300951E0100DA400800AB
:10981C00DC05000055AA03000D910000D75603008B
:10982C00085108008FC6030065B8000009B4030096
:10983C0084171B00B58601003D47020073490200E6
:10984C005F9000000E100000F7F60000FFB56846B0
:10985C00FFF776FFFFBDFFB56846FFF75AFFFFBD68
:10986C00FFB5FFFFEA7A0800580000006846FFF7D2
:10987C0099FFFFBDFFB56846FFF783FFFFBDFFB53E
:10988C006846FFF7B6FEFFBDFFB56846FFF755FC0F
:10989C00FFBDFFB56846FFF727FBFFBDFFB5684668
:1098AC00FFF7DDFAFFBDFFB56846FFF768FEFFBDA9
:1098BC00FFB56846FFF73DFBFFBDFFB56846FFF7F8
:1098CC00BEFDFFBD787B08008800000000B5F8F0F5
:1098DC0043FA00BD3566080067660800716508002C
:1098EC004D66080025640800816608008D66080036
:1098FC009966080087670800A7670800D167080009
:10990C001B680800576808002D690800B16B080037
:10991C00D56B0800F96B0800156C0800A1680800ED
:10992C00596C0800A76D0800FF6D0800296E08002F
:10993C00F96E0800D96C0800A56E0800CD6D080002
:10994C00816F08001D700800316408003970080030
:10995C003F70080004F31A0080000000B24E0100B2
:10996C005AC10000961A0100220B020060D00100BF
:10997C00061A0000B8C60100D842030016420300C4
:10998C00EEDB000062DC0000C8E100008A17020078
:10999C0038BE000026C6000056C20000621203004A
:1099AC00E4F401003AEC00005E920000FEE80200D4
:1099BC00187F000064EC0100FE4403001C940000BE
:1099CC00A866030074E90200681E0100BCDA0000FE
:1099DC00EAE1000024E9010070790200000018009F
:1099EC00960000000006011CF0B588B0CA4C03209C
:1099FC0022786378CA4E311C01390125AE46C74F17
:109A0C00FE443847A278E3780320311CAE46C34F9E
:109A1C00FE4438470320311C0131AE46C14AFE4496
:109A2C001047C1482178017061784170E178C170AC
:109A3C00A1788170BF48041C333C201C0021DC221F
:109A4C00AE46BA4BFE4418478420A0700527E77138
:109A5C000C2626730D20001998A1321CAE46B44B6F
:109A6C00FE441847042060761A20001997A106912D
:109A7C000422AE46AE4BFE441847FFFF960018007A
:109A8C0096000000A7771F3495A10791201C3A1C63
:109A9C00AE46A94BFE441847E671281C6072112093
:109AAC00207394206073C0256574A6740922E27437
:109ABC00A34C201C8CA101239E469F4BFE441847AF
:109ACC00072262729E4C0A34201C89A101239E46F7
:109ADC009A4BFE4418470420E071984C1234201C19
:109AEC000699042201239E46944BFE441847277185
:109AFC00934C1734201C07993A1C01239E468E4B1D
:109B0C00FE441847E67101206072112020739420E6
:109B1C0060730220E07325746674FFFF2C0118003B
:109B2C0096000000A5742F27E7741020607580261E
:109B3C00A6750120E0751120A0769420E0762420F3
:109B4C0060770A22A277804C3634201C6DA1012349
:109B5C009E467C4BFE4418471822A2727A4C413424
:109B6C00201C6BA101239E46764BFE44184725769C
:109B7C0067762120E0762677012060777248613085
:109B8C00112101709421417004210172D221417282
:109B9C00C5721E21017345739E21817301210174CD
:109BAC0046748174112141759421817504210176CB
:109BBC00AD206649086000240F25FFFFC201180084
:109BCC00960000002906090E00206A4601239E46D5
:109BDC00624BFE4418476B46188840080ED3A00011
:109BEC000F21CA4369460E88164001AF3E52498880
:109BFC0011406844C180601C0404240C013D0B2DF1
:109C0C00E0DA601E0004000C1DD08646011C01AD7C
:109C1C000122AE889000C75AB7420ADABC46071C2C
:109C2C006F447F8868440680EE8846806046A88032
:109C3C00EF800435501C0204120C0139E9D1704636
:109C4C0001388646E2D199886846C08840180004DD
:109C5C00000C424B18804249081AFFFF58021800AA
:109C6C00960000005880022C1EDB651E01AA012004
:109C7C00011C8C006B46E65A9388D488E718B742CF
:109C8C000CDA06244443384B1B191F801C88341BE8
:109C9C005C8001241C71401C0004000C0432491C23
:109CAC000906090E013DE4D1002431480470314805
:109CBC0004703148047031480470012086463048E5
:109CCC00FE4400472F49221C0868002802D00120BE
:109CDC009040044304310132202AF5D32A48046011
:109CEC0008B0F0BD5F6465766963652D696E666F5B
:109CFC0000C046C05F75647000C0FFFFEE02180024
:109D0C009600000046C06C6F63616C00C0465F73C8
:109D1C006572766963657300C0465F646E732D73FC
:109D2C0064006465763D43433330303000C0766563
:109D3C006E646F723D54657861732D496E737472E5
:109D4C00756D656E747300C046C000001800F37E1C
:109D5C000300C6050000DD7E0300E4620800C9BAFA
:109D6C00030009B40300A764080070640800DD0A4E
:109D7C000200483208000080FFFFE8620800E96238
:109D8C000800EA620800EB62080081031800807B7F
:109D9C00080084F31A000D490E48FFFF84031800D5
:109DAC006C00000088670E4888640E4848640E48B2
:109DBC00C8640E4808651148021C04320C4B136031
:109DCC000C4B93620C4A8A660D4901600D480E4992
:109DDC0001600E494160F7461C2108001B7B0800FE
:109DEC00117B0800077B0800397B08002F7B0800DB
:109DFC00257B0800FD7A0800DF7A08005023080054
:109E0C00D57A080058260800F37A0800E97A080089
:109E1C00000100003C1600000000180014030000B4
:109E2C0008000000684625F095FBE06BD0030000AD
:109E3C000400000025F038FB2C0400000400000096
:109E4C0025F00AFB0415000004000000B8F1900F87
:109E5C00A4160000C800000066E004A8351D21F01F
:109E6C0099FC684623F028FB9AF80000012807D1DA
:109E7C00284605F0C3FE014601AA002021F050F946
:109E8C00284605F0BBFE01A921F02AFAE9794FEA30
:109E9C00E00040B211B100F1060040B2A8711F38C9
:109EAC004000E871304601F00DFF10F100094FF051
:109EBC00000109D02868400C09D3E868C00B03D214
:109ECC004846FFF7DDFE01212868400C0AD23868AD
:109EDC00401C386020686FF30F00206022683868DF
:109EEC0010432060E868C00B0FD3D8F8000000F1D5
:109EFC000100C8F8000020686FF31F402060D8F8FC
:109F0C000020206840EA0240206049B9B9F1000FF6
:109F1C0003D1304607F0BEF902E0484607F006FAD6
:109F2C006C1700001400000068460EF085FB009EC4
:109F3C00002E96D105B0BDE8F087C0469C200000ED
:109F4C000400000023F02AFE744700000800000003
:109F5C000B2121F041FA2068184B0000140000007E
:109F6C0021F01CF90AE0206800680C2140F0200068
:109F7C0021F014F9105700000800000001A820F08F
:109F8C0097F901985C5700000800000002A820F027
:109F9C0071F90398005800000400000020F020F92B
:109FAC001C5800000400000020F012F95458000066
:109FBC000800000009A820F0F5F804AB04620000CA
:109FCC000800000020791FF01BFD69E06093000081
:109FDC004000000000000000000000000000000035
:109FEC000000000000000000000000000000000065
:109FFC000000000000000000000000000000000055
:10A00C000000000000000000000000000000000044
:10A01C000000000048A600000800000000781BF0BB
:10A02C0039FB284690A800000800000000781BF0BF
:10A03C0069F91E4834AD0000040000000968FF29CE
:10A04C0098AD0000040000000010D421D4B2000030
:10A05C000800000009D01AF047FC2098ACC500009D
:10A06C0008000000007819F0DBFA094928C6000046
:10A07C000400000019F09EFADCD300001000000070
:10A08C0000B518F0ABFC00F003F800BD00000000B8
:10A09C00C0DF00000400000017F0A8FDCCEB0000AE
:10A0AC000C000000387817F077F8387816F0F0FFCD
:10A0BC00A8F70000080000000E490968232241613E
:10A0CC00C8F7000028000000312E31392E3331340E
:10A0DC005F4E65775F4343415F616C676F72697474
:10A0EC00686D00C074563080000000000000000055
:10A0FC004CF900000800000002A816F079F812E0F4
:10A10C0038FA00000800000001A816F003F832200D
:10A11C0094FB000050000000000000000000000054
:10A12C000000000000000000000000000000000023
:10A13C000000000000000000000000000000000013
:10A14C000000000000000000000000000000000003
:10A15C0000000000000000000000000000000000F3
:10A16C000000000000000000340C0100080000009A
:10A17C0005A814F005FF01F0101B010044000000BD
:10A18C0000000000000000000000000000000000C3
:10A19C0000000000000000000000000000000000B3
:10A1AC0000000000000000000000000000000000A3
:10A1BC000000000000000000000000000000000093
:10A1CC0000000000301E01000400000013F046BF28
:10A1DC0018300100400000000000000000000000EA
:10A1EC000000000000000000000000000000000063
:10A1FC000000000000000000000000000000000053
:10A20C000000000000000000000000000000000042
:10A21C00000000000000000090300100040000006D
:10A22C0012F0D8FC9C31010008000000684612F0C6
:10A23C0051FCFEF7F035010008000000684612F0F2
:10A24C0027FAFEF7F03D01000800000005A911F007
:10A25C0027FE206FD0620100040000000FF0B8FB55
:10A26C00807E010004000000DFF85882E07E0100CF
:10A27C00180000000DF06AFE0BF09AF90320A8F507
:10A28C0088710860F2F716F97A486B499C7F0100D7
:10A29C00040000000070514DC47F01003C00000020
:10A2AC00404900F152003A4AA8812883E883E884A7
:10A2BC00A8852A60394841F211122A851890199103
:10A2CC0039491A9139491B9139492046DFF8C49014
:10A2DC001C913849DFF8C0B0314E1D914880010007
:10A2EC00040000000DF07CFAB48001003400000082
:10A2FC0034126609846B002094700020B470002026
:10A30C00C4780020507A0020FEFF0300A4700020C7
:10A31C00B0700020B8700020605530803C5C00208C
:10A32C0004740020B8E401000C000000207807F051
:10A33C0001FC207807F07AFB044D0200C8000000F5
:10A34C002DE9F04FADF18C0D04680F300394FEF73E
:10A35C00DBFA04F114000490217D002021F073013C
:10A36C00882908BF012005900398001D06905D48C0
:10A37C000068012840F0FA835B4D5C48DFF870916F
:10A38C002968DFF87081DFF874A1884221D110228E
:10A39C00002148464F46FBF7B7FE102200214046ED
:10A3AC00FBF7B2FE5449086840F4801008600120A5
:10A3BC005146086000212960397846460091317871
:10A3CC0041F2111304220191072102900320F3F7AB
:10A3DC0041FC5146079108685649DFF85CB10128E9
:10A3EC0008915649DFF848A1099155490A91444909
:10A3FC000B9144490C9144490D9144490E914449A7
:10A40C000F91444910914449CC4D0200C800000002
:10A41C00119144491291444913914449149144496E
:10A42C001591444916919F4917919F4918919F493D
:10A43C0019919F491A919F491B919F491C919F49C2
:10A44C001D919F491E919F491F9140F000810498D6
:10A45C00407800F00301012940F0F9800499097853
:10A46C0001F00C01082940F0F28006990988A1F14D
:10A47C003C010EB2059911B1A6F1020636B2C00923
:10A48C004FF0000715D3083E36B2032E10D0172E0E
:10A49C000ED0083E36B2032E08D0172E06D0361F2B
:10A4AC0036B2032E14BF172E022702E0032700E05A
:10A4BC000127032E18BF172E049A40F0C8800A32C9
:10A4CC0012F8011B052412F8013B4B40641ED9B253
:10A4DC00F9D181EA2111032E944E0200C80000002C
:10A4EC0001F00F01484635D04346CA5C521CCA5491
:10A4FC000C1833E050570200047400203412660923
:10A50C006057020070570200C84830804C57020058
:10A51C008857020080570200185802002058020089
:10A52C0028580200305802003858020040580200E7
:10A53C00E4580200E258020014580200EF580200DE
:10A54C00E0580200EE5802005C570200E658020088
:10A55C00E85802000C182078401C207020784346E4
:10A56C0003EB01080A2876DB98F800000A2872DB56
:10A57C00944800250160049800F10A0940784108CC
:10A58C0024BF0499091D04D280082EBF49460499A2
:10A59C0010310B980622FAF7B9FC0C9806224946A2
:10A5AC00FAF7B4FC9B489A495C4F0200C8000000C3
:10A5BC00007808220860584607600D982946FBF77A
:10A5CC00AFFD08220E982946FBF7AAFD08220F982A
:10A5DC002946FBF7A5FD082210982946FBF7A0FD9C
:10A5EC00082211982946FBF79BFD08221298294650
:10A5FC00FBF796FD079902200860139928460880FE
:10A60C0008990870149908701599086016990870C3
:10A61C0017990860189908601999086009990880B9
:10A62C000A9908801A9908807D490D601B99087059
:10A63C001C9908701D9908701E9908801F99088034
:10A64C0051460880207800960422019098F800006A
:10A65C0041F21413072102900320F3F707FB07982C
:10A66C00A24900682091A249052821919E49229176
:10A67C0040F037820498407824500200C800000053
:10A68C00410824BF0499091D05D2800827BF0499ED
:10A69C000A31049910310B98F8F72DFC0128049815
:10A6AC0040F02382407800F00300032818D00228E1
:10A6BC0007BF0499103104990A3113E0485802007D
:10A6CC004C58020050580200F0580200F258020098
:10A6DC00F3580200F4580200EA580200EC58020049
:10A6EC00049918310C98F8F706FC0499012840F0ED
:10A6FC00FC81497801F00301012940F0F6815946AB
:10A70C000968049A8E465146D28A0B8812119342DC
:10A71C0000F037820A80069909883C390BB27146E1
:10A72C00491E09D0491E04D0491E08D1A3F11003BB
:10A73C0004E0A3F1140301E0A3F108031BB2059894
:10A74C0010B1A3F102031BB2EC500200C8000000D0
:10A75C00002B00F1CE81169840F2775199420B9064
:10A76C001498059000F0A381084600F13C00984233
:10A77C00059A00F09A81DFF8488214780B9ABB2C6A
:10A78C0012780C9263D1DDF868C0BCF900209142BC
:10A79C0018BF90425BD11C2B4FF00000C0F282819D
:10A7AC003D2B139D80F27E81A3F11C0109B22980FF
:10A7BC001E9ADDF83090B2F90060B9F1010F15D195
:10A7CC00DDF82490032E0DDAB9F90070B94207D0E8
:10A7DC00012616804A460E4603E0C04690570200FA
:10A7EC00761C16801B9A16781D9A16700C9A1F9E52
:10A7FC00022A28D1B6F90020BEF1000F1AD0032A84
:10A80C0035460BDA0A9EB6F90070B94204D0012223
:10A81C002A800A46354600E0B4510200C800000008
:10A82C00521C2A801C990A781D990A700FE0C046A8
:10A83C0058570200A664002054570200288005993E
:10A84C000870089A117841F00401117004464546CD
:10A85C00ACF800002870CC2C099A40F00081DDF88F
:10A86C007CC00A991E9F4546B1F90060B2F9009070
:10A87C002878CDF850C016910A97139209950C9927
:10A88C00012905D1059AB0EB490F01D100211170B6
:10A89C000C99022905D1059AB0EB460F01D1002184
:10A8AC001170B3F5147F40F3BA8040F251319942E4
:10A8BC00089940F3B4800978062900F0B080A3F21F
:10A8CC0051210BB24FEAE30103EB11714FEA211155
:10A8DC00CAB24FEAE30103EB1171159D21F00F0190
:10A8EC00A3EB01031D992E687C520200C8000000E6
:10A8FC0091F800E05FFA83F860B1311811F8011C8F
:10A90C005140CBB207E0C0465858020054580200E0
:10A91C00DC58020013461999DDF86CA0DDF870B014
:10A92C00D1F800C000F00F01994222D00A9B864555
:10A93C009AF80010B3F900309BF8005015DD375C25
:10A94C00441C82EA070C04F00F0767450BD0A645A0
:10A95C0006440ADD76787240861C06F00F06964295
:10A96C0003D1C01C4DE0801C4BE0059E00223270D0
:10A97C004AE000F01F0101228A401799C4100B68AD
:10A98C0024F003015CF801703A4232D15F583A422C
:10A99C0006441FD0189B37781B68B84504D158580B
:10A9AC00024219D0634615E0A1108C00195991434D
:10A9BC00195100903078019044530200C8000000F7
:10A9CC000320062102464DF68053F3F763F90999EB
:10A9DC0028680E78361806E0E3580200A0108100B3
:10A9EC00585802435A5086F800800B9800780C9007
:10A9FC001398B0F90090099800780A9A401C9BF8BB
:10AA0C0000509AF80010B2F90030099AC0B21070D8
:10AA1C000C9A012A03D18842C8BF8AF800000C990D
:10AA2C00022907D1A842C8BF8BF8000002E00A989F
:10AA3C00B0F90030B9F1000F06DD032B04D11198E9
:10AA4C000122494600F072FB1698B0F900101498D8
:10AA5C000029B0F9000005DD032803D11298022269
:10AA6C0000F064FB059804780B9800780C9008981B
:10AA7C00BB2C017802D0AA2C2FD031E00C980128E5
:10AA8C000BD10D98179A10600C540200C8000000EE
:10AA9C000F98189A1060199A11981060474A1598D7
:10AAAC0002600C9802280BD10E98179A106010981F
:10AABC00189A1060199A12981060414A1598026001
:10AACC00CC200FE0089909780CE0022000E001206E
