:020000040800F2
:1050000000500020516500088F640008916400087A
:10501000936400089564000897640008000000008D
:10502000000000000000000000000000996400087B
:105030009B640008000000009D6400089F64000855
:105040009D6500089D6500089D6500089D65000838
:105050009D6500089D6500089D6500089D65000828
:10506000B16400089D6500089D6500089D65000805
:105070009D6500089D6500089D650008AD640008F9
:105080009D6500089D6500089D6500089D650008F8
:105090009D6500089D6500089D6500089D650008E8
:1050A0009D6500089D6500089D6500080565000870
:1050B0009D6500089D6500089D6500089D650008C8
:1050C0009D6500089D6500089D6500089D650008B8
:1050D0009D6500089D6500089D6500089D650008A8
:1050E000E56400089D6500089D650008000000005B
:1050F00000000000000000000000000000000000B0
:0C51000000000000000000005FF808F153
:10511000844641EA000313F0030349D1403A23D304
:105120000B6803604B6843608B688360CB68C36027
:105130000B6903614B6943618B698361CB69C3610F
:105140000B6A03624B6A43628B6A8362CB6AC362F7
:105150000B6B03634B6B43638B6B8363CB6BC363DF
:1051600040304031403ADBD230320BD30B68036021
:105170004B6843608B688360CB68C360103010312C
:10518000103AF3D20C3205D351F8043B40F8043BFB
:10519000043AF9D2043208D0D2071CBF11F8013BFF
:1051A00000F8013B01D30B8803806046704700BFC5
:1051B000082A13D38B07B1D010F00303AED0C3F18C
:1051C0000403D21ADB071CBF11F8013B00F8013BB6
:1051D000A4D331F8023B20F8023B9FE7043AD9D32D
:1051E000013A11F8013B00F8013BF9D20B7803704A
:1051F0004B7843708B7883706046704781F0004134
:1052000002E000BF83F0004330B54FEA41044FEAAB
:10521000430594EA050F08BF90EA020F1FBF54EA46
:10522000000C55EA020C7FEA645C7FEA655C00F0E2
:10523000E2804FEA5454D4EB5555B8BF6D420CDDB3
:105240002C4480EA020281EA030382EA000083EA36
:10525000010180EA020281EA0303362D88BF30BDD6
:1052600011F0004F4FEA01314FF4801C4CEA11312C
:1052700002D0404261EB410113F0004F4FEA03338B
:105280004CEA133302D0524263EB430394EA050F16
:1052900000F0A780A4F10104D5F1200E0DDB02FA85
:1052A0000EFC22FA05F2801841F1000103FA0EF219
:1052B000801843FA05F359410EE0A5F120050EF1DF
:1052C000200E012A03FA0EFC28BF4CF0020C43FA10
:1052D00005F3C01851EBE37101F0004507D54FF01D
:1052E000000EDCF1000C7EEB00006EEB0101B1F56D
:1052F000801F1BD3B1F5001F0CD349085FEA3000B3
:105300004FEA3C0C04F101044FEA445212F5800FBD
:1053100080F09A80BCF1004F08BF5FEA500C50F15A
:10532000000041EB045141EA050130BD5FEA4C0C3D
:10533000404141EB010111F4801FA4F10104E9D1C6
:1053400091F0000F04BF01460020B1FA81F308BFBD
:105350002033A3F10B03B3F120020CDA0C3208DD89
:1053600002F1140CC2F10C0201FA0CF021FA02F164
:105370000CE002F11402D8BFC2F1200C01FA02F1D4
:1053800020FA0CFCDCBF41EA0C019040E41AA2BFF9
:1053900001EB0451294330BD6FEA04041F3C1CDAC1
:1053A0000C340EDC04F11404C4F1200220FA04F0E1
:1053B00001FA02F340EA030021FA04F345EA03018B
:1053C00030BDC4F10C04C4F1200220FA02F001FA4D
:1053D00004F340EA0300294630BD21FA04F02946CF
:1053E00030BD94F0000F83F4801306BF81F4801168
:1053F0000134013D4EE77FEA645C18BF7FEA655CDB
:1054000029D094EA050F08BF90EA020F05D054EAAC
:10541000000C04BF1946104630BD91EA030F1EBFB1
:105420000021002030BD5FEA545C05D140004941B5
:1054300028BF41F0004130BD14F580043CBF01F5A8
:10544000801130BD01F0004545F0FE4141F470018E
:105450004FF0000030BD7FEA645C1ABF1946104669
:105460007FEA655C1CBF0B46024650EA013406BF6A
:1054700052EA033591EA030F41F4002130BD00BF29
:1054800090F0000F04BF0021704730B54FF48064E6
:1054900004F132044FF000054FF0000150E700BF67
:1054A00090F0000F04BF0021704730B54FF48064C6
:1054B00004F1320410F0004548BF40424FF00001B3
:1054C0003EE700BF42004FEAE2014FEA31014FEAF6
:1054D00002701FBF12F07F4393F07F4F81F0605145
:1054E000704792F0000F14BF93F07F4F704730B5B4
:1054F0004FF4607401F0004521F0004120E700BF47
:1055000050EA010208BF704730B54FF000050AE0CD
:1055100050EA010208BF704730B511F0004502D5CE
:10552000404261EB41014FF4806404F132045FEAD0
:10553000915C3FF4DCAE4FF003025FEADC0C18BF75
:1055400003325FEADC0C18BF033202EBDC02C2F16B
:10555000200300FA03FC20FA02F001FA03FE40EAFD
:105560000E0021FA02F11444C1E600BF70B54FF0FD
:10557000FF0C4CF4E06C1CEA11541DBF1CEA1355DF
:1055800094EA0C0F95EA0C0F00F0DEF82C4481EA47
:10559000030621EA4C5123EA4C5350EA013518BF67
:1055A00052EA033541F4801143F4801338D0A0FB54
:1055B00002CE4FF00005E1FB02E506F00042E0FB01
:1055C00003E54FF00006E1FB03569CF0000F18BF07
:1055D0004EF0010EA4F1FF04B6F5007F64F54074AF
:1055E00004D25FEA4E0E6D4146EB060642EAC62142
:1055F00041EA55514FEAC52040EA5E504FEACE2EAF
:10560000B4F1FD0C88BFBCF5E06F1ED8BEF1004FB1
:1056100008BF5FEA500E50F1000041EB045170BD2D
:1056200006F0004646EA010140EA020081EA030171
:10563000B4EB5C04C2BFD4EB0C0541EA045170BD6D
:1056400041F480114FF0000E013C00F3AB8014F1E7
:10565000360FDEBF002001F0004170BDC4F1000430
:10566000203C35DA0C341BDC04F11404C4F12005B1
:1056700000FA05F320FA04F001FA05F240EA02000C
:1056800001F0004221F0004110EBD37021FA04F642
:1056900042EB06015EEA430E08BF20EAD37070BDFC
:1056A000C4F10C04C4F1200500FA04F320FA05F05B
:1056B00001FA04F240EA020001F0004110EBD3705D
:1056C00041F100015EEA430E08BF20EAD37070BDCD
:1056D000C4F1200500FA05F24EEA020E20FA04F3A6
:1056E00001FA05F243EA020321FA04F001F0004155
:1056F00021FA04F220EA020000EBD3705EEA430EC6
:1057000008BF20EAD37070BD94F0000F0FD101F0F4
:105710000046400041EB010111F4801F08BF013C2D
:10572000F7D041EA060195F0000F18BF704703F06B
:105730000046520043EB030313F4801F08BF013DF2
:10574000F7D043EA0603704794EA0C0F0CEA1355AE
:1057500018BF95EA0C0F0CD050EA410618BF52EA68
:105760004306D1D181EA030101F000414FF000006E
:1057700070BD50EA410606BF1046194652EA43067C
:1057800019D094EA0C0F02D150EA013613D195EAF0
:105790000C0F05D152EA03361CBF104619460AD138
:1057A00081EA030101F0004141F0FE4141F4700142
:1057B0004FF0000070BD41F0FE4141F4780170BD32
:1057C00070B54FF0FF0C4CF4E06C1CEA11541DBF97
:1057D0001CEA135594EA0C0F95EA0C0F00F0A7F899
:1057E000A4EB050481EA030E52EA03354FEA0131C6
:1057F00000F088804FEA03334FF0805545EA1313D9
:1058000043EA12634FEA022245EA111545EA1065A0
:105810004FEA00260EF000419D4208BF964244F137
:10582000FD0404F5407402D25B084FEA3202B61A56
:1058300065EB03055B084FEA32024FF480104FF42A
:10584000002CB6EB020E75EB030E22BFB61A75469E
:1058500040EA0C005B084FEA3202B6EB020E75EB31
:10586000030E22BFB61A754640EA5C005B084FEA99
:105870003202B6EB020E75EB030E22BFB61A754666
:1058800040EA9C005B084FEA3202B6EB020E75EB71
:10589000030E22BFB61A754640EADC0055EA060E32
:1058A00018D04FEA051545EA16754FEA06164FEA75
:1058B000C30343EA52734FEAC2025FEA1C1CC0D121
:1058C00011F4801F0BD141EA00014FF000004FF0AE
:1058D000004CB6E711F4801F04BF01430020B4F16F
:1058E000FD0C88BFBCF5E06F3FF6AFAEB5EB030C27
:1058F00004BFB6EB020C5FEA500C50F1000041EB24
:10590000045170BD0EF0004E4EEA113114EB5C04F0
:10591000C2BFD4EB0C0541EA045170BD41F48011C3
:105920004FF0000E013C90E645EA060E8DE60CEACB
:10593000135594EA0C0F08BF95EA0C0F3FF43BAFE8
:1059400094EA0C0F0AD150EA01347FF434AF95EA9F
:105950000C0F7FF425AF104619462CE795EA0C0F83
:1059600006D152EA03353FF4FDAE1046194622E750
:1059700050EA410618BF52EA43067FF4C5AE50EA2A
:1059800041047FF40DAF52EA43057FF4EBAE12E71A
:105990004FF0FF3C06E000BF4FF0010C02E000BFFB
:1059A0004FF0010C4DF804CD4FEA410C7FEA6C5CDE
:1059B0004FEA430C18BF7FEA6C5C1BD001B050EA81
:1059C000410C0CBF52EA430C91EA030F02BF90EA6C
:1059D000020F0020704710F1000F91EA030F58BF2B
:1059E000994208BF90422CBFD8176FEAE37040F08D
:1059F000010070474FEA410C7FEA6C5C02D150EA2B
:105A0000013C07D14FEA430C7FEA6C5CD6D152EAE5
:105A1000033CD3D05DF8040B704700BF84461046AA
:105A200062468C461946634600E000BF01B5FFF7A9
:105A3000B7FF002848BF10F1000F01BD4DF808ED79
:105A4000FFF7F4FF0CBF012000205DF808FB00BF4A
:105A50004DF808EDFFF7EAFF34BF012000205DF8A4
:105A600008FB00BF4DF808EDFFF7E0FF94BF0120F1
:105A700000205DF808FB00BF4DF808EDFFF7CEFFF2
:105A800094BF012000205DF808FB00BF4DF808ED31
:105A9000FFF7C4FF34BF012000205DF808FB00BF02
:105AA0004FEA410212F5001215D211D56FF4787346
:105AB000B3EB625212D94FEAC12343F0004343EAE9
:105AC000505311F0004F23FA02F018BF40427047C4
:105AD0004FF00000704750EA013005D111F000404E
:105AE00008BF6FF0004070474FF00000704700BFE4
:105AF0004BB942B9002908BF002802D04FF0FF314E
:105B0000084600F03BB882B0EC462DE9005000F0AA
:105B10001DF8DDF804E002B00CBC70472DE9704FB1
:105B2000089E14461D468046894600F029F804FB6D
:105B300001F3A4FB00AB00FB05329344B8EB0A0869
:105B400069EB0B09C6E90089BDE8708F2DE9704F3C
:105B5000089E14461D468046894600F061F900FB08
:105B600005F5A0FB04AB04FB0154A344B8EB0A0801
:105B700069EB0B09C6E90089BDE8708F704700BF6B
:105B800000292DE9F00FC0F2A1800024002BC0F203
:105B90009880154606460F46002B3FD18A4258D9B9
:105BA000B2FA82F34BB1C3F1200201FA03F720FAF3
:105BB00002F29D4000FA03F61743290CB7FBF1F2FD
:105BC00001FB1277A8B200FB02F34FEA164C4CEA35
:105BD0000747BB4209D97F1902F1FF3C80F00581DC
:105BE000BB4240F20281023A2F44FF1AB7FBF1F3A5
:105BF00001FB137100FB03F0B6B246EA0141884293
:105C000008D9491903F1FF3780F0F180884240F24A
:105C1000EE80023B43EA0242002303E08B420AD9B2
:105C200000231A461046194614B1404261EB410167
:105C3000BDE8F00F7047B3FA83F8B8F1000F40F0F9
:105C400088808B4202D3824200F2E280002301224C
:105C5000E8E712B90123B3FBF2F5B5FA85F2002AA1
:105C60003AD17F1B280C1FFA85FC0123B7FBF0F10A
:105C700000FB11770CFB01F24FEA164848EA074790
:105C8000BA4207D97F1901F1FF3802D2BA4200F2B5
:105C9000C4804146BF1AB7FBF0F200FB12700CFB48
:105CA00002FCB6B246EA0040844507D9401902F129
:105CB000FF3702D2844500F2AE803A4642EA014202
:105CC000B0E7E443524263EB430362E7404261EBD7
:105CD00041014FF0FF3459E79540C2F1200927FAFE
:105CE00009F126FA09F99740280CB1FBF0F800FBFE
:105CF00018111FFA85FC0CFB08F349EA07094FEA63
:105D0000194747EA01418B4206FA02F608D94919B8
:105D100008F1FF327AD28B4278D9A8F102082944DF
:105D2000C91AB1FBF0F300FB13170CFB03F21FFAC7
:105D300089F949EA0747BA4207D97F1903F1FF31C8
:105D400060D2BA425ED9023B2F44BF1A43EA0843ED
:105D50008CE7C8F1200225FA02F103FA08FC27FAC1
:105D600002F320FA02F207FA08F741EA0C0C4FEAB4
:105D70001C49B3FBF9F109FB11331FFA8CFA0AFB3A
:105D800001FB17433A0C42EA03439B4505FA08F02E
:105D900008D913EB0C0301F1FF3235D29B4533D9FF
:105DA00002396344CBEB0303B3FBF9F209FB123373
:105DB0000AFB02FABFB247EA0347BA4508D917EB14
:105DC0000C0702F1FF331BD2BA4519D9023A6744D6
:105DD00042EA0145A5FB0001CAEB07078F424FF0DD
:105DE00000030AD305D02A461CE76246FDE63B467F
:105DF00010E706FA08F68642F5D26A1E002311E77C
:105E00001A46E5E70B46A0E71146CBE7904687E741
:105E10004346424606E7023A50E702392F4439E743
:105E20002DE9F00F144605460E46002B43D18A4259
:105E300053D9B2FA82F757B1C7F1200620FA06F615
:105E400001FA07F302FA07F400FA07F51E43210CE2
:105E5000B6FBF1F201FB1266A0B200FB02F32F0CBD
:105E600047EA0646B34209D9361902F1FF3780F0F6
:105E7000FD80B34240F2FA80023A2644F61AB6FB9D
:105E8000F1F301FB136100FB03F0ADB245EA014100
:105E9000884208D9091903F1FF3680F0E980884269
:105EA00040F2E680023B43EA0242002310461946D4
:105EB000BDE8F00F70478B424CD8B3FA83F6002E42
:105EC0004FD18B4202D3824200F2DD80BDE8F00F59
:105ED0000023012210461946704712B90124B4FB71
:105EE000F2F4B4FA84F2002A40F08280091B260CF6
:105EF000A7B20123B1FBF6F006FB101107FB00F27D
:105F00004FEA154C4CEA01418A4207D9091900F1C0
:105F1000FF3C02D28A4200F2C8806046891AB1FB77
:105F2000F6F206FB121107FB02F7ADB245EA014596
:105F3000AF4208D92C1902F1FF3180F09B80A742B3
:105F400040F29880023A42EA004210461946BDE803
:105F5000F00F704700231A4610461946BDE8F00FAF
:105F60007047C6F1200522FA05F703FA06F421FA74
:105F700005F301FA06FB20FA05F53C434FEA144805
:105F8000B3FBF8FC08FB1C331FFA84F909FB0CFA7D
:105F900045EA0B0B4FEA1B4545EA03439A4502FAD3
:105FA00006F204D91B190CF1FF356FD3AC46CAEBCE
:105FB0000303B3FBF8F508FB153309FB05F91FFADA
:105FC0008BFB4BEA0347B94504D93F1905F1FF3371
:105FD00062D31D4645EA0C4CACFB0223C9EB070714
:105FE0009F424FF000054AD346D062462B465DE7FC
:105FF0009440C2F1200921FA09FC914020FA09F9E4
:10600000260CBCFBF6F806FB18CCA7B207FB08F37E
:1060100049EA01094FEA194141EA0C4C634500FA8B
:1060200002F509D91CEB040C08F1FF323BD26345A1
:1060300039D9A8F10208A444C3EB0C0CBCFBF6F35D
:1060400006FB13C107FB03F21FFA89F949EA014174
:106050008A4207D9091903F1FF3022D28A4220D996
:10606000023B2144891A43EA084343E73A4605E7DD
:10607000334618E70A4666E7B0409042B5D20CF1C5
:10608000FF32002312E7334632460FE79A458DD997
:10609000ACF1020C23448AE7B9459AD9023D274462
:1060A00098E70346DEE79046C6E70238214435E725
:1060B00070470023036018467047002303601846AA
:1060C000704700230360184670470000194B10B555
:1060D0001A6812B11A68013A1A60174B1A6812B19D
:1060E0001A68013A1A60154C236813B12368013B02
:1060F00006E0134B1B7823B9E72000F06DFFC8239F
:106100002360104B1A68B2F57A7F0FD300221A6011
:1061100001F056FD042001F0ADFB4FF6FF718842FF
:1061200007D0BDE81040042001F096BB1A68013288
:106130001A6010BD441300203813002040130020C3
:1061400000000020481300201FB50446E72000F09F
:106150002BFF01F09FF901F0DFF80F4B0F4900937F
:106160000F4B104A0193104B10480293104B0393AE
:10617000104B00F0CBFA4FF47A7000F0C1FD2046CE
:1061800000F0DCFA0C4800F057FB48F2442000F025
:1061900021FB002004B010BDD1730008B3600008DB
:1061A000E5730008BB60000851740008B160000886
:1061B00079740008C360000801000020F0B50022D7
:1061C000184B8DB007460E461020022100F016FA3B
:1061D00000231A46FD5A00AC144445F001012D0A73
:1061E0000DF802106570F55A0233A570182B4FEAAE
:1061F0001525E57002F10402ECD16B463021042232
:10620000102000F0FBF968460021302202F0C8FEA1
:106210001020014634226B4600F0F0F9C0B20DB0F8
:10622000F0BD00BFECF9000810B5084C204600F0A6
:106230004BFA40B92378012B06D16278182A03D192
:10624000A370184610BD002010BD00BF2C0900200F
:106250002DE9F041DFF82C81494F0126002330461B
:1062600088F8003087F88360FFF76EFFFFF7DCFFE8
:1062700044463D4620B188F80060BE70BDE8F0811C
:1062800007F1840000F0F5F966712071637993B12C
:1062900095F88A303A4E022B0DD8F31C0B20802142
:1062A000002200F07DF9374B587196F88A3001339F
:1062B00086F88A30EAE7344B95F88A70334A032F20
:1062C00014BF17461F460123637163792D4E33B106
:1062D000B01D06F11E01FFF771FF7071F5E700F0C8
:1062E00063FA0120FFF730FF012373716379254EB4
:1062F0003BB10B20802100223B4600F07FF97071FA
:10630000F4E70123737196F904301BB1012385F87A
:106310008B300EE095F8843023F0010385F884304B
:106320006379002BF2D01A4800F09AF9154B587196
:10633000F6E795F88B30124E3BB10420E18E154AFA
:1063400000F0A3F986F88B00F3E7012386F88C3080
:1063500095F88C0040B10520218F0F4A00F095F987
:10636000074B83F88C00F3E7FFF7EEFE0123642070
:10637000237000F0C5FCBDE8F041E72000F006BE48
:106380002C09002000000020BCC600082F090020B6
:10639000B00900203CC70008A4E6000808B54FF487
:1063A000A0414FF0006001F04DFA00F0CFFE00F088
:1063B0008BFC4FF0FF1000F09DFDE72000F0E6FDA4
:1063C00040F6B83000F0C8FC0020FFF7BDFE00200A
:1063D00000F006FFB0F57A7F04D3002000F008FF3C
:1063E000FFF736FF0B4B93F883200AB10A4A127865
:1063F00093F883201AB1084A1278002AE7D09B78D4
:10640000002BE4D1FFF710FF4FF47A7000F078FC16
:10641000DDE700BF2C0900200000002007B5064B77
:10642000052000936E21054A002301F007F907209B
:1064300001F052F9FEE700BFEFF90008ACF80008E0
:1064400007B50C4A1368184410600B4A90420CD9E7
:106450000A4B052000938B21094A002301F0EEF836
:10646000082001F039F902F0F7FA184603B05DF898
:1064700004FB00BF3C00002000480020FBF900089E
:10648000BCF800084FF0FF3070470120704770479C
:10649000FEE7FEE7FEE7FEE770477047704708B586
:1064A00001F044F8BDE80840FFF710BE00F036BB2D
:1064B00008B5042001F0F0FA78B1042001F0FAFAEE
:1064C0000020064B0146188000F0CCFDBDE80840D6
:1064D00003481021012201F05CBD08BD2C0A0020F8
:1064E000002C014008B54FF4006001F0D5FA38B136
:1064F0004FF4006001F0DEFABDE8084000F09ABBFE
:1065000008BD000008B51048102101F07BFDC8B19E
:106510000D48102101F081FD002000F051FE30B93E
:106520000A4B1A8892B20A3292B21A8008BD064803
:106530001021002201F02DFDBDE8084000200121BE
:1065400000F090BD08BD00BF002C01402C0A0020C7
:10655000002100F004B80C4B5B58435004310B4849
:106560000B4B42189A42FFF4F6AF0A4A00F003B808
:10657000002342F8043B084B9A42FFF4F9AF00F0C5
:10658000E3FFFFF70BFF704750FD000800000020FD
:106590002C0900202C09002058130020FFF7FEBF13
:1065A0002DE9F3411F4602ACFF2304F8053D124BD1
:1065B00086469D680E4605F109007146904601F039
:1065C00030FD314601F02DFD414601F02AFD2946FE
:1065D0000C2240F2012002F0B5F9214640F20120E0
:1065E00002F09CF93846002101AA02F0A1F90198B5
:1065F00002B0BDE8F08100BFCC0A00202DE9F341D4
:10660000984602AD4FF0FF3345F8043D134B8646E4
:106610009E680C4606F10A007146174601F001FD1E
:106620000C2101F0FEFC214601F0FBFC394601F093
:10663000F8FC4146224606F11A00FEF769FD314694
:106640001022A3B2902002F08EF940F202202946D7
:1066500002F064F9019802B0BDE8F081CC0A002094
:1066600008B50346062001460022FFF7C7FFC0B267
:1066700008BD08B50346062001460022FFF790FF3B
:10668000062814BFFF20002008BDF8B506460D46B9
:1066900017460C467B192A1B1F2CC4EB030392B22E
:1066A00008D930462021FFF7A9FFC0B2203C0028BE
:1066B000F0D007E02CB130462146FFF79FFFC0B273
:1066C000F8BD2046F8BD000013B50B4B0446996891
:1066D000002240F2072002F035F940F20720694617
:1066E00002F01CF99DF803309DF8000023709DF81E
:1066F0000430637002B010BDCC0A0020024B0122AE
:106700005A80586001F00ABECC0A002010B50A4C2D
:10671000E16022616361029BE361039B2362049B4E
:106720006362059BA3620123A06184F840300023CB
:1067300084F8413010BD00BFCC0A002070B5174B63
:10674000174D002406461748AC63EC632C802C865A
:106750006C86AC86EC86EC626C806C60AB6000F0A2
:10676000BBF8A642A9680CBF234602234B72012244
:106770004FF4804002F0E6F821464FF4804002F0EA
:10678000CDF8A968224644F20B0002F0DBF821465E
:1067900044F20B00BDE8704002F0C0B8380B002096
:1067A000CC0A0020FD66000838B5094C0020A36A19
:1067B00098472546EB69064C98470028FAD0A3680D
:1067C0000BB10023A360BDE8384000F0ADB800BFB6
:1067D000CC0A002037B548F2080248F2080102400E
:1067E0008A42034613490BD10020934281F84000AE
:1067F0001ED023F4004323F0080343F4004302E0D7
:10680000012281F840208D684FF0FF32194602AC1A
:1068100005F1090044F8042D01F003FC2946042287
:10682000082002F08FF80820214602F077F801983E
:1068300003B030BDCC0A002013B50E4A4FF0FF3331
:106840000193916898B154230370437083700022C0
:10685000845C8B180132032A5C72F9D10C2002F09F
:1068600071F80C2001A902F059F8019800E01846CF
:1068700002B010BDCC0A002000F0010383F001003B
:1068800003B962B6704700002DE9F0410546EFF309
:10689000108872B60E4C237A27469D4209D0052DEA
:1068A00001D0012606E00B4BDB6998470028F8D1A0
:1068B000257200264046FFF7DFFF16B16369002B03
:1068C000E5D07869D0F1010038BF0020BDE8F08143
:1068D000200B0020CC0A00200F4B10B500220F49DE
:1068E0000F4C1A721961DA80DA609A8018601046CB
:1068F000A36A98470B4800F00BFA236A98474FF4B5
:106900007A7000F005FAA36A01209847BDE81040AC
:106910000120FFF7B9BF00BF200B0020380F002077
:10692000CC0A0020E093040010B5054C636A984738
:10693000A36A00209847034B00221A6110BD00BFD4
:10694000CC0A0020200B0020024B4FF480725A60CA
:10695000704700BF00E100E02DE9F84380460F4694
:1069600014461E46EFF3108072B61F4DA4B295F880
:106970000890FFF781FF002000F012FD5FFA89F90F
:106980000120B8F1000F06D13946224600F090FCF4
:106990004046164905E02969224600F089FC00209E
:1069A0003946224600F084FC11480221012201F000
:1069B00012F8012000F0F4FC9EB1EFF3108072B6E3
:1069C0002C7AFFF759FFE4B2A14503D1064B5B696E
:1069D000002BF2D06869D0F1010038BF0020BDE87B
:1069E000F8833046BDE8F883200B002040000020EB
:1069F00058000240CB074CBF0B464B1C10B5C3F3ED
:106A0000072444700024C4700471054C01220270F4
:106A1000837084F84120034AD0609180581D10BDD6
:106A2000CC0A0020200B00202DE9F84305460E4635
:106A3000EFF3108072B6384C277AFFB2FFF71CFFD5
:106A400017B1012F05D02AE00120FFF71DFF002814
:106A50005DD0EFF3108872B60323277A237200F01B
:106A600047FD4046FFF708FF28463146FFF7C2FFC3
:106A7000FFB20446002F4AD0322000F049F901202D
:106A8000294604220346FFF767FF00283FD0322043
:106A9000A4B200F03DF90120291D221F2DE00220A3
:106AA000FFF7F2FE002832D0EFF3108872B6277A93
:106AB000BB1E5F425F4157B1EFF3108972B6237A74
:106AC0000423237200F014FD4846FFF7D5FE40462C
:106AD000FFF7D2FE17B96369002BE5D06369B3B93C
:106AE00028463146FFF786FF04460520FFF7CCFE17
:106AF00068B1A4B20120294622460346FFF72CFFC5
:106B0000002814BF20464FF0FF30BDE8F8834FF057
:106B1000FF30BDE8F88300BF200B002037B54FF4ED
:106B2000003000F061FF3D4C05464FF4005000F08E
:106B30005BFF237A033B052B5DD8DFE803F0465C5F
:106B4000465C0333002D67D0002865D04FF4083031
:106B500000F058FF082323722369B3F80330C3F30E
:106B6000072545EA0325ADB2002D55D0EB075CBFE4
:106B70000135ADB2B5F5806F0BD9294B05200093D7
:106B800040F27F11274A002300F058FD0A2000F050
:106B9000A3FD002021692A46034603B0BDE830402A
:106BA000FFF7DABE002837D04FF4083000F02AFF94
:106BB000022323721C4B4FF48072C3F8842000F030
:106BC000FFFB23682069984726E02DB317488021F2
:106BD00001F064F80028F9D14FF4083000F012FFFA
:106BE000237A0E4D032B01D1052302E000F0E8FBD0
:106BF00002232B7210E0237A0D4A05208DE80C0049
:106C000040F2B511074A002300F018FD0B2003B035
:106C1000BDE8304000F060BD03B030BD200B002067
:106C200007FA0008CDF8000800E100E00038004055
:106C300042FA00080F4B70B5DB6998470546B8B9B2
:106C40000D4C237ADBB2022B04D0042B0ED07BB97F
:106C500001230CE00723237200F04AFC2846216937
:106C60002B460522BDE87040FFF776BE0523237250
:106C700070BD00BFCC0A0020200B00200D4B0E4A37
:106C8000197839B9D98889B21187198989B2918758
:106C90009B8806E0D98989B21187198A89B29187C0
:106CA0009B899BB29386054B63221A70FF225A7010
:106CB000704700BF100A0020002C0140480000204F
:106CC0004FF4407000F080BD0A4BF0211A684FF479
:106CD0007A73B2FBF3F2084B013A5A60074A82F822
:106CE00023100021996007211960D02382F82330F6
:106CF000704700BF9C00002010E000E000ED00E0C5
:106D0000024B18601A68002AFCD170474413002017
:106D10000E4B84B05B6801930D4B1A680D4BB2FBB0
:106D2000F3F20A4B5B6802930299019BCB1A03931F
:106D3000039B002B03DA019B02990B440393039BF3
:106D4000B3FBF2F38342ECD304B07047001000E0D1
:106D50009C00002040420F0010B5044645F25550FB
:106D600000F01CFF062000F01FFF42F2107084426A
:106D700028BF044628206043C0F30F2000F01AFF0C
:106D800000F01EFFBDE8104000F022BF082814D814
:106D9000012908D10B4B0C4A03EB80035B6832F8E6
:106DA00010201A610BE051B9064B074A03EB800330
:106DB0005B6832F810205A6101E0FF2000E00020FB
:106DC00040B2704748000020E0F8000873B50F4E4D
:106DD0008500731904460121186900F013FF36F885
:106DE000143001A9ADF8043010238DF807300323C7
:106DF0008DF80630064B1D44686800F061FE2046A1
:106E00000021FFF7C3FF02B070BD00BFE0F800082B
:106E10004800002070B5012188B04FF4006000F0F8
:106E2000F1FE314B01A81C68304B0025B4FBF3F494
:106E3000A4B201F081F801A801F07EF8ADF8044099
:106E40002B4C42F20F7301A92046ADF80830ADF883
:106E50000A50ADF8065000F027FF04A801F075F8BD
:106E600060230126ADF810302046022304A9ADF8B6
:106E70001830ADF81260ADF81650ADF81C5000F0A7
:106E80005DFF2046294601F099F8204604A900F04C
:106E900099FF2046294601F099F8204604A900F000
:106EA000D5FF2046294601F09BF8204604A9ADF8FD
:106EB0001050ADF81260ADF81650ADF8185001F052
:106EC00007F82046294601F093F82046314601F0A4
:106ED00069F82046314601F042F82046314601F07B
:106EE0004AF808B070BD00BF9C00002040420F006F
:106EF000002C014030B51049104B8C8D93F8243094
:106F0000A4B204FB0334C0F307456C430C4A240CC1
:106F1000D4808C8DC0F30725A4B204FB03346C43EA
:106F2000240C1481898D506189B2C0B201FB00002C
:106F300043431B0C938030BD002C014048000020CF
:106F4000100A002073B50F4E850073190446012105
:106F5000186B06EB440600F055FEB6F84030ADF86D
:106F600004300CB9102300E018238DF807300323F8
:106F70008DF80630044B01A91D44A86A00F0A0FD5D
:106F800002B070BDE0F800084800002010B1E7280A
:106F900006D07047034B4FF400529B6A1A6170474A
:106FA000FFF76CBE4800002010B1E72806D07047FC
:106FB000074B4FF400529B6A5A617047054A002301
:106FC000138793879386024A137001235370704787
:106FD00048000020002C014010B1E72807D070477E
:106FE0001D4B9B6ADA6882F40052DA6070471B4AD4
:106FF0001B4B1178A1B9188F80B208B9D18889B21A
:1070000019879B8F16499BB20BB1002301E01389AE
:107010009BB28B87124B998E89B2B1B9928817E0D7
:10702000198F89B209B1002101E0D18989B219878C
:107030009B8F0B499BB20BB1002301E0138A9BB2DB
:107040008B87074B998E89B209B1002201E09289A2
:1070500092B29A86704700BF48000020100A0020B4
:10706000002C014073B5104C0E4604EB400494F81C
:107070004C10054694F8480000F07AFDB4F85040F2
:10708000204600F003FD00238DF80430074B6846CE
:107090001D4495F8383000948DF805308DF8066061
:1070A00000F0BAFC02B070BDE0F800084800002013
:1070B000F7B5234E8700F3190546586D0C4640F08E
:1070C0000100012100F09EFD1E4B06EB45065A19FA
:1070D00092F83A2002A98DF80320B6F85C201F44EC
:1070E00021F8082DF86B694600F0EAFC012C24D148
:1070F00010210022144800F04CFF1B238DF80430AF
:107100000027052301A88DF805308DF806708DF84D
:10711000074000F063FBB6F8603001A88DF804303A
:1071200006238DF805308DF806708DF8074000F0C5
:1071300055FB28462146FFF795FF03B0F0BD00BF81
:10714000E0F8000848000020002C01401A4B10B560
:10715000DA68002442F08072DA60184B01215C602A
:107160001A684FF0C05042F001021A6000F056FD5C
:10717000012000F035FDFFF7A3FD0120014600F0DE
:1071800041FDE0B20134FFF721FE082CF9D1FFF7F1
:1071900041FE0020FFF7D6FE0120FFF7D3FE0220BC
:1071A000FFF7D0FE0320FFF7CDFEBDE81040002022
:1071B0000121FFF77DBF00BFF0ED00E0001000E00F
:1071C000054A064B02EB800203EB4003B3F85C1068
:1071D000D06B00F0C3BC00BF48000020E0F80008FE
:1071E000024B03EB4000808B80B27047100A0020F6
:1071F000024B002203EB400082837047100A0020FC
:1072000010B5082086B0012100F0FCFC4FF480404E
:10721000012100F003FD244C4FF40053ADF8003081
:1072200003238DF802302046182369468DF8033079
:1072300000F046FC4FF4004320466946ADF80030AC
:1072400000F03EFC4FF48043ADF8003020460423AC
:1072500069468DF8033000F033FC4FF48272ADF8CC
:10726000062001220023ADF80C20A4F554444FF46D
:107270000072ADF80430ADF80830ADF80A30ADF862
:107280000E20ADF8123008220723204601A9ADF8E0
:107290001020ADF8143000F0CDFC2288034B92B2E0
:1072A0001A8006B010BD00BF000C01405213002030
:1072B00070B5044601208CB00E460146154600F01C
:1072C00095FC124B80220193069200234FF440520A
:1072D000012C029605930793089309930A920B9346
:1072E00006D10B480393049500F0D4FA084807E050
:1072F0004CB9102307480393049500F0CBFA0548D6
:1073000001A900F03FFB0CB070BD00BF0C3800407D
:10731000440002405800024073B50F2301240025A9
:1073200001A88DF804308DF805508DF80650174EE1
:107330008DF8074000F052FAFFF762FF20462A4618
:107340001349FFF7B5FF28462A461249124DFFF7A9
:10735000AFFF30462246022100F03DFB2846214681
:10736000224600F092FC22462846022100F08DFCC5
:107370002846214600F07DFC2146084800F020FB0D
:107380003046214600F01CFB02B070BD58000240A0
:10739000380F0020380B0020003800404400024025
:1073A00010B504462146044800F00AFB2146034874
:1073B000BDE8104000F004BB440002405800024009
:1073C00002484FF4805100F0CFBB00BF000C0140D9
:1073D00008B54FF40061024800F0C0FB08BD00BFD3
:1073E000000C014030B5092085B0012100F00AFCF5
:1073F0004FF400644823694614488DF80330ADF813
:10740000004000F05DFB0B21012000F0B1FB2046A5
:1074100000F03CFB002502940C23012402A88DF807
:107420000D308DF80C508DF80E4000F0F5FA282341
:1074300001A88DF804308DF805408DF806508DF8C0
:10744000074000F0CBF905B030BD00BF000C014093
:107450001FB52823002401A88DF804308DF80740BB
:1074600000F0BCF94FF4006302A802938DF80E40BF
:1074700000F0D2FA04B010BD20B105484FF480717D
:1074800000F072BB02484FF4807100F06FBB00BF88
:10749000000C014013B50820012100F0B3FB0F4C94
:1074A0004FF48053ADF804300323204601A98DF832
:1074B000063010238DF8073000F002FBFFF780FF45
:1074C0004FF48073204601A9ADF8043000F0F8FABB
:1074D0000020FFF7D1FF02B010BD00BF000C01403B
:1074E00002484FF4007100F03FBB00BF000C0140A8
:1074F00010B50B4C238823F040031B041B0C238086
:10750000FFF7EEFF074B08481B884FF480519BB2F2
:1075100043F040032380BDE8104000F027BB00BFCC
:107520000038004052130020000C0140024BDA6B7F
:107530000132DA63704700BF100A0020014BD86B9C
:10754000704700BF100A0020384B82B01A6842F022
:1075500001021A605968364A0A405A601A6822F0D5
:10756000847222F480321A601A6822F480221A602F
:107570005A6822F4FE025A604FF41F029A600022F9
:10758000009201921A6842F480321A601A6802F47A
:1075900000320192009A01320092019A1AB9009ABF
:1075A000B2F5A06FF2D11A6812F4003218BF0122AE
:1075B0000192019A012A05D01E4B4FF000629A6099
:1075C00002B070471C4A116841F010011160116847
:1075D00021F003011160116841F0020111605A6845
:1075E0005A605A685A605A6842F480625A605A680F
:1075F00022F47C125A605A6842F4E8125A601A68FF
:1076000042F080721A601968084A8901FBD55168F6
:1076100021F003015160516841F0020151605A6844
:1076200002F00C02082AFAD1C6E700BF001002409F
:107630000000FFF800ED00E0002002402DE9F041DD
:10764000A4B02AAC54F8045B80460E461746059455
:107650002BB118462F2101F081FD441C00E0184C8D
:10766000FFF76CFF174A034652F8282002948DE872
:107670008400039606A87821134A01F03BFD134CC1
:1076800006463CB106A8AFF30080782E02D9104818
:10769000AFF300802A4606A87821059B03F00CF87A
:1076A000054654B106A8AFF30080782D02D90848EA
:1076B000AFF300800748AFF3008024B0BDE8F0814D
:1076C0006FFA000844F9000852FA000800000000B0
:1076D00069FA00086DFA000870B5064672B6344BB8
:1076E000032553F830406FF07F40FFF703FCE7209D
:1076F000FFF75AFC8DB12046FFF7FCFBE720FFF7B0
:1077000045FC2C48FFF704FBE720FFF74DFC013D4B
:107710002948FFF7FDFAADB2ECE72748FFF7F8FA82
:1077200003252046FFF7E6FBE720FFF72FFC234861
:10773000FFF7EEFA013DE720FFF736FCADB21E4839
:10774000FFF7E6FA002DECD11B48FFF7E1FA03251D
:107750002046FFF7CFFBE720FFF718FC1548FFF79F
:10776000D7FA013DE720FFF71FFCADB21248FFF743
:10777000CFFA002DECD11248FFF7CAFA35468DB189
:107780002046FFF7B7FBE720FFF700FC0B48FFF7A9
:10779000BFFAE720FFF708FC013D0848FFF7B8FAF9
:1077A000ADB2ECE70748FFF7B3FA0325A3E700BF44
:1077B0005CF90008F0490200A0860100E093040093
:1077C000A0BB0D0000350C0040F0BF60024B40F440
:1077D0000030D860704700BF00ED00E0C27810B5FF
:1077E0000378FAB1154A4478D26803F16043D24372
:1077F000C2F30222C2F1040104FA01F10F2424FAB7
:1078000002F2847803F5614322400A431201D2B2A6
:1078100083F8002303780122590903F01F0302FAB9
:1078200003F306E05909012203F01F0302FA03F3F0
:107830002031034A42F8213010BD00BF00ED00E0C6
:1078400000E100E021F0604121F07F01014B08439D
:107850009860704700ED00E082B000230193044B74
:107860000193019B18440190019B196002B070477D
:10787000006C004082B000230193054B0193019BF3
:1078800018440190019B188880B202B0704700BF75
:10789000006C004002684FF6FE7313400360002343
:1078A000036043608360C3602A4B984222D02A4B16
:1078B000984229D0294B984230D0294B984237D052
:1078C000284B98423ED0284B984206D153F8682C5A
:1078D00042F4700243F8682C7047244B984206D15A
:1078E00053F87C2C42F0706243F87C2C7047204B9C
:1078F000984206D153F8042C42F00F0243F8042CAE
:1079000070471C4B984206D153F8182C42F0F002F5
:1079100043F8182C7047184B984206D153F82C2C7A
:1079200042F4706243F82C2C7047144B984206D1F5
:1079300053F8402C42F4704243F8402C7047104BEF
:10794000984205D153F8542C42F4702243F8542C39
:10795000704700BF080002401C0002403000024097
:1079600044000240580002406C0002408000024087
:10797000080402401C040240300402404404024057
:10798000580402408A6810B50C6A036814430A69F7
:1079900023F4FF4314434A6923F0700314438A69B4
:1079A0001443CA6914434A6A14438A6A224313433C
:1079B0000360CB6843600B6883604B68C36010BD95
:1079C00019B1036843F0010303E002684FF6FE7348
:1079D00013400360704703680AB1194301E023EACA
:1079E0000101016070470000C3004CBF034B044B12
:1079F0001B6803420CBF00200120704700040240B6
:107A000000000240C3004CBF014B024B586070475E
:107A10000004024000000240837930B50168027919
:107A200043B3194BCC431D6802F1804225401D60D1
:107A30005D6802F582322C405C601468214311605D
:107A400002689C68D1430C409C60DC682140D9608E
:107A50004179102906D1996811439960D9680A4380
:107A6000DA6030BD01F1804303F5823319680A43BF
:107A70001A6030BD02F1804303F582331A6822EAAE
:107A80000101196030BD00BF00040140014B586185
:107A9000704700BF00040140054B1A685B69034052
:107AA00004D010420CBF00200120704718467047D8
:107AB00000040140014B5861704700BF00040140C1
:107AC000CB78F0B5DA0648BF8A78098803F00F054D
:107AD00048BF154311F0FF0F1DD004680022012795
:107AE000974007EA0106BE4211D197004FF00F0CF4
:107AF0000CFA07FC05FA07F724EA0C04282B44EAE1
:107B0000070401D1466102E0482B08BF066101323B
:107B1000082AE4D10460FF291FD94468002202F139
:107B200008060127B74007EA0106BE4211D19700B7
:107B30004FF00F0C0CFA07FC05FA07F724EA0C04C7
:107B4000282B44EA070401D1466102E0482B08BF14
:107B500006610132082AE2D14460F0BD836819420F
:107B60000CBF0020012070470161704741617047E0
:107B700001F003039B000F229A40984001F0FC01A2
:107B800001F1804101F5803110B58C6824EA0202D0
:107B90008A608A6802438A6010BD0000014B186049
:107BA000704700BF00300040014B5860704700BF75
:107BB00000300040014B9860704700BF003000402B
:107BC000024B4AF6AA221A60704700BF00300040FC
:107BD000024B4CF6CC421A60704700BF00300040A8
:107BE000014B1860704700BF20000E42044B5A69D9
:107BF00009B1104301E022EA00005861704700BF5C
:107C000000100240044B9A6909B1104301E022EAD6
:107C100000009861704700BF00100240044BDA6911
:107C200009B1104301E022EA0000D861704700BFAB
:107C3000001002400B8810B54C88028823438C88C2
:107C400002F441522343CC8823430C8923434C89BB
:107C500023438C892343CC89234313439BB2038062
:107C6000838B23F400631B041B0C83830B8A038226
:107C700010BD038819B19BB243F0400303E023F029
:107C800040031B041B0C0380704783889BB20AB11E
:107C9000194301E023EA01018180704703891942F9
:107CA0000CBF002001207047224A038890429BB2FB
:107CB00012D002F5006290420ED0B0F1804F0BD08E
:107CC000A2F59832904207D002F58062904203D02C
:107CD00002F58062904203D14A8823F07003134377
:107CE000154A904208D002F58062904204D023F4F5
:107CF0004073CA889BB2134303808B8883850B88AB
:107D000003850C4B98420FD003F5006398420BD0CB
:107D100003F54063984207D003F58063984203D08F
:107D200003F58063984201D10B7A03860123838295
:107D3000704700BF002C014000100040038C70B55C
:107D400023F001031B041B0C0384038C8488028B27
:107D50000D8822F073021204120C2A434E880D89FA
:107D600023F002031B043543ADB21B0C2B43144D0F
:107D7000A4B2A8420FD005F50065A8420BD005F5C6
:107D80004065A84207D005F58065A84203D005F5F7
:107D90008065A8420ED14D8923F008032B438D88BE
:107DA00023F004032B43CE898D8924F4407435439A
:107DB000ADB22C4384800283CA888286038470BD5E
:107DC000002C0140038C30B523F010031B041B0C66
:107DD0000384038C8288048B0D8824F4E6442404F5
:107DE000240C23F0200344EA05241B040D891B0CFA
:107DF00043EA05134D8892B243EA0513124DA4B22B
:107E0000A8429BB203D005F50065A84215D14D8963
:107E100023F080039BB243EA05134FF6BF751D4064
:107E20008B8822F4406245EA03138D899BB242EAB3
:107E30008502CD8942EA850292B28280CA88048393
:107E40000287038430BD00BF002C0140038C30B595
:107E500023F480731B041B0C0384038C8288848BA3
:107E60000D8824F073042404240C23F400732C43A1
:107E70001B040D891B0C43EA05234D8892B243EA8B
:107E80000523124D9BB2A84203D005F50065A84218
:107E900015D14D8923F400639BB243EA05234FF6C5
:107EA000FF351D408B8822F4405245EA03238D891B
:107EB0009BB242EA0512CD8942EA051292B2828053
:107EC000CA8884838287038430BD00BF002C0140B0
:107ED000038C30B523F480531B041B0C0384038CE8
:107EE0008488828B0D8822F4E6421204120C23F45B
:107EF000005342EA05221B040D891B0C43EA05339B
:107F00004D88A4B243EA05330A4D92B2A8429BB20F
:107F100003D005F50065A84205D18D8924F480447D
:107F200044EA8514A4B284808283CA88A0F84020E1
:107F3000038430BD002C01404FF6FF738380002383
:107F40000380C38043800372704700230380438013
:107F50008380C380038143818381C3817047038809
:107F600019B19BB243F0010303E023F001031B04AA
:107F70001B0C03807047B0F8443029B16FEA4343CB
:107F80006FEA53439BB201E0C3F30E03A0F8443001
:107F9000704783899BB20AB1194301E023EA0101CA
:107FA00081817047038819B19BB243F0800303E0DD
:107FB00023F080031B041B0C03807047038B23F00A
:107FC00008031B041B0C194301837047038B23F424
:107FD00000631B041B0C43EA01218BB2038370472F
:107FE000838B23F008031B041B0C19438183704708
:107FF000838B23F400631B041B0C43EA01218BB227
:1080000083837047038A828911EA030092B203D006
:1080100011420CBF002001207047C94389B2018280
:1080200070470B0A017043700B0C090E8370C1700E
:10803000043070470170090A4170023070474318DC
:108040005A78435C03EB022080B2704710B54318A6
:108050009A78DC78415C120402EB046258780A4496
:1080600002EB002010BD000073B544790023022C00
:1080700001930FD0032C19D0012C2BD1164D2B6955
:108080002E4623B12B6901A898470246B8B9B168BA
:1080900001201BE0104DEB682E4623B1EB6801A8D0
:1080A0009847024658B9B16802200FE00A4D6B6943
:1080B0002E464BB16B6901A89847024620B1A968CA
:1080C0002046BDF8043003E0B168032000221346C7
:1080D00000F05DFC02B070BDCC0A0020072830B56E
:1080E00012D8012910D8EFF3108472B6012585400B
:1080F00001FA00F0054B1A6822EA050202431A60F1
:108100002346DB0700D462B630BD00BFB0000020BC
:1081100070B5012186B00546FFF791FF4304044680
:108120002AD5B0F5824F27D128460521FFF787FFD2
:1081300005EB8000EE1D0024C51DAE4206D0304682
:108140000221FFF77CFF04360444F6E7724B1A8ED7
:1081500092B2224492B21A86DA6B1444DC63D96B71
:108160009A6B914240F0CA8093F84020002A00F0B8
:10817000C5809B69992031E024F4FF4020F07F0006
:1081800080B2002800F0978048F210039C4228D06B
:108190000CD8B4F5004F40F2BC8048F202039C4278
:1081A00015D948F204039C4211D0B2E048F2800392
:1081B0009C420CD004D848F240039C424FD0A8E027
:1081C000B4F5024F03D0B4F5084F6BD0A1E0524B89
:1081D0009A69002A00F092809B69204600210A4695
:1081E00067E00023EA1852790DF803200133042BCD
:1081F000F8D16B7A05F10D008DF80430AB7A8DF86B
:108200000530EB7A8DF806302B7B8DF80730002394
:1082100000AA1A44C15C0133042B1172F8D105F194
:108220001100002300AA1A44C15C0133042B11730E
:10823000F8D105F11500002300AA1A44C15C0133EE
:10824000042B1174F8D12B798DF81430324B9A69C4
:10825000002A53D09B6920466946152229E005353E
:1082600000212846FFF7F2FE042100902846FFF780
:10827000EDFE082101902846FFF7E8FE0C21029050
:108280002846FFF7E3FE102103902846FFF7DEFEA5
:10829000214B04909A69002A30D09B692046694698
:1082A000142206E01C4B9A6942B39B692046691D63
:1082B0000122984722E041F203039C4205D0A4F535
:1082C00080530E3B9BB2012B1AD86C1D2046042113
:1082D000FFF7BCFE39301CD12A790F4B0021204614
:1082E000DA62FFF7B3FE042105462046FFF7AEFE33
:1082F000393003D128460121FFF7F0FE012009E0C3
:10830000054B1B889BB29C4204D0B4F5805FF5D12D
:1083100000E0002006B070BDCC0A0020F0B51F4E72
:108320008DB07588ADB2002D34D0746827783B1FAE
:108330005F425F4137B12046FFF7EAFE003018BFC9
:10834000012000E03846054600BB1FB396F84130D7
:1083500003BB134B04200093237840F213310193A5
:108360006378104A0293A3780393E3780493237904
:10837000059363790693A3790793E3790893237AA6
:108380000993637A0A932B46FFF758F90023738009
:10839000FEF7DAFA28460DB0F0BD00BFCC0A002087
:1083A0008EFA0008BCF900082DE9F04F8BB00446A6
:1083B0008A469146FFF7C2F800250790DFF8308320
:1083C000B8F8023046469BB2002B40F0B780FFF76A
:1083D000B5F80890089A079BD31A0993099B002BBC
:1083E00003DA079B089A13440993BC4B1B68002BC4
:1083F000E4D0099A9A42E1D30898B94D0799099AAD
:1084000001900291039204930420F821B54A0023BD
:108410000095FFF713F93388B34A9BB28DE80C003F
:108420000420B04A0023F921FFF708F9338841F20C
:1084300007029BB2934227D841F2060293426DD2C3
:1084400040F20222934269D00FD80C2B08D8082B97
:1084500064D2002B4FD0062B88BF002366D85DE086
:108460000D2B58D040F201220BE041F20202934260
:1084700057D8B3F5805F51D8B3F5017F4BD940F29F
:108480000722934237D146E041F21102934242D093
:1084900014D841F20B02934240D005D841F20902B0
:1084A00093423BD03DD836E041F20F02934238D0A0
:1084B00034D841F20D02934233D01CE042F206025E
:1084C000934228D007D8B3F5005F14D942F20402D2
:1084D00093422DD81FE0B3F5804F00F0158205D8E8
:1084E000A3F50053083B012B15D904E044F20B021D
:1084F000934200F0098233887C4A9BB28DE80C00DD
:10850000052040F20111774A0023FFF797F80B206E
:10851000FFF7E2F8F8E1FF232370F5E14FF0FF33B6
:1085200004E04FF0FF3323606360EDE12360EBE193
:10853000204600213A2200F033FDE5E1D8F804603E
:108540003278042A40F0818130460121FFF777FD1F
:1085500005463046FFF7DCFD002840F06B8141F214
:1085600007039D4206F1050755D841F206039D42D7
:1085700080F0AE8040F202239D4200F0A98014D822
:108580000C2D09D8082D80F0A380002D00F0528119
:10859000062D00F2ED809BE00D2D00F0968040F25C
:1085A00001239D4200F0918044E141F202039D428B
:1085B00018D8B5F5805F00F28B80B5F5017F40F2E9
:1085C000848040F207239D4240F03481337938465D
:1085D00004F8013B0021FFF739FD01462046FFF773
:1085E00020FD27E141F204039D4200F0978040F214
:1085F000AD8000213846FFF729FD04212060384670
:10860000FFF724FD083444F8040C06F10D0322465C
:1086100006F11D017BE041F211039D4255D02BD89C
:1086200041F20B039D4253D01CD841F209039D42F5
:108630004ED000F2988000213846FFF707FD042154
:1086400020603846FFF702FD082160603846FFF7DA
:10865000FDFC0C21A0603846FFF7F8FC04F10C0B80
:10866000E060E6E041F20F039D426FD042D841F254
:108670000D039D4252D0DDE042F206039D4224D01C
:108680000BD8B5F5005F40F2D58042F204039D425D
:1086900088BF002300F2908017E042F208039D4259
:1086A000C0F0C88042F209039D420ED944F20B0388
:1086B0009D4240F0BF80737938460121A8F83030E0
:1086C000FFF7BDFCA8F83200B4E033792370B1E0C5
:1086D00038460021FFF7BAFC2060ABE0500A0020CA
:1086E000EAFA0008DAF900082DFB000842FA00084F
:1086F000CC0A002000213846FFF7A8FCA3464BF81F
:10870000040B04213846FFF7A1FC606091E053F8A8
:10871000040B8B4242F8040BF9D18BE00021384660
:10872000FFF794FC042120603846FFF78FFC0821F6
:1087300060603846FFF78AFCE36804F1080B3933C0
:10874000A06076D10121FFF7C9FC72E00021384614
:10875000FFF77CFC042120603846FFF777FC0834E3
:1087600044F8040C66E0337923713B68236061E0D0
:1087700000213846FFF76AFC042120603846FFF7E5
:1087800065FC082160603846FFF759FC0A21A060AB
:108790003846FFF754FC0C3444F8020C06F1110380
:1087A000224606F1350153F8040B8B4242F8040BC4
:1087B000F9D11B8813803DE0F2185279E25401335D
:1087C000042BF9D106F109000023C15CE218013342
:1087D000042B1171F9D106F10D000023C15CE218E0
:1087E0000133042B1172F9D106F111000023C15C91
:1087F000E2180133042B1173F9D106F1150000239F
:10880000C15CE2180133042B1174F9D106F119008F
:108810000023C15CE2180133062B1175F9D106F172
:108820001F000023C15CE2180133202B9176F9D19F
:1088300000E05C46B8F80020354B92B2954249D131
:1088400000221A8083F8412044E0B8F836309BB209
:1088500093B9B8F83600B8F800102E4F80B289B23C
:1088600001920290039100970495042040F20F2199
:10887000294AFEF7E3FE2DE03046032196F802B0C8
:10888000FFF7DDFB0746BAF1000F0BD00421701D86
:10889000FFF7DCFB06F115010246C9F8000050465F
:1088A000FCF736FCCBEB07077B1EB3F5806F07D2D6
:1088B0000BF10501204631443A46FCF729FC01E062
:1088C0004FF0FF37B9F1000F01D0C9F80070002355
:1088D000A8F836300023A8F80230FEF735F83378D0
:1088E000042B05D1B5F5805F02D13046FFF7BCFB04
:1088F000B8F800309BB2002B7FF460AD044BDB8EE8
:108900009BB2002B7FF45AAD00200BB0BDE8F08F76
:10891000CC0A002066FB0008DAF90008034B188037
:10892000084600210A46FFF73FBD00BFCC0A0020E1
:1089300010B5034B0124DC86BDE81040FFF734BDC1
:10894000CC0A002038B50346154601224A710C4670
:10895000881D1946FFF76EFB291D05702046FEF79E
:1089600063F8002038BD38B513440C469DB202218F
:108970006171A0712946E27104F10800FFF75AFB0A
:10898000691D204689B2BDE83840FEF74DB82DE993
:10899000F84F1C4604F1020B032301F107091FFAEB
:1089A0008BFB88710D464B71484659461646FFF7BA
:1089B00041FBB4F57A7F824605F10B0812D82146B7
:1089C000FFF738FB21465046FFF734FB314640465F
:1089D0002246FCF79DFBA11D284689B2BDE8F84F51
:1089E000FEF722B84FF47A77B4FBF7F30BEB4301B1
:1089F00089B2FFF71FFB39465046FFF71BFB314694
:108A000040463A46FCF784FBA4F57A74284640F2C7
:108A1000EE31A4B23E44FEF707F8B4F57A7F84BF86
:108A2000A4F57A74A7B2A84688BF4FF47A74314689
:108A300028F8054F4846224698BF0027FCF768FBF8
:108A4000A11C404689B22644FDF7EEFF0FB13C461B
:108A5000E3E7BDE8F88F000008B5062000F02CFB26
:108A60000120FDF7DBFC00BF2DE9F04F01F10B0504
:108A7000162D83B0064627D935F0070527D4A9421D
:108A800025D8304600F0D6FAB5F5FC7F26D2C14F86
:108A90004FEAD50C07EBCC03DC689C4200F0D28196
:108AA0006368E26823F0030323445868A16840F038
:108AB0000105CA60304691605D6000F0BDFA08347F
:108AC000204603B0BDE8F08F1025A942D9D9002473
:108AD0000C232046336003B0BDE8F08F5FEA552CCD
:108AE00000F08980BCF1040F00F260814FEA951C10
:108AF0000CF1380C4FEA4C01A64F07EB8101CC6812
:108B0000A14205D10CE0002B79DAE468A14207D03C
:108B1000626822F00302531B0F2BF4DD0CF1FF3CC3
:108B20000CF1010C9B4B3C6903F1080E744500F0FD
:108B30007E81616821F003014A1B0F2A00F36481E2
:108B4000002AC3F814E0C3F810E069DAB1F5007F39
:108B500080F03A81C9088A104FF0010808FA02F83B
:108B600003EBC1015A68886848EA0202A060E1602C
:108B70005A608C60C4604FEAAC0301209840904278
:108B80005BD8024206D12CF0030C400002420CF1EB
:108B9000040CFAD007EBCC084446E146E3689C425B
:108BA00007D146E1002A80F25781DB689C4200F041
:108BB0004081596821F003014A1B0F2AF2DD1C464F
:108BC00054F808CFD96845F0010942F001081D4466
:108BD000C3F804903046CCF80C10C1F808C07D6191
:108BE0003D61C5F80CE0C5F808E0C5F80480AA505E
:108BF00000F022FA64E77E214FF03F0C7CE722442C
:108C00005068E368A16840F00105CB603046996088
:108C1000556000F011FA0834204603B0BDE8F08F2B
:108C200021444B68304643F001034B6000F004FAE6
:108C30000834204603B0BDE8F08FBC68636823F0B9
:108C40000309A94504D3C5EB09030F2B00F3918059
:108C5000514B524A1968136805EB010A013304EBC2
:108C6000090B00F061810AF5805A0AF10F0A2AF413
:108C70007F6A2AF00F0A30465146019200F0DEF971
:108C8000B0F1FF3F8046019A00F00181834500F278
:108C9000FB80DFF814C1C345DCF800305344CCF846
:108CA000003000F04A8112683C4901321BBFCBEB17
:108CB000080B5B44C1F80080CCF8003018F00703C3
:108CC00000F01481C3F10802C3F5805390440833C7
:108CD000C244CAF30B0ACAEB030A51463046CDF828
:108CE00004C000F0ABF9431CDDF804C000F035818E
:108CF000C8EB0002524442F00102DCF80030BC42F2
:108D00005344C7F80880CCF80030C8F80420DFF8D6
:108D100098A015D0B9F10F0F40F2EB806168A9F16E
:108D20000C0222F0070201F0010142EA010E0520C7
:108D3000A1180F2AC4F804E04860886000F211818D
:108D4000174ABC6811688B4288BF1360154A1168C6
:108D50008B4288BF1360626822F003029542C5EB24
:108D6000020301D80F2B04DC304600F065F9002423
:108D7000A6E645F0010243F0010325446260304657
:108D8000BD606B6000F058F90834204603B0BDE8C0
:108D9000F08F00BFE40400205C0A0020F0080020EF
:108DA000580A0020540A0020600A0020BCF1140F69
:108DB00061D9BCF1540F00F28F804FEA153C0CF1E1
:108DC0006E0C4FEA4C0197E64B0A042B58D9142B32
:108DD00000F2AD8003F15B02500007EB8000836876
:108DE000DFF8B881834200F08A805A6822F00302DB
:108DF000914202D29B689842F7D1D9687A68E160C3
:108E0000A3608C60DC60B6E645F0010742F001012A
:108E10002544676030465D611D61C5F80CE0C5F80A
:108E200008E06960AA50083400F006F948E65A687C
:108E3000A1E609F1010919F0030F04F108047FF418
:108E4000ADAE2DE004F108036469A34208BF0CF144
:108E5000020C3FF467AE23E6194448681C4654F8F8
:108E6000082FDB6840F001054D603046D3609A6002
:108E700000F0E2F824E60CF15B0C4FEA4C013BE613
:108E80008A0938325000A8E7BC423FF402AFBC6800
:108E9000626822F0030261E7D8F8008098457AD131
:108EA0001CF0030FA8F108030CF1FF3CF4D17B6820
:108EB00023EA00037B60400098423FF6BEAE0028E4
:108EC0003FF4BBAE0342CC467FF464AE40000342A5
:108ED0000CF1040CFAD05DE6BCF5AA7F19D84FEA74
:108EE000D53C0CF1770C4FEA4C0105E64FF480536A
:108EF000EEE60123C8F80430444600222EE7921023
:108F000001209040D8F8042019460243C8F80420F4
:108F100075E740F254539C451BD84FEA954C0CF131
:108F20007C0C4FEA4C01E7E50AF1100AA3E6542B4A
:108F30001FD80A0B6E3250004FE7CBF30B0100290C
:108F40007FF4B1AE0AEB0901BA6841F0010151604A
:108F5000F6E6FC214FF07E0CCEE501224FF0000A30
:108F6000CBE604F10801304602F0BCFBDAF8003031
:108F7000E6E6B3F5AA7F03D8CA0B773250002CE798
:108F800040F25452934203D88A0C7C32500024E7BA
:108F9000FC207E2221E77B688DE700BFE4040020EF
:108FA000F0B4840743D0541E002A3ED0CDB203460D
:108FB00003E0621E002C38D0144603F8015B9A07C8
:108FC000F7D1032C2AD9CDB245EA05250F2C45EA65
:108FD000054515D9A4F110073F0903F1100606EB6A
:108FE00007161A46156055609560D5601032B2427A
:108FF000F8D104F00F040137032C03EB07130DD94C
:109000001E462246043A032A46F8045BFAD8221F79
:1090100022F003020432134404F003042CB1C9B259
:109020001C4403F8011BA342FBD1F0BC704714465B
:109030000346C6E7704700BF704700BF38B5074C0E
:109040000023054608462360FDF7FAF9431C00D0CB
:1090500038BD2368002BFBD02B6038BD5413002093
:109060001F2938B50C46054620D8D0F8DC229AB125
:1090700052F8213083B1012B0CD0591C06D00025A9
:10908000204642F824509847284638BD16230360EE
:10909000012038BD002038BD284600F029F82246BE
:1090A00001462846BDE8384000F00EB8162303609C
:1090B0004FF0FF3038BD00BF024B01461868FFF784
:1090C000CFBF00BFE004002038B5084C00230546A0
:1090D000084611462360FDF7D5F9431C00D038BD82
:1090E0002368002BFBD02B6038BD00BF5413002039
:1090F000FDF7CBB90CB4F0B5174B0C1E9DB01F6833
:1091000024DB4FF4027323AD14BF04F1FF3626466F
:1091100002900690ADF814304FF6FF7E2B4638468D
:1091200002A9229A049607960195ADF816E000F080
:1091300029F8431CBCBF8B233B6014B1029B002267
:109140001A701DB0BDE8F04002B070478B233B6041
:109150004FF0FF30F5E700BFE004002038B50246CD
:109160000C4659B1002501E0421C05461046214637
:1091700002F004FF0028F7D1284638BDBDE838408A
:1091800002F0FCBE2DE9F04FC9B010930C9191464E
:109190000D9002F073FB0068159002F069FF0C9CC3
:1091A0001890A3891E0603D52369002B01F0818046
:1091B00038ACA44608942B9400250024CDE916452C
:1091C000002311932D932C931A9319930E936646B3
:1091D00099F80030002B00F0F880252B00F0F58086
:1091E00009F1010201E0252B04D013781446013265
:1091F000002BF8D1C9EB04057DB12C9B2D9A0133CE
:109200002A44072BC6F8009075602D922C9300F32A
:10921000C28008360E9828440E902378002B00F068
:10922000C280002394F801801A468DF88F300F9386
:10923000099304F101094FF0FF340A9409F101097F
:10924000A8F12003582B00F2C583DFE813F06A026F
:10925000C303C3037102C303C303C303C303C30331
:10926000C30314036603C3039D00C000C303780255
:109270007F027F027F027F027F027F027F027F02E6
:109280007F02C303C303C303C303C303C303C303F3
:10929000C303C303C30390027103C3037103C30376
:1092A000C303C303C3036A03C303C3037800C30335
:1092B000C303C303C303C3035900C303C303AF0200
:1092C000C303C303C303C303C303C303C303C3036E
:1092D000C303C30337034803710371037103FF0220
:1092E0004803C303C3030803C303C5027C00200370
:1092F000A303C303D902C3035F00C303C303DE0098
:10930000DDF824C04CF0100CCDF824C0099CA20656
:1093100000F15483099CE30600F1BD85DDF824C00B
:109320001CF0400F00F0B785DDF840C00025BCF808
:1093300000400CF1040C0123CDF840C08CE0099DE5
:1093400045F010050995DDF824C01CF0200340F01D
:109350002A83DDF824C01CF0100240F0A485DDF85B
:1093600024C01CF0400300F09E85DDF840C0134689
:10937000BCF800400CF1040C0025CDF840C06BE0B7
:109380000F9C109364420F94099D45F004050995C4
:1093900099F8008052E70D980C992BAA02F098FEDC
:1093A00040B938AE36E72D9B23B10D980C992BAA06
:1093B00002F08EFE0C9C0E98A38913F0400F18BF8C
:1093C0004FF0FF3049B0BDE8F08F4C4625E799F8E3
:1093D000008009F10100B8F12A0F01F00C81A8F119
:1093E0003003092B98BF002101F26B8010F8018B2C
:1093F00001EB810103EB4101A8F13003092BF5D901
:1094000041EAE1710A9181461AE7099DA14CAF0634
:109410001A948DF88F2040F1D181DDF840C00CF115
:10942000070323F0070303F108041094D3E9004570
:10943000DDF824C01CF0010F00F0628454EA05003E
:1094400000F05E8430234CF0020C8DF890308DF8E3
:109450009180CDF824C002234FF0000A8DF88FA030
:109460000A99002905DBDDF824C02CF0800CCDF82A
:1094700024C054EA050040F0C5820A99002940F052
:10948000C182002B40F03884DDF824C01CF0010FAD
:1094900000F0328448AF3023089D07F8413DEC1BB3
:1094A000DDF828C000256445A8BFA446CDF82CC02F
:1094B0001495BAF1000F02D00B9D01350B95099B55
:1094C00013F00203129302D00B9D02350B95DDF8C9
:1094D00024C01CF0840CCDF84CC040F090820F9D4D
:1094E000DDF82CC0CCEB050BBBF1000F40F38782FD
:1094F000BBF1100F2D992C9ADFF8A0A12CDD1B9742
:10950000304657461025CA460C9EA1460D9C06E0E3
:10951000ABF1100BBBF1100F00F1080017DD0132A9
:109520001031072A2D912C9207604560F0DD20460E
:1095300031462BAA02F0CCFD00287FF43BAFABF103
:10954000100BBBF1100F2D992C9A38A8E7DC4C4674
:10955000D146BA461B9F064601320BEB010C072A87
:10956000CDF8B4C02C9286E8000C00F31A849DF864
:109570008FA00836BAF1000F0FD02C9B0CF1010C14
:1095800001330DF18F010122072BCDF8B4C02C93CC
:1095900086E8060000F3A4830836129B73B12C9B67
:1095A0000CF1020C013324A90222072BCDF8B4C020
:1095B0002C9386E8060000F387830836139D802DE0
:1095C00000F0CA820A9DC4EB050ABAF1000F3BDD28
:1095D000BAF1100F2C9B304D2BDD0A9432464FF020
:1095E000100B2E4661460D9C0C9D06E0AAF1100A58
:1095F000BAF1100F02F1080217DD01331031072B09
:109600002D912C9382E84008F0DD204629462BAAB4
:1096100002F05EFD00287FF4CDAEAAF1100ABAF187
:10962000100F2D992C9B38AAE7DC0A9C35468C46F6
:1096300016460133D444072BCDF8B4C02C9386E8EA
:10964000200400F335830836099DED0500F12482DE
:109650002C9BA4440133072BCDF8B4C03760746051
:109660002C9300F30F830836099C630749D50F9D9F
:109670000B982C1A002C44DD102C2C9BDFF81CA01E
:109680002BDD574610256246DDF83080DDF834A02A
:109690000BE000BFFCFB00081CFC0008C8FB000836
:1096A000103C102C06F1080615DD01331032072B93
:1096B0002D922C9337607560F2DD504641462BAAFF
:1096C00002F006FD00287FF475AE103C102C2D9A98
:1096D0002C9B38AEE9DC9446BA460133A444072BF0
:1096E000CDF8B4C02C93C6F800A0746009DD0D98C5
:1096F0000C992BAA02F0ECFC00287FF45BAEDDF89D
:10970000B4C00E9C0B980F9DA842ACBF24186419DE
:109710000E94BCF1000F40F0C18200232C9338AEB0
:1097200056E599F80080002A7FF488AD202285E56F
:10973000099D45F00105099599F800807EE5099D90
:1097400045F08005099599F8008077E50024A8F197
:1097500030030F94214619F8018B01EB810103EBD3
:109760004101A8F13003092BF5D90F9168E5DDF827
:1097700024C08DF88F204CF0100CCDF824C0099C2B
:10978000A50640F1B280109DE91D21F00701D1E945
:1097900000230831109114461D46002A73F1000C75
:1097A000C0F294839DF88FA0012359E6099DB64C21
:1097B000AF068DF88F201A943FF52FAE099DED0668
:1097C00040F14384DDF840C00025DCF800400CF196
:1097D000040CCDF840C02BE6DDF824C08DF88F20B6
:1097E0001CF0200F00F04084109C21680E9CE517AF
:1097F0002B46109D224604351095C1E90023E7E46D
:10980000109C4FF0000A27688DF88FA0251D002FAF
:1098100000F0E9850A9C3846002CC0F29B85514631
:10982000224602F02FF8002800F013860A9CC01B85
:10983000A042B8BF0446109524EAE475CDF828A0EC
:10984000CDF850A00B959DF88FA032E6DDF824C02E
:109850004CF0400CCDF824C099F80080EEE499F863
:1098600000804B46B8F16C0F00F07F84099D45F0F5
:1098700010050995E2E4109C109D24682B1D002C16
:109880000F94FFF67DAD109399F80080D6E4109BFD
:10989000DDF824C0109D7D4804351C684FF0780821
:1098A00030234CF0020C10958DF89030CDF824C088
:1098B00000258DF891801A900223CDE5109B109D14
:1098C0001A680124002304359A460B948DF8B820B9
:1098D00010958DF88F300A9314932EAFEFE5099C05
:1098E0008DF88F20A5063FF54EAFDDF824C01CF0A3
:1098F000100F40F0DF82DDF824C01CF0400F00F0B4
:10990000D982DDF840C0BCF900400CF1040CE51729
:1099100022462B46CDF840C03FE799F800802B2225
:109920008CE4099D45F00805099599F8008085E4C7
:10993000109D8DF88F20EB1D23F0070303F1080C19
:10994000CDF840C0D3E90045CDE91645DDE9160163
:1099500002F0ECFA0128DDE9160140F05C830022F8
:109960000023FCF775F8002840F063859DF88FA070
:1099700003250B95099D464F25F08005454B002496
:10998000099500250A94B8F1470FD8BF1F46032454
:1099900014958EE5DDF824C04CF0200CCDF824C0E1
:1099A00099F800804AE4109CE31D23F0070303F1BB
:1099B00008051095D3E9004500234DE5109DEB1DEA
:1099C00023F0070303F1080CD3E90045CDF840C0AC
:1099D000012341E58DF88F20B8F1000F3FF4E3AC8F
:1099E00000234FF0010C9A46CDF82CC08DF8B880BA
:1099F0008DF88F300A93149364462EAF5FE5DDF83F
:109A0000B4C0B7E5012B00F0EC80022B0DF1DF03B1
:109A100018D1DDF868C0194604F00F0022091CF8BF
:109A2000000042EA05722B09087052EA03000F4653
:109A300014461D4601F1FF31EED1089DCDE91E23EC
:109A4000EC1B2DE5E00840EA457004F00702E90848
:109A5000303250EA010C1F461A7004460D4603F1DD
:109A6000FF33EFD1099CCDE91C01E007394640F1F5
:109A7000C180302A00F0BE80089D1F463023EC1BB9
:109A800001F8013C0CE500BFE8FB0008FCFB000806
:109A9000DCFB0008D8FB0008B8F1650F40F3AD808F
:109AA000DDE9160100220023CDF81CC0FBF7C6FF3C
:109AB000DDF81CC0002800F026812C9BAA49013348
:109AC0000CF1010C0122072BCDF8B4C02C9386E8D1
:109AD000060000F3ED820836259B119CA34203DBB0
:109AE000099DEC077FF5C0AD2C9B189C0133159D9B
:109AF000A444072BCDF8B4C0356074602C9300F3F8
:109B00003E830836119D6C1E002C7FF7ADAD102CE6
:109B10002C9B964D40F3978110276246DDF83480E8
:109B2000DDF830A004E00836103C102C40F38A81A8
:109B300001331032072B2D922C9386E8A000F2DD22
:109B4000404651462BAA02F0C3FA00287FF432ACFB
:109B50002D9A2C9B38AEE7E70F9D0B98C0EB050ABA
:109B6000BAF1000F7FF72EADBAF1100F2C9B7F4D8D
:109B70002BDD129432464FF0100B2E4661460D9CA1
:109B80000C9D06E0AAF1100ABAF1100F02F10802CA
:109B900017DD01331031072B2D912C9382E84008FB
:109BA000F0DD204629462BAA02F092FA00287FF425
:109BB00001ACAAF1100ABAF1100F2D992C9B38AA0A
:109BC000E7DC129C35468C4616460133D444072BFD
:109BD000CDF8B4C02C9386E8200400F30F82083639
:109BE000F0E4002D08BF0A2C80F03881303448AFF3
:109BF00007F8414D089DEC1B52E4119C012C2C9C54
:109C000040F3D28101340CF101030122072C2D9382
:109C100037602C94726000F3D8810836159DDDF80A
:109C2000608001343560189D9844072CCDF8B480CD
:109C30002C94756000F3D5810836DDE91601002209
:109C40000023FBF7FBFE119D002840F0B9806B1E3E
:109C5000013401379844072C2C94CDF8B480376038
:109C6000736000F3E2800836DDF864C00134199DAA
:109C7000C44427AB072CCDF8B4C02C9486E8280048
:109C80007FF7F1AC0D980C992BAA02F021FA00286D
:109C90007FF490ABDDF8B4C038AEE5E40D980C99D4
:109CA0002BAA02F015FA00283FF437ADFFF782BB6C
:109CB0000D980C992BAA02F00BFA00287FF47AABCE
:109CC000DDF8B4C038AEBFE40D980C992BAA02F0B1
:109CD000FFF900287FF46EABDDF8B4C038AE6DE458
:109CE0000D980C992BAA02F0F3F900287FF462ABCF
:109CF000DDF8B4C038AE50E40A9C38AFFFF7D0BBF3
:109D00000223FFF7A9BB259B002B40F3DD81119CAB
:109D1000149DDDF844A0AC42A8BF2C46002CBA44E8
:109D20000BDD2C9BA4440133072BCDF8B4C0376066
:109D300074602C9300F31E830836149D24EAE474A7
:109D40002C1B002C40F3D780102C2C9B074D40F38C
:109D5000A3810A974FF010082F4662462546DDF88A
:109D600034B00C9C09E000BF18FC00081CFC000883
:109D70000836103D102D40F38B8101331032072B34
:109D80002D922C9386E88001F2DD584621462BAABD
:109D900002F09EF900287FF40DAB2D9A2C9B38AE73
:109DA000E7E70D980C992BAA02F092F900287FF4AE
:109DB00001AB9DF88FA0DDF8B4C038AEFFF7DABB79
:109DC0006F1E002F7FF750AF102FAE4D23DD43469F
:109DD0004FF0100ADDF83480DDF830B004E0103FB9
:109DE000102F06F1080615DD01341033072C2D93D2
:109DF0002C9486E82004F2DD404659462BAA02F056
:109E000067F900287FF4D6AA103F102F2D9B2C9CB9
:109E100038AEE9DC98460134B844072CCDF8B4805C
:109E20002C9486E8A0007FF71EAF0D980C992BAA02
:109E300002F04EF900287FF4BDAADDF8B4802C9C16
:109E400038AE11E794460133A444072BCDF8B4C0D3
:109E50002C93356074607FF706AC13E70DF1DF0BD0
:109E6000204629460A220023FBF742FE30328BF8B7
:109E70000020204629460A220023FBF739FE04462B
:109E80000D4654EA050C5F460BF1FF3BE8D1089DF7
:109E9000EC1BFFF705BB109D01232C6804351095C2
:109EA0000025FFF7D9BA109D2C68043510950025C0
:109EB000FFF7D2BA109D2C6804351095E51722469D
:109EC0002B46002A73F1000CBFF66CAC4FF02D0A44
:109ED000644265EB45058DF88FA00123FFF7C0BAFA
:109EE0000D980C992BAA02F0F3F800287FF462AACF
:109EF000DDF8B4C038AE149D259C2F44119DAC42B2
:109F000042DB099DE9073FD41198C7EB0A05041B02
:109F1000AC42B8BF2546002D0BDD2C9BAC44013371
:109F2000072BCDF8B4C0376075602C9300F34C82DA
:109F3000083625EAE575641B002C7FF795AB102CDD
:109F40002C9B504D7FF77FAF10276246DDF83480A1
:109F5000DDF830A004E00836103C102C7FF772AF1B
:109F600001331032072B2D922C9386E8A000F2DDEE
:109F7000404651462BAA02F0ABF800287FF41AAAFB
:109F80002D9A2C9B38AEE7E7189D2C9BAC44159D71
:109F900001333560189D072BCDF8B4C075602C9344
:109FA00000F3F4810836AFE7099DEA073FF52AAED2
:109FB00001340CF101080123072CCDF8B4802C9456
:109FC000376073607FF74FAE2FE70D980C992BAA7F
:109FD00002F07EF800287FF4EDA92D9B2C9C38AE72
:109FE0001CE60D980C992BAA02F072F800287FF459
:109FF000E1A9DDF8B4802C9C38AE1EE60D980C99D2
:10A000002BAA02F065F800287FF4D4A9DDF8B4C0CB
:10A0100038AEFFF7D7BA01F089FF002840F0BB80C7
:10A02000099C194F194B4FF0030C24F0800409943C
:10A030000A90CDF82CC01490B8F1470FD8BF1F4636
:10A0400064469DF88FA0FFF734BA099C640640F17E
:10A050005081DDF840C00025BCF800400CF1040C34
:10A06000CDF840C0FFF7E4B9DDF824C01CF0100FB4
:10A0700000F04681109C0E9D2368043410941D60EE
:10A08000FFF7A6B81CFC0008E4FB0008E0FB000892
:10A090002C463D460A9F94460133A444072BCDF835
:10A0A000B4C02C93356074603FF71AAF083622E7CE
:10A0B0000D980C992BAA02F00BF800287FF47AA9CE
:10A0C000DDF8B4C038AE07E52C9AB74901320CF17F
:10A0D000010C0120072ACDF8B4C02C9231607060C9
:10A0E00000F3F78008361C462CB9119D1DB9099D57
:10A0F000E8077FF5B9AA2C9B159D189901333560A7
:10A10000189D6144072B2D9175602C9300F3DE811F
:10A1100006F108026442002C40F30B81102CA34D81
:10A1200040F34881A34610260C46DDF83480DDF864
:10A1300030A006E00832ABF1100BBBF1100F40F37A
:10A14000378101331034072B2D942C9382E8600063
:10A15000F0DD404651462BAA01F0BAFF00287FF4FB
:10A1600029A92D9C2C9B38AAE5E7099C09F1010936
:10A1700044F02004099493F80180FFF75FB80D982C
:10A180000C992BAA01F0A4FF00287FF413A9DDF895
:10A19000B4C038AEB6E40A9D28F0200A013500F0BC
:10A1A000A580BAF1470F04D10A9D002D08BF0125F3
:10A1B0000A95DDF824C0DDE916234CF4807C002BE1
:10A1C000CDF848C0C0F29C81DDE91645CDE92045B7
:10A1D0004FF0000BB8F1660F00F09B81B8F1460F0D
:10A1E00000F0A981BAF1450F0ABF0A9C0A9D651CBF
:10A1F000022025A926AA29AB8DE821000392049309
:10A2000002910D98DDE9202300F002FBB8F1670F01
:10A21000074602D0B8F1470F05D1DDF824C01CF085
:10A22000010F00F09C81BAF1460F07EB050400F026
:10A230001C81DDE9200100220023FBF7FFFB002841
:10A2400040F00581299B9C4206D930215A1C299255
:10A250001970299B9C42F9D8DB1BBAF1470F119367
:10A2600000F0ED80B8F1650F40F3F281B8F1660FB0
:10A2700000F06881259C1494119C149DAC4200F35D
:10A280003281DDF824C01CF0010F40F0AD8125EAD9
:10A29000E5732C464FF06708BBF1000F40F0B28029
:10A2A000129D0B930995CDF828B09DF88FA0FFF76C
:10A2B00000B90D984021FEF7D7FB206020610028EF
:10A2C00000F0BF81DDF830C04023CCF81430FEF739
:10A2D0006FBF0D980C992BAA01F0FAFE00287FF4AD
:10A2E00069A8259CDDF8B4C038AEFDE606240A94C2
:10A2F0005FE7109D2C68043510950025FFF798B88E
:10A30000DDF824C01CF0400F00F08780109C0E9DEB
:10A310002368043410941D80FEF75ABF0D980C99E1
:10A320002BAA01F0D5FE00287FF444A82D992C9B80
:10A3300038AADDF844C00133119C8C44072BCDF8BA
:10A34000B4C02C93176054603FF79CAC02F1080630
:10A35000FFF78AB9CDF828A001F08AFE10950A9D72
:10A3600020EAE07C0446CDF82CC014959DF88FA01F
:10A37000FFF79FB80D980C992BAA01F0A9FE0028B1
:10A380007FF418A8DDF8B4C038AED6E40D980C9967
:10A390002BAA01F09DFE00287FF40CA8259CDDF877
:10A3A000B4C038AEB0E500BF18FC00081CFC0008C3
:10A3B00021465C4601332144072B2D912C931560D7
:10A3C0005460ABDC0832B4E70D980C992BAA01F06D
:10A3D0007FFE00287EF4EEAF259C1199DDF8B4C015
:10A3E0000C1B38AEA5E50A9CBA46062C28BF0624ED
:10A3F00024EAE47C0A9714971095CDF82CC0974F67
:10A40000FFF757B8129D4FF02D0A099500250B93C1
:10A410008DF88FA00A95FFF74FB8DDF840C00E9C6D
:10A42000DCF800300CF1040CCDF840C01C60FEF7E5
:10A43000CFBE4FF02D0A8DF88FA0FFF799BA259B5C
:10A44000DC1C19DB0A9C9C4216DB149314E72346A0
:10A4500002E724EAE47CCDF82CC00A9C10950A900F
:10A4600014909DF88FA0FFF724B83B78302B00F0B4
:10A47000AD80259D2C44DCE6A8F10208591E002978
:10A480002591BABF49422D232B2309298DF89C80A1
:10A490008DF89D3065DC302330318DF89E308DF89D
:10A4A0009F1028AB119D27AA119C9A1A012D199271
:10A4B000144440F3B7800134002524EAE473149572
:10A4C000EAE6002481460A94FEF7BABE0D980C997C
:10A4D0002BAA01F0FDFD00287EF46CAF259C2D9980
:10A4E0002C9B38AA16E6149C119D002CD4BFC4F1F5
:10A4F000020401242C4424EAE4734FF06708CBE6FD
:10A500001799169801F10041209021914FF02D0BE1
:10A5100060E60A9D032025A926AA29AB0195009093
:10A520000392049302910D98DDE9202300F070F965
:10A530000A9D074677E60A9C032025A926AA29AB8F
:10A540000194ECE7259D0A9C002D149563DDB4BBB6
:10A55000099DE80733D4149C24EAE4739CE6299B04
:10A560007AE60DF1AA023E4DCB1785FB0150C3EBF5
:10A57000A00000EB8003A1EB43010928134601F181
:10A5800030021A70014603F1FF32ECDC00F13001B9
:10A590000DF1AB04C9B2944203F8011C5AD90DF174
:10A5A0009D001A4601E012F8011BA24200F8011FAB
:10A5B000F9D10DF5907CC3EB4C03F63B72E70A9D95
:10A5C0006C1C149D2C4424EAE47365E6DDE920014B
:10A5D00000220023FBF732FA00287FF44AAFC5F1CE
:10A5E000010525952C4424E6149D4FF067086C1C4A
:10A5F00024EAE47350E6109DDDF840C02D680CF1AC
:10A600000403002D99F801800A9510938146BEF647
:10A6100015AEFEF710BE7CB9099DE9070CD40123E5
:10A620001C4639E6DDF824C01CF001037FF443AF7B
:10A63000149324EAE4732FE60A9DAC1C24EAE47325
:10A640002AE60D9D0C232B604FF0FF30FEF7BABEBB
:10A65000259B13E70DF19E0324E700BF10FC0008C3
:10A6600067666666F0B5141E9BB006461EDB4FF4A7
:10A67000027214BF04F1FF35254600910491ADF834
:10A680000C204FF6FF771A466946209B02950595E8
:10A69000ADF80E70FEF776FD431CBCBF8B22326016
:10A6A00014B1009A002111701BB0F0BD8B23036020
:10A6B0004FF0FF30F8E700BF70B5074C82B0064698
:10A6C0000D4620681446009331462A462346FFF77C
:10A6D000C9FF02B070BD00BFE00400202DE9F04FBB
:10A6E00003690D6983B09D42834600F38C80013D70
:10A6F00001F1140400F1140A54F825205AF8253009
:10A700000132B3FBF2F8AA00914600925244A144F0
:10A710000192B8F1000F3ED0002630462246534643
:10A720008C4652F8047B19681FFA87FE3F0C0EFB1B
:10A73000086E07FB08F606EB1E461FFA8EFECEEBF0
:10A74000000E8FB2B0B27744C0EB114000EB27404F
:10A75000BFB247EA0047914543F8047B4FEA2040E7
:10A760004FEA1646DDD2009A61465AF8023093B994
:10A77000019A131F9A450CD252F8043C4BB9A2F12E
:10A78000080302E01A68043B1AB99A4505F1FF353F
:10A79000F8D3CBF81050584601F0DAFA00282EDB37
:10A7A00008F101085346002254F8046B1868B1B24E
:10A7B000511A87B2360C3944C6EB104000EB2142E7
:10A7C00089B241EA0241A14543F8041B4FEA224203
:10A7D000EAD25AF825200AEB850382B91A1F92455E
:10A7E0000BD253F8042C42B9083B02E01A68043B30
:10A7F0001AB99A4505F1FF35F8D3CBF81050404609
:10A8000003B0BDE8F08F002003B0BDE8F08F00BFBB
:10A810002DE9F04F016C9BB0044692469B46279D64
:10A8200041B1436C01229A404B608A6001F09AF872
:10A8300000232364BBF1000FD94633DB00232B60D8
:10A84000A54B1A4609EA0303934214D050465946D1
:10A8500000220023FBF7F2F8804648B3269E289D8D
:10A8600001233360002D00F0CA809C482860013825
:10A870001BB0BDE8F08F269D42F20F732B60BAF13A
:10A88000000F00F0A5809648289E002EF0D0C378D7
:10A89000002B00F0B68000F10803289D2B601BB050
:10A8A000BDE8F08F01232BF000492B60CB46C7E7B2
:10A8B00019AA18AB8DE80C00204652465B4601F001
:10A8C000D7FA5FEA19550A9040F08B80189F199DBE
:10A8D0006FF482633D449D42C0F295821F3305F2BE
:10A8E00012425B1B09FA03F32AFA02F243EA02005E
:10A8F000FAF7C6FD0126013DB846A1F1F87116969A
:10A900000022784BFAF77EFC6DA3D3E90023FAF717
:10A910002DFE6DA3D3E90023FAF776FC0646284600
:10A920000F46FAF7BDFD6AA3D3E90023FAF71EFE2E
:10A9300002460B4630463946FAF766FC06460F4695
:10A94000FBF7AEF839460790002230460023FBF7AC
:10A950007FF8002840F02982079E162E00F22282FE
:10A960006149524601EBC6015B46D1E90001FBF7A4
:10A970008DF8002800F04C82013E079600260E96C6
:10A98000C5EB0805013D069500F1268200250895D6
:10A99000079E002EC0F21782069D0D9635440026B4
:10A9A00006950C96249D092D2DD8052DC4BF043D78
:10A9B0002495249EC8BF0025A6F10203D8BF012517
:10A9C000032B22D8DFE813F0B7039E02C0039A04DA
:10A9D000464A434BC9F3130000280CBF10461846E3
:10A9E00052E7CBF3130343F07F51CDF85880504624
:10A9F000A5F2FF3541F44011DDF8608080E73C4866
:10AA000036E7C31C49E700252495002565642946DF
:10AA1000204600F081FF4FF0FF390126099025956F
:10AA20002064CDF83C900B96199B002BC0F2D2808D
:10AA3000079E0E2E00F3CE802B4B03EBC603D3E90B
:10AA40000001CDE9040125990029C0F28083DDE9E8
:10AA5000042359465046FAF7B3FEFBF721F80546A2
:10AA6000FAF71EFDDDE90423FAF780FD02460B46E6
:10AA700050465946FAF7C6FB099A05F13003B9F179
:10AA8000010F06460F46137002F1010B64D000223D
:10AA9000184BFAF76BFD0022002306460F46FAF723
:10AAA000CDFF002840F08180DDF82480099DC84456
:10AAB000DDE904AB05F10209039428E0AFF300805F
:10AAC00061436F63A787D23FB3C8608B288AC63FB4
:10AAD000FB799F501344D33F0000F07F19FC00081E
