:020000040800F2
:105000000050002029560008655500086755000823
:10501000695500086B5500086D5500080000000038
:105020000000000000000000000000006F550008B4
:105030007155000800000000735500087555000800
:105040007556000875560008755600087556000814
:105050007556000875560008755600087556000804
:1050600089550008755600087556000875560008E1
:1050700075560008755600087556000883550008D7
:1050800075560008755600087556000875560008D4
:1050900075560008755600087556000875560008C4
:1050A000755600087556000875560008DD5500084D
:1050B00075560008755600087556000875560008A4
:1050C0007556000875560008755600087556000894
:1050D0007556000875560008755600087556000884
:1050E000BD55000875560008755600080000000000
:1050F00000000000000000000000000000000000B0
:0C51000000000000000000005FF808F153
:10510C00844641EA000313F0030349D1403A23D308
:10511C000B6803604B6843608B688360CB68C3602B
:10512C000B6903614B6943618B698361CB69C36113
:10513C000B6A03624B6A43628B6A8362CB6AC362FB
:10514C000B6B03634B6B43638B6B8363CB6BC363E3
:10515C0040304031403ADBD230320BD30B68036025
:10516C004B6843608B688360CB68C3601030103130
:10517C00103AF3D20C3205D351F8043B40F8043BFF
:10518C00043AF9D2043208D0D2071CBF11F8013B03
:10519C0000F8013B01D30B8803806046704700BFC9
:1051AC00082A13D38B07B1D010F00303AED0C3F190
:1051BC000403D21ADB071CBF11F8013B00F8013BBA
:1051CC00A4D331F8023B20F8023B9FE7043AD9D331
:1051DC00013A11F8013B00F8013BF9D20B7803704E
:1051EC004B7843708B788370604670477047002310
:1051FC00036018467047002303601846704700236D
:10520C000360184670470000194B10B51A6812B1AC
:10521C001A68013A1A60174B1A6812B11A68013AE7
:10522C001A60154C236813B12368013B06E0134B3D
:10523C001B7823B9E72000F019FFC8232360104B1B
:10524C001A68B2F57A7F0FD300221A6001F0DAFCEB
:10525C00042001F031FB4FF6FF71884207D0BDE806
:10526C001040042001F01ABB1A6801321A6010BDFC
:10527C00940A0020880A0020900A002000000020D8
:10528C00980A00201FB50446E72000F0D7FE01F075
:10529C0053F901F093F80F4B0F4900930F4B104A41
:1052AC000193104B10480293104B0393104B00F0DA
:1052BC0093FA4FF47A7000F06BFD204600F0A4FADC
:1052CC000C4800F01FFB48F2442000F0E9FA0020E3
:1052DC0004B010BD81640008FB51000895640008FF
:1052EC000352000801650008F951000829650008FF
:1052FC000B52000801000020F0B50022184B8DB0B5
:10530C0007460E461020022100F0DEF900231A4653
:10531C00FD5A00AC144445F001012D0A0DF80210A1
:10532C006570F55A0233A570182B4FEA1525E570F8
:10533C0002F10402ECD16B4630210422102000F063
:10534C00C3F968460021302202F040FB10200146D0
:10535C0034226B4600F0B8F9C0B20DB0F0BD00BFFE
:10536C0030AD000810B5084C204600F013FA40B9D7
:10537C002378012B06D16278182A03D1A370184622
:10538C0010BD002010BD00BFAC0000202DE9F04185
:10539C00DFF82C81494F01260023304688F8003075
:1053AC0087F88360FFF76EFFFFF7DCFF44463D464E
:1053BC0020B188F80060BE70BDE8F08107F1840070
:1053CC0000F0BDF966712071637993B195F88A305C
:1053DC003A4E022B0DD8F31C0B208021002200F03A
:1053EC0045F9374B587196F88A30013386F88A3074
:1053FC00EAE7344B95F88A70334A032F14BF1746EB
:10540C001F460123637163792D4E33B1B01D06F134
:10541C001E01FFF771FF7071F5E700F02BFA012008
:10542C00FFF730FF012373716379254E3BB10B20DD
:10543C00802100223B4600F047F97071F4E701230C
:10544C00737196F904301BB1012385F88B300EE093
:10545C0095F8843023F0010385F884306379002BB0
:10546C00F2D01A4800F062F9154B5871F6E795F82E
:10547C008B30124E3BB10420E18E154A00F06BF9D3
:10548C0086F88B00F3E7012386F88C3095F88C00B6
:10549C0040B10520218F0F4A00F05DF9074B83F8CE
:1054AC008C00F3E7FFF7EEFE01236420237000F07D
:1054BC006FFCBDE8F041E72000F0B2BDAC0000206D
:1054CC00000000206C7A0008AF00002030010020A2
:1054DC00EC7A00085C9A000808B54FF4A0414FF034
:1054EC00006001F0D1F900F07BFE00F035FC4FF0CC
:1054FC00FF1000F049FDE72000F092FD40F6B830B7
:10550C0000F074FC0020FFF7BDFE002000F0BAFE96
:10551C00B0F57A7F04D3002000F0BCFEFFF736FF15
:10552C000B4B93F883200AB10A4A127893F8832024
:10553C001AB1084A1278002AE7D09B78002BE4D1E4
:10554C00FFF710FF4FF47A7000F022FCDDE700BF8C
:10555C00AC000020000000207047FEE7FEE7FEE7ED
:10556C00FEE770477047704708B501F031F8BDE8A9
:10557C000840FFF749BE00F037BB000008B5042017
:10558C0001F0ACFA78B1042001F0B6FA0020064B19
:10559C000146188000F0B0FDBDE80840034810211A
:1055AC00012201F018BD08BDAC010020002C014007
:1055BC0008B54FF4006001F091FA38B14FF4006077
:1055CC0001F09AFABDE8084000F07CBB08BD000071
:1055DC0008B51048102101F037FDC8B10D48102155
:1055EC0001F03DFD002000F03DFE30B90A4B1A8859
:1055FC0092B20A3292B21A8008BD064810210022DB
:10560C0001F0E9FCBDE808400020012100F074BD68
:10561C0008BD00BF002C0140AC010020002100F0AF
:10562C0004B80C4B5B58435004310B480B4B4218DD
:10563C009A42FFF4F6AF0A4A00F003B8002342F88E
:10564C00043B084B9A42FFF4F9AF00F0CFFFFFF791
:10565C0043FF704738AD000800000020AC0000206C
:10566C00AC000020A40A0020FFF7FEBF2DE9F34197
:10567C001F4602ACFF2304F8053D124B86469D687D
:10568C000E4605F109007146904601F0ECFC3146DE
:10569C0001F0E9FC414601F0E6FC29460C2240F2FF
:1056AC00012002F009F9214640F2012002F0F0F845
:1056BC003846002101AA02F0F5F8019802B0BDE8C5
:1056CC00F08100BF1C0200202DE9F341984602AD89
:1056DC004FF0FF3345F8043D134B86469E680C464D
:1056EC0006F10A007146174601F0BDFC0C2101F0D1
:1056FC00BAFC214601F0B7FC394601F0B4FC414636
:10570C00224606F11A00FFF7FBFC31461022A3B229
:10571C00902002F0E2F840F20220294602F0B8F89C
:10572C00019802B0BDE8F0811C02002008B50346C8
:10573C00062001460022FFF7C7FFC0B208BD08B51E
:10574C000346062001460022FFF790FF062814BFEF
:10575C00FF20002008BDF8B506460D4617460C463E
:10576C007B192A1B1F2CC4EB030392B208D93046B9
:10577C002021FFF7A9FFC0B2203C0028F0D007E0A1
:10578C002CB130462146FFF79FFFC0B2F8BD204632
:10579C00F8BD000013B50B4B04469968002240F28B
:1057AC00072002F089F840F20720694602F070F8F1
:1057BC009DF803309DF8000023709DF80430637051
:1057CC0002B010BD1C020020024B01225A8058600E
:1057DC0001F0C6BD1C02002010B50A4CE16022612C
:1057EC006361029BE361039B2362049B6362059BE1
:1057FC00A3620123A06184F84030002384F8413077
:10580C0010BD00BF1C02002070B5174B174D0024B3
:10581C0006461748AC63EC632C802C866C86AC86F1
:10582C00EC86EC626C806C60AB6000F0BBF8A6425E
:10583C00A9680CBF234602234B7201224FF480400F
:10584C0002F03AF821464FF4804002F021F8A968A2
:10585C00224644F20B0002F02FF8214644F20B00D2
:10586C00BDE8704002F014B8880200201C02002031
:10587C00D557000838B5094C0020A36A984725462F
:10588C00EB69064C98470028FAD0A3680BB10023AB
:10589C00A360BDE8384000F0ADB800BF1C0200208A
:1058AC0037B548F2080248F2080102408A42034622
:1058BC0013490BD10020934281F840001ED023F4F1
:1058CC00004323F0080343F4004302E0012281F873
:1058DC0040208D684FF0FF32194602AC05F10900EB
:1058EC0044F8042D01F0BFFB29460422082001F0E6
:1058FC00E3FF0820214601F0CBFF019803B030BD37
:10590C001C02002013B50E4A4FF0FF33019391682F
:10591C0098B154230370437083700022845C8B18FD
:10592C000132032A5C72F9D10C2001F0C5FF0C2066
:10593C0001A901F0ADFF019800E0184602B010BDBE
:10594C001C02002000F0010383F0010003B962B6D1
:10595C00704700002DE9F0410546EFF3108872B650
:10596C000E4C237A27469D4209D0052D01D00126E5
:10597C0006E00B4BDB6998470028F8D1257200260E
:10598C004046FFF7DFFF16B16369002BE5D078695D
:10599C00D0F1010038BF0020BDE8F081700200207A
:1059AC001C0200200F4B10B500220F490F4C1A722D
:1059BC001961DA80DA609A8018601046A36A9847F9
:1059CC000B4800F0EDF9236A98474FF47A7000F019
:1059DC00E7F9A36A01209847BDE810400120FFF7C2
:1059EC00B9BF00BF70020020880600201C020020F6
:1059FC00E093040010B5054C636A9847A36A002035
:105A0C009847034B00221A6110BD00BF1C020020F6
:105A1C0070020020024B4FF480725A60704700BF36
:105A2C0000E100E02DE9F84380460F4614461E467F
:105A3C00EFF3108072B61F4DA4B295F80890FFF7E3
:105A4C0081FF002000F0FEFC5FFA89F90120B8F11B
:105A5C00000F06D13946224600F07CFC4046164920
:105A6C0005E02969224600F075FC002039462246E3
:105A7C0000F070FC11480221012200F0CEFF012041
:105A8C0000F0E0FC9EB1EFF3108072B62C7AFFF7B9
:105A9C0059FFE4B2A14503D1064B5B69002BF2D050
:105AAC006869D0F1010038BF0020BDE8F8833046AA
:105ABC00BDE8F883700200203A0000205800024034
:105ACC00CB074CBF0B464B1C10B5C3F307244470DB
:105ADC000024C4700471054C01220270837084F898
:105AEC004120034AD0609180581D10BD1C0200203B
:105AFC00700200202DE9F84305460E46EFF31080A6
:105B0C0072B6384C277AFFB2FFF71CFF17B1012F82
:105B1C0005D02AE00120FFF71DFF00285DD0EFF330
:105B2C00108872B60323277A237200F033FD4046A7
:105B3C00FFF708FF28463146FFF7C2FFFFB20446C5
:105B4C00002F4AD0322000F02BF9012029460422E4
:105B5C000346FFF767FF00283FD03220A4B200F0C5
:105B6C001FF90120291D221F2DE00220FFF7F2FE54
:105B7C00002832D0EFF3108872B6277ABB1E5F4232
:105B8C005F4157B1EFF3108972B6237A0423237265
:105B9C0000F000FD4846FFF7D5FE4046FFF7D2FE69
:105BAC0017B96369002BE5D06369B3B92846314650
:105BBC00FFF786FF04460520FFF7CCFE68B1A4B2C0
:105BCC000120294622460346FFF72CFF002814BF6C
:105BDC0020464FF0FF30BDE8F8834FF0FF30BDE8B2
:105BEC00F88300BF7002002070B54FF4003000F055
:105BFC001DFF314C05464FF4005000F017FF237A7F
:105C0C00033B052B52D8DFE803F03B513B510329F2
:105C1C00002D50D000284ED04FF4083000F014FF67
:105C2C00082323722369B3F80330C3F3072545EA2D
:105C3C000325ADB2002D3ED0EB075CBF0135ADB2F4
:105C4C00B5F5806F02D90A2000F04AFD00202169C9
:105C5C002A460346BDE87040FFF7E4BE58B34FF444
:105C6C00083000F0F1FE02232372144B4FF48072C3
:105C7C00C3F8842000F0F6FB23682069984770BDB8
:105C8C00CDB10F48802101F02BF80028F9D14FF449
:105C9C00083000F0D9FE237A074D032B01D10523E0
:105CAC0002E000F0DFFB02232B7270BD0B20BDE87D
:105CBC00704000F015BD70BD7002002000E100E0E6
:105CCC00003800400F4B70B5DB6998470546B8B9F2
:105CDC000D4C237ADBB2022B04D0042B0ED07BB9F3
:105CEC0001230CE00723237200F054FC28462169A1
:105CFC002B460522BDE87040FFF794BE05232372A6
:105D0C0070BD00BF1C020020700200200D4B0E4A1B
:105D1C00197839B9D98889B21187198989B29187CB
:105D2C009B8806E0D98989B21187198A89B2918733
:105D3C009B899BB29386054B63221A70FF225A7083
:105D4C00704700BF90010020002C01404000002053
:105D5C004FF4407000F05ABD0A4BF0211A684FF412
:105D6C007A73B2FBF3F2084B013A5A60074A82F895
:105D7C0023100021996007211960D02382F8233069
:105D8C00704700BF9400002010E000E000ED00E040
:105D9C00024B18601A68002AFCD17047940A002044
:105DAC0007B50F4B5B6800930E4B1A680E4BB2FB9A
:105DBC00F3F34FF0FF32B2FBF3F2904228BF1046E0
:105DCC0043430193064B5968009A019B8A1A9A42E5
:105DDC0002D200F017FFF5E703B05DF804FB00BF3B
:105DEC00001000E09400002040420F0010B5044663
:105DFC0045F2555000F0F4FE062000F0F7FE282086
:105E0C00604340F6FF73000A984228BF184680B2E0
:105E1C0000F0F2FE00F0F6FEBDE8104000F0FABE15
:105E2C00082814D8012908D10B4B0C4A03EB80032A
:105E3C005B6832F810201A610BE051B9064B074A27
:105E4C0003EB80035B6832F810205A6101E0FF20FD
:105E5C0000E0002040B270474000002064AC000815
:105E6C0073B50F4E8500731904460121186900F0B3
:105E7C00EBFE36F8143001A9ADF8043010238DF880
:105E8C00073003238DF80630064B1D44686800F07C
:105E9C0039FE20460021FFF7C3FF02B070BD00BFE2
:105EAC0064AC00084000002070B5012188B04FF4AC
:105EBC00006000F0C9FE314B01A81C68304B002576
:105ECC00B4FBF3F4A4B201F059F801A801F056F8B0
:105EDC00ADF804402B4C42F20F7301A92046ADF8EB
:105EEC000830ADF80A50ADF8065000F0FFFE04A8DB
:105EFC0001F04DF860230126ADF810302046022346
:105F0C0004A9ADF81830ADF81260ADF81650ADF824
:105F1C001C5000F035FF2046294601F071F8204650
:105F2C0004A900F071FF2046294601F071F82046C3
:105F3C0004A900F0ADFF2046294601F073F8204675
:105F4C0004A9ADF81050ADF81260ADF81650ADF8CC
:105F5C00185000F0DFFF2046294601F06BF8204670
:105F6C00314601F041F82046314601F01AF820463E
:105F7C00314601F022F808B070BD00BF940000203B
:105F8C0040420F00002C014030B51049104B8C8D55
:105F9C0093F82430A4B204FB0334C0F307456C43DC
:105FAC000C4A240CD4808C8DC0F30725A4B204FBBE
:105FBC0003346C43240C1481898D506189B2C0B2B6
:105FCC0001FB000043431B0C938030BD002C0140AF
:105FDC00400000209001002073B50F4E850073190E
:105FEC0004460121186B06EB440600F02DFEB6F8B2
:105FFC004030ADF804300CB9102300E018238DF8B4
:10600C00073003238DF80630044B01A91D44A86A00
:10601C0000F078FD02B070BD64AC000840000020B8
:10602C0010B1E72806D07047034B4FF400529B6A1F
:10603C001A617047FFF76ABE4000002010B1E728D4
:10604C0006D07047074B4FF400529B6A5A61704759
:10605C00054A0023138793879386024A1370012302
:10606C005370704740000020002C014010B1E7280D
:10607C0007D070471D4B9B6ADA6882F40052DA60D5
:10608C0070471B4A1B4B1178A1B9188F80B208B905
:10609C00D18889B219879B8F16499BB20BB100230B
:1060AC0001E013899BB28B87124B998E89B2B1B9DF
:1060BC00928817E0198F89B209B1002101E0D189CA
:1060CC0089B219879B8F0B499BB20BB1002301E05E
:1060DC00138A9BB28B87074B998E89B209B1002228
:1060EC0001E0928992B29A86704700BF400000206E
:1060FC0090010020002C014073B5104C0E4604EBAF
:10610C00400494F84C10054694F8480000F052FDF9
:10611C00B4F85040204600F0DBFC00238DF804302E
:10612C00074B68461D4495F8383000948DF80530BF
:10613C008DF8066000F092FC02B070BD64AC0008F3
:10614C0040000020F7B5234E8700F3190546586D23
:10615C000C4640F00100012100F076FD1E4B06EBD1
:10616C0045065A1992F83A2002A98DF80320B6F880
:10617C005C201F4421F8082DF86B694600F0C2FC26
:10618C00012C24D110210022144800F024FF1B23E1
:10619C008DF804300027052301A88DF805308DF803
:1061AC0006708DF8074000F03BFBB6F8603001A894
:1061BC008DF8043006238DF805308DF806708DF8B7
:1061CC00074000F02DFB28462146FFF795FF03B052
:1061DC00F0BD00BF64AC000840000020002C014062
:1061EC001E4B10B55A68002442F440725A60A3F555
:1061FC004C33A3F50473DA68012142F08072DA6043
:10620C00174B4FF0C0505C601A6842F001021A60E4
:10621C0000F026FD012000F005FDFFF799FD01209F
:10622C00014600F011FDE0B20134FFF719FE082C15
:10623C00F9D1FFF739FE0020FFF7CEFE0120FFF762
:10624C00CBFE0220FFF7C8FE0320FFF7C5FEBDE81A
:10625C00104000200121FFF775BF00BF002004E0B3
:10626C00001000E0054A064B02EB800203EB4003F2
:10627C00B3F85C10D06B00F093BC00BF4000002062
:10628C0064AC0008024B03EB4000808B80B270477B
:10629C0090010020024B002203EB400082837047E8
:1062AC009001002010B5082086B0012100F0CCFC34
:1062BC004FF48040012100F0D3FC244C4FF40053E8
:1062CC00ADF8003003238DF80230204618236946C0
:1062DC008DF8033000F016FC4FF40043204669465D
:1062EC00ADF8003000F00EFC4FF48043ADF80030F8
:1062FC002046042369468DF8033000F003FC4FF46C
:10630C008272ADF8062001220023ADF80C20A4F512
:10631C0054444FF40072ADF80430ADF80830ADF8C9
:10632C000A30ADF80E20ADF81230082207232046B3
:10633C0001A9ADF81020ADF8143000F09DFC2288B6
:10634C00034B92B21A8006B010BD00BF000C014086
:10635C00A20A002070B5044601208CB00E460146FE
:10636C00154600F065FC124B802201930692002327
:10637C004FF44052012C029605930793089309930E
:10638C000A920B9306D10B480393049500F0A4FAE0
:10639C00084807E04CB9102307480393049500F014
:1063AC009BFA054801A900F00FFB0CB070BD00BFB3
:1063BC000C380040440002405800024073B50F23D3
:1063CC000124002501A88DF804308DF805508DF8B6
:1063DC000650174E8DF8074000F022FAFFF762FFC7
:1063EC0020462A461349FFF7B5FF28462A4612498C
:1063FC00124DFFF7AFFF30462246022100F00DFB95
:10640C0028462146224600F062FC224628460221FC
:10641C0000F05DFC2846214600F04DFC2146084862
:10642C0000F0F0FA3046214600F0ECFA02B070BDF4
:10643C0058000240880600208802002000380040E6
:10644C004400024010B504462146044800F0DAFA34
:10645C0021460348BDE8104000F0D4BA4400024085
:10646C005800024002484FF4805100F09FBB00BF1F
:10647C00000C014008B54FF40061024800F090FB9D
:10648C0008BD00BF000C014030B5092085B00121CA
:10649C0000F0DAFB4FF400644823694614488DF889
:1064AC000330ADF8004000F02DFB0B21012000F073
:1064BC0081FB204600F00CFB002502940C230124E8
:1064CC0002A88DF80D308DF80C508DF80E4000F0B0
:1064DC00C5FA282301A88DF804308DF805408DF8F5
:1064EC0006508DF8074000F09BF905B030BD00BF99
:1064FC00000C01401FB52823002401A88DF804309E
:10650C008DF8074000F08CF94FF4006302A8029359
:10651C008DF80E4000F0A2FA04B010BD20B1054871
:10652C004FF4807100F042BB02484FF4807100F0D0
:10653C003FBB00BF000C014013B50820012100F047
:10654C0083FB0F4C4FF48053ADF8043003232046EB
:10655C0001A98DF8063010238DF8073000F0D2FA1F
:10656C00FFF780FF4FF48073204601A9ADF804308B
:10657C0000F0C8FA0020FFF7D1FF02B010BD00BF39
:10658C00000C014002484FF4007100F00FBB00BF3B
:10659C00000C014010B50B4C238823F040031B0466
:1065AC001B0C2380FFF7EEFF074B08481B884FF4AA
:1065BC0080519BB243F040032380BDE8104000F0B3
:1065CC00F7BA00BF00380040A20A0020000C0140BE
:1065DC00024BDA6B0132DA63704700BF9001002086
:1065EC00014BD86B704700BF90010020384B82B034
:1065FC001A6842F001021A605968364A0A405A6019
:10660C001A6822F0847222F480321A601A6822F41A
:10661C0080221A605A6822F4FE025A604FF41F025C
:10662C009A600022009201921A6842F480321A6039
:10663C001A6802F400320192009A01320092019A17
:10664C001AB9009AB2F5A06FF2D11A6812F400329E
:10665C0018BF01220192019A012A05D01E4B4FF05E
:10666C0000629A6002B070471C4A116841F0100138
:10667C001160116821F003011160116841F00201F1
:10668C0011605A685A605A685A605A6842F48062BB
:10669C005A605A6822F47C125A605A6842F4E81222
:1066AC005A601A6842F080721A601968084A8901A7
:1066BC00FBD5516821F003015160516841F0020192
:1066CC0051605A6802F00C02082AFAD1C6E700BFE2
:1066DC00001002400000FFF800ED00E00020024036
:1066EC00F8B5074672B63F4B53F830404FF47F0075
:1066FC00FFF74AFCE720FFF793FC3B4B13B13B48F9
:10670C00AFF30080E720FFF799FC022500F07AFA3E
:10671C0003262046FFF738FCE720FFF781FC3448BE
:10672C00FFF73EFB013EE720FFF788FCB6B231488D
:10673C00FFF736FB002EECD12E48FFF731FB03267A
:10674C002046FFF721FCE720FFF76AFC2A48FFF7F9
:10675C0027FB013EE720FFF771FCB6B22548FFF797
:10676C001FFB002EECD12348FFF71AFB0326204613
:10677C00FFF70AFCE720FFF753FC1D48FFF710FB5F
:10678C00013EE720FFF75AFCB6B21A48FFF708FBA8
:10679C00002EECD11948FFF703FB3E468EB1204684
:1067AC00FFF7F2FBE720FFF73BFC1348FFF7F8FA83
:1067BC00E720FFF743FC013E0F48FFF7F1FAB6B2B2
:1067CC00ECE70F48FFF7ECFA013D9FD1BFF34F8F79
:1067DC000C4A0D4BD16801F4E0610B43D360BFF35D
:1067EC004F8FFEE7C8AC00080000000033AD000876
:1067FC00F0490200A0860100E0930400A0BB0D004C
:10680C0000350C0000ED00E00400FA0540F0BF601C
:10681C00024B40F40030D860704700BF00ED00E040
:10682C00C27810B50378FAB1154A4478D26803F1EE
:10683C006043D243C2F30222C2F1040104FA01F113
:10684C000F2424FA02F2847803F5614322400A43B0
:10685C001201D2B283F8002303780122590903F004
:10686C001F0302FA03F306E05909012203F01F0388
:10687C0002FA03F32031034A42F8213010BD00BF65
:10688C0000ED00E000E100E021F0604121F07F012B
:10689C00014B08439860704700ED00E082B0002384
:1068AC000193044B0193019B18440190019B1960C7
:1068BC0002B07047006C004082B000230193054B7E
:1068CC000193019B18440190019B188880B202B07F
:1068DC00704700BF006C004002684FF6FE73134017
:1068EC0003600023036043608360C3602A4B9842BB
:1068FC0022D02A4B984229D0294B984230D0294B90
:10690C00984237D0284B98423ED0284B984206D11B
:10691C0053F8682C42F4700243F8682C7047244BEF
:10692C00984206D153F87C2C42F0706243F87C2CD0
:10693C007047204B984206D153F8042C42F00F02BA
:10694C0043F8042C70471C4B984206D153F8182C72
:10695C0042F0F00243F8182C7047184B984206D1BD
:10696C0053F82C2C42F4706243F82C2C7047144BC7
:10697C00984206D153F8402C42F4704243F8402C14
:10698C007047104B984205D153F8542C42F47022A6
:10699C0043F8542C704700BF080002401C00024012
:1069AC003000024044000240580002406C0002409B
:1069BC0080000240080402401C04024030040240E3
:1069CC0044040240580402408A6810B50C6A0368FB
:1069DC0014430A6923F4FF4314434A6923F07003F8
:1069EC0014438A691443CA6914434A6A14438A6A71
:1069FC00224313430360CB6843600B6883604B688E
:106A0C00C36010BD19B1036843F0010303E00268D1
:106A1C004FF6FE7313400360704703680AB11943C5
:106A2C0001E023EA0101016070470000C3004CBF84
:106A3C00034B044B1B6803420CBF00200120704722
:106A4C000004024000000240C3004CBF014B024B4B
:106A5C00586070470004024000000240837930B552
:106A6C000168027943B3194BCC431D6802F1804293
:106A7C0025401D605D6802F582322C405C60146814
:106A8C002143116002689C68D1430C409C60DC6817
:106A9C002140D9604179102906D199681143996038
:106AAC00D9680A43DA6030BD01F1804303F58233C3
:106ABC0019680A431A6030BD02F1804303F5823332
:106ACC001A6822EA0101196030BD00BF00040140C0
:106ADC00014B5861704700BF00040140054B1A6818
:106AEC005B69034004D010420CBF002001207047AA
:106AFC001846704700040140014B5861704700BFB5
:106B0C0000040140CB78F0B5DA0648BF8A780988D2
:106B1C0003F00F0548BF154311F0FF0F1DD004689B
:106B2C0000220127974007EA0106BE4211D19700C7
:106B3C004FF00F0C0CFA07FC05FA07F724EA0C04CB
:106B4C00282B44EA070401D1466102E0482B08BF18
:106B5C0006610132082AE4D10460FF291FD9446878
:106B6C00002202F108060127B74007EA0106BE42DF
:106B7C0011D197004FF00F0C0CFA07FC05FA07F730
:106B8C0024EA0C04282B44EA070401D1466102E0F4
:106B9C00482B08BF06610132082AE2D14460F0BDDF
:106BAC00836819420CBF00200120704701617047B7
:106BBC004161704701F003039B000F229A409840FB
:106BCC0001F0FC0101F1804101F5803110B58C68B8
:106BDC0024EA02028A608A6802438A6010BD0000BF
:106BEC00014B1860704700BF00300040014B5860EB
:106BFC00704700BF00300040014B9860704700BFE9
:106C0C0000300040024B4AF6AA221A60704700BFBF
:106C1C0000300040024B4CF6CC421A60704700BF6B
:106C2C0000300040014B1860704700BF20000E423E
:106C3C00044B5A6909B1104301E022EA0000586183
:106C4C00704700BF00100240044B9A6909B1104311
:106C5C0001E022EA00009861704700BF001002407A
:106C6C00044BDA6909B1104301E022EA0000D86153
:106C7C00704700BF001002400B8810B54C8802888A
:106C8C0023438C8802F441522343CC8823430C8940
:106C9C0023434C8923438C892343CC8923431343BB
:106CAC009BB20380838B23F400631B041B0C838334
:106CBC000B8A038210BD038819B19BB243F04003C9
:106CCC0003E023F040031B041B0C038070478388F4
:106CDC009BB20AB1194301E023EA0101818070479C
:106CEC00038919420CBF002001207047224A0388F7
:106CFC0090429BB212D002F5006290420ED0B0F1DD
:106D0C00804F0BD0A2F59832904207D002F58062EA
:106D1C00904203D002F58062904203D14A8823F05E
:106D2C0070031343154A904208D002F580629042DA
:106D3C0004D023F44073CA889BB2134303808B881E
:106D4C0083850B8803850C4B98420FD003F50063A9
:106D5C0098420BD003F54063984207D003F580634B
:106D6C00984203D003F58063984201D10B7A0386D5
:106D7C0001238382704700BF002C014000100040AB
:106D8C00038C70B523F001031B041B0C0384038CD0
:106D9C008488028B0D8822F073021204120C2A4391
:106DAC004E880D8923F002031B043543ADB21B0C36
:106DBC002B43144DA4B2A8420FD005F50065A84290
:106DCC000BD005F54065A84207D005F58065A842B3
:106DDC0003D005F58065A8420ED14D8923F0080338
:106DEC002B438D8823F004032B43CE898D8924F407
:106DFC0040743543ADB22C4384800283CA888286AA
:106E0C00038470BD002C0140038C30B523F01003BB
:106E1C001B041B0C0384038C8288048B0D8824F4C4
:106E2C00E6442404240C23F0200344EA05241B0428
:106E3C000D891B0C43EA05134D8892B243EA0513E6
:106E4C00124DA4B2A8429BB203D005F50065A8422E
:106E5C0015D14D8923F080039BB243EA05134FF6FD
:106E6C00BF751D408B8822F4406245EA03138D895F
:106E7C009BB242EA8502CD8942EA850292B28280B7
:106E8C00CA8804830287038430BD00BF002C0140F4
:106E9C00038C30B523F480731B041B0C0384038C0C
:106EAC008288848B0D8824F073042404240C23F42E
:106EBC0000732C431B040D891B0C43EA05234D88DE
:106ECC0092B243EA0523124D9BB2A84203D005F5BA
:106EDC000065A84215D14D8923F400639BB243EAA7
:106EEC0005234FF6FF351D408B8822F4405245EAAE
:106EFC0003238D899BB242EA0512CD8942EA051221
:106F0C0092B28280CA8884838287038430BD00BF9A
:106F1C00002C0140038C30B523F480531B041B0C54
:106F2C000384038C8488828B0D8822F4E64212043D
:106F3C00120C23F4005342EA05221B040D891B0C8E
:106F4C0043EA05334D88A4B243EA05330A4D92B2A5
:106F5C00A8429BB203D005F50065A84205D18D89E6
:106F6C0024F4804444EA8514A4B284808283CA88C1
:106F7C00A0F84020038430BD002C01404FF6FF7375
:106F8C00838000230380C3804380037270470023F7
:106F9C00038043808380C380038143818381C381C9
:106FAC007047038819B19BB243F0010303E023F04F
:106FBC0001031B041B0C03807047B0F8443029B14B
:106FCC006FEA43436FEA53439BB201E0C3F30E03F2
:106FDC00A0F84430704783899BB20AB1194301E091
:106FEC0023EA010181817047038819B19BB243F0F8
:106FFC00800303E023F080031B041B0C0380704709
:10700C00038B23F008031B041B0C194301837047EB
:10701C00038B23F400631B041B0C43EA01218BB28A
:10702C0003837047838B23F008031B041B0C194349
:10703C0081837047838B23F400631B041B0C43EA8E
:10704C0001218BB283837047038A828911EA030082
:10705C0092B203D011420CBF002001207047C943EB
:10706C0089B2018270470B0A017043700B0C090E38
:10707C008370C170043070470170090A417002308E
:10708C00704743185A78435C03EB022080B2704778
:10709C0010B543189A78DC78415C120402EB046258
:1070AC0058780A4402EB002010BD000073B54479F7
:1070BC000023022C01930FD0032C19D0012C2BD1BF
:1070CC00164D2B692E4623B12B6901A89847024611
:1070DC00B8B9B16801201BE0104DEB682E4623B106
:1070EC00EB6801A89847024658B9B16802200FE036
:1070FC000A4D6B692E464BB16B6901A89847024645
:10710C0020B1A9682046BDF8043003E0B168032023
:10711C000022134600F0F5FB02B070BD1C020020EB
:10712C00072830B512D8012910D8EFF3108472B6A5
:10713C000125854001FA00F0054B1A6822EA050288
:10714C0002431A602346DB0700D462B630BD00BF91
:10715C00A800002070B5012186B00546FFF791FF0D
:10716C00430404462AD5B0F5824F27D12846052181
:10717C00FFF787FF05EB8000EE1D0024C51DAE4216
:10718C0006D030460221FFF77CFF04360444F6E7B4
:10719C00724B1A8E92B2224492B21A86DA6B144453
:1071AC00DC63D96B9A6B914240F0CA8093F8402013
:1071BC00002A00F0C5809B69992031E024F4FF403F
:1071CC0020F07F0080B2002800F0978048F2100376
:1071DC009C4228D00CD8B4F5004F40F2BC8048F249
:1071EC0002039C4215D948F204039C4211D0B2E030
:1071FC0048F280039C420CD004D848F240039C42D5
:10720C004FD0A8E0B4F5024F03D0B4F5084F6BD0C3
:10721C00A1E0524B9A69002A00F092809B692046AB
:10722C0000210A4667E00023EA1852790DF8032082
:10723C000133042BF8D16B7A05F10D008DF8043075
:10724C00AB7A8DF80530EB7A8DF806302B7B8DF808
:10725C000730002300AA1A44C15C0133042B1172BD
:10726C00F8D105F11100002300AA1A44C15C0133C6
:10727C00042B1173F8D105F11500002300AA1A4450
:10728C00C15C0133042B1174F8D12B798DF81430B7
:10729C00324B9A69002A53D09B69204669461522C5
:1072AC0029E0053500212846FFF7F2FE0421009065
:1072BC002846FFF7EDFE082101902846FFF7E8FE6F
:1072CC000C2102902846FFF7E3FE1021039028467C
:1072DC00FFF7DEFE214B04909A69002A30D09B699F
:1072EC0020466946142206E01C4B9A6942B39B69FE
:1072FC002046691D0122984722E041F203039C427B
:10730C0005D0A4F580530E3B9BB2012B1AD86C1DF3
:10731C0020460421FFF7BCFE39301CD12A790F4BD3
:10732C0000212046DA62FFF7B3FE04210546204611
:10733C00FFF7AEFE393003D128460121FFF7F0FEEE
:10734C00012009E0054B1B889BB29C4204D0B4F58C
:10735C00805FF5D100E0002006B070BD1C0200205B
:10736C0070B50E4C6688B6B2B6B1606805782B1F46
:10737C005D425D412DB1FFF7EDFE003018BF0120DD
:10738C0000E02846064618B935B194F841301BB9CF
:10739C0000236380FEF73EFB304670BD1C020020CC
:1073AC002DE9F04F85B004468A469146FFF718F94F
:1073BC0000250190DFF83083B8F8023046469BB2C6
:1073CC00002B40F09380FFF71DFCFFF709F90290AA
:1073DC00029A019BD31A0393039B002B03DA019BA4
:1073EC00029A13440393BF4B1B68002BE2D0039A01
:1073FC009A42DFD3338841F207029BB2934227D8DB
:10740C0041F20602934261D240F2022293425DD0D5
:10741C000FD80C2B08D8082B58D2002B4FD0062B8A
:10742C0088BF00235AD851E00D2B4CD040F20122DA
:10743C000BE041F2020293424BD8B3F5805F45D882
:10744C00B3F5017F3FD940F20722934237D13AE09E
:10745C0041F21102934236D014D841F20B029342FE
:10746C0034D005D841F2090293422FD031D82AE00A
:10747C0041F20F0293422CD028D841F20D029342D4
:10748C0027D01CE042F2060293421CD007D8B3F579
:10749C00005F14D942F20402934221D813E0B3F5F1
:1074AC00804F00F0EE8105D8A3F50053083B012B6B
:1074BC0009D904E044F20B02934200F0E2810B2064
:1074CC00FFF70EF9DDE1FF232370DAE14FF0FF3314
:1074DC0004E04FF0FF3323606360D2E12360D0E11E
:1074EC00204600213A2200F071FACAE1D8F8046073
:1074FC003378042B40F0798130460121FFF7C1FD30
:10750C0005463046FFF726FE002840F0638141F225
:10751C0007039D4206F1050755D841F206039D422B
:10752C0080F0AE8040F202239D4200F0A98014D876
:10753C000C2D09D8082D80F0A380002D00F04A8175
:10754C00062D00F2E5809BE00D2D00F0968040F2B8
:10755C0001239D4200F091803CE141F202039D42E7
:10756C0018D8B5F5805F00F28B80B5F5017F40F23D
:10757C00848040F207239D4240F02C8133793846B9
:10758C0004F8013B0021FFF783FD01462046FFF77D
:10759C006AFD1FE141F204039D4200F08B8040F232
:1075AC00A58000213846FFF773FD04212060384682
:1075BC00FFF76EFD083444F8040C06F10D03224667
:1075CC0006F11D016FE041F211039D4255D02BD8FD
:1075DC0041F20B039D4253D01CD841F209039D424A
:1075EC004ED000F2908000213846FFF751FD042167
:1075FC0020603846FFF74CFD082160603846FFF7E5
:10760C0047FD0C21A0603846FFF742FD04F10C0B3E
:10761C00E060DEE041F20F039D4267D036D841F2C4
:10762C000D039D4246D0D5E042F206039D4224D084
:10763C000BD8B5F5005F40F2CD8042F204039D42B9
:10764C0088BF002300F2888017E042F208039D42B5
:10765C00C0F0C08042F209039D420ED944F20B03E4
:10766C009D4240F0B780737938460121A8F830303C
:10767C00FFF707FDA8F83200ACE033792370A9E0DE
:10768C0038460021FFF704FD2060A3E000213846B6
:10769C00FFF7FEFCA3464BF8040B04213846FFF71A
:1076AC00F7FC606095E053F8040B8B4242F8040B36
:1076BC00F9D18FE000213846FFF7EAFC0421206065
:1076CC003846FFF7E5FC082160603846FFF7E0FC20
:1076DC00E36804F1080B3933A0607AD10121FFF77C
:1076EC001FFD76E0D40100201C020020002138464A
:1076FC00FFF7CEFC042120603846FFF7C9FC0834A4
:10770C0044F8040C66E0337923713B68236061E034
:10771C0000213846FFF7BCFC042120603846FFF7F7
:10772C00B7FC082160603846FFF7ABFC0A21A0606B
:10773C003846FFF7A6FC0C3444F8020C06F1110392
:10774C00224606F1350153F8040B8B4242F8040B28
:10775C00F9D11B8813803DE0F2185279E2540133C1
:10776C00042BF9D106F109000023C15CE2180133A6
:10777C00042B1171F9D106F10D000023C15CE21844
:10778C000133042B1172F9D106F111000023C15CF5
:10779C00E2180133042B1173F9D106F11500002303
:1077AC00C15CE2180133042B1174F9D106F11900F4
:1077BC000023C15CE2180133062B1175F9D106F1D7
:1077CC001F000023C15CE2180133202B9176F9D104
:1077DC0000E05C46B8F800202C4B92B2954236D1B2
:1077EC0000221A8083F8412031E0B8F836309BB281
:1077FC006BB33046032196F802B0FFF742FC074604
:10780C00BAF1000F0BD00421701DFFF741FC06F1FB
:10781C0015010246C9F800005046FDF771FCCBEB90
:10782C0007077B1EB3F5806F07D20BF105012046CD
:10783C0031443A46FDF764FC01E04FF0FF37B9F1F3
:10784C00000F01D0C9F800700023A8F836300023CF
:10785C00A8F80230FEF7DEF83378042B05D1B5F525
:10786C00805F02D13046FFF721FCB8F800309BB2A4
:10787C00002B7FF49FAD054BDB8E9BB2002B7FF46E
:10788C0099AD002005B0BDE8F08F00BF1C020020B0
:10789C00034B1880084600210A46FFF781BD00BF44
:1078AC001C02002010B5034B0124DC86BDE81040FF
:1078BC00FFF776BD1C02002038B5034615460122A1
:1078CC004A710C46881D1946FFF7D6FB291D057019
:1078DC002046FEF70FF9002038BD38B513440C468E
:1078EC009DB202216171A0712946E27104F1080078
:1078FC00FFF7C2FB691D204689B2BDE83840FEF790
:10790C00F9B82DE9F84F1C4604F1020B032301F1E1
:10791C0007091FFA8BFB88710D464B714846594677
:10792C001646FFF7A9FBB4F57A7F824605F10B08E2
:10793C0012D82146FFF7A0FB21465046FFF79CFBCF
:10794C00314640462246FDF7DBFBA11D284689B295
:10795C00BDE8F84FFEF7CEB84FF47A77B4FBF7F3E7
:10796C000BEB430189B2FFF787FB39465046FFF713
:10797C0083FB314640463A46FDF7C2FBA4F57A74C8
:10798C00284640F2EE31A4B23E44FEF7B3F8B4F50B
:10799C007A7F84BFA4F57A74A7B2A84688BF4FF447
:1079AC007A74314628F8054F4846224698BF00277E
:1079BC00FDF7A6FBA11C404689B22644FEF79AF8B7
:1079CC000FB13C46E3E7BDE8F88F0000F0B4840744
:1079DC0043D0541E002A3ED0CDB2034603E0621EB3
:1079EC00002C38D0144603F8015B9A07F7D1032C0E
:1079FC002AD9CDB245EA05250F2C45EA054515D9FE
:107A0C00A4F110073F0903F1100606EB07161A46FE
:107A1C00156055609560D5601032B242F8D104F013
:107A2C000F040137032C03EB07130DD91E46224616
:107A3C00043A032A46F8045BFAD8221F22F0030208
:107A4C000432134404F003042CB1C9B21C4403F8EF
:107A5C00011BA342FBD1F0BC704714460346C6E79A
:107A6C00030001011414002727272727272727277E
:107A7C0027272727272325252525252525252523A4
:107A8C002323230000000000000000000000000081
:107A9C00000000000000000050505050505050505A
:107AAC0050505050505050505050505050505050CA
:107ABC0050505050505050505050500177801D1F16
:107ACC00222628291A1F22242628161D1E2024258A
:107ADC001E2D0102020202001515151115150E00BE
:107AEC0000010000681F0000F0031800E4620800A9
:107AFC0096000000000000000000000000000000E4
:107B0C000000000000000000000000000000000069
:107B1C000000000000000000000000000000000059
:107B2C000000000000000000000000000000000049
:107B3C000000000000000000000000000000000039
:107B4C000000000000000000000000000000000029
:107B5C000000000000000000000000000000000019
:107B6C000000000000000000000000000000000009
:107B7C0000000000000000000000000000000000F9
:107B8C0000000000000000000000FFFF7A63080006
:107B9C009600000000000000000000000000000043
:107BAC0000000000000000000000000000000000C9
:107BBC0000000000000000000000000000000000B9
:107BCC0000000000000000000000000000000000A9
:107BDC000000000000000000000000000000000099
:107BEC000000000000000000000000000000000089
:107BFC000000000000000000000000000000000079
:107C0C000000000000000000000000000000000068
:107C1C000000000000000000000000000000000058
:107C2C0000000000000000000000FFFF10640800CE
:107C3C0096000000000000000000000000000000A2
:107C4C00000000000000000007200C4908600C48F0
:107C5C001930F74630B5051CAC6968685F3009D13E
:107C6C00606B0C3801218E460649FE440847002003
:107C7C006063AC696C6004485B3030BD403B08000D
:107C8C0049D0010009EA020091E100000000000067
:107C9C0000000000000000000000000000000000D8
:107CAC0000000000000000000000000000000000C8
:107CBC0000000000000000000000000000000000B8
:107CCC0000000000000000000000FFFFA664080098
:107CDC009600000000000000000000000000000002
:107CEC000000000000000000000000000000000088
:107CFC000000000000000000000000000000000078
:107D0C000000000000000000000000000000000067
:107D1C000000000000000000000000000000000057
:107D2C000000000000000000000000000000000047
:107D3C000000000000000000000000000000000037
:107D4C000000000000000000000000000000000027
:107D5C000000000000000000000000000000000017
:107D6C0000000000000000000000FFFF3C65080060
:107D7C009600000000000000000000000000000061
:107D8C0000000000000000000000000000000000E7
:107D9C0000000000000000000000000000000000D7
:107DAC000000000000000000F0B585B0051CA8889C
:107DBC00009028890190E9680291287C03902A6A36
:107DCC0000201756686000294CD0002F4ADCCE49A1
:107DDC000C1C082604902188009881420CD16288E2
:107DEC000198824208D14620025D0398824203D159
:107DFC000E200057B8420AD04620005D112822D12F
:107E0C00009881421FD10E200057FFFFD265080059
:107E1C0096000000B8421BD10420021C0298BD49F8
:107E2C0001239E46EB4BFE441847002817D0201D1B
:107E3C000299042201239E46E64BFE441847002873
:107E4C000DD04620005D112809D0A06D002806D069
:107E5C00AC34049801300490013EC1D107E0049881
:107E6C000006000EAC214143AA4840186860AA489D
:107E7C00AD3005B0F0BD00B5C26890690221012398
:107E8C009E46A64BFE441847A648613000BD0179BA
:107E9C000B2903D08900A34A515A01E00121490260
:107EAC004160A1480D30F746011CFFFF68660800D1
:107EBC0096000000A0480268A048012A01D1253094
:107ECC00F7469F4A12684A601930F7460021416014
:107EDC009D489C490818F746002141609B48EC4995
:107EEC000818F746FFB546694068019098490A7C26
:107EFC009E4F012A63D0097C032960D0954A964B8A
:107F0C0000210291595624235943531803930128F5
:107F1C0017D18A1804236C46904915790878C04308
:107F2C0028432070013201310134013BF5D1311D60
:107F3C006846042201239E46A84BFE44184700289D
:107F4C0040D0351D86480078FF28FFFFFE660800EC
:107F5C009600000011D000280FD00398011D281C9A
:107F6C000124A646824AFE441047002805D17E48CB
:107F7C00A6467F49FE44084705E0281C01218E4691
:107F8C007C49FE4408470199012901D100281ED1E2
:107F9C0001995F3101D000280FD1A820815D002903
:107FAC0008D0491E8155805D002809D1381CFF304E
:107FBC00083011E00321029100E0A82002998155BC
:107FCC00381CFF30163007E00198012802D1381C0C
:107FDC00A33001E0381C9F300090FFBD00B5021C9F
:107FEC00106AD1695269C3695A60FFFF946708002F
:107FFC009600000001229646624AFE4410476248F1
:10800C00FF306E3000BD10B50A1C4169006A9369DF
:10801C00DB69586090690124A6465A4AFE44104711
:10802C00A6465A48FE4400475948FF30B63010BDAA
:10803C0070B5051C6E69574802685C21885D042880
:10804C001DD107208855100B19D20124A646524881
:10805C00FE440047A6465148FE44004700280AD07B
:10806C0047218957C1601121C90200220423A64669
:10807C00EB4EFE443047A646EA48FE44004701203A
:10808C0068604348E849081870BDFFFF2A6808007B
:10809C009600000070B5051CAE699C2080194B2120
:1080AC0089000124A646EA4AFE4410475C21885DFB
:1080BC00072801D1092000E00520AA698854301C4A
:1080CC00A646EB49FE4408476860EA484D3070BD4F
:1080DC00F0B54168826888235E1837880B6F002BD7
:1080EC0001D1002F10D1062F02DD0021C94307E07A
:1080FC0033889B00C9180A6731880131318001210E
:10810C008160E3481D30F0BD0B1C01245D6F1D67C1
:10811C0004330134062CE1DAF8E700B50021C16024
:10812C00EB4801681031E8482022FFFFC0680800C6
:10813C009600000001239E46E94BFE441847E74891
:10814C00FB3000BD140D1B0054191B00911A0100CB
:10815C004BAD0300614E0100063208001F0B0200FC
:10816C00543F080045C10000843C08001B0200007D
:10817C00ED170000F3C1010034191B0008191B0096
:10818C00A64408001C171B0018171B00CB67030024
:10819C000D47020039420300BDE70200B140030065
:1081AC00B9EA010045DA000024410800539F03009E
:1081BC0071C00200F0B588B0069107908669F01C7A
:1081CC00DAA104220124A6460E4BFFFF56690800D3
:1081DC0096000000FE441847002833D1F279D848A5
:1081EC000270357A777A781B431C93421ED0162A7C
:1081FC000FDB002D0DD1D74804700A208119D1480E
:10820C001A1CA646B94BFE44184774E0C0468FC6EC
:10821C000300D1480470CB4840190A2189197A1BF4
:10822C00521CA646B14BFE44184764E0CA48047081
:10823C00CA4804700A208119C348A646AB4BFE44B9
:10824C00184758E0F01C03210A1CBCA1A646C64BDB
:10825C00FE44184700284ED1F179BB480170BB4D44
:10826C00B2792A7003201649F431FFFFEC6908003B
:10827C0096000000A646B94BFE4418472878002803
:10828C000BD1FFE7B8490C70B8490C7003200F49AB
:10829C00F531A646B64AFE441047201CF279357AD1
:1082AC00777A791B4B1C93421FD0AA49097816295F
:1082BC000EDB002D0CD1AC4908700A208119EA485C
:1082CC001A1CA6468B4BFE44184719E0C704000045
:1082DC00A6490870E44840190A2189197A1B521CD6
:1082EC00A646844BFE4418470AE09F4908709F49F4
:1082FC0008700A208119DC48A6467E4BFE441847BC
:10830C009748007800280AD09648FFFF826A080038
:10831C00960000000078002806D0954800780028C8
:10832C0002D094480078002800D18CE0032017215B
:10833C008901A646914AFE4410478848017888482E
:10834C000778854E844DE148006800282ED10798A7
:10835C0041610662C748069A1064022F01D0032FB0
:10836C0001D1032200E03A1C069BDA632A789A6357
:10837C00012F03D1052904D00D2902D0ED48DB30A3
:10838C0064E00025009501910296039504902B1C46
:10839C00201C011C8E46E74EFE443047E748046023
:1083AC00281CA646E649FE440847FFFF186B080048
:1083BC00960000004CE00D270020391C05AAA646AB
:1083CC00E44BFE4418476846808A400805D2381CA6
:1083DC005021A646DD4AFE441047381C211C0B1CBC
:1083EC00291C0022A646DA4FFE4438472B780D2074
:1083FC00311C221CA646D64EFE443047287801304C
:10840C00021C0D205849231CA646D14EFE44304771
:10841C00564E28780230021C0D20311C231CA64617
:10842C00CB4FFE443847307800280AD028780330E8
:10843C00021C4D4803780D209049A646C44DFE44BD
:10844C002847C04804600020A646FFFFAE6B08001A
:10845C0096000000BF49FE440847BA48ED49081889
:10846C0008B0F0BDC0467BC002005D9F03009F03B7
:10847C000000011CE8480268E848002A04D00022E9
:10848C000A628A611D30F746D730F746C0467DB880
:10849C000300011CE2480268E248002A02D0FF30C7
:1084AC00B430F7460022CA618A614F30F746C921C1
:1084BC00010091E10000DB4801688A690120C003DA
:1084CC001043886100200861D8482330F74689178B
:1084DC00020070B5051CD54E296AEA69301C0124CE
:1084EC00A6460B4BFE4418476869FFFF446C080016
:1084FC0096000000A646D149FE440847A8690630FC
:10850C00A860CF4800686860EE60CE486D3070BDE2
:10851C0046171B00303F080041EB000009B4030074
:10852C0030B5EE48016D806C084318D0EC49081C3E
:10853C000722FF2309331B58002B04D0FF301D30BA
:10854C00013AF6D10BE00220F04AF14B0124A64689
:10855C00F04DFE442847A646EF48FE440047EF483E
:10856C00FF305C3030BDC0465353494400C046C058
:10857C004B455900EE620800F0620800EC620800FE
:10858C00ED620800E77E0300E862FFFFDA6C08008A
:10859C00960000000800E9620800EA620800EB623D
:1085AC000800DD7E03008FC60300F0B587B0009194
:1085BC0001906B480168CC4A141C029407260025D4
:1085CC00039504940595DF480068084327D0E068BC
:1085DC00039988420ADD0390401C00998860C249C7
:1085EC00FF201D3068430C18E06804910299C9689B
:1085FC00884210DB884210D102980127BE46CE4932
:10860C00FE4408470690201CBE46CB49FE44084752
:10861C000699884201DA0595029451480168FF27B2
:10862C0009373859002806D0C748FFFF706D08007D
:10863C00960000000068072E00D12E1C084304D0C1
:10864C00FF341D340135072DC2DB072E0AD1C0487B
:10865C000068084306D0059E301C01218E46BA499D
:10866C00FE4408470198476100218161FF221D32B9
:10867C00724304998918C1610662B448393007B055
:10868C00F0BD10B5041C002001218E46B149FE44FA
:10869C000847401E00D500206060E061AE482130E4
:1086AC0010BDC0461063080070B5041CE56966690E
:1086BC00002001218E46A749FE4408476060AB1993
:1086CC00A64AA549934202D39A1AFFFF066E0800E8
:1086DC0096000000824202D9081C993070BD081C1B
:1086EC00AB3070BD086B417D02889200511A3C3949
:1086FC00FF225F32914203D96521018002218173EF
:10870C009B4899490818F746C04630630800F8B5ED
:10871C0040682421414397484518281D0C214919CC
:10872C00042201239E46944BFE441847914C00288A
:10873C001BD02B1C04226E4691491F7B0878C0432A
:10874C0038433070013301310136013AF5D10C2038
:10875C0041196846042201239E46874BFE44184764
:10876C00002802D0201C4A30F8BDFFFF9C6E080088
:10877C0096000000201CF8BDB1BD0000159500004E
:10878C00583F0800F3F80000E90902002B09020029
:10879C00DD0A0200F8B5051CAA697D4900200856BF
:1087AC00242141437648431804246E4676491F79A8
:1087BC000878C04338433070013301310136013C35
:1087CC00F5D1111D684604220124A6466D4BFE44CA
:1087DC001847011C6D4804D06E4909786960453012
:1087EC00F8BDEC61AF30F8BD70B5C56881680A8919
:1087FC006D4E002A22D00124C26DA218C2650889D0
:10880C000D281BD1686B211CA646FFFF326F080098
:10881C0096000000634AFE441047221C281C0021CD
:10882C00A646604BFE4418472C60E96B281CA646F4
:10883C005E4AFE441047281CA6465C49FE44084785
:10884C00301C3D3070BD301C233070BDC046B102B1
:10885C000000743F080019C600005C3F08001DC2F0
:10886C0000006844080043120300346308002F7AA8
:10887C000200B43608008FF40100F0B5051CAB699A
:10888C00EC69606800682A3001780A0641780904AE
:10889C008A18817809028A18C1788A188E26F15AAA
:1088AC00090A0170F05C61680968FFFFC86F080075
:1088BC00960000002B2670548C20C01861680E683E
:1088CC000188090A2C27B955616809682D2600789A
:1088DC0070546068016832310878000249780818D1
:1088EC000004000C8C21CB58354941400804000C85
:1088FC00C018801A01218E463249FE44084761682F
:10890C000A683223010A9954616809683322505469
:10891C00606868602C48F0BD00001B0034041B002C
:10892C00026A8B69DB691B6883608869C06941686E
:10893C008A4200DA426025487930F746244857309D
:10894C00F74624489130F7463204FFFF5E7008006A
:10895C00960000000000C407000015090200C59332
:10896C0000000D910000401E80001E4B19501C4948
:10897C000A50F746C046BDB5000095920000FD9325
:10898C000000543F0800294F0300DFE8020036893D
:10899C00410081060000B178000094EC0100081938
:1089AC001B008FC603001C171B0067660300A64440
:1089BC00080018171B00A72F0200914403009163B5
:1089CC0003005B440300E7440300FFFF000061A2C7
:1089DC0003006A1E010045DA0000D7E80100E978BF
:1089EC00020004F31A00807B0800FFFFF4700800FB
:1089FC0096000000FCB5041CA569606A0190206912
:108A0C00002835D4082833DAE169096810292FD1F8
:108A1C00AC2141439E4A515C490827D300060016FD
:108A2C00A268694601239E469A4BFE441847061CD1
:108A3C0039301FD0002E1DD00098076800990C39D2
:108A4C0001980160281D1021791A042201239E46E9
:108A5C00914BFE44184702222A80A81C0821791A3F
:108A6C0001239E468C4BFE44184703E0382000E05F
:108A7C000020C643266089487C302062FCBD30B59E
:108A8C00051C2869A96990291DD1FFFF8A7108006E
:108A9C009600000069690978042919D0052917D0B6
:108AAC000A2915D0062913D00C2901DB10290FD166
:108ABC000124A6467D49FE4408477C487D49002296
:108ACC00A6467C4BFE4418477C48FF305F3028623A
:108ADC0030BDF0B589B00590416902697548794E91
:108AEC0082423AD00430824225D0744DAA4200D042
:108AFC00CCE00868061C0C228F1A4A688918091DDC
:108B0C0010220124A6466E4BFE441847011C09D1C5
:108B1C00AC227243CB4880184622125C112A01D138
:108B2C0044221454281C3A1CA646FFFF207208004D
:108B3C0096000000624BFE4418476948EC30ABE0ED
:108B4C000868C00030188A68022A02D0E72080002A
:108B5C00A2E0CA688918097B4160802101603B2032
:108B6C00000199E008680690C00034581020049069
:108B7C000125AE465748FE4400470790002800D117
:108B8C0089E00C2107980F18B049AC20069A504385
:108B9C0008184822135C5B065B0E1354069AD2002D
:108BAC00B6187168002947D1002C01DD082C21DB97
:108BBC00002269460A7001920A818A72CD720D7385
:108BCC004D73018844480623AE46FFFFB672080079
:108BDC0096000000444CFE442047041C02DC00209C
:108BEC00C04336E03460AC2060439A4909185C22DB
:108BFC00281C50544820425C5206520E4254AC2061
:108C0C006043944908185C21095C491E022916D955
:108C1C00033908D000203056AE46EA49FE440847D6
:108C2C0080203060DBE70894802131604822135C9F
:108C3C0019431154AE46E449FE4408470AE00120AA
:108C4C00CEE70698391C04AAAE46E04BFE44184702
:108C5C00041C08900698386008987860002815D095
:108C6C00AC2060437C4909184888FFFF4C7308000E
:108C7C0096000000020402201043B8604868020EFF
:108C8C000102090E090211430204120E12040A43D6
:108C9C0000061043F86007980D4900221023AE46D9
:108CAC00CE4CFE442047134800E01620CC4909184E
:108CBC000598016209B0F0BD5D0D1B0081E7020053
:108CCC0009B40300271A02002F7A020002020000E6
:108CDC0005100000CFF60000D5F4000002100000D3
:108CEC00911902005065080071C0020050191B0058
:108CFC00291601002A030000F0B58BB00790056916
:108D0C0047690C20381A0890B649FFFFE273080037
:108D1C00960000008D4216D178680F3000110001CA
:108D2C00786038680B280ED80023684603700898C2
:108D3C0005220124A646AE4CFE442047AE48FF3027
:108D4C00953007990862AC48854223D1AC4802782B
:108D5C006C462272437863728178A172C078E0729B
:108D6C00009101900320A64901390126B646F34E25
:108D7C00FE4430470420207008989F49002202AB23
:108D8C000124A6469B4CFE4420479A48FF30953060
:108D9C0007990862EB498D4214D102226846027091
:108DAC003A68AC20424330486830FFFF78740800C2
:108DBC00960000008318089800220124A6468F4CC8
:108DCC00FE4420478E48FF30953007990862EF48E3
:108DDC00854200D004E103208C4901229646EC4ADE
:108DEC00FE4410478648FF30953009903868EA4DAC
:108DFC00002800D1E2E00124A646E648FE440047E4
:108E0C00002800D1D6E0E448026803207F490131F4
:108E1C00A646E24BFE441847DF48006800285AD1AA
:108E2C00DF4D2E204119B86803300870387A48702D
:108E3C002E1C3036B86828183030DA490A68303AB7
:108E4C00311CA646D84BFE441847FFFF0E75080090
:108E5C009600000078683818011DBA68301CA646C8
:108E6C00D94BFE441847B868411997220930505421
:108E7C00B86846199E3630700136B86801E0140D9A
:108E8C001B003018CA490A689E3A311CA646C84BCA
:108E9C00FE44184778683818011DBA68301CA6467D
:108EAC00C94BFE441847B8684000C0490968081807
:108EBC002818C0490A7902704A7942708A798270FE
:108ECC00C979C17004300F21411A0A78BB689A180D
:108EDC000A70401B0004000CB5490860B1480460DE
:108EEC000220011C1122A646B44BFFFFA4750800FA
:108EFC0096000000FE441847061C63D40320A646C7
:108F0C00B149FE4408470A900025011C8D4250D0FF
:108F1C00291C2B22A646AD4BFE4418470C200A995F
:108F2C004018AC227243AB498F187863291C182265
:108F3C00A646A64BFE4418479F480268796B4A60C8
:108F4C000A98AC30086008689A49A646A04BFE44C3
:108F5C001847291C03A81022A6469C4BFE44184710
:108F6C00E0216846017445748574FB21C174EE4997
:108F7C00C18102218181796BCA680120C003104331
:108F8C00C860486800902A1C301CFFFF3A76080025
:108F9C00960000000A9D291C03ABA646E64FFE4432
:108FAC003847071C30060016A646EF49FE44084712
:108FBC00281CA646EE49FE44084711E03006001670
:108FCC00A646E949FE4408470120C74308E0071CB0
:108FDC0006E000200021CF4301E00020071C2860A0
:108FEC000023684603703A06120E08986F49012454
:108FFC00A646094CFE4420470798099901620BB01C
:10900C00F0BDC1180100F11B0100F31C02007BC074
:10901C00020091F0000003020000A3C00200A9E9C5
:10902C00000007020000E4620800FFFFD076080091
:10903C0096000000AC050000FEB5071C7D69BE69FA
:10904C000C20301A0190DF4C0A2D13D13068DB490B
:10905C00086001208646DA48FE4400470A200021B9
:10906C00019A01239E46E64BFE441847F5208000EA
:10907C0000193862032D79D1F52080000019029077
:10908C00706800280CD10021CF480160CF480068DF
:10909C00002861D001218E46CD49FE4408475BE093
:1090AC00CC48B1680160F1684160316981607169D7
:1090BC00C160B169C163F1690164316AC1640124A1
:1090CC00A646C548FE440047A646FFFF6677080043
:1090DC0096000000C448FE44004770687D25ED00F2
:1090EC00A84221D8012818D0022805D0281CA64651
:1090FC00BE49FE4408471CE0B9480023191C5943DB
:10910C003E224A43828302300133102BF6DBA64603
:10911C00B448FE440047B5480DE0B54D281CA646A2
:10912C00B249FE44084704E0A646AF49FE4408474E
:10913C007568AE480560051CA74E3068002806D13E
:10914C00AD480068A646AC49FE4408473060009420
:10915C002B68AA49AB4AA646AB4DFE4428479C480F
:10916C00046003200021019A0123FFFFFC77080013
:10917C00960000009E46A74BFE44184702983862A2
:10918C00FEBDC046137F03001210000030B5051C55
:10919C0000200124A646A049FE440847A6469F4944
:1091AC00FE440847A6469E48FE4400477D21C90060
:1091BC00A6469E4AFE4410479B49081899490880C8
:1091CC009B480A30286230BD11100000DD7E030080
:1091DC00B99000006C640800E77E0300746408001A
:1091EC00706408006DC6030008191B0011180200FA
:1091FC00D1780200C9BA030009B40300140D1B0096
:10920C00FEB50290456968460121FFFF927808007F
:10921C00960000008E468949FE4408478948041C84
:10922C00686801694A7800273E1C2088400822D3D0
:10923C00201D891C01239E46834BFE4418470028A1
:10924C0007D1686800694078218809048916814231
:10925C003DD00220005F0099081A000400143C283D
:10926C0003DD2088401040002080781C07063F0E4C
:10927C00686801694A782A340136142ED5DB002A35
:10928C0002D1AB20400050E0009B6D48142100221D
:10929C000488640803D32A3001320139F8D112064C
:1092AC00120E142F16D166480088FFFF287908008B
:1092BC0096000000000644166449002201204E8DE1
:1092CC0036067616A64202DD341C0206120E2A3130
:1092DC0001301428F3DB02E03206120E009B2A2028
:1092EC0042435A4811180C88012020430004000CFA
:1092FC000880FE24A043142464576406240E0443FF
:10930C00524814521418638008888005820D6868CE
:10931C000069407880021043088068680269201D4B
:10932C00911C527801239E464B4BFE4418470298E1
:10933C000461FE204749091802980162FEBD82694A
:10934C0041690369022B0AD1012AFFFFBE7908008B
:10935C009600000001D1002905D0022A04D1002971
:10936C0002D1112100E006214161F746C04614E903
:10937C000000C918020030B5051C3A4800780028D6
:10938C0004D0012086463848FE4400470124A646F6
:10939C003748FE440047A6463648FE440047354849
:1093AC000E30286230BD491901002F7A020018B521
:1093BC00436981693148812900D10B380021009122
:1093CC001A689B680124A6462D4CFE44204718BD04
:1093DC0018B5406900210091026883682748013064
:1093EC000124A646264CFE442047FFFF547A080071
:1093FC009600000018BDC04630630800199E00009E
:10940C00B9EC0000743F0800803F0800B75D030012
:10941C0000001B00D38E0000F7C60000E590000092
:10942C0068640800C0270900A03B08003D5D0300EC
:10943C0019C60000E83A0800815D0300CFF6000071
:10944C004B4F03006BC00300951E0100DA4008006F
:10945C00DC05000055AA03000D910000D75603004F
:10946C00085108008FC6030065B8000009B403005A
:10947C0084171B00B58601003D47020073490200AA
:10948C005F9000000E100000F7F6FFFFEA7A08006C
:10949C00700000000000FFB56846FFF776FFFFBDC7
:1094AC00FFB56846FFF75AFFFFBDFFB56846FFF7EB
:1094BC0099FFFFBDFFB56846FFF783FFFFBDFFB502
:1094CC006846FFF7B6FEFFBDFFB56846FFF755FCD3
:1094DC00FFBDFFB56846FFF727FBFFBDFFB568462C
:1094EC00FFF7DDFAFFBDFFB56846FFF768FEFFBD6D
:1094FC00FFB56846FFF73DFBFFBDFFB56846FFF7BC
:10950C00BEFDFFBD787B08008800000000B5F8F0B8
:10951C0043FA00BD356608006766080071650800EF
:10952C004D66080025640800816608008D660800F9
:10953C009966080087670800A7670800D1670800CC
:10954C002B6808006768080041690800CD6B0800AB
:10955C00ED6B0800116C08002D6C0800B168080058
:10956C00716C0800BF6D0800176E0800416E080092
:10957C00116F0800F16C0800BD6E0800E56D080065
:10958C00996F0800357008003164080051700800AC
:10959C005770080004F31A0080000000B24E01005E
:1095AC005AC10000961A0100220B020060D0010083
:1095BC00061A0000B8C60100D84203001642030088
:1095CC00EEDB000062DC0000C8E100008A1702003C
:1095DC0038BE000026C6000056C20000621203000E
:1095EC00E4F401003AEC00005E920000FEE8020098
:1095FC00187F000064EC0100FE4403001C94000082
:10960C00A866030074E90200681E0100BCDA0000C1
:10961C00EAE1000024E90100707902000000180062
:10962C00960000000006011DF0B588B0CA4C03205E
:10963C0022786378CA4E311C01390125AE46C74FDA
:10964C00FE443847A278E3780320311CAE46C34F62
:10965C00FE4438470320311C0131AE46C14AFE445A
:10966C001047C1482178017061784170E178C17070
:10967C00A1788170BF48041C333C201C0021DC22E3
:10968C00AE46BA4BFE4418478420A0700527E771FC
:10969C000C2626730D20001998A1321CAE46B44B33
:1096AC00FE441847042060761A20001997A10691F1
:1096BC000422AE46AE4BFE441847FFFF960018003E
:1096CC0096000000A7771F3495A10791201C3A1C27
:1096DC00AE46A94BFE441847E671281C6072112057
:1096EC00207394206073C0256574A6740922E274FB
:1096FC00A34C201C8CA101239E469F4BFE44184773
:10970C00072262729E4C0A34201C89A101239E46BA
:10971C009A4BFE4418470420E071984C1234201CDC
:10972C000699042201239E46944BFE441847277148
:10973C00934C1734201C07993A1C01239E468E4BE0
:10974C00FE441847E67101206072112020739420AA
:10975C0060730220E07325746674FFFF2C011800FF
:10976C0096000000A5742F27E774102060758026E2
:10977C00A6750120E0751120A0769420E0762420B7
:10978C0060770A22A277804C3634201C6DA101230D
:10979C009E467C4BFE4418471822A2727A4C4134E8
:1097AC00201C6BA101239E46764BFE441847257660
:1097BC0067762120E0762677012060777248613049
:1097CC00112101709421417004210172D221417246
:1097DC00C5721E21017345739E2181730121017491
:1097EC00467481741121417594218175042101768F
:1097FC00AD206649086000240F25FFFFC201180048
:10980C00960000002906090E00206A4601239E4698
:10981C00624BFE4418476B46188840080ED3A000D4
:10982C000F21CA4369460E88164001AF3E52498843
:10983C0011406844C180601C0404240C013D0B2DB4
:10984C00E0DA601E0004000C1DD08646011C01AD40
:10985C000122AE889000C75AB7420ADABC46071CF0
:10986C006F447F8868440680EE8846806046A880F6
:10987C00EF800435501C0204120C0139E9D17046FA
:10988C0001388646E2D199886846C08840180004A1
:10989C00000C424B18804249081AFFFF580218006E
:1098AC00960000005880022C1EDB651E01AA0120C8
:1098BC00011C8C006B46E65A9388D488E718B74293
:1098CC000CDA06244443384B1B191F801C88341BAC
:1098DC005C8001241C71401C0004000C0432491CE7
:1098EC000906090E013DE4D10024314804703148C9
:1098FC0004703148047031480470012086463048A9
:10990C00FE4400472F49221C0868002802D0012081
:10991C009040044304310132202AF5D32A480460D4
:10992C0008B0F0BD5F6465766963652D696E666F1E
:10993C0000C046C05F75647000C0FFFFEE021800E7
:10994C009600000046C06C6F63616C00C0465F738C
:10995C006572766963657300C0465F646E732D73C0
:10996C0064006465763D43433330303000C0766527
:10997C006E646F723D54657861732D496E737472A9
:10998C00756D656E747300C046C000001800F37EE0
:10999C000300C6050000DD7E0300E4620800C9BABE
:1099AC00030009B40300A764080070640800DD0A12
:1099BC000200483208000080FFFFE8620800E962FC
:1099CC000800EA620800EB62080081031800807B43
:1099DC00080084F31A000D490E48FFFF8403180099
:1099EC006C00000088670E4888640E4848640E4876
:1099FC00C8640E4808651148021C04320C4B1360F5
:109A0C000C4B93620C4A8A660D4901600D480E4955
:109A1C0001600E494160F7461C210800337B0800A9
:109A2C00297B08001F7B0800517B0800477B08003E
:109A3C003D7B0800157B0800F77A080050230800CE
:109A4C00ED7A0800582608000B7B0800017B080003
:109A5C0000010000001200000000180004150000B6
:109A6C0004000000B8F1900FA4160000C80000001C
:109A7C0066E004A8351D21F099FC684623F028FB0C
:109A8C009AF80000012807D1284605F0C3FE0146CC
:109A9C0001AA002021F050F9284605F0BBFE01A9CF
:109AAC0021F02AFAE9794FEAE00040B211B100F155
:109ABC00060040B2A8711F384000E871304601F032
:109ACC000DFF10F100094FF0000109D02868400C7F
:109ADC0009D3E868C00B03D24846FFF7DDFE01212D
:109AEC002868400C0AD23868401C386020686FF334
:109AFC000F0020602268386810432060E868C00BB3
:109B0C000FD3D8F8000000F10100C8F8000020685D
:109B1C006FF31F402060D8F80020206840EA024014
:109B2C00206049B9B9F1000F03D1304607F0BEF9F6
:109B3C0002E0484607F006FA6C170000140000001B
:109B4C0068460EF085FB009E002E96D105B0BDE850
:109B5C00F087C0469C2000000400000023F07AFD32
:109B6C0074470000080000000B2121F0CBF920689D
:109B7C00184B00001400000021F06CF80AE020687B
:109B8C0000680C2140F0200021F064F80462000011
:109B9C000800000020791FF0A5FC69E034AD00003E
:109BAC00040000000968FF2998AD000004000000C3
:109BBC000010D421DCD300001000000000B518F018
:109BCC00FBFB00F003F800BD00000000C0DF00004C
:109BDC000400000017F03CFDC8F700002000000056
:109BEC00312E31392E3331345F4E65775F46544315
:109BFC005F6C656E6774685F6D6F64756C617469BA
:109C0C00807E010004000000DFF85882F47E010021
:109C1C00040000007A486B499C7F0100040000009E
:109C2C000070514DC47F01003C000000404900F120
:109C3C0052003A4AA8812883E883E884A8852A60E0
:109C4C00394841F211122A851890199139491A9103
:109C5C0039491B9139492046DFF8C4901C91384989
:109C6C00DFF8C0B0314E1D914880010004000000A7
:109C7C000DF07CFAB4800100340000003412660947
:109C8C00846B002094700020B4700020C4780020F5
:109C9C00507A0020FEFF0300A4700020B07000205A
:109CAC00B8700020605530803C5C002004740020AB
:109CBC00044D0200C80000002DE9F04FADF18C0DF1
:109CCC0004680F300394FEF7DBFA04F114000490DF
:109CDC00217D002021F07301882908BF0120059007
:109CEC000398001D06905D480068012840F0FA8337
:109CFC005B4D5C48DFF870912968DFF87081DFF804
:109D0C0074A1884221D11022002148464F46FBF70E
:109D1C00B7FE102200214046FBF7B2FE54490868FA
:109D2C0040F4801008600120514608600021296031
:109D3C00397846460091317841F211130422019191
:109D4C00072102900320F3F741FC51460791086864
:109D5C005649DFF85CB1012808915649DFF848A153
:109D6C00099155490A9144490B9144490C91444934
:109D7C000D9144490E9144490F9144491091444925
:109D8C00CC4D0200C8000000119144491291444985
:109D9C0013914449149144491591444916919F4992
:109DAC0017919F4918919F4919919F491A919F4961
:109DBC001B919F491C919F491D919F491E919F4941
:109DCC001F9140F000810498407800F003010129B4
:109DDC0040F0F9800499097801F00C01082940F051
:109DEC00F28006990988A1F13C010EB2059911B1D6
:109DFC00A6F1020636B2C0094FF0000715D3083E93
:109E0C0036B2032E10D0172E0ED0083E36B2032ECB
:109E1C0008D0172E06D0361F36B2032E14BF172EBD
:109E2C00022702E0032700E00127032E18BF172E9C
:109E3C00049A40F0C8800A3212F8011B052412F86B
:109E4C00013B4B40641ED9B2F9D181EA2111032E9A
:109E5C00944E0200C800000001F00F01484635D0B6
:109E6C004346CA5C521CCA540C1833E048570200D3
:109E7C000474002034126609585702006857020017
:109E8C00C8483080445702008057020078570200BF
:109E9C0010580200185802002058020028580200DE
:109EAC003058020038580200DC580200DA58020020
:109EBC000C580200E7580200D8580200E65802007D
:109ECC0054570200DE580200E05802000C182078AB
:109EDC00401C20702078434603EB01080A2876DBEF
:109EEC0098F800000A2872DB944800250160049859
:109EFC0000F10A094078410824BF0499091D04D2D5
:109F0C0080082EBF4946049910310B980622FAF7A7
:109F1C00B9FC0C9806224946FAF7B4FC9B489A49BE
:109F2C005C4F0200C8000000007808220860584608
:109F3C0007600D982946FBF7AFFD08220E982946BD
:109F4C00FBF7AAFD08220F982946FBF7A5FD08226E
:109F5C0010982946FBF7A0FD082211982946FBF71B
:109F6C009BFD082212982946FBF796FD07990220C3
:109F7C00086013992846088008990870149908708D
:109F8C001599086016990870179908601899086057
:109F9C0019990860099908800A9908801A9908800B
:109FAC007D490D601B9908701C9908701D990870EB
:109FBC001E9908801F9908805146088020780096C9
:109FCC000422019098F8000041F21413072102902A
:109FDC000320F3F707FB0798A24900682091A249D8
:109FEC00052821919E49229140F0378204984078AF
:109FFC0024500200C8000000410824BF0499091D28
:10A00C0005D2800827BF04990A31049910310B98A6
:10A01C00F8F72DFC0128049840F02382407800F0DA
:10A02C000300032818D0022807BF049910310499A3
:10A03C000A3113E04058020044580200485802000C
:10A04C00E8580200EA580200EB580200EC580200F3
:10A05C00E2580200E4580200049918310C98F8F701
:10A06C0006FC0499012840F0FC81497801F00301B9
:10A07C00012940F0F68159460968049A8E465146EA
:10A08C00D28A0B881211934200F037820A8006990B
:10A09C0009883C390BB27146491E09D0491E04D0BF
:10A0AC00491E08D1A3F1100304E0A3F1140301E04D
:10A0BC00A3F108031BB2059810B1A3F102031BB264
:10A0CC00EC500200C8000000002B00F1CE81169865
:10A0DC0040F2775199420B901498059000F0A381AF
:10A0EC00084600F13C009842059A00F09A81DFF88E
:10A0FC00488214780B9ABB2C12780C9263D1DDF841
:10A10C0068C0BCF90020914218BF90425BD11C2B57
:10A11C004FF00000C0F282813D2B139D80F27E81B6
:10A12C00A3F11C0109B229801E9ADDF83090B2F916
:10A13C000060B9F1010F15D1DDF82490032E0DDA72
:10A14C00B9F90070B94207D0012616804A460E466E
:10A15C0003E0C04688570200761C16801B9A1678BE
:10A16C001D9A16700C9A1F9E022A28D1B6F900204F
:10A17C00BEF1000F1AD0032A35460BDA0A9EB6F947
:10A18C000070B94204D001222A800A46354600E00C
:10A19C00B4510200C8000000521C2A801C990A7895
:10A1AC001D990A700FE0C04650570200A6640020AB
:10A1BC004C570200288005990870089A117841F0D4
:10A1CC000401117004464546ACF800002870CC2CF4
:10A1DC00099A40F00081DDF87CC00A991E9F454623
:10A1EC00B1F90060B2F900902878CDF850C0169102
:10A1FC000A97139209950C99012905D1059AB0EB90
:10A20C00490F01D1002111700C99022905D1059A31
:10A21C00B0EB460F01D100211170B3F5147F40F360
:10A22C00BA8040F251319942089940F3B4800978D0
:10A23C00062900F0B080A3F251210BB24FEAE301E2
:10A24C0003EB11714FEA2111CAB24FEAE30103EBA0
:10A25C001171159D21F00F01A3EB01031D992E68BF
:10A26C007C520200C800000091F800E05FFA83F80D
:10A27C0060B1311811F8011C5140CBB207E0C04657
:10A28C00505802004C580200D45802001346199939
:10A29C00DDF86CA0DDF870B0D1F800C000F00F0153
:10A2AC00994222D00A9B86459AF80010B3F90030E7
:10A2BC009BF8005015DD375C441C82EA070C04F057
:10A2CC000F0767450BD0A64506440ADD7678724029
:10A2DC00861C06F00F06964203D1C01C4DE0801C74
:10A2EC004BE0059E002232704AE000F01F01012273
:10A2FC008A401799C4100B6824F003015CF80170B4
:10A30C003A4232D15F583A4206441FD0189B3778F4
:10A31C001B68B84504D15858024219D0634615E061
:10A32C00A1108C001959914319510090307801906B
:10A33C0044530200C80000000320062102464DF6DB
:10A34C008053F3F763F9099928680E78361806E0FC
:10A35C00DB580200A0108100585802435A5086F86E
:10A36C0000800B9800780C901398B0F90090099825
:10A37C0000780A9A401C9BF800509AF80010B2F929
:10A38C000030099AC0B210700C9A012A03D188428D
:10A39C00C8BF8AF800000C99022907D1A842C8BF8F
:10A3AC008BF8000002E00A98B0F90030B9F1000F08
:10A3BC0006DD032B04D111980122494600F070FBF5
:10A3CC001698B0F9001014980029B0F9000005DDBA
:10A3DC00032803D11298022200F062FB059804783E
:10A3EC000B9800780C900898BB2C017802D0AA2C02
:10A3FC002FD031E00C9801280BD10D98179A1060D2
:10A40C000C540200C80000000F98189A1060199A9A
:10A41C0011981060474A159802600C9802280BD1CD
:10A42C000E98179A10601098189A1060199A129832
:10A43C001060414A15980260CC200FE00899097809
:10A44C000CE0022000E001200B9908701A990B8097
:10A45C0013990020088008980178BB20059A107089
:10A46C000629079911D1062008602098002505704F
:10A47C00219829460422FBF727FB012000F036FA2D
:10A48C00022000F033FA22980560079804990068BE
:10A49C00072844D10978039C802940D1383421788D
:10A4AC00641C224600293AD1209890F800A02298EA
:10A4BC000590D0F8009051464846FDF779F95FFABF
:10A4CC0080F8219F15785146484617F80830FDF75B
:10A4DC00D4540200C80000006FF91E461B1DC0B208
:10A4EC00385C001DA842284607DD8018821C1078B5
:10A4FC002D18AD1CADB2AB42F7DC04F8016B114961
:10A50C003246204601EB4811FAF7DCF9AD1BFF206F
:10A51C003419AD1E04F8010B257005980168491C0F
:10A52C00016007980068072804D00699086820F491
:10A53C008030086023B0BDE8F08FC0468C57020015
:10A54C00CC570200545802006D482DE9F0476D4D70
:10A55C0082894AF65521ADF5FE7D91424FF00001FE
:10A56C00ADF1380D10D1296041F2104181814FF6C7
:10A57C00FF706549086028680090022205210320BD
:10A58C0041F23423F3F74AF82968604C012920681A
:10A59C0040F0AF805E4D0228296823D15D480068E9
:10A5AC009C550200C80000005E4A125C00920191AA
:10A5BC005D49096802915A490B5C0320072104226A
:10A5CC00F3F730F85A494A795848009202790192C7
:10A5DC0040790422029003200B790721F3F722F82B
:10A5EC0003202060ECF71CFF20682968042815D193
:10A5FC000D208DF8100000258DF814508DF81510D5
:10A60C002846632100F0FCFA6321284600F086FA04
:10A61C0003A904A8E0F7CCFC05202060454D0528D3
:10A62C00296801F1010129601DD1434A8A421AD1DE
:10A63C0042480168009140680190032002460621BF
:10A64C00404E3346223BF2F7EDFF3D480168009146
:10A65C00406833460621019003200246F2F7E2FFE0
:10A66C00002028602068062847D14FF0070AC4F85C
:10A67C0064560200C800000000A0032048F270538A
:10A68C0001220421F2F7D2FFDFF8C880304F48F2E4
:10A69C007059012549EA0503012204210320F2F730
:10A6AC00C5FF002417F8020F20E0690104EB080233
:10A6BC008818C61C437800938078019030780290FB
:10A6CC00535C514604220320F2F7B0FF3878011B8B
:10A6DC00B1F1FF3F08D1F0780090B378032002224B
:10A6EC000521F2F7A3FF3878241DE4B2A042DCDC8C
:10A6FC00AD1CEDB2042DCDDB63214FF40570F1F7E9
:10A70C00A5FCE1F787FD7FB00EB0BDE8F087C04631
:10A71C00047400204857020040003D80445702005A
:10A72C005057020088570200585702006857020021
:10A73C005457020078570200805702004C57020011
:10A74C002C570200C8000000FFFF03003058020025
:10A75C00385802006655DDEED358020054580200FA
:10A76C0000000000000000000000000000000000DD
:10A77C0000000000000000000000000000000000CD
:10A78C0000000000000000000000000000000000BD
:10A79C0000000000000000000000000000000000AD
:10A7AC00000000000000000000000000000000009D
:10A7BC00000000000000000000000000000000008D
:10A7CC00000000000000000000000000000000007D
:10A7DC00000000000000000000000000000000006D
:10A7EC00000000000000000000000000000000005D
:10A7FC00000000000000000000000000000000004D
:10A80C00000000000000000000000000000000003C
:10A81C00F4570200C8000000000000000000000017
:10A82C00000000000000000000000000000000001C
:10A83C00000000000000000000000000000000000C
:10A84C0000000000000000000000000000000000FC
:10A85C0000000000000000000000000000000000EC
:10A86C0000000000000000000000000000000000DC
:10A87C0000000000000000000000000000000000CC
:10A88C0000000000000000000000000000000000BC
:10A89C0000000000000000000000000000000000AC
:10A8AC00000000000000000000000000000000009C
:10A8BC00000000000000000000000000000000008C
:10A8CC00000000000000000000000000000000007C
:10A8DC00000000000000000000000000000000006C
:10A8EC00BC580200C800000000000000000000007E
:10A8FC00000000000000000000000000000000004C
:10A90C00000000000000000000000000000000003B
:10A91C000000000000000000000000002DE9FE4FC8
:10A92C004A4A494D0090B2F9002043A3297801937B
:10A93C0043A301280293474EDFF81C81DFF81C91DA
:10A94C001ED0434804784801871930180199062213
:10A95C00F9F7CCFF40460178006807F1060707F8C5
:10A96C00011B07F8014B4FF0000107F8011B20B940
:10A97C00397028784E460A2158E0DFF8E4B00FE031
:10A98C00D4B248018719301802990722F9F7AEFFA3
:10A99C00FF1D0020DFF8CCB007F8014B07F8010BC6
:10A9AC00162CB246AEBF1420601EC0B238704E4694
:10A9BC0084590200C80000007F1C401CC2B22878D9
:10A9CC005B4600213254384600F010F92878162CDA
:10A9DC00315C01F10A01315400F10100C0B2287060
:10A9EC002BDB00990AEB401007460129A4F1010961
:10A9FC0009D001990622F9F77DFF40460078BF1D6A
:10AA0C0007F8010B04E002990722F9F773FFFF1D09
:10AA1C0007F8014B153C15212878E2B25B4607F884
:10AA2C00011B325407F8019B384600F0DFF82878F8
:10AA3C00315C0A313154401C2870BDE8FE8FC04691
:10AA4C005454544B455900C0545454535349440026
:10AA5C004C580200DE580200E05802005458020024
:10AA6C0054570200D4580200CC5702008C570200F5
:10AA7C007EB504460D4694F83610154A072918BFC2
:10AA8C004C5A0200C800000011680AD10121116063
:10AA9C00124B0D2604F12402761E42F8143F53602B
:10AAAC00FAD194F836000E4E0090306841F2121331
:10AABC0004220190029107210320F2F7CBFD2946D5
:10AACC002046E7F781FC31680022052902D10549AF
